:10000000F0490020054F000001510000055100009B
:1000100000000000000000000000000000000000E0
:100020000000000000000000000000000951000076
:1000300000000000000000000D5100001151000000
:10004000014F0000014F0000014F0000E9130000C4
:10005000014F0000014F0000014F0000014F000060
:10006000014F0000F13300000134000011340000A2
:10007000213400003134000041340000014F000001
:10008000014F0000192D0000292D0000392D00001E
:10009000B5070000C5070000D5070000E507000010
:1000A000F50700006913000079130000F134000027
:1000B000F1220000014F0000014F000010B5064C76
:1000C0002378002B07D1054B002B02D0044800E019
:1000D00000BF0123237010BDBC02002000000000FF
:1000E00034940000084B10B5002B03D00749084892
:1000F00000E000BF07480368002B00D110BD064B8D
:10010000002BFBD09847F9E700000000C002002058
:10011000349400003494000000000000F0B5D6468E
:100120004F464646C0B580268223DB059846B0443C
:1001300043469E610020134FB84702000023124C33
:10014000002512196B4110001900104B9946104AF6
:100150000023C8470F4B9A46984743465E610020EC
:10016000B8473222002300210B4EB04700196941E5
:10017000074A0023C847D0471CBC90469946A24670
:10018000F0BDC046CD4C0000BFCF6A00E560000066
:10019000C0CF6A00010000202561000010B5C30730
:1001A00029D54022244B9A61830728D52022224B4F
:1001B0009A61430727D510221F4B9A61030726D562
:1001C00008221D4B9A61C30625D504221A4B9A6159
:1001D000830624D50222184B9A61430623D50122B7
:1001E000154B9A61C00922D180221206124B5A6126
:1001F000124B984710BD40220F4B5A61D4E7202282
:100200000D4B5A61D5E710220B4B5A61D6E70822F5
:10021000094B5A61D7E70422074B5A61D8E70222FB
:10022000054B5A61D9E70122034B5A61DAE7802274
:100230001206014B9A61DBE7800000411D010000BE
:1002400010B5002918D1802292000E4B5A610E4B36
:10025000984700200D4B98473222002300210C4C78
:10026000A0470C4A0023801859410B4A00230B4C2D
:10027000A0470B4B984710BD80229200014B9A611A
:10028000E5E7C046800000419D010000CD4C000024
:1002900025610000BFCF6A00C0CF6A00E5600000A2
:1002A0000100002010B50021014B984710BDC04649
:1002B0004102000010B501200B4B984700200B4B6A
:1002C00098470200002319008018594180185941AD
:1002D000074A002380185941064A0023064CA047CC
:1002E000064B984710BDC046A5020000CD4C00004B
:1002F000BFCF6A00C0CF6A00E560000001000020A7
:1003000010B502200B4B984700200B4B984702007A
:10031000002319008018594180185941074A0023C9
:1003200080185941064A0023064CA047064B9847BF
:1003300010BDC046A5020000CD4C0000BFCF6A0032
:10034000C0CF6A00E560000001000020F8B5DE467D
:1003500057464E464546E0B5384D18232B700020D1
:10036000374B9B469847374B9A4632220023002151
:10037000D047354E002780197941344B9946344A8D
:100380000023C847334B9846984780228223DB05D9
:10039000D3188021890059610139FF3959615A61A7
:1003A0000020D847322200230021D047801979410C
:1003B000274A0023C847C047202628783043C0B2C8
:1003C000254CA0470020D847244A00230021D047CD
:1003D000234A002380185941224A0023C847C047B6
:1003E00028783043C0B2A0470020D8479622002387
:1003F0000021D0471A4A002380185941194A002386
:10040000C847C04728783043C0B2A0472878304357
:10041000C0B2A0470622144B1A700E20A047134BFF
:1004200098470222124B1A700620A047114B98479A
:100430003CBC90469946A246AB46F8BDD902002086
:10044000CD4C000025610000571B0000E560000056
:10045000581B000001000020A502000094110000BC
:10046000BFCF6A00C0CF6A00D8020020B5020000EA
:10047000DA0200200103000070B584B06A460B4B1D
:1004800070CB70C21B681360032901D8132801D9EF
:1004900004B070BD89006B46CB58C01880235B4206
:1004A0001843C0B2024B9847F2E7C046C48E000022
:1004B000A502000010B5054B187802229043187071
:1004C00008231843024B984710BDC046D8020020AD
:1004D000A502000010B50121014B984710BDC04690
:1004E0004102000070B503000D0007201840C00055
:1004F00040231843054B98472C000835044E2078BC
:10050000B0470134AC42FAD170BDC046A50200002C
:10051000D504000070B504000078002805D0034D14
:100520000134A84720780028FAD170BDD504000016
:10053000F0B5C64600B582B00023002269465A5481
:100540000133082BFAD105260025073B984602AC5B
:100550000B4F4146B14049B26B461A780A431A70B4
:1005600001339C42F9D10135EDB269462800B84704
:10057000013E052DEDD102B004BC9046F0BDC04651
:10058000E5040000F0B5C64600B504002D23C35CA9
:100590004568AB420AD35B1B2D2283542C23E25CBB
:1005A000052A10D89300444AD3589F4600222D2391
:1005B000C254F3E70023E36023626361A362012175
:1005C0002C22A154236004BC9046F0BDA768002FE4
:1005D00014D0E668390001204042384B98477043F8
:1005E0002060AD19E560AF42EDD201235B4223608C
:1005F00002222D33E2540023E360E4E701235B424F
:10060000236002222D33E254DDE72769002F16D044
:10061000E3691B0698466669D8433900274B98471B
:100620007043C0432060AD196561AF42CBD24346F1
:10063000236003222C23E25400236361C3E7E369B0
:10064000236003222C23E254BDE7A369002B0ED0C4
:10065000E26912062260226A944665442562AB4232
:10066000B1D204222C23E25400232362ABE70422FC
:100670002C33E254A7E7676A002F16D0E3691E0601
:10068000A36A9846390030000C4B984743465843BC
:10069000361A26604544A562AF4294D200232360F7
:1006A00005212C22A154A3628DE705222C23E254BC
:1006B00089E70023236086E7D48E0000595F00009D
:1006C000C078704710B504002D23C35C002B13D1F4
:1006D00041686420094B98472D23E0540022013BD8
:1006E000E254074A074BE41A2411074B5C430123E9
:1006F000A34011780B43137010BDC046595F000032
:10070000DB0200205C270020ABAAAAAA014B1878C4
:100710007047C046DB0200200022014B1A70704770
:10072000DB02002010B50023C360436103628362D3
:10073000036005242C2284544160383282600261B7
:10074000826142621C32C261533A835410BD000080
:1007500070B58000164BC45823689D7A227E637E54
:1007600013401D40EB0706D4AB070BD4EB0610D4A7
:10077000AB0615D470BD2000A368984701232268FA
:100780009372F1E72000E36898470223226893728E
:10079000ECE7200023699847102322689372E7E76B
:1007A000200063699847236820229A72E2E7C046D6
:1007B000D01A002010B50020014B984710BDC0464C
:1007C0005107000010B50120014B984710BDC046ED
:1007D0005107000010B50220014B984710BDC046DC
:1007E0005107000010B50320014B984710BDC046CB
:1007F0005107000010B50420014B984710BDC046BA
:100800005107000030B587B001A90C4B0A0032CB6C
:1008100032C212CB12C2019B98420BD0012301A914
:100820009A005258824206D00133052BF8D100209D
:1008300007B030BD0023D8B2FAE7C046EC8E000006
:10084000F0B5C64600B58EB004000D0016000800D5
:10085000A74B984780460CAB1E221A705A70013283
:100860009A70DA7001321A7102A9A24B14330A008D
:1008700083CB83C283CB83C283CB83C21B681360C9
:100880000023A360E36023616361237663764346BC
:100890009A00994BD45025603423F35CA376F37807
:1008A000082B08D023712B680520DB0708D50EB074
:1008B00004BC9046F0BD17204246D207F7D4F1E7BA
:1008C000EB7A17309B07F2D42B689B07EFD4337C6D
:1008D000002B00D08EE0337F002B00D096E0434603
:1008E0005A0002A9531C9B0058584346DB005B5832
:1008F000D9B2012900D19EE0002900D196E0022959
:1009000000D19DE0F378082B00D19EE033786A4651
:1009100013700CAB42469F5C69463800774B984792
:100920003800774B9847F378F2791343B288134332
:10093000727A002A02D0802252021343B27A002A2D
:1009400002D0802292021343F27A002A02D080223F
:1009500052031343327B002A02D0802292031343B6
:1009600071788901B278D201114319432268136961
:10097000002BFCD1296022681369002BFCD1B379CC
:100980002B73717B4B1E99418900B37B002B01D0E7
:100990000123194322681369002BFCD1FF332B710B
:1009A000002904D022681369002BFCD16971337AC5
:1009B0006B7322681369002BFCD12379042B67D059
:1009C000082B00D181E01720002B00D06FE71369BE
:1009D000002BFCD1338DAB8222681369002BFCD134
:1009E000738DAB8322681369002BFCD1B38DEB832D
:1009F00000205CE701A901238B700022CA70327EBF
:100A00000A704B70307D3F4B984764E701A9012382
:100A10008B700022CA702432B21812780A704B70A0
:100A20001F33F3181878374B984758E736494B6906
:100A30001843486166E734498B691843886161E768
:100A4000314BD9690843D8615CE743460133042B35
:100A500000DD5BE702ABD11C8900C958023292006D
:100A6000D358DAB2012A0ED0002A07D0022A00D0C9
:100A70004CE7254BDA691143D96147E7224A5369AC
:100A80001943516142E7204A9369194391613DE757
:100A90001369002BFCD12833F35C2B752268136992
:100AA000002BFCD12933F35CEB7622681369002B11
:100AB000FCD12A33F35C2B7722681369002BFCD11D
:100AC0002B33F35C6B770020F1E61369002BFCD12C
:100AD000B36A6B6122681369002BFCD1F36AEB6186
:100AE00022681369002BFCD1336B2B620020DEE6F9
:100AF00005080000EC8E0000D01A0020A94D00006F
:100B0000394D0000A54E00000008004010B50468F3
:100B10002369002BFCD10379042B06D0082B28D0A5
:100B2000002B13D01723180010BD17230129FAD862
:100B3000837E002B05D0D2B2611830310A700023B9
:100B4000F1E7D2B2641822770023ECE717230129DA
:100B5000E9D8837E002B05D092B2183149000A53A0
:100B60000023E0E792B20C3149006418A280002310
:100B7000D9E717230129D6D8837E002B05D106316A
:100B80008900641862600023CDE70C3189000A51A6
:100B90000023C8E702681369002BFCD10379042BFA
:100BA00005D0082B1AD0002B0DD017207047837E5C
:100BB000002B04D0C9B22F23D1540020F6E7C9B2CC
:100BC000D1760020F2E7837E002B03D089B2118614
:100BD0000020EBE789B291830020E7E7837E002BBA
:100BE00002D1D1610020E1E711630020DEE70000BF
:100BF00010B58222D205136A126A5B0B01210B40E9
:100C00005B00120B4A400A401343064A1370064821
:100C100002781C00944303700120214201D1620834
:100C2000500010BDDC020020DD02002070B5002065
:100C3000084B98470500084CFA218900A047074B4C
:100C4000186007492800A047064B18600522064B8C
:100C50001A6070BDCD4C0000595F00000C000020F0
:100C600040420F001000002010E000E010B582B0FC
:100C700001600E49CC6980235B032343CB610023D1
:100C800043608360C360036143618361037743779B
:100C9000074B186001A913780B702820054B984763
:100CA0002820054B9847002002B010BD00080040E6
:100CB000A81F0020A94D0000394D000070B5006844
:100CC0005468537A2500002B01D040252543137822
:100CD000547D2343148A568A34432343D4682343E0
:100CE0002B437F25046A2542FCD10C1DA400235010
:100CF000137D013BDBB240180373002070BD000080
:100D0000064B984208D0064A0023904201D01800B2
:100D100070470133DBB2FAE70023FBE700440042EF
:100D20000048004210B50023002203704370837016
:100D3000C370002103830362C36101240471C024D2
:100D40006401C480017242728272C27202732A24E8
:100D5000025542738273C27303610275063C0255E9
:100D6000C3840385417510BD70B505682C8CA4B291
:100D7000002CFBD16C890C4E3440214369810468FE
:100D8000218C89B20029FBD192B2EA8101680A8CD8
:100D900092B2002AFBD19BB22B820268138C9BB2C9
:100DA000002BFBD170BDC046FFF8FFFFF0B5DE465B
:100DB00057464E464546E0B59FB005000E00170069
:100DC0000800984B9847040001902E60964AD3691A
:100DD0008000964941580B43D36133780520DB07E7
:100DE00006D51FB03CBC90469946A246AB46F0BD26
:100DF0002A68138C9BB2002BFBD133781C209B07F5
:100E0000EFD47B782B71002B04D1894AD36904215C
:100E10000B43D3610023AB60EB602B61AB76EB76C9
:100E20002B832B77A300834A9D502A23FB5C002B46
:100E300005D13B7B002B02D101336B7701E000230E
:100E40006B772B689A463B7804AA13707A4B1E5D29
:100E500011003000794B98473000794B98473B7927
:100E6000984606AE774B9C463200190049C949C2E4
:100E700049C949C249C949C249C949C212A96346B7
:100E800030330A0043CB43C243CB43C243CB43C2BC
:100E900043CB43C2019B002B04D012A9012B02D0EB
:100EA000002100E006A9A300674A9B589B4698458D
:100EB00022D9FB88984606AE624B9C463200190048
:100EC00049C949C249C949C249C949C249C949C2AE
:100ED00012A9634630330A0043CB43C243CB43C21B
:100EE00043CB43C243CB43C2019A002A12D012AB78
:100EF000012A10D000230EE043469800405805A96F
:100F000000234B70CB708B7001330B70C0B24F4B12
:100F10009847CEE706ABD8450AD900210026012321
:100F20009946484B984603945B460293AB4620E0B3
:100F300042469000C05805A900234B70CB708B70BF
:100F400001330B70C0B2414B9847E6E706AB89000E
:100F5000C85805A900234B70CB708B704B460B70A3
:100F6000C0B23A4B98470136F6B23100029B9E421E
:100F700023D84B46B3403A691A42F4D006A803007E
:100F8000424631CA31C331CA31C331CA31C331CA11
:100F900031C312A843463033020031CB31C231CBCA
:100FA00031C231CB31C231CB31C2019A002ACDD00E
:100FB00012AB012ACBD00023C9E75D46039C7B7BA3
:100FC0009B01BA7BD2011343DBB2524613703B7DC7
:100FD000DB017A781343DBB252469370FB78342BF3
:100FE00000D94FE19B001A4AD3589F46042210268D
:100FF000022132E0797A3A7A10262EE00622102673
:1010000001212AE008221026002126E000223026B5
:10101000002122E00022202600211EE000220026DE
:1010200000211AE0010D0000000800405C90000063
:1010300000180040E41A002084900000A94D000030
:10104000394D0000FC8F00007C900000A54E000090
:10105000288F0000022210260121090170230B4075
:101060001343524613732A68138C9BB2002BFBD197
:101070007B7D17203F2B00D9B3E6FA7BD2011343C7
:10108000DBB2524653732A68138C9BB2002BFBD100
:10109000BB78524653702423FB5CDB003A7B920002
:1010A0001A43FB7A1343BA7A52001343334352462E
:1010B00053812A68138C9BB2002BFBD13B8B002BF6
:1010C00020D0102E00D1BFE000D87FE0202E00D12C
:1010D0009CE0302E16D1FA7A002A0AD0FA698032C2
:1010E0001720FF2A00D97CE63A6A8032FF2A00D90D
:1010F00077E61720FA69FF2A00DD72E63A6AFF2ACE
:1011000000DD6EE6524652891343524653812A68E7
:10111000138C9BB2002BFBD1BB8B5246D3812A6828
:10112000138C9BB2002BFBD13B8C524613822A6856
:10113000138C9BB2002BFBD13B79FA8813435246A8
:1011400013812A68138C9BB2002BFBD12A33FB5CE2
:101150005246D370072313711D33FB5C002B1DD047
:10116000FB8C494A1720934200D93AE652465382F3
:101170002A68138C9BB2002BFBD13A8D80231B0174
:10118000D31841499BB217208B4200D929E6534618
:101190009A822A68138C9BB2002BFBD1A2003B4B96
:1011A000D3583B49095D1B68CB401B02E021C900B5
:1011B0000B40384952583849095D1268CA40072126
:1011C0000A4013435246938500200AE6002E99D127
:1011D000FA7A002A0FD0FA69802109018C4662440C
:1011E000294917208A4200D9FBE53A6A6244264918
:1011F0008A4200D9F5E5244A1720F969914200DDB9
:10120000EFE5396A914200DDEBE57BE7FA7A002AE7
:101210000FD0FA69802189008C4662441F4917204B
:101220008A4200D9DDE53A6A62441C498A4200D903
:10123000D7E51A4A1720F969914200DDD1E5396AEC
:10124000914200DDCDE55DE7FA7A002A0FD0FA6918
:10125000802109028C466244114917208A4200D934
:10126000BFE53A6A62440E498A4200D9B9E50C4AA0
:101270001720F969914200DDB3E5396A914200DD3A
:10128000AFE53FE71720ACE5FF0F000070900000CE
:1012900078900000649000006C900000FF03000054
:1012A000FFFF000070B580002E4BC45823689A7968
:1012B0005D791540EA072AD501229A716269931C6B
:1012C000636123689B8C9BB21380238B013B9BB291
:1012D0002383002B15D0637F002B18D02268D3798D
:1012E0005BB2002B13DB138C9BB2002BFBD1137E64
:1012F00002210B4313762268138C9BB2002BFBD187
:1013000005E0012322681371237F052B16D06B079C
:1013100008D5042322689371E37E9B0702D5A37E40
:101320009B0717D4AB0708D5022322689371E37E8D
:101330005B0702D5A37E5B0710D470BD0023237723
:10134000E37EDB07E3D5A37EDB07E0D52000A368BF
:101350009847DCE72000E3689847E3E7236920002B
:101360009847EAE7E41A002010B50020014B98479F
:1013700010BDC046A512000010B50120014B9847D2
:1013800010BDC046A5120000931C9B0019500123FC
:1013900093401A00837E13438376704710B5038B06
:1013A0009BB20524002B01D0200010BD037F052B2C
:1013B000FAD00523037702834161043B026853712D
:1013C000437F0024002BEFD00268138C9BB2002BCC
:1013D000FBD1137E02210B4313760268138C9BB260
:1013E000002BFBD10024DFE770B50022104B1A70F0
:1013F000002310491F25104E0D4C0AE00D4908E04E
:1014000023780133DBB223700F2B10D800211F2B60
:10141000F4D9280018400122824048691042EFD0D8
:101420004A619B009B59002BEAD09847E8E770BDC2
:10143000EC1A002000280040F01A0020064A137819
:1014400002210B431370012053681942FCD15368E9
:101450001842F9D17047C0460028004000B583B05B
:10146000174A51698023DB000B43536101A9002314
:101470000B700220134B98470220134B9847134AD6
:10148000137801210B431370013101205368194275
:10149000FCD153681842F9D10C4A137810218B43C0
:1014A00013700B4B19004031002204C38B42FCD156
:1014B0000822084B1A60084B984703B000BDC0468D
:1014C00000080040A94D0000394D000000280040F0
:1014D000F01A002000E100E03D140000F0B5D6460F
:1014E0004F464646C0B58AB006000F001400316072
:1014F0000800A24B9847451C05281ED01330A04A6F
:10150000D1690123AB400B43D36109A9237B0B7045
:10151000C5B228009B4B984728009B4B9847207BDF
:1015200000219A4B98473B681C209B0707D50AB0BF
:101530001CBC90469946A246F0BD1920DFE73B68E7
:101540001738DB07F3D430688C4B99469847050071
:101550008F49904B9847AD008F4BEE500023337668
:10156000737600257383B3832522B5543362143315
:101570003B60336898461800C8478146802308AA14
:101580001370557001239370D570E069276A0028A5
:1015900000D1AFE008AB1870022308AA5370000C0A
:1015A000C0B211007D4B9847002F00D1A7E008ABD7
:1015B0001F70022308AA53703F0CF8B21100774B3A
:1015C0009847A38AF380E38A3381237E8022002B0D
:1015D00004D1734B9B789B07DB0FDA01A168236969
:1015E0000B4313432422A25C002A02D08022D2059E
:1015F0001343A26A13432C22A25C002A03D1802247
:101600009204914202D18022120513432D22A25C42
:10161000002A02D08022120413432E22A25C002A48
:1016200002D08022D203134342461268134342463B
:10163000136080235B0053604D461335E8B2594B6D
:1016400098470790FA239B0022685A4391466368A3
:101650009A46554DA847009001914B465800A8471F
:1016600002900391208EA847049005914F4F504A55
:10167000504B00980199B84702000B000498059957
:10168000B8474D4E00224D4BB04704900591484657
:10169000A84702000B0004980599B84702000B0008
:1016A000474D00980199A847029A039BB047002232
:1016B000444BA847029A039B434DA847434B984786
:1016C000050080239B04A2689A421ED0030040209C
:1016D000FF2D00D92BE700240020FF251D40240604
:1016E00025430004FF231B04184005434346DD60E7
:1016F00000201CE700214046354B98474AE701216E
:101700004046334B9847070051E7FA26B600534648
:101710005E430098019902000B00274CA0470090FF
:1017200001913000204B984700222A4BB847020015
:101730000B0000980199244CA0470022214B204C1B
:10174000A047224B9847041E0CD031000798224B2B
:1017500098470238001B2B00FF2D0CD8FF28BCD95E
:101760004020E4E67100481E079B9C4660441A4BEB
:1017700098470138EFE74020D9E6C046D926000057
:1017800000080040A94D0000394D0000112500005F
:10179000B91A000085330000901F0020A54E0000FC
:1017A00000200041CD4D000079830000E577000066
:1017B00095D626E80B2E113E5D6B000000002440FC
:1017C000E57C00000000F03F7D7100001183000007
:1017D0005D25000000000840595F000003681A7E84
:1017E000920707D502221A765B8B9B074120DB17F5
:1017F000184070475A8B520706D55968C02292028A
:101800000A435A601820F4E70020F2E730B5026876
:10181000002301240225117E21420BD1117E294291
:1018200006D101339BB201899942F4D8122002E01B
:10183000002000E0002030BD10B5046862688023FD
:10184000DB02134363606162024B984701232376F6
:1018500010BDC0460D18000001680722CB691A426E
:10186000FCD1704770B5040006683268458B838BE5
:10187000ED1AADB2838B013B9BB2838313011DD55F
:10188000C37A002B03D0838B9BB2012B10D0A38B88
:101890009BB2002B02D1A37A002B1CD12000124B4B
:1018A0009847236A5D192823F35CDBB22B7070BD67
:1018B00072688023DB0213437360E8E7C37A002B6E
:1018C000E5D0838B9BB2002BE1D172688023DB02D1
:1018D00013437360DBE72000034B98477268C02313
:1018E0009B0213437360D9E75918000070B50400D8
:1018F00005686B8B5B0703D51E222523C25470BD80
:10190000468B838BF61AB6B2838B013B9BB28383E3
:10191000044B9847236A9E193378DBB22822AB54D4
:10192000EDE7C0465918000070B505000C000668C8
:101930004B7A002B1AD17368134A134073606368A3
:101940002B626388AB8300222423EA5405320133DF
:10195000EA54223BB375237A002B0BD123885B001A
:10196000627A920313437362002070BD897A074B39
:101970009847E0E723885B00627A92031343802252
:10198000120213437362EFE7FFFFFBFF39180000F9
:10199000F8B505000C0006684B6803624B8883832A
:1019A00001222423C25404320133C25437683F0158
:1019B000FF0F4B7A002B17D1002F02D06388012B29
:1019C00016D07368204A13407360237A002B15D118
:1019D0000323B37523885B00627A920313430122C9
:1019E000134373620020F8BD897A184B9847E3E7E8
:1019F00072688023DB0213437360E6E723885B0091
:101A0000627A920313438022120213437362280006
:101A10000F4B984773680C4A134073600028E2D15B
:101A200028000C4B98470028DDD10323B375238889
:101A30001B0A782213435B00627A920301210A4356
:101A400013437362CFE7C046FFFFFBFF3918000066
:101A50000D180000DD170000931C9B00C31859608F
:101A6000037E012191400B43DBB2037670470000F7
:101A700010B5838B9BB20522002B01D0100010BD46
:101A800001338372C372024B98470200F6E7C046E7
:101A90009119000010B5838B9BB20522002B01D059
:101AA000100010BD01338372C372024B98470200CD
:101AB000F6E7C0462919000070B58000754BC45880
:101AC00025682B681B01DA0F637E267E1E40638B20
:101AD0009BB2002B03D1A38B9BB2002B23D1638B32
:101AE0009BB2002B08D0A38B9BB2002B04D12533D3
:101AF000E35C052B00D16DE0638B9BB2002B24D0FF
:101B0000A38B9BB2002B20D06B8B9B0600D581E072
:101B1000002A04D0A38B9BB2012B00D17AE0412292
:101B20002523E25411E02B7EDB0707D501232B761A
:101B30006B8B9B072ED541222523E254A38B9BB2AE
:101B400063832523E35C052B38D0638B9BB2002B8A
:101B500007D0A38B9BB2002B03D12533E35C052B6D
:101B600064D02523E35C052B13D02523E35C002BF5
:101B70000FD003232B7500236383A3832533E35CFA
:101B8000412B03D0A37A002B00D075E0730700D55A
:101B90007BE070BD6B8B5B07D0D518222523E25408
:101BA0000023A383A37A002BC8D020003A4B984788
:101BB0006A68C0239B0213436B60BFE71F33E35C7B
:101BC000002B03D02000354B9847BEE72000344B54
:101BD0009847BAE71F33E35C002B00D08CE7033350
:101BE0002B750023638325330022E254A37A002B54
:101BF00007D101232B76F307A7D5E3682000984788
:101C0000A3E72000244B98476A68C0239B02134334
:101C10006B60F0E72423E35C002B03D12000204B12
:101C2000984792E720001D4B98478EE71F33E35CEF
:101C3000012B96D12B7E9B0701D502232B76032304
:101C40002B750023638325330022E254B30703D5A9
:101C50002423E35C012B0BD0F30700D481E724237A
:101C6000E35C002B00D07CE7E3682000984778E72E
:101C700023692000984774E72000074B98476A685B
:101C8000E023DB0213436B6080E763692000984721
:101C90007FE7C046901F002059180000651800001B
:101CA000ED180000024A137804210B4313707047AB
:101CB000401F002030B593B08023DB050093002344
:101CC0000193FF2269460A81CB7201222C216846CA
:101CD0004254013142542D328354013283540C93C7
:101CE00005328354059300220382C276079303844E
:101CF000438402762423C25442761323837613331B
:101D0000C254013BC254284B0A9380235B030393C4
:101D1000264B0E93264B0F9301235B421093119396
:101D20004133837203220B3BC254224D224C6A463C
:101D300022492800A0470028F9D11E4D2C68200018
:101D40001F4B98471F2318401E3B83401D4A1360BA
:101D50002A68D369002BFCD1236802221343236035
:101D6000144B1B68DA69002AFCD1596880225202A0
:101D70000A435A6001210F4AD171DA69002AFCD165
:101D80000020114B984702000023104800218018C2
:101D900059410F4A00230F4CA0470F4B98470F4B58
:101DA000984713B030BDC04690D003000200300009
:101DB00002003100441F0020492D0000001800429D
:101DC000C133000000E100E0CD4C0000571B0000D3
:101DD000581B0000E560000001000020A51C000069
:101DE00010B5224B98470022214B224CA0470022DD
:101DF000214B224CA04702000B0000202049214C1F
:101E0000A047214B98478F21C905204B9847204B6D
:101E1000984780B21F4B9B899BB2984224D01D4BA0
:101E20001A6802218A431A605A681B490A405A609C
:101E30005A681A490A405A601A00D369002BFCD12B
:101E4000144B98815968802252020A435A6059689B
:101E5000802292020A435A601A6802210A431A60D9
:101E60001A00D369002BFCD110BDC0467983000055
:101E700000003040E577000060E386417D7100009E
:101E80000000F03FE57C00008D84000079640000D4
:101E90007961000000180042FFFFFEFFFFFFFDFF19
:101EA000F0B583B004000D00802252038223DB05CD
:101EB0009A6100226B46DA710F48104B9847104E1A
:101EC000104F01226B46D91D3000B8470028F8D1C9
:101ED0000D480A4B98470A4E0A4F01226B46D91DFE
:101EE0003000B8470028F8D12A0021000448054BEB
:101EF000984703B0F0BDC046A0860100E11D000078
:101F0000441F0020A931000090D0030000B583B029
:101F100001A900230B704B7008225020044B9847F6
:101F2000044B98470268044B1A6003B000BDC046DA
:101F3000CD3B0000313C0000781F002010B584B07C
:101F40000922002101A8144B9847144B18686B46CE
:101F50005A1D00230100D940117008330132402B73
:101F6000F8D101AA092150200D4B984700200D4BB4
:101F7000984702000023910F9000801859410A4AA7
:101F8000002380185941094A0023094CA047094BF6
:101F9000984704B010BDC04663860000781F00203B
:101FA0006D3B0000CD4C0000571B0000581B00008B
:101FB000E560000001000020202801D90748704793
:101FC000074B1B68C340DB0701D40448F7E78823AD
:101FD0009B005843403080B2F1E7C046FFFF00004D
:101FE000781F002010B5094B1C6800230022012037
:101FF00002E00133202B06D02100D9400842F8D05E
:102000000132D2B2F5E7014B1A7110BD781F0020E2
:1020100010B5024B9847024B984710BD0D1F0000AA
:10202000E51F000010B582B0040008000B4B984774
:1020300001A9030A0B704870882292005020084BB7
:102040009847084B9847002388218900C25CE254D6
:1020500001338B42FAD1012002B010BDB91F00003C
:10206000CD3B0000313C0000F0B5D6464F46464619
:10207000C0B594B005008846462402AB9C46644433
:1020800088239B0023806981384A01238B40116893
:102090000B431360364B98474046364B9847804673
:1020A00023889BB2002B5BD0462402AB9C46644441
:1020B000AA4631E0022303A95546EA5C5A5401338B
:1020C000422BFAD1AA462388403B9BB22380434649
:1020D00040339BB2984603A9C9B242225020264BF6
:1020E00098470020254B984706000027830F01934F
:1020F00083000093009A019B92197B4120480021A4
:10210000801859411F4A00231F4DA8471F4B98476D
:1021100023889BB2002B23D003AB4246120A1A70CD
:1021200042465A7023889BB2402BC3D82188023183
:10213000022303AA5546022908DDE95CD154013384
:102140009BB2218802318B42F7DBAA460023238011
:102150002288023203A9C9B25020074B9847C0E732
:1021600014B01CBC90469946A246F0BD781F0020D2
:102170003D1F0000B91F00006D3B0000CD4C00006A
:10218000571B0000581B0000E56000000100002004
:1021900003681869431E9841C0B27047002303705A
:1021A0000122427083700371C37043718371704761
:1021B000F0B5C64600B582B0050014000160284A9B
:1021C000D06980239B030343D3610B781C209B07BA
:1021D00003D502B004BC9046F0BD0B781738DB077E
:1021E000F7D401A9E3780B701F301E4B98472420C9
:1021F0001D4B984700266B465E70DE7001236A46D1
:102200001370967069460220184B98472F686378C0
:102210002B71AE7163795A1E93419B0122789046CF
:10222000A278002A03D0042241461143884622792D
:10223000002A03D00822414611438846DBB23B7096
:102240000B4E2800B0470028FBD143467B70237813
:102250006B7100236B61AB61EB61064B1D60B8E7EE
:1022600000080040A94D0000394D0000A54E0000B7
:1022700091210000801F002070B5040005686B7874
:10228000027913436B700C4E2000B0470028FBD13D
:102290002B78022213432B706379002B04D1074A59
:1022A000D36904210B43D3612B789B0703D501220B
:1022B000EB791342FCD070BD912100000018004062
:1022C0007047704770470000F8B5040017000668B3
:1022D000064D2000A8470028FBD1A379002B02D18E
:1022E00037810020F8BDB781FBE7C046912100008F
:1022F00070B5274B1C682568AB79DB0707D5012330
:10230000AB712300143302D0637C002B31D1AB7945
:102310009B0738D50223AB71A3899BB2002B2CD02D
:10232000E3899BB25A1C92B2E2815B00A268944698
:1023300063441B889BB2AB81A389013B9BB2A38101
:10234000A3899BB2002B18D100222033E2541E3BFC
:102350002B71AB71802149057E330E4AD150230089
:10236000143310D0A37C002B0AD00020E3699847D7
:1023700006E00020A3699847C9E72300143302D080
:10238000237C002B00D170BD636900209847FAE7D9
:10239000801F002000E100E0F0B5DE4657464E46C3
:1023A0004546E0B587B08046049116001F00002224
:1023B000002300218B463F24012021000096019735
:1023C0005C4603944446059413E02024641A0500F7
:1023D000E540A84614E0009C019D121BAB415C4601
:1023E0004D462C43A346039C45462C430394013998
:1023F00025D3202464420C19E7D40500A540A84643
:1024000004008C40A14692185B4114001D00059EFB
:102410004F463E40B446049E47463E40B24666465E
:1024200057463E4303D00600264332002B00009C53
:10243000019D9D42DBD8CED19442D8D8CBE7039BF7
:102440005846190007B03CBC90469946A246AB4698
:10245000F0BD10B5490840230024814202D2180083
:1024600010BD1C00091A631C9BB28842F9D9402395
:10247000FF2CF4D814800023F1E70000F0B583B0FE
:102480000F00160008AA117804004C434022BC42F9
:1024900002D9100003B0F0BD002B14D102000800D7
:1024A0000021194CA04701003A0000230020174CDE
:1024B000A04700220123121A8B41120C1B041A435D
:1024C00032800022E5E70022012BF9D10A00002327
:1024D00000210D4CA04702000B0000920193380030
:1024E00000210A4CA047050080239B01402298420E
:1024F000CFD8790FF800009A019BA047EA00821A12
:10250000D2B252032A43DBE7256100009923000081
:1025100010B582B004000E4B1B78002B07D00029A9
:1025200005D10B4B5B78834210D01D200CE001A934
:102530000C701220074B98471220074B9847044B0A
:102540005C7001221A70002002B010BD0020FBE771
:10255000E0020020A94D0000394D0000404B984298
:1025600031D00AD93F4B98424DD03F4B98425AD078
:102570003E4B984237D0002070473D4B98420CD0DC
:102580003C4B9842F7D1012917D000295DD0022990
:1025900015D0032915D00020EEE7012907D0002926
:1025A00051D0022905D0032905D00020E4E73248A4
:1025B000E2E73248E0E73248DEE73248DCE732481B
:1025C000DAE73248D8E7012907D000293FD00229AD
:1025D00005D0032905D00020CEE72D48CCE72D48B3
:1025E000CAE72D48C8E7012907D0002931D00229C0
:1025F00005D0032905D00020BEE72848BCE72848BD
:10260000BAE72848B8E7012907D0002923D00229D2
:1026100005D0032905D00020AEE72348ACE72348C6
:10262000AAE72348A8E7012907D0002915D00229E5
:1026300005D0032905D000209EE71E489CE71E48D0
:102640009AE71E4898E71E4896E71E4894E71E48FA
:1026500092E71E4890E71E488EE71E488CE7C0466A
:10266000000C00420014004200180042001000421A
:1026700000040042000800420300050003000600B9
:102680000300070002001100020012000200130004
:1026900002000D0002000E0002000F0002001700F1
:1026A00002001800020019000300290003002A009C
:1026B00003002B000300230003002000030021007F
:1026C000030004000200100002000C0002001600CB
:1026D000030028000300220030B587B00B4B6A4688
:1026E00032CB32C232CB32C2009B83420BD00123A9
:1026F0009A0069465258824206D00133062BF7D120
:10270000002007B030BD0023D8B2FAE7889000005F
:10271000094B98420CD0094B984207D0084A002335
:10272000904201D018007047023302E0012300E01C
:102730000023DBB2F6E7C046002400420028004236
:10274000002C004210B5040008004F4B98470023AE
:10275000236080004D4A82586260A372E372237343
:1027600063722372E36123626362A36223756375FC
:10277000A375E3752376637623746374A374E3749B
:102780002C22A3540132A3540132A3540132A35486
:102790000132A3540132A3540132A3540132A35491
:1027A0000132A3540132A3540132A3540132A35481
:1027B0000132A3540132A3540132A3540132A35471
:1027C0000132A3540132A3540132A3540132A35461
:1027D0000132A3540132A3540132A3540132A35451
:1027E0000132A3540132A3540132A3540132A35441
:1027F0000132A3540132A3540132A3540132A35431
:102800000132A3540132A3540132A3540132A35420
:102810000132A3540132A3540132A3540132A35410
:102820000132A3540132A3540132A3540132A35400
:102830004132A354A365A3670132A354E365E36760
:102840000132A35423661A3AA3501B32A354636681
:10285000173AA3501832A354A366143AA350153262
:10286000A354E366113AA3501232A35423670E3ADD
:10287000A3500F32A35463670B3AA35001210C32CB
:10288000A1540132A35410BD11270000B4900000E0
:10289000F0B5DE4657464E464546E0B591B001904C
:1028A0000C0015000800C34B984703000100C24804
:1028B000C2699E00C14FF7593A43C26122681C2089
:1028C000920706D511B03CBC90469946A246AB464D
:1028D000F0BD226801271740F4D1B94832581720BB
:1028E0002E68B242EED36E68B242EBD3E869824200
:1028F00000D2ABE1286A824200D2A9E1686A824232
:1029000000D2A7E1A86A824200D2A5E198229446AB
:10291000AC4462460892002003E0013001320828EE
:1029200008D01678002EF8D0A64E765C8642F4DCED
:102930001720C7E70022029280204004844602E06C
:102940000132042A0ED0A818007C0128F8D19E4834
:10295000405C904200DA81E160469040029E06436E
:102960000296EDE79D32AA5C002A04D08022120173
:102970000299114302912A7A511E8A4192000692CD
:102980006A7A012A22D0904AD25C1100059235223F
:10299000AA5C8A4200D36BE12C21695C0F2900D923
:1029A00066E1287B0A90E87A0B902D208246AA44A3
:1029B000002004970EAE0796C0263601B146844625
:1029C000A046280055460993824635E006991143F2
:1029D0000691D8E792024F463A400A4319798B464E
:1029E00003215F4639400A4316435A795201602158
:1029F0000A40324399790902C026B6000E401643B8
:102A0000DA791203E021C9010A4016433443039ADC
:102A100014432043624607995050042A2AD09A7CD6
:102A20000599914200D823E1597A0A3504239B463F
:102A3000DC440F2900D91BE10906F0231B051940CE
:102A40002B002E783604FF2000040640687880248E
:102A5000002800D1049C987808270397002801D10A
:102A600004980390D878834610205F46002FB1D198
:102A70000498AFE744465546099B524AD25C9146BA
:102A80005146503150464130002700220126B246BF
:102A90000226FF36B34680267602B046A4461C00C6
:102AA0004B460FE00678002E07D0934200D8D9E0BD
:102AB000022E14D05646964037430132013102307F
:102AC000082A10D00E78002EECD0934200D8C7E030
:102AD0004646964037430678002EE9D1EDE75E463C
:102AE00096403743E9E79946230064466A7E12011F
:102AF00030211140287E072202401143002280200D
:102B000040020E0002E00132042A0BD0A918097D10
:102B10000029F8D00599914200DCA5E00100914020
:102B20000E43F0E7B246019802000432343000212F
:102B300002C28242FCD10022019842638263990062
:102B4000224A88500460A022A95C643A81540DA9ED
:102B5000AA7A0A701E4AD65C30001E4B9847300095
:102B60001D4B98474B46002B3CDD2E0058369833C2
:102B70009846A84401239946AB464546A046089C82
:102B800003E001340436AC422AD02378002BF8D07D
:102B90000CAB4A469A7000230CAAD3701300202273
:102BA000B21812781A704A465A70307819000B4BD6
:102BB0009847E6E71127000000080040A0900000B9
:102BC000B4900000C0900000AC900000841F002072
:102BD000B0900000A94D0000394D0000A54E000046
:102BE00044465D460A9B1B030B9A12021343029A4A
:102BF000134323600422A3681A42FCD1FF232371EC
:102C00000422A3681A42FCD16B461B7E63710E9BA3
:102C1000E3600F9B2361A7615346E3631022A3681F
:102C20001A42FCD12B6863636B6823640598002803
:102C30001CDD1C35002202CD130010339B00E3186D
:102C4000596001329042F6DC00203BE6172039E65D
:102C5000172037E6172035E6172033E6172031E630
:102C600017202FE617202DE617202BE6002029E657
:102C7000172027E6920083185960034BD358426B04
:102C80001343436300207047C490000070B50400F4
:102C90000D000068094B9847094B1B5C1F221A4026
:102CA00001239340074A1360AD00074BEA58A36B1A
:102CB0001343A36323689A6270BDC04611270000C6
:102CC000F490000000E100E0C4900000F0B5C646BA
:102CD00000B580000E4BC7583B68DE6ABB6B7A6B51
:102CE00013401E4000240B4B984602E00434302C65
:102CF0000AD04346E5583542F8D03B195B683800A6
:102D000098473B68DD62F1E704BC9046F0BDC046E1
:102D1000841F0020C490000010B50020014B98478C
:102D200010BDC046CD2C000010B50120014B9847C6
:102D300010BDC046CD2C000010B50220014B9847B5
:102D400010BDC046CD2C0000F0B5DE4657464E46BD
:102D50004546E0B591B005000C001600296008005A
:102D6000D24B984705280DD007001337226805235A
:102D7000D20709D5180011B03CBC90469946A2462E
:102D8000AB46F0BD1927F1E7226817339207F1D45B
:102D9000C74AD16901301B3B83400B43D3610FA964
:102DA00035239846F35C0B70FFB23800C14B98474F
:102DB0003800C14B98474346F05C0021BF4B984711
:102DC000F37A6B712C23F35CAB712D23F35CEB7105
:102DD000F37E2B722423F35C6B722B680293180032
:102DE000B24B984705281DD0133000220E2306A9A8
:102DF0008C4663441A80338A98468023DB019845C9
:102E000000D1C3E010D9C023DB01984500D1B8E060
:102E100080231B02984500D066E10323069300231C
:102E200007930AE01920E0E780239B01984500D032
:102E30005AE1102306930F3B079333680593F36819
:102E40009B4673690393337E04932E23F35C9A4667
:102E500073689946002B00D1C5E080235B05994536
:102E600000D1A8E0737E002B02D0B37E029A937348
:102E70000E2306AA944663441B88029A9381059AFE
:102E80005B461A43039B1A434B461A4343461A4375
:102E9000049B1B021A4353465B071A432F23F35C20
:102EA000002B01D104331A43737E9B022421715CF1
:102EB00049020B432621715C09020B432C21715CF2
:102EC00049040B432D21715C09040B43B07AF17A5C
:102ED000084318433389FF2B00D1AAE0802149041D
:102EE0000A43184302998B689C46338C718C0B43C0
:102EF0001F000721634619403B000B4302998B607A
:102F0000F369002B02D06E490A401A433423F35C64
:102F1000002B03D16B4B9B789B0701D580231A4371
:102F20002968029FCB69002BFCD178602968CB69A6
:102F3000002BFCD13A603B68F02212051340E022DE
:102F4000D20493420AD0BB6807229343BB60BA689D
:102F50002523F15C1E3B0B401343BB600EAB80226C
:102F60001A7000225A70DA709A70B36B0A93F36B7E
:102F70000B93336C0C93736C02930D9300270AAE82
:102F800066E008230693073B079356E733680593EB
:102F9000F3689B4673690393337E04932E23F35C9B
:102FA0009A4673689946002B19D080235B05994592
:102FB00001D0002327E02F23F35C002B00D051E742
:102FC000B36A1F00C0B2404B984701000E2206AB07
:102FD0009C46624438003D4B9847030013E00823A9
:102FE0000693002307932F23F35C002B0FD0069B3F
:102FF0000093079B0E2206A98C466244316BB06A8F
:10300000334FB8470300002B00D0B3E62AE7B36A7A
:103010001F00C0B22C4B98470100069B0093079BF2
:103020000E2206A8844662443800294FB8470300A0
:10303000E9E7F37E002B00D154E78023DB041A4339
:1030400050E72000234B984707E00137042F0DD0AD
:10305000F9B2BB0098590028F3D0431CF5D00EA953
:103060000870000CC0B21C4B9847EEE70023EB60E1
:103070002B616B61AB61EB612B62AB626B62002217
:10308000EB85AB853033EA540133EA540133EA541B
:103090000133EA542868054B984704000F49104B48
:1030A0009847A4000F4BE550002363E6D9260000A3
:1030B00000080040A94D0000394D00001125000016
:1030C000FFFFFFF000200041CD4D00005324000021
:1030D0007D2400005D250000A54E0000E5310000C4
:1030E00085330000901F00201023069300230793D0
:1030F000A3E6C046F8B506000C00150007680A4BA9
:103100009847F38D9BB2002B03D0084B98470520BE
:10311000F8BDF585054B9847B46205223323F25478
:10312000323BBB750020F3E7D94600001947000089
:10313000F8B504000D00160007680F4B9847A38DE3
:103140009BB2002B03D00D4B98470520F8BDA685F8
:103150000A4B9847656205223223E2542E3BBB7529
:10316000237A002B01D02023BB75637A0020002B2B
:10317000ECD00823BB75E9E7D946000019470000E9
:10318000931C9B00C31859603021012393401A00FF
:10319000435C13434354704710B50122014B9847D9
:1031A00010BDC0463131000010B51723002A01D1EF
:1031B000180010BDC4790533002CF9D0014B984795
:1031C0000300F5E7F5300000002903D0012905D000
:1031D000172002E03223C05CC0B270473323C05CCA
:1031E000C0B2FAE7F8B58000644BC5582C68E369B3
:1031F000002BFCD1237EA67D1E403023EB5C3122C8
:10320000AF5C1F40F30722D5EB8D9BB2002B1CD087
:10321000AA6A1378DBB2511CA962697901290ED020
:103220009BB2DB05DB0D2385EB8D013B9BB2EB8570
:10323000002B0CD1013323750133A37507E05178BE
:1032400009020B430232AA62EBE701232375B3079D
:1032500006D50223237500223133EA54FB071ED41E
:10326000730768D5AB8D9BB2002B62D0638BDBB24A
:103270001A0718D47F2213405A0601D540229343DF
:10328000002B33D09A0711D51A223223EA54303B4F
:1032900063837B074FD528006B6998474BE0280074
:1032A000EB689847DCE777221340E5E75A0705D536
:1032B0001E223223EA542E3B6383EAE7DA0705D560
:1032C00013223223EA54313B6383E2E7DA0605D561
:1032D00042223223EA54223B6383DAE79B06D8D5A5
:1032E00041223223EA54123B6383D2E7238DDB056C
:1032F000DB0DDAB2696A0A706A6A511C696269791F
:10330000012910D0AB8D013B9BB2AB85002B12D1B4
:103310000433237500222E33EA54BB070BD5280053
:103320002B69984707E01B0A53706B6A01336B6285
:10333000E8E704232375F30604D5102323752376C9
:10334000FB060ED4B30604D52023237523763B0752
:103350000BD4330704D5082323752376BB0608D482
:10336000F8BD2800EB699847ECE72800AB6998475F
:10337000EFE72B6A28009847F2E7C046901F00202D
:1033800070470000F0B50A4B1B78002B0CD1094F99
:10339000094E0A4D0024DE515A1914600433182BCB
:1033A000F9D10122024B1A708000024BC150F0BDCE
:1033B000E2020020E402002081330000901F002080
:1033C00000B583B009236A4613700133537001338B
:1033D00093700133D3700133137101335371034B75
:1033E00098476B46185603B000BDC046D92600006A
:1033F00010B5024B1B680020984710BDE402002066
:1034000010B5024B5B680120984710BDE402002014
:1034100010B5024B9B680220984710BDE4020020C3
:1034200010B5024BDB680320984710BDE402002072
:1034300010B5024B1B690420984710BDE402002020
:1034400010B5024B5B690520984710BDE4020020CF
:103450009300C3185960012393401A00037F13435C
:10346000037700207047000070B580001F4BC458E0
:1034700023689D79227F637F13401D40EB070AD4A8
:10348000AB070FD4EB0614D46B0719D42B071ED44B
:10349000AB0623D470BD20006368984701232268DF
:1034A0009371EDE72000A368984702232268937187
:1034B000E8E7200063699847102322689371E3E7E7
:1034C0002000E3689847042322689371DEE7200018
:1034D00023699847082322689371D9E72000A369DC
:1034E0009847236820229A71D4E7C046A81F00207D
:1034F00010B50020014B984710BDC046693400004C
:1035000000B583B001AB80221A700A785A704A78ED
:103510009A708A78DA701900014B984703B000BDA1
:10352000A54E000070B50B4C01220B4920000B4D3D
:10353000A847E37E02221343E376042322685371F3
:10354000002207492000A847E37E01221343E376C7
:1035500070BDC046B41F0020C939000089130000A7
:10356000D136000010B502B2034B80214900034858
:10357000034CA04710BDC046FF030000B41F00204D
:10358000690D000010B582B00400012801D902B015
:1035900010BD0522002168460B4B984706236A465A
:1035A000137001335370115D084B1A68138C9BB272
:1035B000002BFBD113891F2083430B431381138CF2
:1035C0009BB2002BFBD1E2E763860000B41F002012
:1035D00030B58DB02C4B1860020014322B4B1A60A2
:1035E00014322B4B1A6014322A4B1A6050302A4B7B
:1035F000186001AC2000294B984707232370023B39
:103600006370033BA3701E33E370E0332383002316
:103610002362234AE26106222271C0225201E28023
:10362000A3720122227323611E4D22001E4928002D
:103630001E4B98472C68238C9BB2002BFBD120009B
:103640001B4B98471B4B1B5C1F221A4001239340C6
:10365000194A136007232371A371237802221343AD
:103660002370104B1A68138C9BB2002BFBD1134BA9
:103670001878134B9847134B984701221249094871
:10368000124B98470DB030BDE41F0020E81F00200A
:10369000B01F0020AC1F0020D41F0020250D00000B
:1036A000FF030000B41F002000440042AD0D0000E5
:1036B000010D0000F890000000E100E01C03002074
:1036C0008535000025350000D81F00209D1300001F
:1036D00010B50122184B1A70184B1B780133DBB25E
:1036E000022B16D0154A1370144C2078144B9847AF
:1036F0002378002B11D0114B1B78012B14D00F4BCA
:10370000197849000F4BC91801220F480F4B9847F1
:1037100010BD0022094B1A70E6E70D4B1B681878A4
:1037200040010C4B9847E6E70B4B1B6818784001AB
:10373000084B9847E3E7C046EC1F00201C0300201D
:1037400085350000D81F0020B41F00209D13000005
:10375000AC1F002065350000D41F002010B586B0D6
:1037600000236A461370537293720393A022D2000F
:1037700069464A8220220A756A464B7501930B728C
:1037800080235B010B82084C02212000074B9847E5
:1037900023687F211A6A1142FCD19A6902210A43E7
:1037A0009A6106B010BDC046FC020020BD0C0000AE
:1037B00010B586B000236A46137053729372039358
:1037C0001382A022D20069464A8220220A75002272
:1037D0004A7501936A460B72074C00212000074B83
:1037E000984723687F211A6A1142FCD11A69022185
:1037F0000A431A6106B010BDFC020020BD0C000097
:1038000010B586B000236A46137053729372039307
:10381000A022D20069464A8220220A756A464B7568
:1038200001930B7280235B010B82084C0121200065
:10383000074B984723687F211A6A1142FCD15A69C5
:1038400002210A435A6106B010BDC046FC020020A6
:10385000BD0C000070B5154C022215492000154D15
:10386000A847002214492000A8470122134920003C
:10387000A847637F012213436377012322685371B2
:103880000F4B802212051A60617F0220014361778D
:103890000221206841711A60617F04200143617731
:1038A0002168042048711A6070BDC046FC020020E7
:1038B000113A000051340000213A0000313A000072
:1038C00000E100E010B582B0144B18600200143221
:1038D000134B1A601432134B1A601432124B1A60D5
:1038E0005030124B186001AA05231370104C114977
:1038F0002000114B9847114B9847114B9847114B9B
:103900009847114B984723687F211A6A1142FCD1CE
:103910001A7802210A431A7002B010BDE41F002079
:10392000E81F0020B01F0020AC1F0020D41F002083
:10393000FC020020005000426D0C00005D370000CA
:10394000B1370000013800005538000010B50130D3
:10395000C4B2174B1B681A7AA24214D0154B1B68CD
:103960001A7AA24213D0144B1B681A7AA24212D0C0
:10397000124B1B681A7AA24211D0114B1B681A7A9B
:10398000A24210D010BDD8680E4B9847E6E7D86821
:103990000C4B9847E7E7D8680A4B9847E8E7D868A0
:1039A000084B9847E9E7D868064B9847EAE7C046CE
:1039B000E41F0020E81F0020B01F0020AC1F0020E3
:1039C000D41F0020C506000010B50D4B00229A5EE2
:1039D0000C4B1B681B785B019A4209DC084B0222E6
:1039E0009A5E094B1B681B785B019A4204DC10BD90
:1039F0000320064B9847F1E70420044B9847F6E76D
:103A0000D81F0020AC1F0020D41F00204D3900001B
:103A100010B50020014B984710BDC0464D3900003D
:103A200010B50120014B984710BDC0464D3900002C
:103A300010B50220014B984710BDC0464D3900001B
:103A4000022805D84900C9B2024B9C466044017364
:103A50007047C046005000420122014B1A70704767
:103A60001E0300200122014B1A7070471D03002025
:103A700070B5094C002209492000094DA847637E12
:103A800001221343637607492000A847637E022280
:103A90001343637670BDC04668220020593A000087
:103AA000591A0000653A000030B58FB001AB254AC5
:103AB0000292002203921A7601214942998225310D
:103AC0005A540B9208315A5401315A5401315A5404
:103AD000A93119861C49D9821C4908911C490991B0
:103AE000022119730592C8235B000193194D1A4CEA
:103AF00001AA1A492800A0470028F9D1154B1C68D3
:103B00000722E3691A42FCD123680222134323608F
:103B1000104D2868124B98471F2318401E3B8340C6
:103B2000104A1360E88800231021628B0A4204D1F6
:103B300001338342F9D3102363830B4B98470FB0B3
:103B400030BDC046480D00001027000002001600DE
:103B50000200170068220020DD140000001000425F
:103B6000C133000000E100E0713A000070B5124B73
:103B7000188059805A600022104B1A700532104B81
:103B80001A700D4E0F4D104C31002800A047002830
:103B9000FAD10A4A0A491378002B02D10B78002B7C
:103BA000F9D1074B1B78002B05D1064B00229A83D5
:103BB00004212532995470BD5C2200201E03002090
:103BC0001400002068220020951A000070B505241A
:103BD000104B1C70104B18805A80104A5A60C0B2AB
:103BE0000A0002210E4B984700220E4B1A700A4E13
:103BF0000D4D0E4C31002800A0470028FAD1094A8B
:103C000004491378002B02D10B78002BF9D1002046
:103C100070BDC046140000209022002030200020FB
:103C20006D3B00001D03002068220020711A000077
:103C3000004870473020002084B070B5059106928E
:103C40000793BB239B00C15C112914D02C234B4349
:103C500005AAC31870CA70C370CA70C370CA70C393
:103C600030CA30C30131BB239B00C1540023044A36
:103C70008354044A835470BC08BC04B01847C0463F
:103C8000ED020000EE0200000A4BC25C013BC35C87
:103C9000013B9A4202DA0132064BC254064BC25C27
:103CA000044BC35C9B1A042B00D070470132024BBB
:103CB000C254FAE7ED020000EE020000084BC35CBC
:103CC000002B02D0013B064A8354064BC35C044AD6
:103CD000825C9A4202D2013B024A83547047C0463A
:103CE000ED020000EE020000024BC25C2C235343A5
:103CF000C0187047ED02000070B506000D1C081CCE
:103D00000A4B984704000A4B9847011C281C094B92
:103D100098470949094B9847094B984703002200E7
:103D200008493000084CA04770BDC046F16900004A
:103D3000D16A0000B966000000007A44796400008E
:103D40007961000068910000E9870000F0B589B052
:103D500007000D001600BB239B00C35C934227D9CC
:103D60002C24544304192378082B50D89B003E4A36
:103D7000D3589F4623691A78200014303B493C4BA6
:103D800098470023E376237B002B53D1394BFB5C10
:103D9000B34243D023001433621C0C3400943649E0
:103DA00002A8334CA047142202A92800334B98479D
:103DB00009B0F0BD23691A88200014302B492C4B20
:103DC0009847DEE723691A68200014302C49284BF5
:103DD0009847D6E700232375D3E7236919682000A5
:103DE0001430284B9847CCE700232375C9E72649B0
:103DF0002369591AC9B220001430A36A9847C0E752
:103E00002369197820001430A36A9847B9E7200085
:103E1000143008221D49194B9847B2E7631C220051
:103E20000C320192143400947E22194902A8104CDD
:103E3000A047B8E70F4BFB5CB34209D02300143313
:103E4000621C0C340094134902A8094CA047AAE74D
:103E5000631C22000C320192143400947E220E491D
:103E600002A8034CA0479EE7FC900000749100005C
:103E7000E9870000ED0200009091000051860000EB
:103E800078910000F93C00004C2800207C91000053
:103E900084910000AC9100009C910000F0B5DE46DA
:103EA00057464E464546E0B58BB007000E002D4BF9
:103EB000C35C9B461A0004A92B4B98472C255B46F4
:103EC0005D436B1CFB1801931800284CA0478246E9
:103ED0002B001433FB1802931800A047039004AB87
:103EE00009A920221A7001338B42FBD1002304AAB6
:103EF0001375340054339946B1441D4B98464B46D4
:103F0000A9461D00142204A92000C0471534AC4264
:103F1000F8D14D462C235A465343FB180022DA723F
:103F20001A7730001530FF24524622400199104B79
:103F300098469847039B1C4030002A302200029983
:103F4000C0470C357F193800084B984702002B34C6
:103F500030193900C0470BB03CBC90469946A24688
:103F6000AB46F0BDED0200004D3D00003D88000075
:103F700051860000F0B5D6464F464646C0B506000D
:103F80000F00012A3ED0234BC55C2B1D9D423CDA1D
:103F9000BB239B00C35CAB4239D900231E4A914628
:103FA0001C4A9046023A92465C1CE4B25900CB1877
:103FB000D900C91A79182A003000C8470135EDB276
:103FC0004346F35C04339D4204DA23005246B25C5C
:103FD000AA42E9D8032C10D814212020620012191B
:103FE000D3009A1ABA180B00013BDBB2002BFBD1AD
:103FF00010700134E4B2032CF0D91CBC90469946F1
:10400000A246F0BD054B9847F7E70024E4E70024FB
:10401000E2E7C046EE0200004D3D00009D3E00007C
:10402000F8B5040016001F000130084DA847200015
:104030000C303900A8472670069B2361089B6362F9
:10404000079B2362099BA362F8BDC0462D88000030
:1040500070B5284BC25C2C235343195C082948D8FF
:104060008B002549CB589F462C24544304192669BC
:1040700035782800214B9847616A214B98470028E2
:1040800037D00135357034E02C24544304192669A7
:1040900035882800194B9847616A194B98470028C2
:1040A00027D00135358024E02C2454430419266997
:1040B00035682800134B9847616A114B98470028D0
:1040C00017D00A35356014E02C235A438018046950
:1040D0002568416A281C0A4B9847002809D0281CEB
:1040E000094B9847094A0A4B0A4DA8470A4B98477B
:1040F000206070BDED02000020910000316A0000D8
:1041000095600000D16A0000E98300009A999999AE
:104110009999B93F5D6B00008D84000070B5040073
:104120002F4BC25C2C235343195C082954D88B00B5
:104130002C49CB589F462C235A438418266935783E
:104140002800294B9847216A284B9847002843D0DC
:10415000013D357040E02C235A4384182669358888
:104160002800214B9847216A204B9847002833D0DC
:10417000013D358030E02C235A4384182669356888
:1041800028001B4B9847216A184B9847002823D0DA
:104190000A3D356020E02C235A43821815692E68A9
:1041A000116A301C114B9847002809D0301C114B64
:1041B0009847114A114B124EB047124B984728604E
:1041C000074BE25C2C235343E41824690021206848
:1041D0000D4B9847002800D170BD00232360FBE7FA
:1041E000ED02000044910000316A0000BD60000053
:1041F000D16A0000E98300009A9999999999B93F89
:10420000E57C00008D84000095600000016070472F
:10421000024A137804210B4313707047D8240020FE
:1042200010B5014B984710BD11420000024A1378A7
:1042300004218B4313707047D8240020F8B5040084
:104240000D000B4904220B781342FCD0094B984710
:10425000094E0A4F2A0021003000B8470028F9D142
:10426000054D074C01212800A0470028FAD1F8BDD0
:10427000D82400202D420000A4240020A9310000F1
:10428000C931000010B5084C002208492000084B35
:1042900098473122A35C01210B43A3540549200018
:1042A000054B984710BDC046A424002021420000C1
:1042B00081310000421F00209931000030B593B0D9
:1042C0008023DB05009300230193FF2269460A81C6
:1042D0008B72CB7201212C226846815401328154A9
:1042E00001328354013283540C9305328354059375
:1042F00000220382C27607930384438402764276C7
:10430000132383761333C254013BC2542F4B0A93B9
:1043100080235B0303932E4B0E932E4B0F930123AD
:104320005B421093119303223633C254113BC154A4
:10433000294D2A4C6A462A492800A0470028F9D16D
:10434000254D2C682000274B98471F2318401E3B03
:104350008340254A13602A68D369002BFCD1236867
:104360000222134323601C4B1B68DA69002AFCD12C
:104370005968802252020A435A600121164AD171BB
:10438000DA69002AFCD1DA69002AFCD15968802256
:1043900092020A435A6001210F4A9171DA69002A98
:1043A000FCD10020114B9847020000231048002147
:1043B000801859410F4A00230F4CA0470F4B9847D4
:1043C0000F4B98470F4B984713B030BD90D0030068
:1043D0000200100002001100A4240020492D00005A
:1043E00000080042C133000000E100E0CD4C0000B5
:1043F000571B0000581B0000E56000000100002072
:10440000854200001142000000B583B001AB187076
:1044100059709A7003211800014B984703B000BDF2
:104420003D42000010B50F2800D910BD52080138D8
:1044300070235B421843C0B2014B9847F5E7C04672
:1044400009440000014B18687047C046280300204B
:10445000014B18787047C046E8260020264B1A6AA0
:10446000196AC90D012003008B435B00920D424085
:1044700001210A401343012B09D0022B21D0002B2C
:1044800000D070471D4A13701D4A1370F9E71B4B8B
:104490001B78002B08D0022BF3D10022174B1A7087
:1044A0000132174B1A70ECE70122144B1A701549B0
:1044B0000B68154A10681B1A144803600B681360D8
:1044C000DFE70E4B1B78002B08D0012BD9D100223F
:1044D0000A4B1A7002320A4B1A70D2E70222074BBB
:1044E0001A7008490B68084A10681B1A07480360CD
:1044F0000B681360C5E7C046800000410C27002010
:10450000E8260020280300202403002020030020A8
:1045100010B50B4B18680B4CA0470B4B1868A04705
:104520000A4B1868A0470A4B1868A047094B18683F
:10453000A047094A136801331360084B984710BD20
:104540005427002085050000E426002010270020C5
:10455000EC26002058270020280300205D4400009E
:1045600070B5AAB00E4E01AC310020000D4B98473B
:104570000623A372023BE372F63363600A4D220006
:1045800031002800094B98472A6802219368194294
:10459000FCD1136802210B4313602AB070BDC046E2
:1045A0000024004245270000142700209128000025
:1045B00070B504000C4D00220C4928000C4B9847A4
:1045C000002128000B4B98470B4B1C602200303217
:1045D0000A4B1A6030320A4B1A603032094B1A60AB
:1045E000C034094B1C6070BD142700201145000029
:1045F000752C00008D2C000054270020E42600209C
:1046000010270020EC26002058270020094B1B68AB
:104610000120142B04D8074B1B6801300F2B00D945
:104620007047044B1B6800200A229A424041033025
:10463000F6E7C0462003002010B58EB0002200210E
:104640006B469A8000236846C17143708370037281
:1046500043728372C372037383734373037405924B
:1046600006920285428582853423C154303BC37053
:1046700007220270053A8271013A02772A320892C3
:1046800009930A4C6A460A4920000A4B9847402180
:104690002000094B984722681369002BFCD113684E
:1046A00002210B4313600EB010BDC046F02600205F
:1046B0000034004241080000950B000010B5800056
:1046C000C2B201210148024B984710BDF0260020DC
:1046D0000D0B0000704700000C4B1B68002B06D12F
:1046E000EFF31083002B07D00022094B1A70074A02
:1046F000136801331360704772B6BFF35F8F0022F7
:10470000044B1A700132024B1A70F0E72C030020A0
:104710003003002015000020084B1A68013A1A6087
:104720001B68002B09D1064B1B78002B05D00122FA
:10473000044B1A70BFF35F8F62B670472C030020E2
:10474000300300201500002010B5072803D8800092
:104750000F4B1B589F46002018E00E4B586815E081
:104760000D4B597D0907090F01310C480C4B984737
:104770000CE0084B986809E0074B1B7F00209B0763
:1047800004D5044B186801E08020000210BDC0462B
:10479000B89100003403002000100040006CDC02DF
:1047A000595F0000F0B5DE4657464E464546E0B537
:1047B000384B1B8A1A07D20F91465E05760F427856
:1047C0000F241440A346027851424A41D2B2857860
:1047D0004168314FB9420DD9304FB94253D9304FAA
:1047E000B94252D92F4FB94251D92F4FB94202D8AD
:1047F000042600E00026477A047AA446447BA046BB
:10480000047B002C01D00124A146284C6160C17AB0
:104810008A4620495446CC74807A82460720544602
:10482000204088749200042083431A4303384B4687
:10483000DB000824A2431A43434603401B0108340B
:10484000A2431A43634603409B013034A2431A43F8
:104850000740FF0180239A4313003B433602144A6A
:10486000134033432840C002124A134003435A46C0
:1048700014031B051B0D23430B823CBC9046994639
:10488000A246AB46F0BD0126B5E70226B3E70326F4
:10489000B1E7C0460010004080841E0000093D00C2
:1048A00000127A000024F4000048E80134030020DC
:1048B000FFF8FFFFFFF7FFFFF8B50400C568037DB1
:1048C000012B4DD0A36818012900294B98470F22CE
:1048D000024003092178C9016678B6013143C9B2A3
:1048E000244E31771104013B1B051B0D0B43336232
:1048F00037002C260421BB5D0B42FCD1A3781B039F
:10490000E178C9000B43217989000B43A17C032680
:1049100031400B43218A0904174F39400B43E17C96
:104920000902E027FF0039400B43277D3F0130217A
:1049300039400B430F494B62637D1E402823CE5400
:104940000F002C260821BB5D0B42FCD10F2398439E
:1049500082186A43637D0433DA40084B1A60F8BD5D
:10496000018A013149002800014B98470500A9E759
:10497000595F0000001000400000FF0734030020D2
:10498000072803D88000184B1B589F46172029E0A2
:10499000164A137D02210B431375002022E0144AAE
:1049A000936902210B43936100201BE00F4A138A95
:1049B00002210B431382002014E00D4A938A022146
:1049C0000B43938200200DE0084A137F02210B4322
:1049D000137710002A310222435C1342FCD10020DD
:1049E00000E000207047C046D89100000010004051
:1049F00000140040F0B5D6464F464646C0B58EB0CE
:104A00000322624B9A60624A53681E218B43183915
:104A10000B4353600AA80023037083705D4A426011
:104A2000037243728372C372037343730F33437011
:104A3000594B98470020594B984759490122CB6858
:104A40001A42FCD0564B1A8A80210A431A821A7DD8
:104A500040310A431A75534B984701AC01266660F2
:104A600000256570257265722570210001204E4B6E
:104A70009846984701204D4FB847666065700623F9
:104A8000994623706572267221000220C0470220D9
:104A9000B84766606570657207239A462370267270
:104AA00021000320C0470320B847666065704B466D
:104AB00023702572657221000420C0470420B84786
:104AC00065704B4623702572657228236360210050
:104AD0000520C0470520B847666065704B462370C7
:104AE0002572657221000620C0470620B84766601F
:104AF00065704B4623702572657221000720C04700
:104B00000720B8476660657025726572534623704A
:104B100021000820C0470820B84704A88570C57048
:104B20000571234B83604575C574857405704670A7
:104B30000675184BC3607823FF3303821D4B9847DB
:104B40000720164B9847164830210322435C134038
:104B5000032BFBD1124A117F833B0B4313770123B5
:104B6000154A137101A94B6000234B700B724B72F5
:104B700007330B7000200C4B984700200B4B9847D5
:104B80000EB01CBC90469946A246F0BD00180040ED
:104B900000400041001BB700A5470000814900000C
:104BA00000100040BD4B0000E14B00008D4C0000A8
:104BB000006CDC02B948000000080040064A536956
:104BC00080210B4353610122044B1A7019000B78AA
:104BD0001342FCD17047C04600080040001C004052
:104BE00070B504000D784B78002B02D08023DB00D9
:104BF0001D434B7A002B02D080231B011D434868C4
:104C000001280FD9431E184231D102282DD9022381
:104C1000002201325B009842FBD880235B011D43D8
:104C2000120415430B7A002B02D080239B011D43F5
:104C30000426A6401149124A4B6813401E42FBD17C
:104C4000104B9847A4000D4B9C466444226A802375
:104C50005B001A402A4322626146094A4B681340AE
:104C60001E42FBD1084B984770BD0022D5E70004D7
:104C700080239B0018430543D4E7C046001C004036
:104C8000FC070000D94600001947000010B50400D9
:104C90000422824009480A4943680B401A42FBD16A
:104CA000084B9847A400054B9C466444226A802325
:104CB0005B0013432362044B984710BD001C004067
:104CC000FC070000D946000019470000F8B50400B1
:104CD000042282401248134943680B401A42FBD118
:104CE000114B98470E4F0834A400E0594007400F7D
:104CF0000E4B98470600E559ED04ED0FE459240CDE
:104D00000B4B9847002D07D1012C07D9210030000B
:104D1000084B9847060001E00134E6403000F8BD3A
:104D2000001C0040FC070000D94600004947000075
:104D300019470000595F000010B50400094B98475F
:104D4000A000094B9C4660448022835840210B43BD
:104D500083504031403A43581A42FCD0034B9847A5
:104D600010BDC046D9460000001C00401947000095
:104D700010B50400094B9847A000094B9C466044BD
:104D80008022835840218B4383504031403A43581E
:104D90001A42FCD1034B984710BDC046D9460000CB
:104DA000001C00401947000070B504000D00054BC1
:104DB00098472A780F2313402034A400024AA350B6
:104DC00070BDC046714D0000001C004010B50400CD
:104DD000064B98472034A400054BE4582407240FC1
:104DE000044B98472000044B984710BDD94600005B
:104DF000001C004019470000CD4C000030B5D378AE
:104E0000002B35D11378802B29D01B068024640217
:104E1000234354780225AC4306D19478002C20D14A
:104E20008024A402234341605478013C012C1CD906
:104E30000D042D0CA024E4052C431C4384620D0CAE
:104E4000D02424062C431C438462D478002C22D125
:104E50005B031CD59378012B1ED0416117E0002322
:104E6000D7E7C024E4022343DDE70D4C2340DFE70E
:104E700041600C04240CA023DB05234383620C0C4B
:104E8000D0231B0623438362D378002B03D15378AE
:104E9000013B012B02D930BD8161F8E78160FAE75F
:104EA000FFFFFBFF10B50A00C1090023002905D14F
:104EB0004309DB018221C9058C4663441F2420403D
:104EC000012181401800014B984710BDFD4D0000A5
:104ED0007047000010B5054B9847054B9847054BA8
:104EE0009847054B9847054B984710BDF54900007A
:104EF000D5460000D14E00005D140000D14E0000E8
:104F0000FEE7000010B5174A174B9A4211D01A005D
:104F1000164B9A420DD2164A03339B1A9B08013353
:104F20009B00002210480F498C58845004329A424A
:104F3000FAD1104A104B9A420AD2D3430E495B1859
:104F400003218B4304339B18002102C29342FCD1FE
:104F50000A4AFF210A4B8B4393600A4B98470A4B3E
:104F60009847FEE73494000000000020BC020020B7
:104F700004000020BC020020F029002000ED00E029
:104F800000000000F5850000395300000300064AC8
:104F90001268002A04D0044A1068C31813607047CE
:104FA0000249014A1160F6E740030020F049002061
:104FB00010B501290DD0002906D002290ED00422F7
:104FC00009490A4B984703E004220949074B9847CF
:104FD00010BD05220749054B9847F9E70522064908
:104FE000024B9847F4E7C046149200005186000037
:104FF00000920000049200000C92000010B50029FD
:1050000002D0012905D010BD04220449044B984761
:10501000F9E703220349024B9847F4E7F8910000AF
:1050200051860000FC910000F0B585B001900E00A3
:10503000002302AA53718B005B18DC00E31ADA1715
:105040000F241440E4182411052120000F4B984729
:105050000131C8B202AA0523202505270BE0591FFC
:105060008C4203D3002E01D0107000E01570053380
:105070000132282B03D0A342F1D81770F7E702A919
:105080000198034B984705B0F0BDC046656000002D
:105090002D880000F0B585B001900E00124D00245F
:1050A000124F09E0BA5D12490198124B984701343A
:1050B000E4B20435052C14D02B685A68B242F1D101
:1050C0005B78002BEED0052C0BD003A90A4B039381
:1050D000A400054BE3581B7A30338B700198074BC3
:1050E000984705B0F0BDC046702900204C2800202C
:1050F00074910000E9870000494E20002D880000CF
:10510000C0467047C0467047C0467047C0467047AB
:10511000C0467047012804D002384342584101304C
:1051200070470020FCE70000F0B585B000276B4613
:105130001F739F735F7302A90F7001264E708F70EB
:1051400001AD6E70AF702E700C202F4CA04703A9DC
:105150000D20A04703A93620A04703A93720A04768
:1051600029001820A04729001C20A047290026203C
:10517000A04729002520A04729002420A047290076
:105180002320A04729002220A04729002120A04752
:1051900029002020A04729003F20A04729002720E0
:1051A000A04729002820A04729002920A04729003E
:1051B0001420A047802252048223DB055A616B46EB
:1051C0005F709E70DF701E70694603200F4CA04711
:1051D0006B461E7069460420A0476B461E706946E8
:1051E0000520A0476B461E7069460620A0476B4607
:1051F0001E7069460720A0476B461E706946022054
:10520000A04705B0F0BDC04601350000A54E000026
:1052100000B583B06846054B984740236A46137033
:1052200003490448044B984703B000BD9D2100008A
:10523000005400424C290020B121000010B582B07A
:1052400001A8074B9847074C01AA00212000064BF4
:10525000984700212000054B984702B010BDC0467A
:10526000C12200004C290020C3220000C5220000FA
:1052700070B50C000122134B1A70012821D00228AE
:105280001CD1114B1868114B98470378042B07D099
:105290002378012B0FD0002B13D10133237010E0A2
:1052A000094D2868094B984701692800084B984721
:1052B0000023237005E00023237002E00022014B4D
:1052C0001A7070BD1C00002054020020E93C000050
:1052D0000D420000F0B597B001AD16AE28002021B8
:1052E0000024020014320300197001339342FBD1F1
:1052F00004751530B042F4D10A4B1A780A4B18687D
:1053000001A90A4B98470024094F0A4E21000020AA
:10531000B8472800B0470134E4B21535042CF5D164
:1053200017B0F0BDD417002054020020753F0000D4
:105330007904000015050000F0B5DE4657464E46DC
:105340004546E0B5EE4CA544EE4B9847EE4B9847EA
:1053500072B6BFF35F8F0022EC4B1A70EC4CED4D30
:105360000A2398460026EC4B9A466427EB4B994655
:1053700001212800D047AF602F61AF616F627F23AA
:10538000EB61E56043469B00283B4A46D4504346C8
:1053900063604523A3720136F6B266722672443BFF
:1053A00063700F332370303514340F3B9C46E04458
:1053B000052EDDD1DA4B9847D54C2000D94B9847C4
:1053C000D94B9847D94B98470020D94B984764222E
:1053D00000230021D74DA847D74A00238018594100
:1053E000D64A0023D64DA847D64B9847D64B984768
:1053F000D64B9847D64B9847D64B9847D64B9847AD
:10540000D64B9847D648D74B9847D74B9847D74B5A
:105410009847C048D64B98472000D64B9847D64B64
:105420009B465A1CFF32190000230B700131914238
:10543000FBD10B91D14BC32189005A58FF208243E5
:105440007F3802435A50C62080001A581202120AAE
:105450001A501A58CA4C14408022D20122431A50C2
:105460005A58C84810408022120402435A50012260
:10547000A64B1A70BFF35F8F62B6C34B9847A4ABBD
:105480009A46B4AF1D00BC24A400C04E2000B04713
:1054900001C5BD42FAD10021BD48BE4B984700214D
:1054A0001CA8BD4B9847BD4B994602234A46D37072
:1054B000002398460393002402940194B84B009370
:1054C000B84B0422B84911A8B84EB04714AB6A468D
:1054D00023CB23C223CB23C203CB03C21199129A3D
:1054E000139BB348B34DA8474346039302940194DA
:1054F000B14B1B680093AB4B0422B04911A8B047D5
:1055000014AB6A4683CB83C283CB83C203CB03C273
:105510001199129A139BA648A847434603930294F5
:105520000194A54B5B6800939E4B0422A44911A8EB
:10553000B04714AB6A4683CB83C283CB83C203CB11
:1055400003C21199129A139B9948A84743460393A3
:1055500002940194984B9B680093924B04229949C2
:1055600011A8B04714AB6A4683CB83C283CB83C2F6
:1055700003CB03C21199129A139B8D48A847434647
:105580000393029401948C4BDB680093854B0422B7
:105590008D4911A8B04714AB6A4683CB83C283CB35
:1055A00083C203CB03C21199129A139B8048A84768
:1055B00043460393029401947F4B1B690093794BFC
:1055C0000422824911A8B04714AB6A4683CB83C238
:1055D00083CB83C203CB03C21199129A139B7448E5
:1055E000A8477B4B03938323DB05029301944B462F
:1055F00000936C4B0522774911A8B04714AB6A465B
:1056000083CB83C283CB83C203CB03C21199129A8B
:10561000139B6348A8476E4B03938323DB050293D8
:1056200001944B46013300935E4B05226A4911A851
:10563000B04714AB6A4683CB83C283CB83C203CB10
:1056400003C21199129A139B5548A847634B0393C1
:105650008023DB05029301944B4603330093514BA7
:1056600007225F4911A8B04714AB6A4683CB83C2B7
:1056700083CB83C203CB03C21199129A139B484870
:10568000A847434603938223DB050293554B0193BE
:105690004B4602330093434B0022534911A8B047B5
:1056A00014AB6A4683CB83C283CB83C203CB03C2D2
:1056B0001199129A139B3A48A847434603930294C0
:1056C00001943B4B0093374B0422484911A8B04743
:1056D00014AB6A4613CB13C213CB13C203CB03C262
:1056E0001199129A139B2E48A8471025002399461A
:1056F0000A933F4B984656464B460993EDE0C04609
:105700002CFDFFFFD54E00002D0C000015000020E1
:10571000842900205C270020250700007029002034
:10572000A93A0000C5380000295100004D030000CF
:10573000CD4C000025610000571B0000581B0000E5
:10574000E560000001000020B504000011520000D7
:105750003D520000BD420000B51C0000394600006B
:105760004C2900207922000031050000614500002D
:10577000B1450000D13500004C28002000E100E0D8
:10578000FF00FFFFFFFF00FF112000003D8600002B
:1057900034000020692000002520000018000020AF
:1057A000E41400207C9200001892000021400000C8
:1057B000F4110020393C0000200000202492000059
:1057C000309200003C920000489200005492000089
:1057D00029500000609200006C920000B14F000060
:1057E000789200000000E040809200008C9200005F
:1057F000E98700003A003B490CA8C0473A4B0393A5
:105800008723DB050293394B0193099BFB18384A28
:105810009B180093374B08220CA911A8364CA047BF
:10582000346814AB6A4623CB23C223CB23C203CBF9
:1058300003C21199129A139B2000304DA8470137DB
:105840004F45D7D14D460023039300239946029339
:1058500001932B4B0093274B04222A4911A8264F72
:10586000BA46B84714AB6A4683CB83C283CB83C2A4
:1058700003CB03C21199129A139B20001F4FB84704
:105880000A9A13000F3320490CA8204FB847002173
:1058900003914946029101910094164B04220CA9F0
:1058A00011A8D04714AB6A4613CB13C213CB13C253
:1058B00003CB03C21199129A139B11480F4CA047B6
:1058C00004360A9B10331A000A93099B013B099383
:1058D000113580235B009A421AD02F00103FA94651
:1058E00088E7C0469492000095500000000080BFF9
:1058F0004C2800207C92000021400000393C000030
:10590000D81700208C9200009C920000E9870000CC
:1059100000239A460393002402940194E44F0097D5
:10592000E44B0422E44911A8E44EB047E44B994605
:1059300014AB6A4623CB23C223CB23C203CB03C2BF
:105940001199129A139B4846DE4DA847534603937C
:10595000029401944B460093D64B0422DA4911A8D5
:10596000B04714AB6A4613CB13C213CB13C203CB9D
:1059700003C21199129A139B3800A847D34DD44CF7
:105980000027A846D34B0393FE239B0502930023D5
:105990009946019343461B6801330093C54B072288
:1059A000CD4911A8C54DA847256814AB6A4643CB1D
:1059B00043C243CB43C203CB03C21199129A139B38
:1059C0002800C04EB0470397C44B0293FE239B05AB
:1059D000019343461B6808330093B64B3A00C04915
:1059E00011A8B64DA84723689C4614AB6A4623CB42
:1059F00023C223CB23C203CB03C21199129A139B58
:105A00006046B04703978723DB0502934B4601931B
:105A100043461B6804330093A64B3A00B14911A8D2
:105A2000A64DA84723689C4614AB6A4623CB23C2E5
:105A300023CB23C203CB03C21199129A139B604656
:105A4000B0470397A84B02934B46019343461B680C
:105A50000093984B3A00A54911A8984DA847236890
:105A60009C4614AB6A4623CB23C223CB23C203CB71
:105A700003C21199129A139B6046B04703979C4B3F
:105A80009A4602934B46019343461B68DB680833F2
:105A90000093984B0222984911A8884DA847236883
:105AA0009C4614AB6A4623CB23C223CB23C203CB31
:105AB00003C21199129A139B6046B047039753464D
:105AC00002934B46019343461B68DB6810330093F7
:105AD000884B0222894911A8784DA84723689C4623
