S0180000444D585F636F6E74726F6C6C657276322E73726563D8
S1130000B0470020A94500000D470000114700003B
S113001000000000000000000000000000000000DC
S11300200000000000000000000000001547000070
S11300300000000000000000194700001D470000F8
S1130040A5450000A5450000A5450000DD120000FF
S1130050A5450000A5450000A5450000A5450000F4
S1130060A54500006D2E00007D2E00008D2E0000A1
S11300709D2E0000AD2E0000BD2E0000A545000001
S1130080A545000095270000A5270000B52700001E
S11300903D0700004D0700005D0700006D070000EC
S11300A07D0700005D1200006D120000552F000056
S11300B06D1D0000A5450000A545000010B5064CC7
S11300C02378002B07D1054B002B02D0044800E015
S11300D000BF0123237010BD880000200000000031
S11300E0848A0000084B10B5002B03D00749084848
S11300F000E000BF07480368002B00D110BD064B89
S1130100002BFBD09847F9E7000000008C0000208A
S1130110848A0000848A000000000000F0B5D646FE
S11301204F464646C0B580268223DB059846B04438
S113013043469E610020134FB84702000023124C2F
S1130140002512196B4110001900104B9946104AF2
S11301500023C8470F4B9A46984743465E610020E8
S1130160B8473222002300210B4EB04700196941E1
S1130170074A0023C847D0471CBC90469946A2466C
S1130180F0BDC04671430000BFCF6A00AD56000009
S1130190C0CF6A0001000020ED56000010B5C3076F
S11301A029D54022244B9A61830728D52022224B4B
S11301B09A61430727D510221F4B9A61030726D55E
S11301C008221D4B9A61C30625D504221A4B9A6155
S11301D0830624D50222184B9A61430623D50122B3
S11301E0154B9A61C00922D180221206124B5A6122
S11301F0124B984710BD40220F4B5A61D4E720227E
S11302000D4B5A61D5E710220B4B5A61D6E70822F1
S1130210094B5A61D7E70422074B5A61D8E70222F7
S1130220054B5A61D9E70122034B5A61DAE7802270
S11302301206014B9A61DBE7800000411D010000BA
S113024010B5002918D1802292000E4B5A610E4B32
S1130250984700200D4B98473222002300210C4C74
S1130260A0470C4A0023801859410B4A00230B4C29
S1130270A0470B4B984710BD80229200014B9A6116
S1130280E5E7C046800000419D0100007143000085
S1130290ED560000BFCF6A00C0CF6A00AD56000023
S11302A00100002010B50021014B984710BDC04645
S11302B04102000010B501200B4B984700200B4B66
S11302C098470200002319008018594180185941A9
S11302D0074A002380185941064A0023064CA047C8
S11302E0064B984710BDC046A502000071430000AC
S11302F0BFCF6A00C0CF6A00AD56000001000020E5
S113030010B502200B4B984700200B4B9847020076
S1130310002319008018594180185941074A0023C5
S113032080185941064A0023064CA047064B9847BB
S113033010BDC046A502000071430000BFCF6A0093
S1130340C0CF6A00AD56000001000020F8B5DE46BB
S113035057464E464546E0B5384D18232B700020CD
S1130360374B9B469847374B9A463222002300214D
S1130370D047354E002780197941344B9946344A89
S11303800023C847334B9846984780228223DB05D5
S1130390D3188021890059610139FF3959615A61A3
S11303A00020D847322200230021D0478019794108
S11303B0274A0023C847C047202628783043C0B2C4
S11303C0254CA0470020D847244A00230021D047C9
S11303D0234A002380185941224A0023C847C047B2
S11303E028783043C0B2A0470020D8479622002383
S11303F00021D0471A4A002380185941194A002382
S1130400C847C04728783043C0B2A0472878304353
S1130410C0B2A0470622144B1A700E20A047134BFB
S113042098470222124B1A700620A047114B984796
S11304303CBC90469946A246AB46F8BDA5000020B8
S113044071430000ED560000571B0000AD5600003C
S1130450581B000001000020A502000094110000B8
S1130460BFCF6A00C0CF6A00A4000020B50200001C
S1130470A60000200103000070B584B06A460B4B4F
S113048070CB70C21B681360032901D8132801D9EB
S113049004B070BD89006B46CB58C01880235B4202
S11304A01843C0B2024B9847F2E7C0467C84000070
S11304B0A502000010B5054B18780222904318706D
S11304C008231843024B984710BDC046A4000020DF
S11304D0A502000010B50121014B984710BDC0468C
S11304E04102000070B503000D0007201840C00051
S11304F040231843054B98472C000835044E2078B8
S1130500B0470134AC42FAD170BDC046A502000028
S1130510D504000070B504000078002805D0034D10
S11305200134A84720780028FAD170BDD504000012
S1130530F0B5C64600B582B00023002269465A547D
S11305400133082BFAD105260025073B984602AC57
S11305500B4F4146B14049B26B461A780A431A70B0
S113056001339C42F9D10135EDB269462800B84700
S1130570013E052DEDD102B004BC9046F0BDC0464D
S1130580E5040000F8B504003023C25C052A0CD849
S11305909300434AD3589F46002303614362836117
S11305A0C3620121302281544360F8BDC668002E25
S11305B016D005693100012040423A4B9847684300
S11305C06060A3689C4665442561AE42EDD2012378
S11305D05B42636002223133E25400232361E4E787
S11305E001235B42436002223133C254DDE7466992
S11305F0002E16D0036A1F068569F8433100294B83
S113060098476843C0436060A3689C466544A561FD
S1130610AE42CAD2676003223023E2540023A361AE
S1130620C3E7036A436003223023C254BDE7C269AF
S1130630002A0FD0036A1B064360436A81688C4614
S1130640634443629A42B0D204223023C25400234A
S11306504362AAE704323023C254A6E7876A002F14
S113066017D0036A1D06C66A390028000D4B984747
S113067070432D1A6560A3689C466644E662B742DF
S113068000D392E70023636005213022A154E36282
S11306908BE705223023C25487E70023436084E7B5
S11306A08C84000021550000C0797047002230235B
S11306B0C25470470023036183614362C362436091
S11306C005223033C25481603433C3604361C36153
S11306D083621C330362704770B58000164BC458A4
S11306E023689D7A227E637E13401D40EB0706D467
S11306F0AB070BD4EB0610D4AB0615D470BD2000A9
S1130700A3689847012322689372F1E72000E36805
S11307109847022322689372ECE7200023699847E4
S1130720102322689372E7E72000636998472368DF
S113073020229A72E2E7C0467C18002010B50020FF
S1130740014B984710BDC046D906000010B50120E2
S1130750014B984710BDC046D906000010B50220D1
S1130760014B984710BDC046D906000010B50320C0
S1130770014B984710BDC046D906000010B50420AF
S1130780014B984710BDC046D906000030B587B06C
S113079001A90C4B0A0032CB32C212CB12C2019B0C
S11307A098420BD0012301A99A005258824206D0E4
S11307B00133052BF8D1002007B030BD0023D8B297
S11307C0FAE7C046A4840000F0B5C64600B58EB072
S11307D004000D0016000800A74B984780460CAB98
S11307E01E221A705A7001329A70DA7001321A712C
S11307F002A9A24B14330A0083CB83C283CB83C2E6
S113080083CB83C21B6813600023A360E36023616E
S113081063612376637643469A00994BD4502560EE
S11308203423F35CA376F378082B08D023712B6868
S11308300520DB0708D50EB004BC9046F0BD172098
S11308404246D207F7D4F1E7EB7A17309B07F2D48C
S11308502B689B07EFD4337C002B00D08EE0337FD2
S1130860002B00D096E043465A0002A9531C9B007B
S113087058584346DB005B58D9B2012900D19EE0A9
S1130880002900D196E0022900D19DE0F378082BDD
S113089000D19EE033786A4613700CAB42469F5CED
S11308A069463800774B98473800774B9847F37878
S11308B0F2791343B2881343727A002A02D0802259
S11308C052021343B27A002A02D0802292021343C6
S11308D0F27A002A02D0802252031343327B002A88
S11308E002D080229203134371788901B278D20135
S11308F01143194322681369002BFCD12960226833
S11309001369002BFCD1B3792B73717B4B1E994176
S11309108900B37B002B01D001231943226813699A
S1130920002BFCD1FF332B71002904D022681369FA
S1130930002BFCD16971337A6B7322681369002B25
S1130940FCD12379042B67D0082B00D181E0172038
S1130950002B00D06FE71369002BFCD1338DAB82E1
S113096022681369002BFCD1738DAB832268136951
S1130970002BFCD1B38DEB8300205CE701A901239C
S11309808B700022CA70327E0A704B70307D3F4BF0
S1130990984764E701A901238B700022CA702432AE
S11309A0B21812780A704B701F33F3181878374B4B
S11309B0984758E736494B691843486166E7344914
S11309C08B691843886161E7314BD9690843D86161
S11309D05CE743460133042B00DD5BE702ABD11C2B
S11309E08900C95802329200D358DAB2012A0ED0D3
S11309F0002A07D0022A00D04CE7254BDA691143BC
S1130A00D96147E7224A53691943516142E7204AB1
S1130A109369194391613DE71369002BFCD1283395
S1130A20F35C2B7522681369002BFCD12933F35C2A
S1130A30EB7622681369002BFCD12A33F35C2B7705
S1130A4022681369002BFCD12B33F35C6B770020F5
S1130A50F1E61369002BFCD1B36A6B612268136958
S1130A60002BFCD1F36AEB6122681369002BFCD1E3
S1130A70336B2B620020DEE68D070000A4840000A7
S1130A807C1800204D440000DD430000494500006F
S1130A900008004010B504682369002BFCD10379D9
S1130AA0042B06D0082B28D0002B13D017231800B2
S1130AB010BD17230129FAD8837E002B05D0D2B2AA
S1130AC0611830310A700023F1E7D2B2641822773A
S1130AD00023ECE717230129E9D8837E002B05D0F6
S1130AE092B2183149000A530023E0E792B20C3164
S1130AF049006418A2800023D9E717230129D6D816
S1130B00837E002B05D106318900641862600023BE
S1130B10CDE70C3189000A510023C8E70268136944
S1130B20002BFCD10379042B05D0082B1AD0002B01
S1130B300DD017207047837E002B04D0C9B22F2319
S1130B40D1540020F6E7C9B2D1760020F2E7837EC3
S1130B50002B03D089B211860020EBE789B2918380
S1130B600020E7E7837E002B02D1D1610020E1E77A
S1130B7011630020DEE7000010B58222D205136A5B
S1130B80126A5B0B01210B405B00120B4A400A40C6
S1130B901343064A1370064802781C0094430370FA
S1130BA00120214201D16208500010BDA70000209D
S1130BB0A800002070B50020084B98470500084C99
S1130BC0FA218900A047074B186007492800A0476D
S1130BD0064B18600522064B1A6070BD7143000075
S1130BE0215500000C00002040420F00100000209E
S1130BF010E000E0064B984208D0064A00239042D9
S1130C0001D0180070470133DBB2FAE70023FBE799
S1130C10004400420048004210B500230022037043
S1130C2043708370C370002103830362C361012492
S1130C300471C0246401C480017242728272C2725F
S1130C4002732A24025542738273C27303610275CC
S1130C50063C0255C3840385417510BD70B5056813
S1130C602C8CA4B2002CFBD16C890C4E3440214353
S1130C7069810468218C89B20029FBD192B2EA818E
S1130C8001680A8C92B2002AFBD19BB22B820268C3
S1130C90138C9BB2002BFBD170BDC046FFF8FFFF45
S1130CA0F0B5DE4657464E464546E0B59FB00500D2
S1130CB00E0017000800984B9847040001902E601E
S1130CC0964AD3698000964941580B43D3613378DF
S1130CD00520DB0706D51FB03CBC90469946A246CA
S1130CE0AB46F0BD2A68138C9BB2002BFBD1337842
S1130CF01C209B07EFD47B782B71002B04D1894AED
S1130D00D36904210B43D3610023AB60EB602B61F7
S1130D10AB76EB762B832B77A300834A9D502A2353
S1130D20FB5C002B05D13B7B002B02D101336B779D
S1130D3001E000236B772B689A463B7804AA137072
S1130D407A4B1E5D11003000794B98473000794B87
S1130D5098473B79984606AE774B9C46320019007B
S1130D6049C949C249C949C249C949C249C949C20B
S1130D7012A9634630330A0043CB43C243CB43C278
S1130D8043CB43C243CB43C2019B002B04D012A9E3
S1130D90012B02D0002100E006A9A300674A9B585A
S1130DA09B46984522D9FB88984606AE624B9C46E2
S1130DB03200190049C949C249C949C249C949C28D
S1130DC049C949C212A9634630330A0043CB43C21E
S1130DD043CB43C243CB43C243CB43C2019A002A11
S1130DE012D012AB012A10D000230EE04346980023
S1130DF0405805A900234B70CB708B7001330B70E6
S1130E00C0B24F4B9847CEE706ABD8450AD900216C
S1130E10002601239946484B984603945B46029367
S1130E20AB4620E042469000C05805A900234B7011
S1130E30CB708B7001330B70C0B2414B9847E6E71F
S1130E4006AB8900C85805A900234B70CB708B7082
S1130E504B460B70C0B23A4B98470136F6B231009C
S1130E60029B9E4223D84B46B3403A691A42F4D0BF
S1130E7006A80300424631CA31C331CA31C331CA5C
S1130E8031C331CA31C312A843463033020031CBD7
S1130E9031C231CB31C231CB31C231CB31C2019AF3
S1130EA0002ACDD012AB012ACBD00023C9E75D467E
S1130EB0039C7B7B9B01BA7BD2011343DBB252467A
S1130EC013703B7DDB017A781343DBB25246937097
S1130ED0FB78342B00D94FE19B001A4AD3589F4624
S1130EE004221026022132E0797A3A7A10262EE082
S1130EF00622102601212AE008221026002126E0DD
S1130F0000223026002122E00022202600211EE0BB
S1130F100022002600211AE0F50B00000008004022
S1130F201486000000180040901800203C86000041
S1130F304D440000DD430000B48500003486000009
S1130F4049450000E0840000022210260121090125
S1130F5070230B401343524613732A68138C9BB2BD
S1130F60002BFBD17B7D17203F2B00D9B3E6FA7B06
S1130F70D2011343DBB2524653732A68138C9BB2DB
S1130F80002BFBD1BB78524653702423FB5CDB005F
S1130F903A7B92001A43FB7A1343BA7A5200134302
S1130FA03343524653812A68138C9BB2002BFBD1E6
S1130FB03B8B002B20D0102E00D1BFE000D87FE067
S1130FC0202E00D19CE0302E16D1FA7A002A0AD0C5
S1130FD0FA6980321720FF2A00D97CE63A6A803207
S1130FE0FF2A00D977E61720FA69FF2A00DD72E6A6
S1130FF03A6AFF2A00DD6EE652465289134352468E
S113100053812A68138C9BB2002BFBD1BB8B5246B5
S1131010D3812A68138C9BB2002BFBD13B8C5246A4
S113102013822A68138C9BB2002BFBD13B79FA887C
S11310301343524613812A68138C9BB2002BFBD1B5
S11310402A33FB5C5246D370072313711D33FB5CB8
S1131050002B1DD0FB8C494A1720934200D93AE655
S1131060524653822A68138C9BB2002BFBD13A8DD3
S113107080231B01D31841499BB217208B4200D90E
S113108029E653469A822A68138C9BB2002BFBD123
S1131090A2003B4BD3583B49095D1B68CB401B0264
S11310A0E021C9000B40384952583849095D12689B
S11310B0CA4007210A4013435246938500200AE69A
S11310C0002E99D1FA7A002A0FD0FA6980210901F9
S11310D08C466244294917208A4200D9FBE53A6AC2
S11310E0624426498A4200D9F5E5244A1720F96961
S11310F0914200DDEFE5396A914200DDEBE57BE7E3
S1131100FA7A002A0FD0FA69802189008C46624459
S11311101F4917208A4200D9DDE53A6A62441C4916
S11311208A4200D9D7E51A4A1720F969914200DDAD
S1131130D1E5396A914200DDCDE55DE7FA7A002A0E
S11311400FD0FA69802109028C46624411491720A4
S11311508A4200D9BFE53A6A62440E498A4200D9FC
S1131160B9E50C4A1720F969914200DDB3E5396A03
S1131170914200DDAFE53FE71720ACE5FF0F00002B
S113118028860000308600001C86000024860000AB
S1131190FF030000FFFF000070B580002E4BC45811
S11311A023689A795D791540EA072AD501229A7154
S11311B06269931C636123689B8C9BB21380238BAD
S11311C0013B9BB22383002B15D0637F002B18D0E7
S11311D02268D3795BB2002B13DB138C9BB2002BF8
S11311E0FBD1137E02210B4313762268138C9BB22E
S11311F0002BFBD105E0012322681371237F052B0B
S113120016D06B0708D5042322689371E37E9B07ED
S113121002D5A37E9B0717D4AB0708D50223226807
S11312209371E37E5B0702D5A37E5B0710D470BD88
S113123000232377E37EDB07E3D5A37EDB07E0D53A
S11312402000A3689847DCE72000E3689847E3E7B9
S1131250236920009847EAE79018002010B5002081
S1131260014B984710BDC0469911000010B50120EC
S1131270014B984710BDC04699110000931C9B0078
S11312801950012393401A00837E134383767047D9
S113129010B5038B9BB20524002B01D0200010BD98
S11312A0037F052BFAD00523037702834161043BB6
S11312B002685371437F0024002BEFD00268138C23
S11312C09BB2002BFBD1137E02210B4313760268E1
S11312D0138C9BB2002BFBD10024DFE770B50022F6
S11312E0104B1A70002310491F25104E0D4C0AE0B4
S11312F00D4908E023780133DBB223700F2B10D89B
S113130000211F2BF4D9280018400122824048698B
S11313101042EFD04A619B009B59002BEAD09847BA
S1131320E8E770BD98180020002800409C180020B1
S1131330064A137802210B431370012053681942A3
S1131340FCD153681842F9D17047C04600280040C8
S113135000B583B0174A51698023DB000B43536106
S113136001A900230B700220134B98470220134B52
S11313709847134A137801210B431370013101205C
S113138053681942FCD153681842F9D10C4A1378B6
S113139010218B4313700B4B19004031002204C3FE
S11313A08B42FCD10822084B1A60084B984703B0C3
S11313B000BDC046000800404D440000DD4300006D
S11313C0002800409C18002000E100E031130000D8
S11313D0F0B5D6464F464646C0B58AB006000F0063
S11313E0140031600800A24B9847451C05281ED004
S11313F01330A04AD1690123AB400B43D36109A93F
S1131400237B0B70C5B228009B4B984728009B4B4D
S11314109847207B00219A4B98473B681C209B07E8
S113142007D50AB01CBC90469946A246F0BD1920C7
S1131430DFE73B681738DB07F3D430688C4B9946F9
S1131440984705008F49904B9847AD008F4BEE505D
S113145000233376737600257383B3832522B55432
S1131460336214333B60336898461800C84781469A
S1131470802308AA1370557001239370D570E06916
S1131480276A002800D1AFE008AB1870022308AA2D
S11314905370000CC0B211007D4B9847002F00D14F
S11314A0A7E008AB1F70022308AA53703F0CF8B2E0
S11314B01100774B9847A38AF380E38A3381237E14
S11314C08022002B04D1734B9B789B07DB0FDA013E
S11314D0A16823690B4313432422A25C002A02D08F
S11314E08022D2051343A26A13432C22A25C002A51
S11314F003D180229204914202D180221205134327
S11315002D22A25C002A02D08022120413432E2230
S1131510A25C002A02D08022D203134342461268FE
S113152013434246136080235B0053604D461335DA
S1131530E8B2594B98470790FA239B0022685A4314
S1131540914663689A46554DA847009001914B46D1
S11315505800A84702900391208EA8470490059153
S11315604F4F504A504B00980199B84702000B0066
S113157004980599B8474D4E00224D4BB04704904E
S113158005914846A84702000B0004980599B847FE
S113159002000B00474D00980199A847029A039B4B
S11315A0B0470022444BA847029A039B434DA847E7
S11315B0434B9847050080239B04A2689A421ED09F
S11315C003004020FF2D00D92BE700240020FF2535
S11315D01D40240625430004FF231B041840054333
S11315E04346DD6000201CE700214046354B984708
S11315F04AE701214046334B9847070051E7FA2652
S1131600B60053465E430098019902000B00274C34
S1131610A047009001913000204B984700222A4BAC
S1131620B84702000B0000980199244CA0470022FF
S1131630214B204CA047224B9847041E0CD031006C
S11316400798224B98470238001B2B00FF2D0CD81B
S1131650FF28BCD94020E4E67100481E079B9C4645
S113166060441A4B98470138EFE74020D9E6C0465A
S113167055210000000800404D440000DD430000F7
S11316808D1F0000B9170000012E0000341D00203A
S113169049450000002000417144000041790000E8
S11316A0AD6D000095D626E80B2E113E2561000095
S11316B000002440AD7200000000F03F45670000C8
S11316C0D9780000D91F000000000840215500000F
S11316D001680722CB691A42FCD1704770B5040037
S11316E006683268458B838BED1AADB2838B013B60
S11316F09BB2838313011DD5C37A002B03D0838B44
S11317009BB2012B10D0A38B9BB2002B02D1A37AE6
S1131710002B1CD12000124B9847236A5D19282303
S1131720F35CDBB22B7070BD72688023DB02134361
S11317307360E8E7C37A002BE5D0838B9BB2002B60
S1131740E1D172688023DB0213437360DBE720007E
S1131750034B98477268C0239B0213437360D9E715
S1131760D116000070B5040005686B8B5B0703D5C8
S11317701E222523C25470BD468B838BF61AB6B243
S1131780838B013B9BB28383044B9847236A9E1946
S11317903378DBB22822AB54EDE7C046D116000003
S11317A0931C9B00C3185960037E012191400B4395
S11317B0DBB203767047000070B58000754BC458E7
S11317C025682B681B01DA0F637E267E1E40638B1F
S11317D09BB2002B03D1A38B9BB2002B23D1638B31
S11317E09BB2002B08D0A38B9BB2002B04D12533D2
S11317F0E35C052B00D16DE0638B9BB2002B24D0FE
S1131800A38B9BB2002B20D06B8B9B0600D581E071
S1131810002A04D0A38B9BB2012B00D17AE0412291
S11318202523E25411E02B7EDB0707D501232B7619
S11318306B8B9B072ED541222523E254A38B9BB2AD
S113184063832523E35C052B38D0638B9BB2002B89
S113185007D0A38B9BB2002B03D12533E35C052B6C
S113186064D02523E35C052B13D02523E35C002BF4
S11318700FD003232B7500236383A3832533E35CF9
S1131880412B03D0A37A002B00D075E0730700D559
S11318907BE070BD6B8B5B07D0D518222523E25407
S11318A00023A383A37A002BC8D020003A4B984787
S11318B06A68C0239B0213436B60BFE71F33E35C7A
S11318C0002B03D02000354B9847BEE72000344B53
S11318D09847BAE71F33E35C002B00D08CE703334F
S11318E02B750023638325330022E254A37A002B53
S11318F007D101232B76F307A7D5E3682000984787
S1131900A3E72000244B98476A68C0239B02134333
S11319106B60F0E72423E35C002B03D12000204B11
S1131920984792E720001D4B98478EE71F33E35CEE
S1131930012B96D12B7E9B0701D502232B76032303
S11319402B750023638325330022E254B30703D5A8
S11319502423E35C012B0BD0F30700D481E7242379
S1131960E35C002B00D07CE7E3682000984778E72D
S113197023692000984774E72000074B98476A685A
S1131980E023DB0213436B6080E763692000984720
S11319907FE7C046341D0020D1160000DD1600008C
S11319A065170000024A137804210B431370704733
S11319B0EC1C002030B593B08023DB05009300239A
S11319C00193FF2269460A81CB7201222C216846C9
S11319D04254013142542D328354013283540C93C6
S11319E005328354059300220382C276079303844D
S11319F0438402762423C25442761323837613331A
S1131A00C254013BC254284B0A9380235B030393C3
S1131A10264B0E93264B0F9301235B421093119395
S1131A204133837203220B3BC254224D224C6A463B
S1131A3022492800A0470028F9D11E4D2C68200017
S1131A401F4B98471F2318401E3B83401D4A1360B9
S1131A502A68D369002BFCD1236802221343236034
S1131A60144B1B68DA69002AFCD15968802252029F
S1131A700A435A6001210F4AD171DA69002AFCD164
S1131A800020114B984702000023104800218018C1
S1131A9059410F4A00230F4CA0470F4B98470F4B57
S1131AA0984713B030BDC04690D003000200300008
S1131AB002003100F01C0020C5270000001800427D
S1131AC03D2E000000E100E071430000571B0000C0
S1131AD0581B0000AD56000001000020A5190000AD
S1131AE010B5224B98470022214B224CA0470022DC
S1131AF0214B224CA04702000B0000202049214C1E
S1131B00A047214B98478F21C905204B9847204B6C
S1131B10984780B21F4B9B899BB2984224D01D4B9F
S1131B201A6802218A431A605A681B490A405A609B
S1131B305A681A490A405A601A00D369002BFCD12A
S1131B40144B98815968802252020A435A6059689A
S1131B50802292020A435A601A6802210A431A60D8
S1131B601A00D369002BFCD110BDC0464179000096
S1131B7000003040AD6D000060E386414567000021
S1131B800000F03FAD720000557A0000415A000099
S1131B904157000000180042FFFFFEFFFFFFFDFF5A
S1131BA0F0B583B004000D00802252038223DB05CC
S1131BB09A6100226B46DA710F48104B9847104E19
S1131BC0104F01226B46D91D3000B8470028F8D1C8
S1131BD00D480A4B98470A4E0A4F01226B46D91DFD
S1131BE03000B8470028F8D12A0021000448054BEA
S1131BF0984703B0F0BDC046A0860100E11A00007A
S1131C00F01C0020252C000090D003000368186904
S1131C10431E9841C0B270470023037001224270F2
S1131C2083700371C370437183717047F0B5C64606
S1131C3000B582B0050014000160284AD0698023F1
S1131C409B030343D3610B781C209B0703D502B08D
S1131C5004BC9046F0BD0B781738DB07F7D401A914
S1131C60E3780B701F301E4B984724201D4B984778
S1131C7000266B465E70DE7001236A461370967010
S1131C8069460220184B98472F6863782B71AE7110
S1131C9063795A1E93419B0122789046A278002AC8
S1131CA003D004224146114388462279002A03D0F6
S1131CB00822414611438846DBB23B700B4E280094
S1131CC0B0470028FBD143467B7023786B71002317
S1131CD06B61AB61EB61064B1D60B8E70008004027
S1131CE04D440000DD430000494500000D1C000088
S1131CF0241D002070B5040005686B780279134335
S1131D006B700C4E2000B0470028FBD12B780222C8
S1131D1013432B706379002B04D1074AD369042140
S1131D200B43D3612B789B0703D50122EB79134234
S1131D30FCD070BD0D1C00000018004070477047B7
S1131D4070470000F8B5040017000668064D20002F
S1131D50A8470028FBD1A379002B02D137810020AA
S1131D60F8BDB781FBE7C0460D1C000070B5274BDA
S1131D701C682568AB79DB0707D50123AB71230009
S1131D80143302D0637C002B31D1AB799B0738D557
S1131D900223AB71A3899BB2002B2CD0E3899BB2A5
S1131DA05A1C92B2E2815B00A268944663441B8889
S1131DB09BB2AB81A389013B9BB2A381A3899BB254
S1131DC0002B18D100222033E2541E3B2B71AB713F
S1131DD0802149057E330E4AD1502300143310D09C
S1131DE0A37C002B0AD00020E369984706E000207A
S1131DF0A3699847C9E72300143302D0237C002B3E
S1131E0000D170BD636900209847FAE7241D0020C3
S1131E1000E100E0F0B5DE4657464E464546E0B5E3
S1131E2087B08046049116001F0000220023002181
S1131E308B463F2401202100009601975C460394C1
S1131E404446059413E02024641A0500E540A8469E
S1131E5014E0009C019D121BAB415C464D462C4393
S1131E60A346039C45462C430394013925D32024DF
S1131E7064420C19E7D40500A540A84604008C4030
S1131E80A14692185B4114001D00059E4F463E403A
S1131E90B446049E47463E40B246664657463E43D5
S1131EA003D00600264332002B00009C019D9D4276
S1131EB0DBD8CED19442D8D8CBE7039B584619003F
S1131EC007B03CBC90469946A246AB46F0BD10B55F
S1131ED0490840230024814202D2180010BD1C008E
S1131EE0091A631C9BB28842F9D94023FF2CF4D809
S1131EF014800023F1E70000F0B583B00F00160052
S1131F0008AA117804004C434022BC4202D91000B4
S1131F1003B0F0BD002B14D1020008000021194CBD
S1131F20A04701003A0000230020174CA0470022DC
S1131F300123121A8B41120C1B041A433280002213
S1131F40E5E70022012BF9D10A00002300210D4C02
S1131F50A04702000B0000920193380000210A4CB4
S1131F60A047050080239B0140229842CFD8790FD7
S1131F70F800009A019BA047EA00821AD2B25203E9
S1131F802A43DBE7ED560000151E000010B582B0B1
S1131F9004000E4B1B78002B07D0002905D10B4BF6
S1131FA05B78834210D01D200CE001A90C70122034
S1131FB0074B98471220074B9847044B5C7001224B
S1131FC01A70002002B010BD0020FBE7AC00002016
S1131FD04D440000DD430000404B984231D00AD903
S1131FE03F4B98424DD03F4B98425AD03E4B98427B
S1131FF037D0002070473D4B98420CD03C4B984260
S1132000F7D1012917D000295DD0022915D0032961
S113201015D00020EEE7012907D0002951D002296C
S113202005D0032905D00020E4E73248E2E732482E
S1132030E0E73248DEE73248DCE73248DAE73248A4
S1132040D8E7012907D000293FD0022905D0032968
S113205005D00020CEE72D48CCE72D48CAE72D480F
S1132060C8E7012907D0002931D0022905D0032966
S113207005D00020BEE72848BCE72848BAE728482E
S1132080B8E7012907D0002923D0022905D0032964
S113209005D00020AEE72348ACE72348AAE723484D
S11320A0A8E7012907D0002915D0022905D0032962
S11320B005D000209EE71E489CE71E489AE71E486C
S11320C098E71E4896E71E4894E71E4892E71E4884
S11320D090E71E488EE71E488CE7C046000C00427D
S11320E000140042001800420010004200040042A4
S11320F00008004203000500030006000300070077
S113210002001100020012000200130002000D0080
S113211002000E0002000F00020017000200180067
S1132120020019000300290003002A0003002B0009
S11321300300230003002000030021000300040027
S11321400200100002000C00020016000300280028
S11321500300220030B587B00B4B6A4632CB32C243
S113216032CB32C2009B83420BD001239A006946D2
S11321705258824206D00133062BF7D1002007B013
S113218030BD0023D8B2FAE740860000094B9842DC
S11321900CD0094B984207D0084A0023904201D042
S11321A018007047023302E0012300E00023DBB291
S11321B0F6E7C0460024004200280042002C0042FA
S11321C010B5040008004F4B98470023236080009B
S11321D04D4A82586260A372E3722373637223725E
S11321E0E36123626362A36223756375A375E37578
S11321F02376637623746374A374E3742C22A35448
S11322000132A3540132A3540132A3540132A35422
S11322100132A3540132A3540132A3540132A35412
S11322200132A3540132A3540132A3540132A35402
S11322300132A3540132A3540132A3540132A354F2
S11322400132A3540132A3540132A3540132A354E2
S11322500132A3540132A3540132A3540132A354D2
S11322600132A3540132A3540132A3540132A354C2
S11322700132A3540132A3540132A3540132A354B2
S11322800132A3540132A3540132A3540132A354A2
S11322900132A3540132A3540132A3540132A35492
S11322A00132A3540132A3540132A3544132A35442
S11322B0A365A3670132A354E365E3670132A35422
S11322C023661A3AA3501B32A3546366173AA350E9
S11322D01832A354A366143AA3501532A354E366E8
S11322E0113AA3501232A35423670E3AA3500F326B
S11322F0A35463670B3AA35001210C32A154013259
S1132300A35410BD8D2100006C860000F0B5DE469C
S113231057464E464546E0B591B001900C00150075
S11323200800C34B984703000100C248C2699E00DD
S1132330C14FF7593A43C26122681C20920706D55F
S113234011B03CBC90469946A246AB46F0BD22680B
S113235001271740F4D1B948325817202E68B242E9
S1132360EED36E68B242EBD3E869824200D2ABE1AD
S1132370286A824200D2A9E1686A824200D2A7E1B7
S1132380A86A824200D2A5E198229446AC446246EF
S11323900892002003E001300132082808D01678A2
S11323A0002EF8D0A64E765C8642F4DC1720C7E7F0
S11323B00022029280204004844602E00132042A72
S11323C00ED0A818007C0128F8D19E48405C9042A9
S11323D000DA81E160469040029E06430296EDE7F2
S11323E09D32AA5C002A04D0802212010299114372
S11323F002912A7A511E8A41920006926A7A012A2F
S113240022D0904AD25C110005923522AA5C8A42FD
S113241000D36BE12C21695C0F2900D966E1287B8C
S11324200A90E87A0B902D208246AA440020049753
S11324300EAE0796C0263601B1468446A046280053
S113244055460993824635E0069911430691D8E72B
S113245092024F463A400A4319798B4603215F465C
S113246039400A4316435A79520160210A403243E3
S113247099790902C026B6000E401643DA79120390
S1132480E021C9010A4016433443039A144320430C
S1132490624607995050042A2AD09A7C05999142A1
S11324A000D823E1597A0A3504239B46DC440F29DA
S11324B000D91BE10906F0231B0519402B002E78D7
S11324C03604FF200004064068788024002800D1E8
S11324D0049C987808270397002801D10498039056
S11324E0D878834610205F46002FB1D10498AFE717
S11324F044465546099B524AD25C91465146503156
S113250050464130002700220126B2460226FF36FB
S1132510B34680267602B046A4461C004B460FE024
S11325200678002E07D0934200D8D9E0022E14D0AA
S1132530564696403743013201310230082A10D002
S11325400E78002EECD0934200D8C7E04646964061
S113255037430678002EE9D1EDE75E4696403743CF
S1132560E9E79946230064466A7E1201302111404E
S1132570287E0722024011430022802040020E00E0
S113258002E00132042A0BD0A918097D0029F8D0F1
S11325900599914200DCA5E0010091400E43F0E76B
S11325A0B2460198020004323430002102C2824251
S11325B0FCD100220198426382639900224A885028
S11325C00460A022A95C643A81540DA9AA7A0A7015
S11325D01E4AD65C30001E4B984730001D4B98476E
S11325E04B46002B3CDD2E00583698339846A844C1
S11325F001239946AB464546A046089C03E00134B6
S11326000436AC422AD02378002BF8D00CAB4A46CF
S11326109A7000230CAAD37013002022B2181278E7
S11326201A704A465A70307819000B4B9847E6E7FF
S11326308D21000000080040588600006C860000D0
S11326407886000064860000281D0020688600004B
S11326504D440000DD4300004945000044465D460A
S11326600A9B1B030B9A12021343029A134323601F
S11326700422A3681A42FCD1FF2323710422A36815
S11326801A42FCD16B461B7E63710E9BE3600F9B69
S11326902361A7615346E3631022A3681A42FCD165
S11326A02B6863636B682364059800281CDD1C3564
S11326B0002202CD130010339B00E318596001324D
S11326C09042F6DC00203BE6172039E6172037E677
S11326D0172035E6172033E6172031E617202FE6BA
S11326E017202DE617202BE6002029E6172027E6E1
S11326F0920083185960034BD358426B13434363CE
S1132700002070477C86000070B504000D0000684E
S1132710094B9847094B1B5C1F221A400123934025
S1132720074A1360AD00074BEA58A36B1343A36336
S113273023689A6270BDC0468D210000AC860000FB
S113274000E100E07C860000F0B5C64600B58000DC
S11327500E4BC7583B68DE6ABB6B7A6B13401E4056
S113276000240B4B984602E00434302C0AD0434634
S1132770E5583542F8D03B195B68380098473B6808
S1132780DD62F1E704BC9046F0BDC046281D002080
S11327907C86000010B50020014B984710BDC04650
S11327A04927000010B50120014B984710BDC046D1
S11327B04927000010B50220014B984710BDC046C0
S11327C049270000F0B5DE4657464E464546E0B57B
S11327D091B005000C00160029600800D24B984700
S11327E005280DD00700133722680523D20709D521
S11327F0180011B03CBC90469946A246AB46F0BDC9
S11328001927F1E7226817339207F1D4C74AD1692F
S113281001301B3B83400B43D3610FA935239846FA
S1132820F35C0B70FFB23800C14B98473800C14BC2
S113283098474346F05C0021BF4B9847F37A6B718D
S11328402C23F35CAB712D23F35CEB71F37E2B72C1
S11328502423F35C6B722B6802931800B24B9847E5
S113286005281DD0133000220E2306A98C4663448C
S11328701A80338A98468023DB01984500D1C3E04F
S113288010D9C023DB01984500D1B8E080231B0296
S1132890984500D066E103230693002307930AE0DA
S11328A01920E0E780239B01984500D05AE11023CA
S11328B006930F3B079333680593F3689B4673694C
S11328C00393337E04932E23F35C9A4673689946EC
S11328D0002B00D1C5E080235B05994500D1A8E019
S11328E0737E002B02D0B37E029A93730E2306AA42
S11328F0944663441B88029A9381059A5B461A4363
S1132900039B1A434B461A4343461A43049B1B0238
S11329101A4353465B071A432F23F35C002B01D160
S113292004331A43737E9B022421715C49020B43D6
S11329302621715C09020B432C21715C49040B4371
S11329402D21715C09040B43B07AF17A08431843D2
S11329503389FF2B00D1AAE0802149040A4318439C
S113296002998B689C46338C718C0B431F000721A2
S1132970634619403B000B4302998B60F369002BBB
S113298002D06E490A401A433423F35C002B03D16E
S11329906B4B9B789B0701D580231A432968029FC0
S11329A0CB69002BFCD178602968CB69002BFCD162
S11329B03A603B68F02212051340E022D2049342AD
S11329C00AD0BB6807229343BB60BA682523F15C35
S11329D01E3B0B401343BB600EAB80221A700022D7
S11329E05A70DA709A70B36B0A93F36B0B93336C6F
S11329F00C93736C02930D9300270AAE66E00823D0
S1132A000693073B079356E733680593F3689B46A1
S1132A1073690393337E04932E23F35C9A4673689D
S1132A209946002B19D080235B05994501D00023DA
S1132A3027E02F23F35C002B00D051E7B36A1F007B
S1132A40C0B2404B984701000E2206AB9C4662443C
S1132A5038003D4B9847030013E0082306930023F6
S1132A6007932F23F35C002B0FD0069B0093079B47
S1132A700E2206A98C466244316BB06A334FB847C4
S1132A800300002B00D0B3E62AE7B36A1F00C0B2EC
S1132A902C4B98470100069B0093079B0E2206A827
S1132AA0844662443800294FB8470300E9E7F37EBF
S1132AB0002B00D154E78023DB041A4350E72000A5
S1132AC0234B984707E00137042F0DD0F9B2BB0020
S1132AD098590028F3D0431CF5D00EA90870000CB7
S1132AE0C0B21C4B9847EEE70023EB602B616B618F
S1132AF0AB61EB612B62AB626B620022EB85AB8551
S1132B003033EA540133EA540133EA540133EA54CA
S1132B102868054B984704000F49104B9847A400B8
S1132B200F4BE550002363E65521000000080040E8
S1132B304D440000DD4300008D1F0000FFFFFFF047
S1132B400020004171440000CF1E0000F91E000067
S1132B50D91F000049450000612C0000012E00002F
S1132B60341D00201023069300230793A3E6C046D8
S1132B70F8B506000C00150007680A4B9847F38D5A
S1132B809BB2002B03D0084B98470520F8BDF58570
S1132B90054B9847B46205223323F254323BBB758C
S1132BA00020F3E77D3D0000BD3D0000F8B50400C2
S1132BB00D00160007680F4B9847A38D9BB2002B9E
S1132BC003D00D4B98470520F8BDA6850A4B9847BE
S1132BD0656205223223E2542E3BBB75237A002B17
S1132BE001D02023BB75637A0020002BECD008238E
S1132BF0BB75E9E77D3D0000BD3D0000931C9B00D3
S1132C00C31859603021012393401A00435C1343D5
S1132C104354704710B50122014B984710BDC0467C
S1132C20AD2B000010B51723002A01D1180010BDE8
S1132C30C4790533002CF9D0014B98470300F5E71C
S1132C40712B0000002903D0012905D0172002E0D0
S1132C503223C05CC0B270473323C05CC0B2FAE711
S1132C60F8B58000644BC5582C68E369002BFCD18F
S1132C70237EA67D1E403023EB5C3122AF5C1F40D7
S1132C80F30722D5EB8D9BB2002B1CD0AA6A1378D4
S1132C90DBB2511CA962697901290ED09BB2DB0514
S1132CA0DB0D2385EB8D013B9BB2EB85002B0CD117
S1132CB0013323750133A37507E0517809020B43EF
S1132CC00232AA62EBE701232375B30706D5022378
S1132CD0237500223133EA54FB071ED4730768D5E9
S1132CE0AB8D9BB2002B62D0638BDBB21A0718D476
S1132CF07F2213405A0601D540229343002B33D040
S1132D009A0711D51A223223EA54303B63837B0796
S1132D104FD528006B6998474BE02800EB6898472B
S1132D20DCE777221340E5E75A0705D51E22322354
S1132D30EA542E3B6383EAE7DA0705D513223223EC
S1132D40EA54313B6383E2E7DA0605D542223223B3
S1132D50EA54223B6383DAE79B06D8D54122322327
S1132D60EA54123B6383D2E7238DDB05DB0DDAB231
S1132D70696A0A706A6A511C69626979012910D00A
S1132D80AB8D013B9BB2AB85002B12D10433237571
S1132D9000222E33EA54BB070BD528002B69984731
S1132DA007E01B0A53706B6A01336B62E8E7042384
S1132DB02375F30604D5102323752376FB060ED45E
S1132DC0B30604D52023237523763B070BD433079E
S1132DD004D5082323752376BB0608D4F8BD280040
S1132DE0EB699847ECE72800AB699847EFE72B6A53
S1132DF028009847F2E7C046341D002070470000C1
S1132E00F0B50A4B1B78002B0CD1094F094E0A4D23
S1132E100024DE515A1914600433182BF9D101220D
S1132E20024B1A708000024BC150F0BDAE0000206E
S1132E30B0000020FD2D0000341D002000B583B03B
S1132E4009236A46137001335370013393700133BD
S1132E50D3700133137101335371034B98476B469D
S1132E60185603B000BDC0465521000010B5024BF2
S1132E701B680020984710BDB000002010B5024B1D
S1132E805B680120984710BDB000002010B5024BCC
S1132E909B680220984710BDB000002010B5024B7B
S1132EA0DB680320984710BDB000002010B5024B2A
S1132EB01B690420984710BDB000002010B5024BD8
S1132EC05B690520984710BDB000002070B58000F4
S1132ED01F4BC45823689D79227F637F13401D4094
S1132EE0EB070AD4AB070FD4EB0614D46B0719D441
S1132EF02B071ED4AB0623D470BD2000636898470B
S1132F00012322689371EDE72000A3689847022308
S1132F1022689371E8E720006369984710232268C8
S1132F209371E3E72000E3689847042322689371D0
S1132F30DEE7200023699847082322689371D9E7C4
S1132F402000A3699847236820229A71D4E7C046D9
S1132F504C1D002010B50020014B984710BDC04601
S1132F60CD2E000000B583B001AB80221A700A7820
S1132F705A704A789A708A78DA701900014B984727
S1132F8003B000BD4945000010B5114B1B78023B4E
S1132F90042B07D89B000F4AD3589F460E4B186842
S1132FA00E4B984710BD0E4B18680C4B9847F9E729
S1132FB00C4B1868094B9847F4E70B4B1868074B00
S1132FC09847EFE7094B1868044B9847EAE7C0466F
S1132FD0C8000020B0860000541D0020AD0600008B
S1132FE0581D0020501D00205C1D00208C1D002059
S1132FF070B50B4C01220B4920000B4DA847E37E12
S113300002221343E3760423226853710022074902
S11330102000A847E37E01221343E37670BDC04637
S1133020601D0020892F00007D1200007131000016
S113303030B58DB0284C20602848016028490A60CA
S1133040284A1360284B109A1A6001AC2000274BC1
S113305098470722227005236370033BA3701E3335
S1133060E370E033238300232362AF210901E1618C
S11330702271C0225201E280A372012222732361D1
S11330801B4D22001B4928001B4B98472C68238C9E
S11330909BB2002BFBD12000184B9847184B1B5CAC
S11330A01F221A4001239340164A136007232371F9
S11330B0A37123780222134323700D4B1A68138CD7
S11330C09BB2002BFBD1104B984701220F490848B3
S11330D00F4B98470DB030BD541D0020581D0020E3
S11330E0501D00205C1D00208C1D0020190C0000C8
S11330F0601D002000440042A10C0000F50B0000FC
S1133100C486000000E100E0F12F0000801D0020D3
S11331109112000010B5FF235A2280214900024871
S1133120024CA04710BDC046601D00205D0C00008D
S113313082B007236A461370013B5370013B9370BE
S1133140013BD370033B1371115C084B1A68138C59
S11331509BB2002BFBD113891F2083430B431381A4
S1133160138C9BB2002BFBD102B07047601D002072
S113317010B501220D4B1A700D4B1B780133DBB2D5
S1133180052B0ED00A4A1370094C2078094B984736
S113319021784900084BC91801220848084B984770
S11331A010BD0022024B1A70EEE7C046901D0020AD
S11331B0C800002031310000801D0020601D002067
S11331C0911200000122014B1A707047CA000020BE
S11331D00122014B1A707047C900002070B5094CD8
S11331E0002209492000094DA847637E01221343A8
S11331F0637607492000A847637E0222134363765F
S113320070BDC046201E0020C5310000A11700007B
S1133210D131000030B58FB001AB264A02920022B2
S113322003921A76802189030591012149429982EA
S113323025315A540B9208315A5401315A540131F0
S11332405A54D7321A861C4ADA821C4A08921C4AFB
S1133250099202221A73C8235B000193194D1A4C78
S113326001AA1A492800A0470028F9D1154B1C6867
S11332700722E3691A42FCD1236802221343236024
S1133280104D2868124B98471F2318401E3B83405B
S1133290104A1360E88800231021628B0A4204D18B
S11332A001338342F9D3102363830B4B98470FB048
S11332B030BDC046480D0000102700000200160073
S11332C002001700201E0020D1130000001000424D
S11332D03D2E000000E100E0DD31000084B070B557
S11332E0059106920793BB239B00C15C112914D05E
S11332F02C234B4305AAC31870CA70C370CA70C389
S113330070CA70C330CA30C30131BB239B00C1549F
S11333100023044A8354044A835470BC08BC04B098
S11333201847C046ED020000EE0200000A4BC25CE2
S1133330013BC35C013B9A4202DA0132064BC254A0
S1133340064BC25C044BC35C9B1A042B00D0704731
S11333500132024BC254FAE7ED020000EE02000013
S1133360084BC35C002B02D0013B064A8354064B36
S1133370C35C044A825C9A4202D2013B024A8354EF
S11333807047C046ED020000EE020000024BC25C32
S11333902C235343C0187047ED02000070B506009B
S11333A00D1C081C0A4B984704000A4B9847011C43
S11333B0281C094B98470949094B9847094B9847DA
S11333C00300220008493000084CA04770BDC046E5
S11333D0B95F000099600000815C000000007A443D
S11333E0415A00004157000028870000A17D0000D9
S11333F0F0B589B007000D001600BB239B00C35C29
S1133400934227D92C24544304192378072B47D8F3
S11334109B003A4AD3589F4623691A7820001430F7
S11334203749384B98470023E376637B002B4AD116
S1133430354BFB5CB3423AD023001433A21C0D3449
S11334400094324902A82F4CA047142202A9280054
S11334502F4B984709B0F0BD23691A882000143017
S11334602749284B9847DEE723691A68200014305F
S11334702849244B9847D6E700232375D3E72369CB
S1133480196820001430244B9847CCE70023237597
S1133490C9E72369197820001430A36A9847C2E762
S11334A02000143008221D49194B9847BBE7A31C80
S11334B022000D320192143400947E22184902A88D
S11334C0104CA047C1E7104BFB5CB34209D023006A
S11334D01433A21C0D340094124902A8094CA047CD
S11334E0B3E7A31C22000D320192143400947E220F
S11334F00D4902A8034CA047A7E7C046C8860000B0
S1133500C4880000A17D0000ED0200004C8700008B
S1133510197C0000348700009D33000038870000C8
S1133520408700006887000058870000F0B5DE4639
S113353057464E464546E0B589B007000E002E4B6F
S1133540C35C9B461A0002A92C4B98472C255B466A
S11335505D43A81C38182A4CA04782462B0014331C
S1133560FB1800931800A047019002AB07A9202282
S11335701A7001338B42FBD1002302AA1375340065
S113358054339946B1441F4B98464B46A9461D00F7
S1133590142202A92000C0471534AC42F8D14D468C
S11335A02C235A465343FB1800221A731A7730000F
S11335B01530FF23984652461A40691C7918114C5D
S11335C0A047019B42461340984630002A301A0017
S11335D00099A0470D357F193800094B9847020020
S11335E040462B3030183900A04709B03CBC904607
S11335F09946A246AB46F0BDED020000F13300004F
S1133600F57D0000197C0000F0B5D6464F464646CD
S1133610C0B506000F00012A3ED0234BC55C2B1D0C
S11336209D423CDABB239B00C35CAB4239D90023E7
S11336301E4A91461C4A9046023A92465C1CE4B2E9
S11336405900CB18D900C91A79182A003000C84784
S11336500135EDB24346F35C04339D4204DA2300A2
S11336605246B25CAA42E9D8032C10D81421202077
S113367062001219D3009A1ABA180B00013BDBB28C
S1133680002BFBD110700134E4B2032CF0D91CBC24
S113369090469946A246F0BD054B9847F7E70024AB
S11336A0E4E70024E2E7C046EE020000F133000044
S11336B02D350000F8B504000F001E000230110083
S11336C0094DA847601C3900A84720000D30069911
S11336D0A8472670079B2361099B6362089B2362AA
S11336E00A9BA362F8BDC046E57D000070B5284B77
S11336F0C25C2C235343195C072948D88B00254905
S1133700CB589F462C245443041926693578280045
S1133710214B9847616A214B9847002837D00135DF
S1133720357034E02C245443041926693588280064
S1133730194B9847616A194B9847002827D00135DF
S1133740358024E02C245443041926693568280064
S1133750134B9847616A114B9847002817D00A35D4
S1133760356014E02C235A43801804692568416AA3
S1133770281C0A4B9847002809D0281C094B984755
S1133780094A0A4B0A4DA8470A4B9847206070BD66
S1133790ED020000E8860000F95F00005D560000BD
S11337A099600000B17900009A9999999999B93F63
S11337B025610000557A000070B504002F4BC25CEF
S11337C02C235343195C072954D88B002C49CB581C
S11337D09F462C235A438418266935782800294BA0
S11337E09847216A284B9847002843D0013D3570FB
S11337F040E02C235A438418266935882800214B3D
S11338009847216A204B9847002833D0013D3580E2
S113381030E02C235A4384182669356828001B4B52
S11338209847216A184B9847002823D00A3D3560F1
S113383020E02C235A43821815692E68116A301C23
S1133840114B9847002809D0301C114B9847114A56
S1133850114B124EB047124B98472860074BE25C5D
S11338602C235343E4182469002120680D4B984706
S1133870002800D170BD00232360FBE7ED020000A7
S113388008870000F95F0000855600009960000079
S1133890B17900009A9999999999B93FAD7200004C
S11338A0557A00005D56000001607047024A1378A3
S11338B004210B43137070479020002010B5014B76
S11338C0984710BDAD380000024A137804218B4399
S11338D01370704790200020F8B504000D000B49C8
S11338E004220B781342FCD0094B9847094E0A4F27
S11338F02A0021003000B8470028F9D1054D074CB3
S113390001212800A0470028FAD1F8BD902000200A
S1133910C93800005C200020252C0000452C000044
S113392010B5084C002208492000084B9847312262
S1133930A35C01210B43A35405492000054B984780
S113394010BDC0465C200020BD380000FD2B0000E7
S1133950EE1C0020152C000030B593B08023DB054D
S1133960009300230193FF2269460A818B72CB7274
S113397001212C226846815401328154013283543E
S1133980013283540C93053283540593002203823D
S1133990C2760793038443840276427613238376A4
S11339A01333C254013BC2542F4B0A9380235B034D
S11339B003932E4B0E932E4B0F9301235B421093D4
S11339C0119303223633C254113BC154294D2A4C5E
S11339D06A462A492800A0470028F9D1254D2C68B9
S11339E02000274B98471F2318401E3B8340254A3D
S11339F013602A68D369002BFCD123680222134385
S1133A0023601C4B1B68DA69002AFCD159688022A8
S1133A1052020A435A600121164AD171DA69002A16
S1133A20FCD1DA69002AFCD15968802292020A4347
S1133A305A6001210F4A9171DA69002AFCD10020F1
S1133A40114B984702000023104800218018594167
S1133A500F4A00230F4CA0470F4B98470F4B984732
S1133A600F4B984713B030BD90D0030002001000F4
S1133A70020011005C200020C5270000000800425D
S1133A803D2E000000E100E071430000571B0000E0
S1133A90581B0000AD560000010000202139000031
S1133AA0AD38000000B583B001AB187059709A703E
S1133AB003211800014B984703B000BDD93800001A
S1133AC010B50F2800D910BD5208013870235B428D
S1133AD01843C0B2014B9847F5E7C046A53A000029
S1133AE0014B18687047C046D4000020014B187879
S1133AF07047C046A0220020264B1A6A196AC90DD5
S1133B00012003008B435B00920D424001210A40D7
S1133B101343012B09D0022B21D0002B00D0704776
S1133B201D4A13701D4A1370F9E71B4B1B78002BB9
S1133B3008D0022BF3D10022174B1A700132174B15
S1133B401A70ECE70122144B1A7015490B68154AD8
S1133B5010681B1A144803600B681360DFE70E4BF0
S1133B601B78002B08D0012BD9D100220A4B1A70E4
S1133B7002320A4B1A70D2E70222074B1A70084924
S1133B800B68084A10681B1A074803600B68136027
S1133B90C5E7C04680000041C4220020A0220020C6
S1133BA0D4000020D0000020CC00002010B50B4B26
S1133BB018680B4CA0470B4B1868A0470A4B1868B1
S1133BC0A0470A4B1868A047094B1868A047094A40
S1133BD0136801331360084B984710BD0C23002071
S1133BE0850500009C220020C8220020A422002079
S1133BF010230020D4000020F93A000070B5AAB0C8
S1133C000E4E01AC310020000D4B98470623A372E1
S1133C10023BE372F63363600A4D22003100280050
S1133C20094B98472A68022193681942FCD113680A
S1133C3002210B4313602AB070BDC0460024004229
S1133C40C1210000CC2200200D230000F0B5C6469F
S1133C5000B580460F0016001D000C4C00220C49D4
S1133C6020000C4B9847002120000B4B98470B4B2E
S1133C7042461A600A4B1F600A4B1E600A4B1D60C5
S1133C800A4B069A1A6004BC9046F0BDCC22002070
S1133C90AD3B0000F1260000092700000C230020A2
S1133CA09C220020C8220020A422002010230020EF
S1133CB0094B1B680120142B04D8074B1B680130E7
S1133CC00F2B00D97047044B1B6800200A229A422C
S1133CD040410330F6E7C046CC00002010B58EB05A
S1133CE0002200216B469A8000236846C17143700C
S1133CF08370037243728372C37203738373437357
S1133D000374059206920285428582853423C15448
S1133D10303BC37007220270053A8271013A027780
S1133D202A32089209930A4C6A460A4920000A4B2F
S1133D30984740212000094B984722681369002BBB
S1133D40FCD1136802210B4313600EB010BDC046B2
S1133D50A822002000340042C90700001D0B000007
S1133D6010B58000C2B201210148024B984710BD32
S1133D70A8220020950A0000704700000C4B1B6825
S1133D80002B06D1EFF31083002B07D00022094B40
S1133D901A70074A136801331360704772B6BFF391
S1133DA05F8F0022044B1A700132024B1A70F0E745
S1133DB0D8000020DC00002014000020084B1A6802
S1133DC0013A1A601B68002B09D1064B1B78002BA3
S1133DD005D00122044B1A70BFF35F8F62B670479F
S1133DE0D8000020DC0000201400002010B50728B3
S1133DF003D880000F4B1B589F46002018E00E4B41
S1133E00586815E00D4B597D0907090F01310C481D
S1133E100C4B98470CE0084B986809E0074B1B7F54
S1133E2000209B0704D5044B186801E080200002A1
S1133E3010BDC04674870000E00000200010004060
S1133E40006CDC0221550000F0B5DE4657464E46B4
S1133E504546E0B5384B1B8A1A07D20F91465E05DA
S1133E60760F42780F241440A346027851424A4107
S1133E70D2B285784168314FB9420DD9304FB94239
S1133E8053D9304FB94252D92F4FB94251D92F4F3C
S1133E90B94202D8042600E00026477A047AA446F0
S1133EA0447BA046047B002C01D00124A146284C6D
S1133EB06160C17A8A4620495446CC74807A82462D
S1133EC007205446204088749200042083431A43F8
S1133ED003384B46DB000824A2431A4343460340FD
S1133EE01B010834A2431A43634603409B01303448
S1133EF0A2431A430740FF0180239A4313003B4324
S1133F003602144A134033432840C002124A134075
S1133F1003435A4614031B051B0D23430B823CBC6D
S1133F2090469946A246AB46F0BD0126B5E7022667
S1133F30B3E70326B1E7C0460010004080841E00AA
S1133F4000093D0000127A000024F4000048E80152
S1133F50E0000020FFF8FFFFFFF7FFFFF8B50400C3
S1133F60C568037D012B4DD0A36818012900294B96
S1133F7098470F22024003092178C9016678B601E7
S1133F803143C9B2244E31771104013B1B051B0D8B
S1133F900B43336237002C260421BB5D0B42FCD15A
S1133FA0A3781B03E178C9000B43217989000B43F3
S1133FB0A17C032631400B43218A0904174F394061
S1133FC00B43E17C0902E027FF0039400B43277DC6
S1133FD03F01302139400B430F494B62637D1E4042
S1133FE02823CE540F002C260821BB5D0B42FCD1A4
S1133FF00F23984382186A43637D0433DA40084BE5
S11340001A60F8BD018A013149002800014B984724
S11340100500A9E721550000001000400000FF073B
S1134020E0000020072803D88000184B1B589F4647
S1134030172029E0164A137D02210B431375002033
S113404022E0144A936902210B43936100201BE090
S11340500F4A138A02210B431382002014E00D4AF5
S1134060938A02210B43938200200DE0084A137FB8
S113407002210B43137710002A310222435C1342BE
S1134080FCD1002000E000207047C0469487000067
S11340900010004000140040F0B5D6464F46464696
S11340A0C0B58EB00322624B9A60624A53681E21E7
S11340B08B4318390B4353600AA8002303708370A1
S11340C05D4A4260037243728372C3720373437323
S11340D001334370594B98470020594B984759492D
S11340E00122CB681A42FCD0564B1A8A80210A431B
S11340F01A821A7D40310A431A75534B984701AC12
S113410001266660002565702572657225702100A0
S113411001204E4B9846984701204D4FB8476660A2
S11341206570062399462370657226722100022069
S1134130C0470220B84766606570657207239A46D7
S11341402370267221000320C0470320B84766600D
S113415065704B4623702572657221000420C047A8
S11341600420B847666065704B46237025726572FB
S113417021000520C0470520B847666065704B469E
S113418023702572657221000620C0470620B847B7
S1134190666065704B4623702572657221000720A6
S11341A0C0470720B847666065702572657253463C
S11341B0237021000820C0470820B84704A8857050
S11341C0C5700571234B83604575C574857405708E
S11341D046700675184BC3607823FF3303821E4B69
S11341E098470720164B9847164830210322435C12
S11341F01340032BFBD1134A117F833B0B431377EB
S11342000123164A137101A94B6000234B700B72F2
S11342104B7207330B7000200C4B984700200C4B5B
S113422098470EB01CBC90469946A246F0BDC046C5
S11342300018004000400041001BB700493E000048
S1134240254000000010004061420000854200004B
S113425031430000006CDC025D3F000000080040B8
S1134260064A536980210B4353610122044B1A709F
S113427019000B781342FCD17047C0460008004077
S1134280001C004070B504000D784B78002B02D060
S11342908023DB001D434B7A002B02D080231B01BB
S11342A01D43486801280FD9431E184231D1022802
S11342B02DD90223002201325B009842FBD88023CF
S11342C05B011D43120415430B7A002B02D080239B
S11342D09B011D430426A6401149124A4B68134012
S11342E01E42FBD1104B9847A4000D4B9C466444DE
S11342F0226A80235B001A402A4322626146094AEB
S11343004B6813401E42FBD1084B984770BD0022F6
S1134310D5E7000480239B0018430543D4E7C04637
S1134320001C0040FC0700007D3D0000BD3D000076
S113433010B504000422824009480A4943680B402E
S11343401A42FBD1084B9847A400054B9C46644491
S1134350226A80235B0013432362044B984710BDF9
S1134360001C0040FC0700007D3D0000BD3D000036
S1134370F8B50400042282401248134943680B40F4
S11343801A42FBD1114B98470E4F0834A400E05950
S11343904007400F0E4B98470600E559ED04ED0F1A
S11343A0E459240C0B4B9847002D07D1012C07D955
S11343B021003000084B9847060001E00134E64034
S11343C03000F8BD001C0040FC0700007D3D0000EB
S11343D0ED3D0000BD3D00002155000010B5040076
S11343E0094B9847A000094B9C466044802283589F
S11343F040210B4383504031403A43581A42FCD089
S1134400034B984710BDC0467D3D0000001C004092
S1134410BD3D000010B50400094B9847A000094BAE
S11344209C4660448022835840218B438350403112
S1134430403A43581A42FCD1034B984710BDC0463A
S11344407D3D0000001C0040BD3D000070B504002F
S11344500D00054B98472A780F2313402034A400FD
S1134460024AA35070BDC04615440000001C004021
S113447010B50400064B98472034A400054BE458BB
S11344802407240F044B98472000044B984710BD81
S11344907D3D0000001C0040BD3D00007143000054
S11344A030B5D378002B35D11378802B29D01B0657
S11344B080246402234354780225AC4306D19478C3
S11344C0002C20D18024A402234341605478013C71
S11344D0012C1CD90D042D0CA024E4052C431C43F1
S11344E084620D0CD02424062C431C438462D478AB
S11344F0002C22D15B031CD59378012B1ED0416183
S113450017E00023D7E7C024E4022343DDE70D4C82
S11345102340DFE741600C04240CA023DB05234384
S113452083620C0CD0231B0623438362D378002BB5
S113453003D15378013B012B02D930BD8161F8E7E7
S11345408160FAE7FFFFFBFF10B50A00C1090023F1
S1134550002905D14309DB018221C9058C46634446
S11345601F242040012181401800014B984710BDB1
S1134570A14400007047000010B5054B9847054B57
S11345809847054B9847054B9847054B984710BDEE
S113459099400000793D000075450000511300006A
S11345A075450000FEE7000010B5174A174B9A4204
S11345B011D01A00164B9A420DD2164A03339B1A95
S11345C09B0801339B00002210480F498C588450EB
S11345D004329A42FAD1104A104B9A420AD2D34377
S11345E00E495B1803218B4304339B18002102C23C
S11345F09342FCD10A4AFF210A4B8B4393600A4B36
S113460098470A4B9847FEE7848A00000000002080
S1134610880000200400002088000020B02700202B
S113462000ED00E000000000BD7B000045490000F3
S11346300300064A1268002A04D0044A1068C3180A
S1134640136070470249014A1160F6E7EC0000204C
S1134650B047002010B501290DD0002906D0022949
S11346600ED0042209490A4B984703E00422094961
S1134670074B984710BD05220749054B9847F9E7B2
S113468005220649024B9847F4E7C046F08700002C
S1134690197C0000DC870000E0870000E887000048
S11346A0F0B585B001900E00002302AA53718B006F
S11346B05B18DC00E31ADA170F241440E418241101
S11346C0052120000F4B98470131C8B202AA0523E7
S11346D0202505270BE0591F8C4203D3002E01D05F
S11346E0107000E0157005330132282B03D0A3426B
S11346F0F1D81770F7E702A90198034B984705B062
S1134700F0BDC0462D560000E57D0000C046704750
S1134710C0467047C0467047C0467047C0467047A1
S1134720012804D002384342584101307047002028
S1134730FCE70000F0B585B000276B461F739F733C
S11347405F7302A90F7001264E708F7001AD6E70F9
S1134750AF702E700C202F4CA04703A90D20A0474A
S113476003A93620A04703A93720A0472900182011
S1134770A04729001C20A04729002620A047290083
S11347802520A04729002420A04729002320A04752
S113479029002220A04729002120A0472900202009
S11347A0A04729003F20A04729002720A04729002F
S11347B02820A04729002920A04729001420A04729
S11347C0802252048223DB055A616B465F709E701F
S11347D0DF701E70694604200F4CA0476B461E70A4
S11347E069460520A0476B461E7069460620A0470F
S11347F06B461E7069460720A0476B461E706946CB
S11348000320A0476B461E7069460220A04705B0EE
S1134810F0BDC046652F00004945000000B583B0D7
S11348206846054B984740236A4613700349044879
S1134830044B984703B000BD191C0000005400420B
S1134840D02400202D1C000010B582B001A8074B15
S11348509847074C01AA00212000064B98470021E5
S11348602000054B984702B010BDC0463D1D000016
S1134870D02400203F1D0000411D000070B50C0035
S11348800122134B1A70012821D002281CD1114B8C
S11348901868114B98470378042B07D02378012B11
S11348A00FD0002B13D10133237010E0094D286879
S11348B0094B984701692800084B98470023237047
S11348C005E00023237002E00022014B1A7070BD42
S11348D01C000020200000208D330000A9380000B7
S11348E0F0B597B001AD16AE2800202100240200D7
S11348F014320300197001339342FBD1047515304F
S1134900B042F4D10A4B1A780A4B186801A90A4B31
S113491098470024094F0A4E21000020B847280078
S1134920B0470134E4B21535042CF5D117B0F0BD0D
S113493080150020200000200936000079040000C2
S113494015050000F0B5DE4657464E464546E0B52F
S1134950BDB0F74C01212000F64DA847F64B99460F
S113496001211800A847F54B984601211800A847D3
S1134970F34F01213800A847F24E01213000A84727
S1134980FA239B00E3606361E361A3627F232362F4
S1134990ED4B5C60ED4B4A465A60ED4B42465A6023
S11349A0EC4B5F60EC4B5E60EC4B9847EC4B9847EC
S11349B0EC4B9847EC4B9847EC4B9847EC4B98479B
S11349C0EC4B9847EC4B9847EC4B9847EC4B98478B
S11349D0EC4B9847EC48ED4B9847ED4B9847ED4B23
S11349E00D935A1CFF32190000230B7001319142C0
S11349F0FBD10C91E84BC32189005A58FF20824314
S1134A003F3802435A50C624A4001A59E3481040C0
S1134A108022D20102431A515A58E14810408022A0
S1134A20120402435A500122DE4B1A70BFF35F8F07
S1134A3062B60020DC4B9847642200230021DB4C43
S1134A40A047DB4A002380185941DA4A0023DA4C94
S1134A50A047DA4B9847BA4FB84EB74DB94B984672
S1134A6000933B0032002900B148D54CA047642094
S1134A70D44B9847D44B9847434600933B003200AD
S1134A802900AB48D14CA0472CAB9B463CAF1D0042
S1134A90BC24A400CE4E2000B04701C5BD42FAD1CB
S1134AA027A8CC4B0200190031C931C211C911C267
S1134AB022A914330A0013CB13C203CB03C2C64C7E
S1134AC0002398460493002503950295C34B019354
S1134AD000940423C24A210017A8C24FB8471AAB56
S1134AE06A4643CB43C243CB43C203CB03C21799A9
S1134AF0189A199BBC48BD4EB0474346049303958E
S1134B000295BB4B019300940423BA4A210017A8D1
S1134B10B8471AAB6A4643CB43C243CB43C203CB29
S1134B2003C21799189A199BAF48B04EB047434631
S1134B30049303950295B04B019300940423AF4A68
S1134B40210017A8B8471AAB6A4643CB43C243CBEC
S1134B5043C203CB03C21799189A199BA248A34EC8
S1134B60B0474346049303950295A54B01930094E3
S1134B700423A44A210017A8B8471AAB6A4643CBBA
S1134B8043C243CB43C203CB03C21799189A199B60
S1134B909548964EB04743460493039502959A4B25
S1134BA0019300940423994A210017A8B8471AAB2B
S1134BB06A4643CB43C243CB43C203CB03C21799D8
S1134BC0189A199B8848894EB04743460493039525
S1134BD002958F4B0193009404238E4A210017A859
S1134BE0B8471AAB6A4643CB43C243CB43C203CB59
S1134BF003C21799189A199B7B487C4EB047864B81
S1134C009A4604938323DB0503930295834B9946C9
S1134C10019300940523824A824917A8B8471AAB26
S1134C206A4643CB43C243CB43C203CB03C2179967
S1134C30189A199B69486D4EB047534604938323D1
S1134C40DB05039302954B4601330193009405233E
S1134C50754A764917A8B8471AAB6A4643CB43C28C
S1134C6043CB43C203CB03C21799189A199B5B48E1
S1134C705E4EB0476E4B04938023DB05039302958D
S1134C804B4603330193009407236A4A6A4917A8E1
S1134C90B8471AAB6A4643CB43C243CB43C203CBA8
S1134CA003C21799189A199B4C48504EB047434673
S1134CB004938223DB050393604B02934B46023338
S1134CC00193009400235E4A5E4917A8B8471AABC3
S1134CD06A4643CB43C243CB43C203CB03C21799B7
S1134CE0189A199B3D48414EB04743460493039597
S1134CF002953D4B019300940423534A210017A8C5
S1134D00B8471AAB6A4613CB13C213CB13C203CBF7
S1134D1003C21799189A199B3048344CA0471023A2
S1134D20994600239A46099300264B460893DDE0F2
S1134D3064270020B5060000142300205823002017
S1134D40042500209C240020382500208C230020EA
S1134D5098270020F42400204823002079450000EF
S1134D60B50B000015320000354700004D0300006C
S1134D70B50400001D4800004948000059390000EE
S1134D80B5190000DD3C0000D0240020F51C000013
S1134D90310500009C23002000E100E0FF00FFFF3C
S1134DA0FFFF00FF1400002071430000ED560000D7
S1134DB0571B0000581B0000AD56000001000020E6
S1134DC03130000015310000FD3B00004D3C000077
S1134DD0057C0000B48700007C880000901200204D
S1134DE0F4870000B5360000A00F0020DD3200007B
S1134DF0F000002000880000E00300200C88000080
S1134E00D006002018880000C00900202488000073
S1134E10B00C002030880000A146000018000020DB
S1134E203C8800004888000058880000648800001E
S1134E305546000078880000808800000000E040AB
S1134E408C88000098880000A8880000A246444688
S1134E5004960027039702973F4B01933F4B00931F
S1134E6004233F4A3D4917A83E4DA846A8471AAB1C
S1134E706A4623CB23C223CB23C203CB03C2179995
S1134E80189A199B2000384DA847099A13000F332C
S1134E9036490EA8364DA847049603970297019405
S1134EA02E49009104230EAA17A8C0471AAB6A46DC
S1134EB013CB13C213CB13C203CB03C21799189A93
S1134EC0199B2548284CA04704218C46E344099BA0
S1134ED010331A00099301235B429C46E244089B69
S1134EE01133089380235B009A424BD0089F103FF4
S1134EF054463A001F490EA81D4B98473A001E49D4
S1134F0011A81B4B984704968723DB0503931B4B7F
S1134F100293E3191A4A9B180193104B0093330030
S1134F200EAA11A917A80F4DA8475B461B689846FF
S1134F301AAB6A4623CB23C223CB23C203CB03C2BF
S1134F401799189A199B4046074DA8470137089BA3
S1134F509F42CED17AE7C046841500207C880000A9
S1134F60A8880000B5360000DD320000C8880000C3
S1134F70A17D0000B0880000B8880000000080BF58
S1134F809C230020DF4C00239A46049300250395BC
S1134F900295DD4F019700940433DC4A210017A8E1
S1134FA0DB4EB046B047DB4B99461AAB6A4643CB5F
S1134FB043C243CB43C203CB03C21799189A199B2C
S1134FC04846D54EB04753460493039502954B4645
S1134FD0019300940423D14A210017A8C0471AABB7
S1134FE06A4613CB13C213CB13C203CB03C2179964
S1134FF0189A199B3800B04700230A930B93002694
S113500027AB0A9DEB58190045234B736B462C22A2
S11350109B181A780A730496C14A03920022914697
S1135020029208910191B74A924600923300BD4A18
S1135030BD4917A8B64FB84722AB0A95EB581800DC
S11350401AAB694634CB34C10A0032CB32C212CB1C
S113505012C21799189A199B0990AF4DA847049644
S1135060B24B039349460291089B08330193B04B1A
S113507000930323AF4AB04917A8B8471AAB69464F
S113508015CB15C10A0013CB13C212CB12C2179948
S1135090189A199B0998A847A8490496A8488046D5
S11350A0039048460290089B5B680C330193A54823
S11350B08346009002230A0017A8B8471AAB694632
S11350C015CB15C10A0013CB13C212CB12C2179908
S11350D0189A199B0998A8479B490496404603903F
S11350E048460290089B5B6814330193584600902D
S11350F002230A0017A8B8471AAB694615CB15C195
S11351000A0013CB13C203CB03C21799189A199B35
S11351100998A8478D490496404603904846029052
S1135120089B5B681C3301935846009002230A00D5
S113513017A8B8471AAB694615CB15C10A0013CB9B
S113514013C203CB03C21799189A199B0998A8474D
S113515004967349039149460291089B5B68203386
S11351600193514600913300794A7A4917A8B84708
S11351701AAB694615CB15C10A0013CB13C203CB76
S113518003C21799189A199B0998A847724904965B
S1135190434603934B460293089B5B682833019371
S11351A05B46009302230A0017A8B8471AAB694666
S11351B015CB15C10A0013CB13C203CB03C2179935
S11351C0189A199B0998A84704968323DB0503932F
S11351D0FE239B050293089B0C33019351460091D7
S11351E033005E4A5E4917A8B8471AAB694615CB27
S11351F015C10A0013CB13C203CB03C21799189A23
S1135200199B0998A84757490496574B0393484656
S11352100290089B0D3301935046009033000A001E
S113522017A8B8471AAB694615CB15C10A0013CBAA
S113523013C203CB03C21799189A199B099C200027
S1135240A8470496494603910291324B0193514673
S113525000910423314A17A8B8471AAB694685CB95
S113526085C10A0083CB83C203CB03C21799189A62
S1135270199B2000A8470B9B0133DBB20B930A9ABE
S113528004320A92052B00D0BAE600230D9A13705B
S113529001320C998A42FAD1344BFF221A709A7166
S11352A00023099308930027314A9246314A9146D4
S11352B0C5E00700D5E0304B9847D7E02C4B186881
S11352C02E4B9847013CE4B2002C62D02B78002B83
S11352D0F4D15B461868C047F4E7294B9847041E8D
S11352E057D0284D07E0224B1868274B9847013CBC
S11352F0E4B2002C4DD02B78002BF4D1534618681F
S1135300C847F4E77C88000084150020D488000096
S1135310B5360000A00F0020DD320000A888000090
S113532000007F43E0880000E88800000000A040FF
S11353300489000034890000F48800000889000012
S113534000409C4510890000148900001C8900005D
S1135350248900002C8900003C8900004489000055
S11353604C8900005C8900000000FE429C23002060
S1135370200000202D330000E1480000B937000070
S1135380B13C000080150020ED36000000224B4B9C
S11353901A704B4B9847099BC01A02287AD882236B
S11353A0DB051B6ADB0400D47DE0454B9847089B72
S11353B0C01A462842D9279B1B6898464148424D4B
S11353C0A847424C4346E054289B1B6898464048F3
S11353D0A8474346E054299B1B6898463D48A84784
S11353E04346E0542A9B1B6898463B48A8474346DB
S11353F0E0542B9B1B6898463848A8474346E05422
S11354002F4B98470890364BD878364B9847364BF5
S11354101870013801284AD9334B1B780222934370
S11354200CD1C046002527AC304B98462B59597BEC
S1135430187B0022C0470435142DF7D13300284AC5
S11354401678B34204D0720100212948294B9847A9
S1135450234B5878874200D12BE7274B9847204BA2
S11354605F78164B1B78002B00D024E70122134BE6
S11354701A70224B9847012800D12EE7022885D1C3
S11354801F4B9847041E84D01E4D1F4B9B461F4B39
S113549098461BE70A4B984709901D4B98471949B2
S11354A01C4B98477BE707481B4B98477DE78021B7
S11354B049000648194B9847AEE7C0461C00002037
S11354C0E13A000064270020A90600009C23002084
S11354D01423002058230020042500209C240020AD
S11354E01800002021470000A8270020C13A00002E
S11354F0D0240020451D0000613D0000ED3A00006D
S1135500B13C000080150020200000206133000021
S1135510790B00007D480000AD060000A11B0000CF
S1135520002243088B4274D303098B425FD3030ADE
S11355308B4244D3030B8B4228D3030C8B420DD3F1
S1135540FF22090212BA030C8B4202D3121209027F
S113555065D0030B8B4219D300E0090AC30B8B42BD
S113556001D3CB03C01A5241830B8B4201D38B036B
S1135570C01A5241430B8B4201D34B03C01A524110
S1135580030B8B4201D30B03C01A5241C30A8B4253
S113559001D3CB02C01A5241830A8B4201D38B023E
S11355A0C01A5241430A8B4201D34B02C01A5241E2
S11355B0030A8B4201D30B02C01A5241CDD2C30954
S11355C08B4201D3CB01C01A524183098B4201D3D0
S11355D08B01C01A524143098B4201D34B01C01ABB
S11355E0524103098B4201D30B01C01A5241C30833
S11355F08B4201D3CB00C01A524183088B4201D3A2
S11356008B00C01A524143088B4201D34B00C01A8D
S11356105241411A00D20146524110467047FFE7F9
S113562001B5002000F006F802BDC0460029F7D0FD
S113563076E770477047C0468446081C6146FFE71A
S11356401FB500F0BBF9002801D40021C8421FBDDA
S113565010B500F04DF94042013010BD10B500F016
S1135660ADF9002801DB002010BD012010BDC046AB
S113567010B500F0A3F9002801DD002010BD0120C1
S113568010BDC04610B500F059F9002801DC002017
S113569010BD012010BDC04610B500F04FF9002820
S11356A001DA002010BD012010BDC046002B11D12D
S11356B0002A0FD1002900D1002802D00021C943BB
S11356C0081C07B4024802A14018029003BDC0465A
S11356D065FFFFFF03B4684601B5029800F048F87F
S11356E0019B9E4602B00CBC7047C046F0B5CE4646
S11356F0474615042D0C2E0080B50704140C3F0CEE
S11357009946030C7E435D43674363437F19340C1E
S1135710E4199C46A54203D980235B029846C444FD
S11357204B46514343433604360C250C240465444C
S1135730A4195918491920000CBC90469946F0BD8B
S11357409E2110B5C905041CFFF7A6FF002803D14C
S1135750201C00F031FC10BD9E21201CC90500F066
S11357608FFA00F029FC80231B069C466044F2E774
S1135770F0B557464E464546DE46E0B5040083B0D4
S11357800D00924699468B422FD82CD0494650465C
S113579002F008FA29000600200002F003FA331A86
S11357A09846203B9B4600D574E053465A469340A6
S11357B01F005346424693401E00AF4229D826D0CC
S11357C05B46A41BBD41002B00DA79E000220023D4
S11357D00092019301235A469340019301234246C8
S11357E09340009319E08242D0D900220023009212
S11357F001930C9B002B01D01C605D600098019903
S113580003B03CBC90469946A246AB46F0BDA342C9
S1135810D6D900220023009201934346002BE8D0FE
S1135820FB0772081A4346467B080EE0AB4201D1DF
S1135830A2420CD8A41A9D41012024196D410021D3
S1135840013E24184D41002E06D0AB42EED9013E54
S113585024196D41002EF8D15B4600980199001976
S11358606941002B22DB2B005A46D3402A004446D0
S1135870E2401C005B461500002B2CDB26009E40FA
S1135880330026004746BE403200801A99410090FA
S11358900191AEE7424620239B1A5246DA40414624
S11358A013004A468A4017001F4382E742462023DA
S11358B09B1A2A0046469A402300F3401343D5E737
S11358C04246202300219B1A0022009101920122CA
S11358D0DA40019282E74246202326009B1ADE40EA
S11358E02F00B446974066463B003343C9E7C046A1
S11358F070B5420045024E024C00C30F6D0A120EF1
S1135900760A240EC90F0120FF2A06D0FF2C03D0EB
S1135910A24201D1B54206D070BD002DFCD1FF2CAE
S1135920FAD1002EF8D18B4206D00120002AF3D1FF
S11359302800451EA841EFE70020EDE7F0B542003E
S113594045024C02C30F48006D0A120E640A000E91
S1135950C90FFF2A1ED0FF2821D0002A0AD16E4287
S11359606E41F6B200280FD1002C0DD10020002D7D
S113597009D005E0002801D1002C01D08B4211D0C0
S1135980012158420843F0BD002EF7D0012001390F
S11359900843F8E7002DDED002204042F3E7002C54
S11359A0DBD0F9E78242EBDC04DBA542E8D8002037
S11359B0A542E8D20121581E0843E4E7F0B54200AD
S11359C04D024C004602760A120EC30F6D0A240ED5
S11359D0C90FFF2A16D0FF2C18D0002A0AD1704212
S11359E07041C0B2002C15D0002805D00120013927
S11359F00843F0BD002C13D0994214D001205B421F
S1135A001843F6E70220002EF3D1E4E70220002D2C
S1135A10EFD1E2E7002DE7D10020002EE9D0EDE739
S1135A20002DE9D1EAE7A24206DCDFDBAE4203D86F
S1135A300020AE42DAD3DCE7012049420843D8E72C
S1135A40F8B557464E464546DE46E0B547024600A1
S1135A5088467F0A360EC40F002E47D0FF2E24D06E
S1135A60FB008027FF041F43002399469A467F3E8C
S1135A7043465D025800DB0F6D0A000E984643D082
S1135A80FF283BD0EB0080250022ED041D437F3826
S1135A903618731C41469B464B46614013430F2BFB
S1135AA064D875489B00C3589F46002F42D10823F1
S1135AB09946063BFF269A46DAE74146022A28D051
S1135AC0032A00D1CEE0012A00D0ACE0114000202E
S1135AD00022CCB24002D205400AE407104320431E
S1135AE03CBC90469946A246AB46F8BD002F15D162
S1135AF004239946033B00269A46B9E7FF20022275
S1135B00002DC5D00322C3E7002D19D100200122A6
S1135B10BEE70124FF220C400020DBE7380002F03E
S1135B2023F87626431F9F4000237642361A99466F
S1135B309A469DE70C239946093BFF269A4697E728
S1135B40280002F011F8431F9D4076235B42181A87
S1135B5000229DE780200024C003FF22BAE73D0015
S1135B605246ABE73D0021005246A7E73B0C9C465A
S1135B702A04120C2B0C1400604665463F043F0CAB
S1135B807C4342435D437B43270C9B18FF18BA4276
S1135B9003D980235B029C46654424043A04240C04
S1135BA0121993015C1EA3413F0C920E7D191A43F6
S1135BB0AD0115432B0104D501235E466A081D403F
S1135BC0154332007F32002A25DD6B0704D00F23F2
S1135BD02B40042B00D004352B0103D53200274B76
S1135BE080321D40FE2A94DC0124A801400AD2B26E
S1135BF00C406FE78020C003074207D0054205D15F
S1135C0028434002400A4446FF2263E738434002E7
S1135C10400AFF225EE70124A31A1B2B05DD0C407A
S1135C200022002056E75E46CBE72A002020DA4017
S1135C30C31A9D402B005D1EAB4113435A0704D089
S1135C400F221A40042A00D004335A0104D5012437
S1135C5001220C4000203DE701249B01580A0C401E
S1135C60002237E780200124C00328434002400A71
S1135C700C40FF222EE7C04668890000FFFFFFF7B3
S1135C80F0B54F46D64646464400C0B5C20F47025B
S1135C904802400A844666467B0A4800C90F9A4671
S1135CA0240E1500DB00000E8946F600FF2800D103
S1135CB08FE001214F464F403900914266D0221AAD
S1135CC0002A00DC9DE000283DD1002E00D18BE0AD
S1135CD0511E002900D0B5E001249B1B5A0144D574
S1135CE09B019F09380001F03FFF0538874084423B
