:10000000D84700209D45000001470000054700003B
:1000100000000000000000000000000000000000E0
:100020000000000000000000000000000947000080
:1000300000000000000000000D4700001147000014
:10004000994500009945000099450000DD12000027
:100050009945000099450000994500009945000028
:10006000994500006D2E00007D2E00008D2E0000B1
:100070009D2E0000AD2E0000BD2E00009945000011
:100080009945000095270000A5270000B52700002E
:100090003D0700004D0700005D0700006D070000F0
:1000A0007D0700005D1200006D120000552F00005A
:1000B0006D1D0000994500009945000010B5064CE3
:1000C0002378002B07D1054B002B02D0044800E019
:1000D00000BF0123237010BD9C0000200000000021
:1000E000F4880000084B10B5002B03D007490848DE
:1000F00000E000BF07480368002B00D110BD064B8D
:10010000002BFBD09847F9E700000000A00000207A
:10011000F4880000F488000000000000F0B5D64626
:100120004F464646C0B580268223DB059846B0443C
:1001300043469E610020134FB84702000023124C33
:10014000002512196B4110001900104B9946104AF6
:100150000023C8470F4B9A46984743465E610020EC
:10016000B8473222002300210B4EB04700196941E5
:10017000074A0023C847D0471CBC90469946A24670
:10018000F0BDC04665430000BFCF6A00B95500000E
:10019000C0CF6A0001000020F955000010B5C30768
:1001A00029D54022244B9A61830728D52022224B4F
:1001B0009A61430727D510221F4B9A61030726D562
:1001C00008221D4B9A61C30625D504221A4B9A6159
:1001D000830624D50222184B9A61430623D50122B7
:1001E000154B9A61C00922D180221206124B5A6126
:1001F000124B984710BD40220F4B5A61D4E7202282
:100200000D4B5A61D5E710220B4B5A61D6E70822F5
:10021000094B5A61D7E70422074B5A61D8E70222FB
:10022000054B5A61D9E70122034B5A61DAE7802274
:100230001206014B9A61DBE7800000411D010000BE
:1002400010B5002918D1802292000E4B5A610E4B36
:10025000984700200D4B98473222002300210C4C78
:10026000A0470C4A0023801859410B4A00230B4C2D
:10027000A0470B4B984710BD80229200014B9A611A
:10028000E5E7C046800000419D0100006543000095
:10029000F9550000BFCF6A00C0CF6A00B955000011
:1002A0000100002010B50021014B984710BDC04649
:1002B0004102000010B501200B4B984700200B4B6A
:1002C00098470200002319008018594180185941AD
:1002D000074A002380185941064A0023064CA047CC
:1002E000064B984710BDC046A502000065430000BC
:1002F000BFCF6A00C0CF6A00B955000001000020DE
:1003000010B502200B4B984700200B4B984702007A
:10031000002319008018594180185941074A0023C9
:1003200080185941064A0023064CA047064B9847BF
:1003300010BDC046A502000065430000BFCF6A00A3
:10034000C0CF6A00B955000001000020F8B5DE46B4
:1003500057464E464546E0B5384D18232B700020D1
:10036000374B9B469847374B9A4632220023002151
:10037000D047354E002780197941344B9946344A8D
:100380000023C847334B9846984780228223DB05D9
:10039000D3188021890059610139FF3959615A61A7
:1003A0000020D847322200230021D047801979410C
:1003B000274A0023C847C047202628783043C0B2C8
:1003C000254CA0470020D847244A00230021D047CD
:1003D000234A002380185941224A0023C847C047B6
:1003E00028783043C0B2A0470020D8479622002387
:1003F0000021D0471A4A002380185941194A002386
:10040000C847C04728783043C0B2A0472878304357
:10041000C0B2A0470622144B1A700E20A047134BFF
:1004200098470222124B1A700620A047114B98479A
:100430003CBC90469946A246AB46F8BDB9000020A8
:1004400065430000F9550000571B0000B955000036
:10045000581B000001000020A502000094110000BC
:10046000BFCF6A00C0CF6A00B8000020B50200000C
:10047000BA0000200103000070B584B06A460B4B3F
:1004800070CB70C21B681360032901D8132801D9EF
:1004900004B070BD89006B46CB58C01880235B4206
:1004A0001843C0B2024B9847F2E7C0468883000069
:1004B000A502000010B5054B187802229043187071
:1004C00008231843024B984710BDC046B8000020CF
:1004D000A502000010B50121014B984710BDC04690
:1004E0004102000070B503000D0007201840C00055
:1004F00040231843054B98472C000835044E2078BC
:10050000B0470134AC42FAD170BDC046A50200002C
:10051000D504000070B504000078002805D0034D14
:100520000134A84720780028FAD170BDD504000016
:10053000F0B5C64600B582B00023002269465A5481
:100540000133082BFAD105260025073B984602AC5B
:100550000B4F4146B14049B26B461A780A431A70B4
:1005600001339C42F9D10135EDB269462800B84704
:10057000013E052DEDD102B004BC9046F0BDC04651
:10058000E5040000F8B504003023C25C052A0CD84D
:100590009300434AD3589F4600230361436283611B
:1005A000C3620121302281544360F8BDC668002E29
:1005B00016D005693100012040423A4B9847684304
:1005C0006060A3689C4665442561AE42EDD201237C
:1005D0005B42636002223133E25400232361E4E78B
:1005E00001235B42436002223133C254DDE7466996
:1005F000002E16D0036A1F068569F8433100294B87
:1006000098476843C0436060A3689C466544A56101
:10061000AE42CAD2676003223023E2540023A361B2
:10062000C3E7036A436003223023C254BDE7C269B3
:10063000002A0FD0036A1B064360436A81688C4618
:10064000634443629A42B0D204223023C25400234E
:100650004362AAE704323023C254A6E7876A002F18
:1006600017D0036A1D06C66A390028000D4B98474B
:1006700070432D1A6560A3689C466644E662B742E3
:1006800000D392E70023636005213022A154E36286
:100690008BE705223023C25487E70023436084E7B9
:1006A000988300002D540000C07970470022302349
:1006B000C25470470023036183614362C362436095
:1006C00005223033C25481603433C3604361C36157
:1006D00083621C330362704770B58000164BC458A8
:1006E00023689D7A227E637E13401D40EB0706D46B
:1006F000AB070BD4EB0610D4AB0615D470BD2000AD
:10070000A3689847012322689372F1E72000E36809
:100710009847022322689372ECE7200023699847E8
:10072000102322689372E7E72000636998472368E3
:1007300020229A72E2E7C0469018002010B50020EF
:10074000014B984710BDC046D906000010B50120E6
:10075000014B984710BDC046D906000010B50220D5
:10076000014B984710BDC046D906000010B50320C4
:10077000014B984710BDC046D906000010B50420B3
:10078000014B984710BDC046D906000030B587B070
:1007900001A90C4B0A0032CB32C212CB12C2019B10
:1007A00098420BD0012301A99A005258824206D0E8
:1007B0000133052BF8D1002007B030BD0023D8B29B
:1007C000FAE7C046B0830000F0B5C64600B58EB06B
:1007D00004000D0016000800A74B984780460CAB9C
:1007E0001E221A705A7001329A70DA7001321A7130
:1007F00002A9A24B14330A0083CB83C283CB83C2EA
:1008000083CB83C21B6813600023A360E360236172
:1008100063612376637643469A00994BD4502560F2
:100820003423F35CA376F378082B08D023712B686C
:100830000520DB0708D50EB004BC9046F0BD17209C
:100840004246D207F7D4F1E7EB7A17309B07F2D490
:100850002B689B07EFD4337C002B00D08EE0337FD6
:10086000002B00D096E043465A0002A9531C9B007F
:1008700058584346DB005B58D9B2012900D19EE0AD
:10088000002900D196E0022900D19DE0F378082BE1
:1008900000D19EE033786A4613700CAB42469F5CF1
:1008A00069463800774B98473800774B9847F3787C
:1008B000F2791343B2881343727A002A02D080225D
:1008C00052021343B27A002A02D0802292021343CA
:1008D000F27A002A02D0802252031343327B002A8C
:1008E00002D080229203134371788901B278D20139
:1008F0001143194322681369002BFCD12960226837
:100900001369002BFCD1B3792B73717B4B1E99417A
:100910008900B37B002B01D001231943226813699E
:10092000002BFCD1FF332B71002904D022681369FE
:10093000002BFCD16971337A6B7322681369002B29
:10094000FCD12379042B67D0082B00D181E017203C
:10095000002B00D06FE71369002BFCD1338DAB82E5
:1009600022681369002BFCD1738DAB832268136955
:10097000002BFCD1B38DEB8300205CE701A90123A0
:100980008B700022CA70327E0A704B70307D3F4BF4
:10099000984764E701A901238B700022CA702432B2
:1009A000B21812780A704B701F33F3181878374B4F
:1009B000984758E736494B691843486166E7344918
:1009C0008B691843886161E7314BD9690843D86165
:1009D0005CE743460133042B00DD5BE702ABD11C2F
:1009E0008900C95802329200D358DAB2012A0ED0D7
:1009F000002A07D0022A00D04CE7254BDA691143C0
:100A0000D96147E7224A53691943516142E7204AB5
:100A10009369194391613DE71369002BFCD1283399
:100A2000F35C2B7522681369002BFCD12933F35C2E
:100A3000EB7622681369002BFCD12A33F35C2B7709
:100A400022681369002BFCD12B33F35C6B770020F9
:100A5000F1E61369002BFCD1B36A6B61226813695C
:100A6000002BFCD1F36AEB6122681369002BFCD1E7
:100A7000336B2B620020DEE68D070000B0830000A0
:100A80009018002041440000D14300003D45000083
:100A90000008004010B504682369002BFCD10379DD
:100AA000042B06D0082B28D0002B13D017231800B6
:100AB00010BD17230129FAD8837E002B05D0D2B2AE
:100AC000611830310A700023F1E7D2B2641822773E
:100AD0000023ECE717230129E9D8837E002B05D0FA
:100AE00092B2183149000A530023E0E792B20C3168
:100AF00049006418A2800023D9E717230129D6D81A
:100B0000837E002B05D106318900641862600023C2
:100B1000CDE70C3189000A510023C8E70268136948
:100B2000002BFCD10379042B05D0082B1AD0002B05
:100B30000DD017207047837E002B04D0C9B22F231D
:100B4000D1540020F6E7C9B2D1760020F2E7837EC7
:100B5000002B03D089B211860020EBE789B2918384
:100B60000020E7E7837E002B02D1D1610020E1E77E
:100B700011630020DEE7000010B58222D205136A5F
:100B8000126A5B0B01210B405B00120B4A400A40CA
:100B90001343064A1370064802781C0094430370FE
:100BA0000120214201D16208500010BDBB0000208D
:100BB000BC00002070B50020084B98470500084C89
:100BC000FA218900A047074B186007492800A04771
:100BD000064B18600522064B1A6070BD6543000085
:100BE0002D5400000C00002040420F001000002097
:100BF00010E000E0064B984208D0064A00239042DD
:100C000001D0180070470133DBB2FAE70023FBE79D
:100C1000004400420048004210B500230022037047
:100C200043708370C370002103830362C361012496
:100C30000471C0246401C480017242728272C27263
:100C400002732A24025542738273C27303610275D0
:100C5000063C0255C3840385417510BD70B5056817
:100C60002C8CA4B2002CFBD16C890C4E3440214357
:100C700069810468218C89B20029FBD192B2EA8192
:100C800001680A8C92B2002AFBD19BB22B820268C7
:100C9000138C9BB2002BFBD170BDC046FFF8FFFF49
:100CA000F0B5DE4657464E464546E0B59FB00500D6
:100CB0000E0017000800984B9847040001902E6022
:100CC000964AD3698000964941580B43D3613378E3
:100CD0000520DB0706D51FB03CBC90469946A246CE
:100CE000AB46F0BD2A68138C9BB2002BFBD1337846
:100CF0001C209B07EFD47B782B71002B04D1894AF1
:100D0000D36904210B43D3610023AB60EB602B61FB
:100D1000AB76EB762B832B77A300834A9D502A2357
:100D2000FB5C002B05D13B7B002B02D101336B77A1
:100D300001E000236B772B689A463B7804AA137076
:100D40007A4B1E5D11003000794B98473000794B8B
:100D500098473B79984606AE774B9C46320019007F
:100D600049C949C249C949C249C949C249C949C20F
:100D700012A9634630330A0043CB43C243CB43C27C
:100D800043CB43C243CB43C2019B002B04D012A9E7
:100D9000012B02D0002100E006A9A300674A9B585E
:100DA0009B46984522D9FB88984606AE624B9C46E6
:100DB0003200190049C949C249C949C249C949C291
:100DC00049C949C212A9634630330A0043CB43C222
:100DD00043CB43C243CB43C243CB43C2019A002A15
:100DE00012D012AB012A10D000230EE04346980027
:100DF000405805A900234B70CB708B7001330B70EA
:100E0000C0B24F4B9847CEE706ABD8450AD9002170
:100E1000002601239946484B984603945B4602936B
:100E2000AB4620E042469000C05805A900234B7015
:100E3000CB708B7001330B70C0B2414B9847E6E723
:100E400006AB8900C85805A900234B70CB708B7086
:100E50004B460B70C0B23A4B98470136F6B23100A0
:100E6000029B9E4223D84B46B3403A691A42F4D0C3
:100E700006A80300424631CA31C331CA31C331CA60
:100E800031C331CA31C312A843463033020031CBDB
:100E900031C231CB31C231CB31C231CB31C2019AF7
:100EA000002ACDD012AB012ACBD00023C9E75D4682
:100EB000039C7B7B9B01BA7BD2011343DBB252467E
:100EC00013703B7DDB017A781343DBB2524693709B
:100ED000FB78342B00D94FE19B001A4AD3589F4628
:100EE00004221026022132E0797A3A7A10262EE086
:100EF0000622102601212AE008221026002126E0E1
:100F000000223026002122E00022202600211EE0BF
:100F10000022002600211AE0F50B00000008004026
:100F20002085000000180040A4180020488500001B
:100F300041440000D1430000C0840000408500000F
:100F40003D450000EC83000002221026012109012A
:100F500070230B401343524613732A68138C9BB2C1
:100F6000002BFBD17B7D17203F2B00D9B3E6FA7B0A
:100F7000D2011343DBB2524653732A68138C9BB2DF
:100F8000002BFBD1BB78524653702423FB5CDB0063
:100F90003A7B92001A43FB7A1343BA7A5200134306
:100FA0003343524653812A68138C9BB2002BFBD1EA
:100FB0003B8B002B20D0102E00D1BFE000D87FE06B
:100FC000202E00D19CE0302E16D1FA7A002A0AD0C9
:100FD000FA6980321720FF2A00D97CE63A6A80320B
:100FE000FF2A00D977E61720FA69FF2A00DD72E6AA
:100FF0003A6AFF2A00DD6EE6524652891343524692
:1010000053812A68138C9BB2002BFBD1BB8B5246B9
:10101000D3812A68138C9BB2002BFBD13B8C5246A8
:1010200013822A68138C9BB2002BFBD13B79FA8880
:101030001343524613812A68138C9BB2002BFBD1B9
:101040002A33FB5C5246D370072313711D33FB5CBC
:10105000002B1DD0FB8C494A1720934200D93AE659
:10106000524653822A68138C9BB2002BFBD13A8DD7
:1010700080231B01D31841499BB217208B4200D912
:1010800029E653469A822A68138C9BB2002BFBD127
:10109000A2003B4BD3583B49095D1B68CB401B0268
:1010A000E021C9000B40384952583849095D12689F
:1010B000CA4007210A4013435246938500200AE69E
:1010C000002E99D1FA7A002A0FD0FA6980210901FD
:1010D0008C466244294917208A4200D9FBE53A6AC6
:1010E000624426498A4200D9F5E5244A1720F96965
:1010F000914200DDEFE5396A914200DDEBE57BE7E7
:10110000FA7A002A0FD0FA69802189008C4662445D
:101110001F4917208A4200D9DDE53A6A62441C491A
:101120008A4200D9D7E51A4A1720F969914200DDB1
:10113000D1E5396A914200DDCDE55DE7FA7A002A12
:101140000FD0FA69802109028C46624411491720A8
:101150008A4200D9BFE53A6A62440E498A4200D900
:10116000B9E50C4A1720F969914200DDB3E5396A07
:10117000914200DDAFE53FE71720ACE5FF0F00002F
:10118000348500003C850000288500003085000083
:10119000FF030000FFFF000070B580002E4BC45815
:1011A00023689A795D791540EA072AD501229A7158
:1011B0006269931C636123689B8C9BB21380238BB1
:1011C000013B9BB22383002B15D0637F002B18D0EB
:1011D0002268D3795BB2002B13DB138C9BB2002BFC
:1011E000FBD1137E02210B4313762268138C9BB232
:1011F000002BFBD105E0012322681371237F052B0F
:1012000016D06B0708D5042322689371E37E9B07F1
:1012100002D5A37E9B0717D4AB0708D5022322680B
:101220009371E37E5B0702D5A37E5B0710D470BD8C
:1012300000232377E37EDB07E3D5A37EDB07E0D53E
:101240002000A3689847DCE72000E3689847E3E7BD
:10125000236920009847EAE7A418002010B5002071
:10126000014B984710BDC0469911000010B50120F0
:10127000014B984710BDC04699110000931C9B007C
:101280001950012393401A00837E134383767047DD
:1012900010B5038B9BB20524002B01D0200010BD9C
:1012A000037F052BFAD00523037702834161043BBA
:1012B00002685371437F0024002BEFD00268138C27
:1012C0009BB2002BFBD1137E02210B4313760268E5
:1012D000138C9BB2002BFBD10024DFE770B50022FA
:1012E000104B1A70002310491F25104E0D4C0AE0B8
:1012F0000D4908E023780133DBB223700F2B10D89F
:1013000000211F2BF4D9280018400122824048698F
:101310001042EFD04A619B009B59002BEAD09847BE
:10132000E8E770BDAC18002000280040B01800208D
:10133000064A137802210B431370012053681942A7
:10134000FCD153681842F9D17047C04600280040CC
:1013500000B583B0174A51698023DB000B4353610A
:1013600001A900230B700220134B98470220134B56
:101370009847134A137801210B4313700131012060
:1013800053681942FCD153681842F9D10C4A1378BA
:1013900010218B4313700B4B19004031002204C302
:1013A0008B42FCD10822084B1A60084B984703B0C7
:1013B00000BDC0460008004041440000D143000089
:1013C00000280040B018002000E100E031130000C8
:1013D000F0B5D6464F464646C0B58AB006000F0067
:1013E000140031600800A24B9847451C05281ED008
:1013F0001330A04AD1690123AB400B43D36109A943
:10140000237B0B70C5B228009B4B984728009B4B51
:101410009847207B00219A4B98473B681C209B07EC
:1014200007D50AB01CBC90469946A246F0BD1920CB
:10143000DFE73B681738DB07F3D430688C4B9946FD
:10144000984705008F49904B9847AD008F4BEE5061
:1014500000233376737600257383B3832522B55436
:10146000336214333B60336898461800C84781469E
:10147000802308AA1370557001239370D570E0691A
:10148000276A002800D1AFE008AB1870022308AA31
:101490005370000CC0B211007D4B9847002F00D153
:1014A000A7E008AB1F70022308AA53703F0CF8B2E4
:1014B0001100774B9847A38AF380E38A3381237E18
:1014C0008022002B04D1734B9B789B07DB0FDA0142
:1014D000A16823690B4313432422A25C002A02D093
:1014E0008022D2051343A26A13432C22A25C002A55
:1014F00003D180229204914202D18022120513432B
:101500002D22A25C002A02D08022120413432E2234
:10151000A25C002A02D08022D20313434246126802
:1015200013434246136080235B0053604D461335DE
:10153000E8B2594B98470790FA239B0022685A4318
:10154000914663689A46554DA847009001914B46D5
:101550005800A84702900391208EA8470490059157
:101560004F4F504A504B00980199B84702000B006A
:1015700004980599B8474D4E00224D4BB047049052
:1015800005914846A84702000B0004980599B84702
:1015900002000B00474D00980199A847029A039B4F
:1015A000B0470022444BA847029A039B434DA847EB
:1015B000434B9847050080239B04A2689A421ED0A3
:1015C00003004020FF2D00D92BE700240020FF2539
:1015D0001D40240625430004FF231B041840054337
:1015E0004346DD6000201CE700214046354B98470C
:1015F0004AE701214046334B9847070051E7FA2656
:10160000B60053465E430098019902000B00274C38
:10161000A047009001913000204B984700222A4BB0
:10162000B84702000B0000980199244CA047002203
:10163000214B204CA047224B9847041E0CD0310070
:101640000798224B98470238001B2B00FF2D0CD81F
:10165000FF28BCD94020E4E67100481E079B9C4649
:1016600060441A4B98470138EFE74020D9E6C0465E
:10167000552100000008004041440000D143000013
:101680008D1F0000B9170000012E0000481D00202A
:101690003D45000000200041654400004D780000F9
:1016A000B96C000095D626E80B2E113E3160000083
:1016B00000002440B97100000000F03F51660000B6
:1016C000E5770000D91F0000000008402D540000FD
:1016D00001680722CB691A42FCD1704770B504003B
:1016E00006683268458B838BED1AADB2838B013B64
:1016F0009BB2838313011DD5C37A002B03D0838B48
:101700009BB2012B10D0A38B9BB2002B02D1A37AEA
:10171000002B1CD12000124B9847236A5D19282307
:10172000F35CDBB22B7070BD72688023DB02134365
:101730007360E8E7C37A002BE5D0838B9BB2002B64
:10174000E1D172688023DB0213437360DBE7200082
:10175000034B98477268C0239B0213437360D9E719
:10176000D116000070B5040005686B8B5B0703D5CC
:101770001E222523C25470BD468B838BF61AB6B247
:10178000838B013B9BB28383044B9847236A9E194A
:101790003378DBB22822AB54EDE7C046D116000007
:1017A000931C9B00C3185960037E012191400B4399
:1017B000DBB203767047000070B58000754BC458EB
:1017C00025682B681B01DA0F637E267E1E40638B23
:1017D0009BB2002B03D1A38B9BB2002B23D1638B35
:1017E0009BB2002B08D0A38B9BB2002B04D12533D6
:1017F000E35C052B00D16DE0638B9BB2002B24D002
:10180000A38B9BB2002B20D06B8B9B0600D581E075
:10181000002A04D0A38B9BB2012B00D17AE0412295
:101820002523E25411E02B7EDB0707D501232B761D
:101830006B8B9B072ED541222523E254A38B9BB2B1
:1018400063832523E35C052B38D0638B9BB2002B8D
:1018500007D0A38B9BB2002B03D12533E35C052B70
:1018600064D02523E35C052B13D02523E35C002BF8
:101870000FD003232B7500236383A3832533E35CFD
:10188000412B03D0A37A002B00D075E0730700D55D
:101890007BE070BD6B8B5B07D0D518222523E2540B
:1018A0000023A383A37A002BC8D020003A4B98478B
:1018B0006A68C0239B0213436B60BFE71F33E35C7E
:1018C000002B03D02000354B9847BEE72000344B57
:1018D0009847BAE71F33E35C002B00D08CE7033353
:1018E0002B750023638325330022E254A37A002B57
:1018F00007D101232B76F307A7D5E368200098478B
:10190000A3E72000244B98476A68C0239B02134337
:101910006B60F0E72423E35C002B03D12000204B15
:10192000984792E720001D4B98478EE71F33E35CF2
:10193000012B96D12B7E9B0701D502232B76032307
:101940002B750023638325330022E254B30703D5AC
:101950002423E35C012B0BD0F30700D481E724237D
:10196000E35C002B00D07CE7E3682000984778E731
:1019700023692000984774E72000074B98476A685E
:10198000E023DB0213436B6080E763692000984724
:101990007FE7C046481D0020D1160000DD1600007C
:1019A00065170000024A137804210B431370704737
:1019B000001D002030B593B08023DB050093002389
:1019C0000193FF2269460A81CB7201222C216846CD
:1019D0004254013142542D328354013283540C93CA
:1019E00005328354059300220382C2760793038451
:1019F000438402762423C25442761323837613331E
:101A0000C254013BC254284B0A9380235B030393C7
:101A1000264B0E93264B0F9301235B421093119399
:101A20004133837203220B3BC254224D224C6A463F
:101A300022492800A0470028F9D11E4D2C6820001B
:101A40001F4B98471F2318401E3B83401D4A1360BD
:101A50002A68D369002BFCD1236802221343236038
:101A6000144B1B68DA69002AFCD1596880225202A3
:101A70000A435A6001210F4AD171DA69002AFCD168
:101A80000020114B984702000023104800218018C5
:101A900059410F4A00230F4CA0470F4B98470F4B5B
:101AA000984713B030BDC04690D00300020030000C
:101AB00002003100041D0020C5270000001800426C
:101AC0003D2E000000E100E065430000571B0000D0
:101AD000581B0000B955000001000020A5190000A6
:101AE00010B5224B98470022214B224CA0470022E0
:101AF000214B224CA04702000B0000202049214C22
:101B0000A047214B98478F21C905204B9847204B70
:101B1000984780B21F4B9B899BB2984224D01D4BA3
:101B20001A6802218A431A605A681B490A405A609F
:101B30005A681A490A405A601A00D369002BFCD12E
:101B4000144B98815968802252020A435A6059689E
:101B5000802292020A435A601A6802210A431A60DC
:101B60001A00D369002BFCD110BDC0464D7800008F
:101B700000003040B96C000060E38641516600000F
:101B80000000F03FB9710000617900004D5900007C
:101B90004D56000000180042FFFFFEFFFFFFFDFF53
:101BA000F0B583B004000D00802252038223DB05D0
:101BB0009A6100226B46DA710F48104B9847104E1D
:101BC000104F01226B46D91D3000B8470028F8D1CC
:101BD0000D480A4B98470A4E0A4F01226B46D91D01
:101BE0003000B8470028F8D12A0021000448054BEE
:101BF000984703B0F0BDC046A0860100E11A00007E
:101C0000041D0020252C000090D0030003681869F3
:101C1000431E9841C0B270470023037001224270F6
:101C200083700371C370437183717047F0B5C6460A
:101C300000B582B0050014000160284AD0698023F5
:101C40009B030343D3610B781C209B0703D502B091
:101C500004BC9046F0BD0B781738DB07F7D401A918
:101C6000E3780B701F301E4B984724201D4B98477C
:101C700000266B465E70DE7001236A461370967014
:101C800069460220184B98472F6863782B71AE7114
:101C900063795A1E93419B0122789046A278002ACC
:101CA00003D004224146114388462279002A03D0FA
:101CB0000822414611438846DBB23B700B4E280098
:101CC000B0470028FBD143467B7023786B7100231B
:101CD0006B61AB61EB61064B1D60B8E7000800402B
:101CE00041440000D14300003D4500000D1C0000B0
:101CF000381D002070B5040005686B780279134325
:101D00006B700C4E2000B0470028FBD12B780222CC
:101D100013432B706379002B04D1074AD369042144
:101D20000B43D3612B789B0703D50122EB79134238
:101D3000FCD070BD0D1C00000018004070477047BB
:101D400070470000F8B5040017000668064D200033
:101D5000A8470028FBD1A379002B02D137810020AE
:101D6000F8BDB781FBE7C0460D1C000070B5274BDE
:101D70001C682568AB79DB0707D50123AB7123000D
:101D8000143302D0637C002B31D1AB799B0738D55B
:101D90000223AB71A3899BB2002B2CD0E3899BB2A9
:101DA0005A1C92B2E2815B00A268944663441B888D
:101DB0009BB2AB81A389013B9BB2A381A3899BB258
:101DC000002B18D100222033E2541E3B2B71AB7143
:101DD000802149057E330E4AD1502300143310D0A0
:101DE000A37C002B0AD00020E369984706E000207E
:101DF000A3699847C9E72300143302D0237C002B42
:101E000000D170BD636900209847FAE7381D0020B3
:101E100000E100E0F0B5DE4657464E464546E0B5E7
:101E200087B08046049116001F0000220023002185
:101E30008B463F2401202100009601975C460394C5
:101E40004446059413E02024641A0500E540A846A2
:101E500014E0009C019D121BAB415C464D462C4397
:101E6000A346039C45462C430394013925D32024E3
:101E700064420C19E7D40500A540A84604008C4034
:101E8000A14692185B4114001D00059E4F463E403E
:101E9000B446049E47463E40B246664657463E43D9
:101EA00003D00600264332002B00009C019D9D427A
:101EB000DBD8CED19442D8D8CBE7039B5846190043
:101EC00007B03CBC90469946A246AB46F0BD10B563
:101ED000490840230024814202D2180010BD1C0092
:101EE000091A631C9BB28842F9D94023FF2CF4D80D
:101EF00014800023F1E70000F0B583B00F00160056
:101F000008AA117804004C434022BC4202D91000B8
:101F100003B0F0BD002B14D1020008000021194CC1
:101F2000A04701003A0000230020174CA0470022E0
:101F30000123121A8B41120C1B041A433280002217
:101F4000E5E70022012BF9D10A00002300210D4C06
:101F5000A04702000B0000920193380000210A4CB8
:101F6000A047050080239B0140229842CFD8790FDB
:101F7000F800009A019BA047EA00821AD2B25203ED
:101F80002A43DBE7F9550000151E000010B582B0AA
:101F900004000E4B1B78002B07D0002905D10B4BFA
:101FA0005B78834210D01D200CE001A90C70122038
:101FB000074B98471220074B9847044B5C7001224F
:101FC0001A70002002B010BD0020FBE7C000002006
:101FD00041440000D1430000404B984231D00AD91F
:101FE0003F4B98424DD03F4B98425AD03E4B98427F
:101FF00037D0002070473D4B98420CD03C4B984264
:10200000F7D1012917D000295DD0022915D0032965
:1020100015D00020EEE7012907D0002951D0022970
:1020200005D0032905D00020E4E73248E2E7324832
:10203000E0E73248DEE73248DCE73248DAE73248A8
:10204000D8E7012907D000293FD0022905D003296C
:1020500005D00020CEE72D48CCE72D48CAE72D4813
:10206000C8E7012907D0002931D0022905D003296A
:1020700005D00020BEE72848BCE72848BAE7284832
:10208000B8E7012907D0002923D0022905D0032968
:1020900005D00020AEE72348ACE72348AAE7234851
:1020A000A8E7012907D0002915D0022905D0032966
:1020B00005D000209EE71E489CE71E489AE71E4870
:1020C00098E71E4896E71E4894E71E4892E71E4888
:1020D00090E71E488EE71E488CE7C046000C004281
:1020E00000140042001800420010004200040042A8
:1020F000000800420300050003000600030007007B
:1021000002001100020012000200130002000D0084
:1021100002000E0002000F0002001700020018006B
:10212000020019000300290003002A0003002B000D
:10213000030023000300200003002100030004002B
:102140000200100002000C0002001600030028002C
:102150000300220030B587B00B4B6A4632CB32C247
:1021600032CB32C2009B83420BD001239A006946D6
:102170005258824206D00133062BF7D1002007B017
:1021800030BD0023D8B2FAE74C850000094B9842D5
:102190000CD0094B984207D0084A0023904201D046
:1021A00018007047023302E0012300E00023DBB295
:1021B000F6E7C0460024004200280042002C0042FE
:1021C00010B5040008004F4B98470023236080009F
:1021D0004D4A82586260A372E37223736372237262
:1021E000E36123626362A36223756375A375E3757C
:1021F0002376637623746374A374E3742C22A3544C
:102200000132A3540132A3540132A3540132A35426
:102210000132A3540132A3540132A3540132A35416
:102220000132A3540132A3540132A3540132A35406
:102230000132A3540132A3540132A3540132A354F6
:102240000132A3540132A3540132A3540132A354E6
:102250000132A3540132A3540132A3540132A354D6
:102260000132A3540132A3540132A3540132A354C6
:102270000132A3540132A3540132A3540132A354B6
:102280000132A3540132A3540132A3540132A354A6
:102290000132A3540132A3540132A3540132A35496
:1022A0000132A3540132A3540132A3544132A35446
:1022B000A365A3670132A354E365E3670132A35426
:1022C00023661A3AA3501B32A3546366173AA350ED
:1022D0001832A354A366143AA3501532A354E366EC
:1022E000113AA3501232A35423670E3AA3500F326F
:1022F000A35463670B3AA35001210C32A15401325D
:10230000A35410BD8D21000078850000F0B5DE4695
:1023100057464E464546E0B591B001900C00150079
:102320000800C34B984703000100C248C2699E00E1
:10233000C14FF7593A43C26122681C20920706D563
:1023400011B03CBC90469946A246AB46F0BD22680F
:1023500001271740F4D1B948325817202E68B242ED
:10236000EED36E68B242EBD3E869824200D2ABE1B1
:10237000286A824200D2A9E1686A824200D2A7E1BB
:10238000A86A824200D2A5E198229446AC446246F3
:102390000892002003E001300132082808D01678A6
:1023A000002EF8D0A64E765C8642F4DC1720C7E7F4
:1023B0000022029280204004844602E00132042A76
:1023C0000ED0A818007C0128F8D19E48405C9042AD
:1023D00000DA81E160469040029E06430296EDE7F6
:1023E0009D32AA5C002A04D0802212010299114376
:1023F00002912A7A511E8A41920006926A7A012A33
:1024000022D0904AD25C110005923522AA5C8A4201
:1024100000D36BE12C21695C0F2900D966E1287B90
:102420000A90E87A0B902D208246AA440020049757
:102430000EAE0796C0263601B1468446A046280057
:1024400055460993824635E0069911430691D8E72F
:1024500092024F463A400A4319798B4603215F4660
:1024600039400A4316435A79520160210A403243E7
:1024700099790902C026B6000E401643DA79120394
:10248000E021C9010A4016433443039A1443204310
:10249000624607995050042A2AD09A7C05999142A5
:1024A00000D823E1597A0A3504239B46DC440F29DE
:1024B00000D91BE10906F0231B0519402B002E78DB
:1024C0003604FF200004064068788024002800D1EC
:1024D000049C987808270397002801D1049803905A
:1024E000D878834610205F46002FB1D10498AFE71B
:1024F00044465546099B524AD25C9146514650315A
:1025000050464130002700220126B2460226FF36FF
:10251000B34680267602B046A4461C004B460FE028
:102520000678002E07D0934200D8D9E0022E14D0AE
:10253000564696403743013201310230082A10D006
:102540000E78002EECD0934200D8C7E04646964065
:1025500037430678002EE9D1EDE75E4696403743D3
:10256000E9E79946230064466A7E12013021114052
:10257000287E0722024011430022802040020E00E4
:1025800002E00132042A0BD0A918097D0029F8D0F5
:102590000599914200DCA5E0010091400E43F0E76F
:1025A000B2460198020004323430002102C2824255
:1025B000FCD100220198426382639900224A88502C
:1025C0000460A022A95C643A81540DA9AA7A0A7019
:1025D0001E4AD65C30001E4B984730001D4B984772
:1025E0004B46002B3CDD2E00583698339846A844C5
:1025F00001239946AB464546A046089C03E00134BA
:102600000436AC422AD02378002BF8D00CAB4A46D3
:102610009A7000230CAAD37013002022B2181278EB
:102620001A704A465A70307819000B4B9847E6E703
:102630008D210000000800406485000078850000BE
:1026400084850000708500003C1D0020748500001A
:1026500041440000D14300003D45000044465D4632
:102660000A9B1B030B9A12021343029A1343236023
:102670000422A3681A42FCD1FF2323710422A36819
:102680001A42FCD16B461B7E63710E9BE3600F9B6D
:102690002361A7615346E3631022A3681A42FCD169
:1026A0002B6863636B682364059800281CDD1C3568
:1026B000002202CD130010339B00E3185960013251
:1026C0009042F6DC00203BE6172039E6172037E67B
:1026D000172035E6172033E6172031E617202FE6BE
:1026E00017202DE617202BE6002029E6172027E6E5
:1026F000920083185960034BD358426B13434363D2
:10270000002070478885000070B504000D00006847
:10271000094B9847094B1B5C1F221A400123934029
:10272000074A1360AD00074BEA58A36B1343A3633A
:1027300023689A6270BDC0468D210000B8850000F4
:1027400000E100E088850000F0B5C64600B58000D5
:102750000E4BC7583B68DE6ABB6B7A6B13401E405A
:1027600000240B4B984602E00434302C0AD0434638
:10277000E5583542F8D03B195B68380098473B680C
:10278000DD62F1E704BC9046F0BDC0463C1D002070
:102790008885000010B50020014B984710BDC04649
:1027A0004927000010B50120014B984710BDC046D5
:1027B0004927000010B50220014B984710BDC046C4
:1027C00049270000F0B5DE4657464E464546E0B57F
:1027D00091B005000C00160029600800D24B984704
:1027E00005280DD00700133722680523D20709D525
:1027F000180011B03CBC90469946A246AB46F0BDCD
:102800001927F1E7226817339207F1D4C74AD16933
:1028100001301B3B83400B43D3610FA935239846FE
:10282000F35C0B70FFB23800C14B98473800C14BC6
:1028300098474346F05C0021BF4B9847F37A6B7191
:102840002C23F35CAB712D23F35CEB71F37E2B72C5
:102850002423F35C6B722B6802931800B24B9847E9
:1028600005281DD0133000220E2306A98C46634490
:102870001A80338A98468023DB01984500D1C3E053
:1028800010D9C023DB01984500D1B8E080231B029A
:10289000984500D066E103230693002307930AE0DE
:1028A0001920E0E780239B01984500D05AE11023CE
:1028B00006930F3B079333680593F3689B46736950
:1028C0000393337E04932E23F35C9A4673689946F0
:1028D000002B00D1C5E080235B05994500D1A8E01D
:1028E000737E002B02D0B37E029A93730E2306AA46
:1028F000944663441B88029A9381059A5B461A4367
:10290000039B1A434B461A4343461A43049B1B023C
:102910001A4353465B071A432F23F35C002B01D164
:1029200004331A43737E9B022421715C49020B43DA
:102930002621715C09020B432C21715C49040B4375
:102940002D21715C09040B43B07AF17A08431843D6
:102950003389FF2B00D1AAE0802149040A431843A0
:1029600002998B689C46338C718C0B431F000721A6
:10297000634619403B000B4302998B60F369002BBF
:1029800002D06E490A401A433423F35C002B03D172
:102990006B4B9B789B0701D580231A432968029FC4
:1029A000CB69002BFCD178602968CB69002BFCD166
:1029B0003A603B68F02212051340E022D2049342B1
:1029C0000AD0BB6807229343BB60BA682523F15C39
:1029D0001E3B0B401343BB600EAB80221A700022DB
:1029E0005A70DA709A70B36B0A93F36B0B93336C73
:1029F0000C93736C02930D9300270AAE66E00823D4
:102A00000693073B079356E733680593F3689B46A5
:102A100073690393337E04932E23F35C9A467368A1
:102A20009946002B19D080235B05994501D00023DE
:102A300027E02F23F35C002B00D051E7B36A1F007F
:102A4000C0B2404B984701000E2206AB9C46624440
:102A500038003D4B9847030013E0082306930023FA
:102A600007932F23F35C002B0FD0069B0093079B4B
:102A70000E2206A98C466244316BB06A334FB847C8
:102A80000300002B00D0B3E62AE7B36A1F00C0B2F0
:102A90002C4B98470100069B0093079B0E2206A82B
:102AA000844662443800294FB8470300E9E7F37EC3
:102AB000002B00D154E78023DB041A4350E72000A9
:102AC000234B984707E00137042F0DD0F9B2BB0024
:102AD00098590028F3D0431CF5D00EA90870000CBB
:102AE000C0B21C4B9847EEE70023EB602B616B6193
:102AF000AB61EB612B62AB626B620022EB85AB8555
:102B00003033EA540133EA540133EA540133EA54CE
:102B10002868054B984704000F49104B9847A400BC
:102B20000F4BE550002363E65521000000080040EC
:102B300041440000D14300008D1F0000FFFFFFF063
:102B40000020004165440000CF1E0000F91E000077
:102B5000D91F00003D450000612C0000012E00003F
:102B6000481D00201023069300230793A3E6C046C8
:102B7000F8B506000C00150007680A4B9847F38D5E
:102B80009BB2002B03D0084B98470520F8BDF58574
:102B9000054B9847B46205223323F254323BBB7590
:102BA0000020F3E7713D0000B13D0000F8B50400DE
:102BB0000D00160007680F4B9847A38D9BB2002BA2
:102BC00003D00D4B98470520F8BDA6850A4B9847C2
:102BD000656205223223E2542E3BBB75237A002B1B
:102BE00001D02023BB75637A0020002BECD0082392
:102BF000BB75E9E7713D0000B13D0000931C9B00EF
:102C0000C31859603021012393401A00435C1343D9
:102C10004354704710B50122014B984710BDC04680
:102C2000AD2B000010B51723002A01D1180010BDEC
:102C3000C4790533002CF9D0014B98470300F5E720
:102C4000712B0000002903D0012905D0172002E0D4
:102C50003223C05CC0B270473323C05CC0B2FAE715
:102C6000F8B58000644BC5582C68E369002BFCD193
:102C7000237EA67D1E403023EB5C3122AF5C1F40DB
:102C8000F30722D5EB8D9BB2002B1CD0AA6A1378D8
:102C9000DBB2511CA962697901290ED09BB2DB0518
:102CA000DB0D2385EB8D013B9BB2EB85002B0CD11B
:102CB000013323750133A37507E0517809020B43F3
:102CC0000232AA62EBE701232375B30706D502237C
:102CD000237500223133EA54FB071ED4730768D5ED
:102CE000AB8D9BB2002B62D0638BDBB21A0718D47A
:102CF0007F2213405A0601D540229343002B33D044
:102D00009A0711D51A223223EA54303B63837B079A
:102D10004FD528006B6998474BE02800EB6898472F
:102D2000DCE777221340E5E75A0705D51E22322358
:102D3000EA542E3B6383EAE7DA0705D513223223F0
:102D4000EA54313B6383E2E7DA0605D542223223B7
:102D5000EA54223B6383DAE79B06D8D5412232232B
:102D6000EA54123B6383D2E7238DDB05DB0DDAB235
:102D7000696A0A706A6A511C69626979012910D00E
:102D8000AB8D013B9BB2AB85002B12D10433237575
:102D900000222E33EA54BB070BD528002B69984735
:102DA00007E01B0A53706B6A01336B62E8E7042388
:102DB0002375F30604D5102323752376FB060ED462
:102DC000B30604D52023237523763B070BD43307A2
:102DD00004D5082323752376BB0608D4F8BD280044
:102DE000EB699847ECE72800AB699847EFE72B6A57
:102DF00028009847F2E7C046481D002070470000B1
:102E0000F0B50A4B1B78002B0CD1094F094E0A4D27
:102E10000024DE515A1914600433182BF9D1012211
:102E2000024B1A708000024BC150F0BDC20000205E
:102E3000C4000020FD2D0000481D002000B583B017
:102E400009236A46137001335370013393700133C1
:102E5000D3700133137101335371034B98476B46A1
:102E6000185603B000BDC0465521000010B5024BF6
:102E70001B680020984710BDC400002010B5024B0D
:102E80005B680120984710BDC400002010B5024BBC
:102E90009B680220984710BDC400002010B5024B6B
:102EA000DB680320984710BDC400002010B5024B1A
:102EB0001B690420984710BDC400002010B5024BC8
:102EC0005B690520984710BDC400002070B58000E4
:102ED0001F4BC45823689D79227F637F13401D4098
:102EE000EB070AD4AB070FD4EB0614D46B0719D445
:102EF0002B071ED4AB0623D470BD2000636898470F
:102F0000012322689371EDE72000A368984702230C
:102F100022689371E8E720006369984710232268CC
:102F20009371E3E72000E3689847042322689371D4
:102F3000DEE7200023699847082322689371D9E7C8
:102F40002000A3699847236820229A71D4E7C046DD
:102F5000601D002010B50020014B984710BDC046F1
:102F6000CD2E000000B583B001AB80221A700A7824
:102F70005A704A789A708A78DA701900014B98472B
:102F800003B000BD3D45000010B5114B1B78023B5E
:102F9000042B07D89B000F4AD3589F460E4B186846
:102FA0000E4B984710BD0E4B18680C4B9847F9E72D
:102FB0000C4B1868094B9847F4E70B4B1868074B04
:102FC0009847EFE7094B1868044B9847EAE7C04673
:102FD000DC000020BC850000681D0020AD0600005C
:102FE0006C1D0020641D0020701D0020A01D00200D
:102FF00070B50B4C01220B4920000B4DA847E37E16
:1030000002221343E3760423226853710022074906
:103010002000A847E37E01221343E37670BDC0463B
:10302000741D0020892F00007D12000079310000FE
:1030300030B58DB02A4B186002003432294B1A602B
:103040003432294B1A603432284B1A60D030284B66
:10305000186001AC2000274B9847072222700523F7
:103060006370033BA3701E33E370E03323830023BC
:1030700023629621E1612271C0225201E280A37293
:103080000122227323611C4D22001C4928001C4B85
:1030900098472C68238C9BB2002BFBD12000194B46
:1030A0009847194B1B5C1F221A4001239340174A73
:1030B000136007232371A371237802221343237023
:1030C0000D4B1A68138C9BB2002BFBD1104B984709
:1030D000012210490848104B98470DB030BDC0463A
:1030E000681D00206C1D0020641D0020701D002044
:1030F000A01D0020190C0000741D00200044004297
:10310000A10C0000F50B0000D085000000E100E0FC
:10311000F12F0000941D00209112000010B5FF2334
:103120005A22802149000248024CA04710BDC046E7
:10313000741D00205D0C000082B007236A461370E6
:10314000013B5370013B9370013BD370033B137100
:10315000115C084B1A68138C9BB2002BFBD11389AE
:103160001F2083430B431381138C9BB2002BFBD195
:1031700002B07047741D002010B501220D4B1A706B
:103180000D4B1B780133DBB2052B0ED00A4A1370AE
:10319000094C2078094B984721784900084BC918F9
:1031A00001220848084B984710BD0022024B1A70B4
:1031B000EEE7C046A41D0020DC00002039310000ED
:1031C000941D0020741D0020911200000122014B6B
:1031D0001A707047DE0000200122014B1A70704700
:1031E000DD00002070B5094C002209492000094D7E
:1031F000A847637E01221343637607492000A8474E
:10320000637E02221343637670BDC046341E0020E5
:10321000CD310000A1170000D931000030B58FB0CA
:1032200001AB264A0292002203921A76802189037A
:10323000059101214942998225315A540B92083156
:103240005A5401315A5401315A54D7321A861C4A01
:10325000DA821C4A08921C4A099202221A73C82375
:103260005B000193194D1A4C01AA1A492800A04786
:103270000028F9D1154B1C680722E3691A42FCD1DA
:103280002368022213432360104D2868124B98478D
:103290001F2318401E3B8340104A1360E888002318
:1032A0001021628B0A4204D101338342F9D31023E7
:1032B00063830B4B98470FB030BDC046480D0000EC
:1032C000102700000200160002001700341E002024
:1032D000D1130000001000423D2E000000E100E08C
:1032E000E531000084B070B5059106920793BB23C9
:1032F0009B00C15C112914D02C234B4305AAC31891
:1033000070CA70C370CA70C370CA70C330CA30C389
:103310000131BB239B00C1540023044A8354044A57
:10332000835470BC08BC04B01847C046ED020000CE
:10333000EE0200000A4BC25C013BC35C013B9A42B7
:1033400002DA0132064BC254064BC25C044BC35C2A
:103350009B1A042B00D070470132024BC254FAE78B
:10336000ED020000EE020000084BC35C002B02D00F
:10337000013B064A8354064BC35C044A825C9A4272
:1033800002D2013B024A83547047C046ED0200005E
:10339000EE020000024BC25C2C235343C01870475E
:1033A000ED02000070B506000D1C081C0A4B984782
:1033B00004000A4B9847011C281C094B98470949EF
:1033C000094B9847094B98470300220008493000F1
:1033D000084CA04770BDC046C55E0000A55F000058
:1033E0008D5B000000007A444D5900004D560000EE
:1033F00034860000AD7C0000F0B589B007000D00F8
:103400001600BB239B00C35C934227D92C24544352
:1034100004192378072B47D89B003A4AD3589F4674
:1034200023691A78200014303749384B9847002315
:10343000E376237B002B4AD1354BFB5CB3423AD079
:1034400023001433621C0C340094324902A82F4C20
:10345000A047142202A928002F4B984709B0F0BDBD
:1034600023691A88200014302749284B9847DEE743
:1034700023691A68200014302849244B9847D6E75E
:1034800000232375D3E72369196820001430244BE7
:103490009847CCE700232375C9E7236919782000F2
:1034A0001430A36A9847C2E72000143008221D494F
:1034B000194B9847BBE7631C22000C32019214346D
:1034C00000947E22184902A8104CA047C1E7104B77
:1034D000FB5CB34209D023001433621C0C3400940B
:1034E000124902A8094CA047B3E7631C22000C3222
:1034F0000192143400947E220D4902A8034CA04787
:10350000A7E7C046D485000040860000AD7C0000DF
:10351000ED0200005C860000257B00004486000070
:10352000A533000048860000508600007886000021
:1035300068860000F0B5DE4657464E464546E0B583
:103540008BB007000E002D4BC35C9B461A0004A9EC
:103550002B4B98472C255B465D436B1CFB18019356
:103560001800284CA04782462B001433FB18029306
:103570001800A047039004AB09A920221A70013358
:103580008B42FBD1002304AA1375340054339946AF
:10359000B1441D4B98464B46A9461D00142204A970
:1035A0002000C0471534AC42F8D14D462C235A4672
:1035B0005343FB180022DA721A7730001530FF24CB
:1035C000524622400199104B98469847039B1C4055
:1035D00030002A3022000299C0470C357F1938008C
:1035E000084B984702002B3430193900C0470BB004
:1035F0003CBC90469946A246AB46F0BDED020000A9
:10360000F9330000017D0000257B0000F0B5D646AF
:103610004F464646C0B506000F00012A3ED0234B58
:10362000C55C2B1D9D423CDABB239B00C35CAB42B7
:1036300039D900231E4A91461C4A9046023A9246C6
:103640005C1CE4B25900CB18D900C91A79182A00B9
:103650003000C8470135EDB24346F35C04339D4268
:1036600004DA23005246B25CAA42E9D8032C10D8EF
:103670001421202062001219D3009A1ABA180B00E4
:10368000013BDBB2002BFBD110700134E4B2032C00
:10369000F0D91CBC90469946A246F0BD054B984710
:1036A000F7E70024E4E70024E2E7C046EE0200006A
:1036B000F933000035350000F8B5040016001F008E
:1036C0000130084DA84720000C303900A84726706B
:1036D000069B2361089B6362079B2362099BA3628D
:1036E000F8BDC046F17C000070B5284BC25C2C23AD
:1036F0005343195C072948D88B002549CB589F466E
:103700002C2454430419266935782800214B984706
:10371000616A214B9847002837D00135357034E075
:103720002C2454430419266935882800194B9847DE
:10373000616A194B9847002827D00135358024E06D
:103740002C2454430419266935682800134B9847E4
:10375000616A114B9847002817D00A35356014E08C
:103760002C235A43801804692568416A281C0A4B97
:103770009847002809D0281C094B9847094A0A4B4A
:103780000A4DA8470A4B9847206070BDED02000023
:10379000F4850000055F000069550000A55F00008A
:1037A000BD7800009A9999999999B93F31600000C4
:1037B0006179000070B504002F4BC25C2C23534389
:1037C000195C072954D88B002C49CB589F462C23D1
:1037D0005A438418266935782800294B9847216A6E
:1037E000284B9847002843D0013D357040E02C23FA
:1037F0005A438418266935882800214B9847216A46
:10380000204B9847002833D0013D358030E02C23F1
:103810005A4384182669356828001B4B9847216A4B
:10382000184B9847002823D00A3D356020E02C2310
:103830005A43821815692E68116A301C114B98473B
:10384000002809D0301C114B9847114A114B124ED9
:10385000B047124B98472860074BE25C2C23534338
:10386000E4182469002120680D4B9847002800D1F6
:1038700070BD00232360FBE7ED020000148600000A
:10388000055F000091550000A55F0000BD780000B5
:103890009A9999999999B93FB97100006179000095
:1038A0006955000001607047024A137804210B43F8
:1038B00013707047A420002010B5014B984710BD2D
:1038C000A9380000024A137804218B431370704713
:1038D000A4200020F8B504000D000B4904220B7849
:1038E0001342FCD0094B9847094E0A4F2A00210089
:1038F0003000B8470028F9D1054D074C01212800B8
:10390000A0470028FAD1F8BDA4200020C538000047
:1039100070200020252C0000452C000010B5084C1C
:10392000002208492000084B98473122A35C01215E
:103930000B43A35405492000054B984710BDC046D2
:1039400070200020B9380000FD2B0000021D00206F
:10395000152C000030B593B08023DB0500930023C5
:103960000193FF2269460A818B72CB7201212C22BE
:1039700068468154013281540132835401328354A8
:103980000C9305328354059300220382C276079379
:103990000384438402764276132383761333C2541E
:1039A000013BC2542F4B0A9380235B0303932E4B9E
:1039B0000E932E4B0F9301235B421093119303221E
:1039C0003633C254113BC154294D2A4C6A462A4908
:1039D0002800A0470028F9D1254D2C682000274B4E
:1039E00098471F2318401E3B8340254A13602A68CE
:1039F000D369002BFCD123680222134323601C4BA4
:103A00001B68DA69002AFCD15968802252020A43F5
:103A10005A600121164AD171DA69002AFCD1DA69AB
:103A2000002AFCD15968802292020A435A6001217F
:103A30000F4A9171DA69002AFCD10020114B984796
:103A40000200002310480021801859410F4A00232A
:103A50000F4CA0470F4B98470F4B98470F4B984779
:103A600013B030BD90D0030002001000020011001E
:103A700070200020C5270000000800423D2E0000F5
:103A800000E100E065430000571B0000581B0000E8
:103A9000B9550000010000201D390000A9380000C0
:103AA00000B583B001AB187059709A7003211800EB
:103AB000014B984703B000BDD538000010B50F2862
:103AC00000D910BD5208013870235B421843C0B2C0
:103AD000014B9847F5E7C046A13A0000014B186832
:103AE0007047C046E8000020014B18787047C04678
:103AF000B4220020264B1A6A196AC90D012003005E
:103B00008B435B00920D424001210A401343012B7D
:103B100009D0022B21D0002B00D070471D4A137012
:103B20001D4A1370F9E71B4B1B78002B08D0022BA2
:103B3000F3D10022174B1A700132174B1A70ECE7C1
:103B40000122144B1A7015490B68154A10681B1A8C
:103B5000144803600B681360DFE70E4B1B78002BE3
:103B600008D0012BD9D100220A4B1A7002320A4B1D
:103B70001A70D2E70222074B1A7008490B68084AEC
:103B800010681B1A074803600B681360C5E7C0463E
:103B900080000041D8220020B4220020E80000204C
:103BA000E4000020E000002010B50B4B18680B4C1F
:103BB000A0470B4B1868A0470A4B1868A0470A4B50
:103BC0001868A047094B1868A047094A13680133D1
:103BD0001360084B984710BD202300208505000086
:103BE000B0220020DC220020B82200202423002064
:103BF000E8000020F53A000070B5AAB00E4E01AC06
:103C0000310020000D4B98470623A372023BE3725C
:103C1000F63363600A4D220031002800094B9847B3
:103C20002A68022193681942FCD1136802210B43D0
:103C300013602AB070BDC04600240042C1210000BC
:103C4000E02200200D23000070B504000C4D00227E
:103C50000C4928000C4B9847002128000B4B984733
:103C60000B4B1C60220034320A4B1A6034320A4B70
:103C70001A603432094B1A60D034094B1C6070BD95
:103C8000E0220020A93B0000F126000009270000E7
:103C900020230020B0220020DC220020B8220020B7
:103CA00024230020094B1B680120142B04D8074B48
:103CB0001B6801300F2B00D97047044B1B68002094
:103CC0000A229A4240410330F6E7C046E000002055
:103CD00010B58EB0002200216B469A800023684602
:103CE000C17143708370037243728372C372037332
:103CF000837343730374059206920285428582851D
:103D00003423C154303BC37007220270053A8271DC
:103D1000013A02772A32089209930A4C6A460A4904
:103D200020000A4B984740212000094B9847226801
:103D30001369002BFCD1136802210B4313600EB0F2
:103D400010BDC046BC22002000340042C90700005C
:103D50001D0B000010B58000C2B201210148024BCA
:103D6000984710BDBC220020950A00007047000053
:103D70000C4B1B68002B06D1EFF31083002B07D0F0
:103D80000022094B1A70074A136801331360704709
:103D900072B6BFF35F8F0022044B1A700132024BE0
:103DA0001A70F0E7EC000020F00000201400002062
:103DB000084B1A68013A1A601B68002B09D1064BA0
:103DC0001B78002B05D00122044B1A70BFF35F8FC4
:103DD00062B67047EC000020F000002014000020C4
:103DE00010B5072803D880000F4B1B589F460020B2
:103DF00018E00E4B586815E00D4B597D0907090F67
:103E000001310C480C4B98470CE0084B986809E0CE
:103E1000074B1B7F00209B0704D5044B186801E06B
:103E20008020000210BDC04684860000F4000020FF
:103E300000100040006CDC022D540000F0B5DE469E
:103E400057464E464546E0B5384B1B8A1A07D20FF7
:103E500091465E05760F42780F241440A3460278FF
:103E600051424A41D2B285784168314FB9420DD9A9
:103E7000304FB94253D9304FB94252D92F4FB9427E
:103E800051D92F4FB94202D8042600E00026477AC4
:103E9000047AA446447BA046047B002C01D0012474
:103EA000A146284C6160C17A8A4620495446CC74A8
:103EB000807A82460720544620408874920004206D
:103EC00083431A4303384B46DB000824A2431A43BA
:103ED000434603401B010834A2431A436346034090
:103EE0009B013034A2431A430740FF0180239A43C9
:103EF00013003B433602144A134033432840C002A8
:103F0000124A134003435A4614031B051B0D234357
:103F10000B823CBC90469946A246AB46F0BD0126BA
:103F2000B5E70226B3E70326B1E7C046001000401C
:103F300080841E0000093D0000127A000024F40075
:103F40000048E801F4000020FFF8FFFFFFF7FFFF43
:103F5000F8B50400C568037D012B4DD0A368180196
:103F60002900294B98470F22024003092178C901F3
:103F70006678B6013143C9B2244E31771104013B52
:103F80001B051B0D0B43336237002C260421BB5D40
:103F90000B42FCD1A3781B03E178C9000B432179C4
:103FA00089000B43A17C032631400B43218A09047D
:103FB000174F39400B43E17C0902E027FF003940ED
:103FC0000B43277D3F01302139400B430F494B62A2
:103FD000637D1E402823CE540F002C260821BB5D94
:103FE0000B42FCD10F23984382186A43637D04334C
:103FF000DA40084B1A60F8BD018A013149002800F7
:10400000014B98470500A9E72D540000001000401F
:104010000000FF07F4000020072803D88000184B99
:104020001B589F46172029E0164A137D02210B4397
:104030001375002022E0144A936902210B43936117
:1040400000201BE00F4A138A02210B431382002039
:1040500014E00D4A938A02210B43938200200DE065
:10406000084A137F02210B43137710002A310222E2
:10407000435C1342FCD1002000E000207047C046A2
:10408000A48600000010004000140040F0B5D646A1
:104090004F464646C0B58EB00322624B9A60624AD4
:1040A00053681E218B4318390B4353600AA8002321
:1040B000037083705D4A4260037243728372C372FD
:1040C0000373437301334370594B98470020594B96
:1040D000984759490122CB681A42FCD0564B1A8A9C
:1040E00080210A431A821A7D40310A431A75534BC4
:1040F000984701AC012666600025657025726572DF
:104100002570210001204E4B9846984701204D4FC5
:10411000B8476660657006239946237065722672FB
:1041200021000220C0470220B847666065706572B2
:1041300007239A462370267221000320C0470320DC
:10414000B847666065704B46237025726572210022
:104150000420C0470420B847666065704B46237052
:104160002572657221000520C0470520B8476660AA
:1041700065704B4623702572657221000620C0478A
:104180000620B847666065704B46237025726572DD
:1041900021000720C0470720B84766606570257278
:1041A00065725346237021000820C0470820B84795
:1041B00004A88570C5700571234B83604575C5746F
:1041C0008574057046700675184BC3607823FF33FD
:1041D00003821E4B98470720164B984716483021FC
:1041E0000322435C1340032BFBD1134A117F833B13
:1041F0000B4313770123164A137101A94B60002367
:104200004B700B724B7207330B7000200C4B9847AE
:1042100000200C4B98470EB01CBC90469946A24615
:10422000F0BDC0460018004000400041001BB70030
:104230003D3E0000194000000010004055420000C3
:104240007942000025430000006CDC02513F000071
:1042500000080040064A536980210B435361012244
:10426000044B1A7019000B781342FCD17047C046FA
:1042700000080040001C004070B504000D784B7829
:10428000002B02D08023DB001D434B7A002B02D091
:1042900080231B011D43486801280FD9431E184283
:1042A00031D102282DD90223002201325B0098422D
:1042B000FBD880235B011D43120415430B7A002BAE
:1042C00002D080239B011D430426A6401149124AB7
:1042D0004B6813401E42FBD1104B9847A4000D4B76
:1042E0009C466444226A80235B001A402A4322626F
:1042F0006146094A4B6813401E42FBD1084B984760
:1043000070BD0022D5E7000480239B0018430543BD
:10431000D4E7C046001C0040FC070000713D0000CF
:10432000B13D000010B504000422824009480A494A
:1043300043680B401A42FBD1084B9847A400054B39
:104340009C466444226A80235B0013432362044B2F
:10435000984710BD001C0040FC070000713D0000A4
:10436000B13D0000F8B50400042282401248134910
:1043700043680B401A42FBD1114B98470E4F08344B
:10438000A400E0594007400F0E4B98470600E5593E
:10439000ED04ED0FE459240C0B4B9847002D07D189
:1043A000012C07D921003000084B9847060001E096
:1043B0000134E6403000F8BD001C0040FC0700005E
:1043C000713D0000E13D0000B13D00002D540000B2
:1043D00010B50400094B9847A000094B9C46604467
:1043E0008022835840210B4383504031403A435848
:1043F0001A42FCD0034B984710BDC046713D0000E7
:10440000001C0040B13D000010B50400094B984766
:10441000A000094B9C4660448022835840218B4376
:1044200083504031403A43581A42FCD1034B9847DD
:1044300010BDC046713D0000001C0040B13D0000B1
:1044400070B504000D00054B98472A780F231340E0
:104450002034A400024AA35070BDC04609440000A5
:10446000001C004010B50400064B98472034A400FF
:10447000054BE4582407240F044B98472000044BB5
:10448000984710BD713D0000001C0040B13D000088
:104490006543000030B5D378002B35D11378802BDD
:1044A00029D01B0680246402234354780225AC43A0
:1044B00006D19478002C20D18024A40223434160AB
:1044C0005478013C012C1CD90D042D0CA024E405CA
:1044D0002C431C4384620D0CD02424062C431C4323
:1044E0008462D478002C22D15B031CD59378012BF5
:1044F0001ED0416117E00023D7E7C024E402234324
:10450000DDE70D4C2340DFE741600C04240CA023C1
:10451000DB05234383620C0CD0231B0623438362F9
:10452000D378002B03D15378013B012B02D930BD46
:104530008161F8E78160FAE7FFFFFBFF10B50A0031
:10454000C1090023002905D14309DB018221C905E6
:104550008C4663441F242040012181401800014BF8
:10456000984710BD954400007047000010B5054BFA
:104570009847054B9847054B9847054B9847054B7F
:10458000984710BD8D4000006D3D0000694500005A
:104590005113000069450000FEE7000010B5174AFE
:1045A000174B9A4211D01A00164B9A420DD2164A56
:1045B00003339B1A9B0801339B00002210480F49CC
:1045C0008C58845004329A42FAD1104A104B9A42C5
:1045D0000AD2D3430E495B1803218B4304339B1843
:1045E000002102C29342FCD10A4AFF210A4B8B43AD
:1045F00093600A4B98470A4B9847FEE7F4880000FF
:10460000000000209C000020040000209C000020EE
:10461000D827002000ED00E000000000C97A00006B
:10462000394900000300064A1268002A04D0044AEF
:104630001068C318136070470249014A1160F6E719
:1046400000010020D847002010B501290DD0002915
:1046500006D002290ED0042209490A4B984703E0EC
:1046600004220949074B984710BD05220749054B0D
:104670009847F9E705220649024B9847F4E7C046F8
:10468000D8860000257B0000C4860000C886000094
:10469000D0860000F0B585B001900E00002302AA7C
:1046A00053718B005B18DC00E31ADA170F241440F7
:1046B000E4182411052120000F4B98470131C8B29E
:1046C00002AA0523202505270BE0591F8C4203D39E
:1046D000002E01D0107000E0157005330132282B38
:1046E00003D0A342F1D81770F7E702A90198034B52
:1046F000984705B0F0BDC04639550000F17C000078
:10470000C0467047C0467047C0467047C0467047B5
:10471000C0467047012804D0023843425841013056
:1047200070470020FCE70000F0B585B000276B461D
:104730001F739F735F7302A90F7001264E708F70F5
:1047400001AD6E70AF702E700C202F4CA04703A9E6
:104750000D20A04703A93620A04703A93720A04772
:1047600029001820A04729001C20A0472900262046
:10477000A04729002520A04729002420A047290080
:104780002320A04729002220A04729002120A0475C
:1047900029002020A04729003F20A04729002720EA
:1047A000A04729002820A04729002920A047290048
:1047B0001420A047802252048223DB055A616B46F5
:1047C0005F709E70DF701E70694604200F4CA0471A
:1047D0006B461E7069460520A0476B461E706946F1
:1047E0000620A0476B461E7069460720A0476B460F
:1047F0001E7069460320A0476B461E706946022062
:10480000A04705B0F0BDC046652F00003D45000043
:1048100000B583B06846054B984740236A4613703D
:1048200003490448044B984703B000BD191C00001D
:10483000005400422C2500202D1C000010B582B031
:1048400001A8074B9847074C01AA00212000064BFE
:10485000984700212000054B984702B010BDC04684
:104860003D1D00002C2500203F1D0000411D0000C3
:1048700070B50C000122134B1A70012821D00228B8
:104880001CD1114B1868114B98470378042B07D0A3
:104890002378012B0FD0002B13D10133237010E0AC
:1048A000094D2868094B984701692800084B98472B
:1048B0000023237005E00023237002E00022014B57
:1048C0001A7070BD1C0000203400002095330000D9
:1048D000A5380000F0B597B001AD16AE2800202134
:1048E0000024020014320300197001339342FBD1FB
:1048F00004751530B042F4D10A4B1A780A4B186887
:1049000001A90A4B98470024094F0A4E21000020B4
:10491000B8472800B0470134E4B21535042CF5D16E
:1049200017B0F0BD94150020340000200D360000B3
:104930007904000015050000F0B5DE4657464E46E6
:104940004546E0B5ABB0D94CD94F0026D94B994676
:10495000FA25AD00D84B984601212000C847E560F4
:104960006561E561A5627F2323627C6043469F51B8
:10497000343410370436142EEED1D04B9847D04B38
:104980009847D04B9847D04B9847D04B9847D04B3F
:104990009847D04B9847D04B9847D04B9847D04B2F
:1049A0009847D04B9847D048D04B9847D04B984722
:1049B000D04B9B465A1CFF32190000230B7001316B
:1049C0009142FBD10B91CC4BC32189005A58FF2057
:1049D00082433F3802435A50C624A4001A59C7489C
:1049E00010408022D20102431A515A58C448104044
:1049F0008022120402435A500122C24B1A70BFF3A4
:104A00005F8F62B60020C04B9847642200230021CC
:104A1000BE4CA047BE4A002380185941BD4A00231E
:104A2000BD4CA047BD4B9847A04C2000BC4B9847BD
:104A30006420BC4B9847BC4B98472000BB4B984721
:104A40001AAB2AAC1E00BA4F1D00BC208000B8472C
:104A500001C6A642F9D10995002398460393002484
:104A600002940194B34B0093B34B0422B3490FA8B3
:104A7000B34FB84712AB6A4643CB43C243CB43C2A2
:104A800003CB03C20F99109A119BAE48AE4EB047AC
:104A90004346039302940194AC4B99461B680093E0
:104AA000A54B0422AA490FA8B84712AB6A4623CBEC
:104AB00023C223CB23C203CB03C20F99109A119BAD
:104AC000A048B04743460393029401944B465B6869
:104AD0000093994B04229F490FA8B84712AB6A462E
:104AE00023CB23C223CB23C203CB03C20F99109A3B
:104AF000119B9448B04743460393029401944B465C
:104B00009B6800938C4B042293490FA8B84712ABC3
:104B10006A4623CB23C223CB23C203CB03C20F9904
:104B2000109A119B8748B04743460393029401941F
:104B30004B46DB680093804B042288490FA8B84796
:104B400012AB6A4623CB23C223CB23C203CB03C2BF
:104B50000F99109A119B7B48B047434603930294E8
:104B600001944B461B690093734B04227C490FA8A8
:104B7000B84712AB6A4623CB23C223CB23C203CB55
:104B800003C20F99109A119B6E48B047754B9A4615
:104B900003938323DB0502930194734B994600939F
:104BA000654B052271490FA8B84712AB6A4623CB63
:104BB00023C223CB23C203CB03C20F99109A119BAC
:104BC0005C48B047534603938323DB05029301946B
:104BD0004B4601330093584B052265490FA8B8474F
:104BE00012AB6A4623CB23C223CB23C203CB03C21F
:104BF0000F99109A119B4F48B0475E4B0393802347
:104C0000DB05029301944B46033300934A4B072282
:104C100059490FA8B84712AB6A4623CB23C223CB0E
:104C200023C203CB03C20F99109A119B4148B0478E
:104C3000434603938223DB050293504B01934B467B
:104C4000023300933C4B00224D490FA8B84712ABEA
:104C50006A4623CB23C223CB23C203CB03C20F99C3
:104C6000109A119B3348B047434603930294019432
:104C7000344B0093304B042242490FA8B84712AB83
:104C80006A4613CB13C213CB13C203CB03C20F99D3
:104C9000109A119B2748B0471023994600239A4643
:104CA0000A930026099D4B460993BAE02823002069
:104CB00080270020B5060000502500206D4500002B
:104CC000B50B00001D320000294700004D03000015
:104CD000B5040000114800003D48000055390000AF
:104CE000B5190000D13C00002C250020F51C000067
:104CF000310500002C24002000E100E0FF00FFFF50
:104D0000FFFF00FF1400002065430000F95500007C
:104D1000571B0000581B0000B9550000010000207F
:104D2000313000001D310000F93B0000493C00001B
:104D3000117B0000A412002040870000DC860000E8
:104D4000B9360000B40F0020E5320000200000203A
:104D5000E8860000F4860000008700000C87000051
:104D600018870000954600001800002024870000E6
:104D700030870000494600003C8700000000E0400A
:104D800044870000508700002C004546039600230E
:104D90009846029301933A4B00933A4B04223A49C6
:104DA0000FA83A4FB946B84712AB6A4683CB83C2C5
:104DB00083CB83C203CB03C20F99109A119B2000AF
:104DC000334FB8470A9A13000F3332490CA8324FB9
:104DD000B84703964146029101910094294B042261
:104DE0000CA90FA8C84712AB6A4613CB13C213CB4A
:104DF00013C203CB03C20F99109A119B2048244C75
:104E0000A04704350A9B10331A000A9301235B4222
:104E10009C46E244099B1133099380235B009A422C
:104E200042D0099F103FA8463A001C490CA81A4BD3
:104E3000984703968723DB050293194B019353464A
:104E4000FB18184A9B1800930E4B32000CA90FA8B0
:104E50000E4DA84743461D6812AB6A4613CB13C2DA
:104E600013CB13C203CB03C20F99109A119B2800D6
:104E7000074CA0470137099B9F42D5D184E7C04624
:104E8000981500204087000050870000B9360000C8
:104E9000E532000060870000AD7C0000588700000C
:104EA000000080BF2C24002000239A460393002496
:104EB00002940194E44F0097E44B0422E4490FA8C4
:104EC000E44EB047E44B994612AB6A4623CB23C26B
:104ED00023CB23C203CB03C20F99109A119B4846E0
:104EE000DE4DA84753460393029401944B4600932A
:104EF000D64B0422DA490FA8B04712AB6A4613CB4F
:104F000013C213CB13C203CB03C20F99109A119B88
:104F10003800A847D34CD44B994600274D4645232B
:104F200022685373236852461A7353460133DBB227
:104F30009A46236852469A730397CC4B0293FE23FA
:104F40009B05019323680E330093C04B3A00C84978
:104F50000FA8C04EB046B0472B689C4612AB6A46BD
:104F600043CB43C243CB43C203CB03C20F99109A36
:104F7000119B6046B94EB0470397BE4B0293002386
:104F80009946019323680093B04B3A00BA490FA8A1
:104F9000C0472B689C4612AB6A4643CB43C243CB07
:104FA00043C203CB03C20F99109A119B6046AB4ECC
:104FB000B0470397AD4B02934B46019323680833E8
:104FC0000093AE4B0322AE490FA8C0472B689C4606
:104FD00012AB6A4643CB43C243CB43C203CB03C2AB
:104FE0000F99109A119B60469C4EB0470397A54BB2
:104FF00002934B46019323685B680C330093A24BEA
:105000000222A2490FA8C0472B689C4612AB6A46F1
:1050100043CB43C243CB43C203CB03C20F99109A85
:10502000119B60468D4EB0470397964B02934B46BB
:10503000019323685B6814330093934B02229449D5
:105040000FA8C0472B689C4612AB6A4643CB43C2AD
:1050500043CB43C203CB03C20F99109A119B604606
:105060007E4EB0470397874B02934B4601932368CC
:105070005B681C330093844B022286490FA8C0470B
:105080002B689C4612AB6A4643CB43C243CB43C218
:1050900003CB03C20F99109A119B60466F4EB04725
:1050A0000397744B02934B46019323685B6820334C
:1050B0000093664B3A0078490FA8C0472B689C467E
:1050C00012AB6A4643CB43C243CB43C203CB03C2BA
:1050D0000F99109A119B6046604EB0470397694B39
:1050E00002934B46019323685B6828330093664B19
:1050F00002226A490FA8C0472B689C4612AB6A4639
:1051000043CB43C243CB43C203CB03C20F99109A94
:10511000119B6046514EB04703978323DB050293F2
:10512000FE239B05019323680C330093474B3A0001
:105130005B490FA8C0472B689C4612AB6A4643CB1D
:1051400043C243CB43C203CB03C20F99109A119BB6
:105150006046424EB0470397524B02934B46019331
:1051600008CC0D330093394B3A004F490FA8C04784
:105170002B689C4612AB6A4643CB43C243CB43C227
:1051800003CB03C20F99109A119B6046334EB04770
:1051900003974B46029301932F4B00932B4B042212
:1051A0002F490FA8C04708CD9C4612AB6A4643CB97
:1051B00043C243CB43C203CB03C20F99109A119B46
:1051C0006046264EB0475346052B00D0A7E6002385
:1051D0005A46137001320B998A42FAD1334BFF229F
:1051E0001A709A7100230B939B460993304A91469B
:1051F000304A9046AEE00990C1E02F4B9847C3E09B
:105200002B4B18682D4B9847013CE4B2002C60D022
:105210002B78002BF4D13068B847F5E7284B984736
:10522000041E56D0274D07E0214B1868264B98479F
:10523000013CE4B2002C4CD02B78002BF4D14B462F
:105240001868C047F4E7C046981500204087000062
:105250006C870000B9360000B40F0020E532000072
:105260005087000050250020200000200000A040B2
:105270007887000000007F43808700008C87000053
:105280009087000000409C45988700009C870000A4
:10529000A4870000AC870000B4870000BC87000032
:1052A000C48700000000FE42CC8700002C240020B0
:1052B0003400002035330000D5480000B537000029
:1052C000A53C000094150020E93600000022414B67
:1052D0001A70414B98470B9BC01A022866D882234C
:1052E000DB051B6ADB046AD53B4B98475B46C01A5B
:1052F00046282ED90024394E394B9A46394F335916
:105300001D689B7B3420584334385044B847364B93
:1053100058550434142CF2D12F4B98478346334B05
:10532000D878334B9847334B1870013801284AD945
:10533000304B1B78022293430BD1C0460024274FE9
:105340002D4D3B59597B187B0022A8470434142C5F
:10535000F7D10A9B254A12780A92934204D052014F
:1053600000212648264B9847204B5878099B8342BA
:1053700000D140E7234B98471C4B5B780993154BB2
:105380001B78002B00D038E70122124B1A701E4BFD
:105390009847012800D141E7022897D11B4B984735
:1053A000041E96D01A4D1B4E1B4F31E70A4B9847EF
:1053B0000B901A4B98471649194B98478FE70848A6
:1053C000184B984790E7802149000748164B9847AB
:1053D000AEE7C0461C000020DD3A0000502500204A
:1053E00028230020A90600002C24002018000020FB
:1053F00015470000D0270020BD3A00002C250020D2
:10540000451D0000553D0000E93A0000A53C0000A4
:10541000941500203400002069330000790B00004F
:1054200071480000AD060000A11B000000224308E7
:105430008B4274D303098B425FD3030A8B4244D35C
:10544000030B8B4228D3030C8B420DD3FF2209029E
:1054500012BA030C8B4202D31212090265D0030B5D
:105460008B4219D300E0090AC30B8B4201D3CB0353
:10547000C01A5241830B8B4201D38B03C01A524195
:10548000430B8B4201D34B03C01A5241030B8B4297
:1054900001D30B03C01A5241C30A8B4201D3CB0282
:1054A000C01A5241830A8B4201D38B02C01A524167
:1054B000430A8B4201D34B02C01A5241030A8B426A
:1054C00001D30B02C01A5241CDD2C3098B4201D382
:1054D000CB01C01A524183098B4201D38B01C01A00
:1054E000524143098B4201D34B01C01A5241030977
:1054F0008B4201D30B01C01A5241C3088B4201D326
:10550000CB00C01A524183088B4201D38B00C01AD2
:10551000524143088B4201D34B00C01A5241411AF9
:1055200000D20146524110467047FFE701B5002006
:1055300000F006F802BDC0460029F7D076E77047B4
:105540007047C0468446081C6146FFE71FB500F05F
:10555000BBF9002801D40021C8421FBD10B500F0DE
:105560004DF94042013010BD10B500F0ADF90028F2
:1055700001DB002010BD012010BDC04610B500F0B9
:10558000A3F9002801DD002010BD012010BDC04698
:1055900010B500F059F9002801DC002010BD0120F1
:1055A00010BDC04610B500F04FF9002801DA002008
:1055B00010BD012010BDC046002B11D1002A0FD113
:1055C000002900D1002802D00021C943081C07B4DB
:1055D000024802A14018029003BDC04665FFFFFFCC
:1055E00003B4684601B5029800F048F8019B9E4656
:1055F00002B00CBC7047C046F0B5CE464746150415
:105600002D0C2E0080B50704140C3F0C9946030C9A
:105610007E435D43674363437F19340CE4199C4622
:10562000A54203D980235B029846C4444B465143AC
:1056300043433604360C250C24046544A419591838
:10564000491920000CBC90469946F0BD9E2110B52A
:10565000C905041CFFF7A6FF002803D1201C00F099
:1056600031FC10BD9E21201CC90500F08FFA00F00E
:1056700029FC80231B069C466044F2E7F0B55746A0
:105680004E464546DE46E0B5040083B00D00924626
:1056900099468B422FD82CD04946504602F008FA42
:1056A00029000600200002F003FA331A9846203B36
:1056B0009B4600D574E053465A4693401F0053461C
:1056C000424693401E00AF4229D826D05B46A41B19
:1056D000BD41002B00DA79E0002200230092019303
:1056E00001235A469340019301234246934000937D
:1056F00019E08242D0D900220023009201930C9B32
:10570000002B01D01C605D600098019903B03CBC87
:1057100090469946A246AB46F0BDA342D6D9002298
:105720000023009201934346002BE8D0FB07720848
:105730001A4346467B080EE0AB4201D1A2420CD888
:10574000A41A9D41012024196D410021013E241815
:105750004D41002E06D0AB42EED9013E24196D41D9
:10576000002EF8D15B460098019900196941002B81
:1057700022DB2B005A46D3402A004446E2401C005C
:105780005B461500002B2CDB26009E4033002600D4
:105790004746BE403200801A994100900191AEE721
:1057A000424620239B1A5246DA40414613004A469D
:1057B0008A4017001F4382E7424620239B1A2A0093
:1057C00046469A402300F3401343D5E74246202340
:1057D00000219B1A0022009101920122DA400192DD
:1057E00082E74246202326009B1ADE402F00B44663
:1057F000974066463B003343C9E7C04670B5420058
:1058000045024E024C00C30F6D0A120E760A240E9A
:10581000C90F0120FF2A06D0FF2C03D0A24201D1DC
:10582000B54206D070BD002DFCD1FF2CFAD1002E60
:10583000F8D18B4206D00120002AF3D12800451E62
:10584000A841EFE70020EDE7F0B5420045024C0229
:10585000C30F48006D0A120E640A000EC90FFF2A1A
:105860001ED0FF2821D0002A0AD16E426E41F6B226
:1058700000280FD1002C0DD10020002D09D005E00B
:10588000002801D1002C01D08B4211D001215842B7
:105890000843F0BD002EF7D0012001390843F8E796
:1058A000002DDED002204042F3E7002CDBD0F9E7E8
:1058B0008242EBDC04DBA542E8D80020A542E8D216
:1058C0000121581E0843E4E7F0B542004D024C00A8
:1058D0004602760A120EC30F6D0A240EC90FFF2A64
:1058E00016D0FF2C18D0002A0AD170427041C0B2E5
:1058F000002C15D0002805D0012001390843F0BD47
:10590000002C13D0994214D001205B421843F6E7D3
:105910000220002EF3D1E4E70220002DEFD1E2E7D0
:10592000002DE7D10020002EE9D0EDE7002DE9D1D0
:10593000EAE7A24206DCDFDBAE4203D80020AE423B
:10594000DAD3DCE7012049420843D8E7F8B55746E7
:105950004E464546DE46E0B54702460088467F0A89
:10596000360EC40F002E47D0FF2E24D0FB00802718
:10597000FF041F43002399469A467F3E43465D023B
:105980005800DB0F6D0A000E984643D0FF283BD02D
:10599000EB0080250022ED041D437F383618731C70
:1059A00041469B464B46614013430F2B64D87548D4
:1059B0009B00C3589F46002F42D108239946063BBF
:1059C000FF269A46DAE74146022A28D0032A00D168
:1059D000CEE0012A00D0ACE0114000200022CCB281
:1059E0004002D205400AE407104320433CBC9046E5
:1059F0009946A246AB46F8BD002F15D1042399461F
:105A0000033B00269A46B9E7FF200222002DC5D0AD
:105A10000322C3E7002D19D100200122BEE7012493
:105A2000FF220C400020DBE7380002F023F8762646
:105A3000431F9F4000237642361A99469A469DE7B7
:105A40000C239946093BFF269A4697E7280002F067
:105A500011F8431F9D4076235B42181A00229DE7F0
:105A600080200024C003FF22BAE73D005246ABE786
:105A70003D0021005246A7E73B0C9C462A04120C2D
:105A80002B0C1400604665463F043F0C7C434243A8
:105A90005D437B43270C9B18FF18BA4203D9802330
:105AA0005B029C46654424043A04240C12199301B9
:105AB0005C1EA3413F0C920E7D191A43AD011543A4
:105AC0002B0104D501235E466A081D4015433200B0
:105AD0007F32002A25DD6B0704D00F232B40042BD7
