:10000000383E0020152B0000C12B0000C52B00003E
:1000100000000000000000000000000000000000E0
:10002000000000000000000000000000C92B0000DC
:100030000000000000000000CD2B0000D12B0000CC
:10004000112B0000112B0000112B0000590700009C
:10005000112B0000112B0000112B0000112B0000B0
:10006000112B0000AD1A0000BD1A0000CD1A0000CF
:10007000DD1A0000ED1A0000FD1A0000112B00002F
:10008000112B0000D5130000E5130000F51300004C
:10009000112B0000112B0000112B0000112B000070
:1000A000112B00003907000049070000951B0000D4
:1000B000AD090000112B0000112B000010B5064CFB
:1000C0002378002B07D1054B002B02D0044800E019
:1000D00000BF0123237010BD80000020000000003D
:1000E000D05B0000084B10B5002B03D0074908482F
:1000F00000E000BF07480368002B00D110BD064B8D
:10010000002BFBD09847F9E7000000008400002096
:10011000D05B0000D05B000000000000F0B5D646C8
:100120004F464646C0B580268223DB059846B0443C
:1001300043469E610020134FB84702000023124C33
:10014000002512196B4110001900104B9946104AF6
:100150000023C8470F4B9A46984743465E610020EC
:10016000B8473222002300210B4EB04700196941E5
:10017000074A0023C847D0471CBC90469946A24670
:10018000F0BDC046DD280000BFCF6A005137000037
:10019000C0CF6A00010000209137000010B5C307EE
:1001A00029D54022244B9A61830728D52022224B4F
:1001B0009A61430727D510221F4B9A61030726D562
:1001C00008221D4B9A61C30625D504221A4B9A6159
:1001D000830624D50222184B9A61430623D50122B7
:1001E000154B9A61C00922D180221206124B5A6126
:1001F000124B984710BD40220F4B5A61D4E7202282
:100200000D4B5A61D5E710220B4B5A61D6E70822F5
:10021000094B5A61D7E70422074B5A61D8E70222FB
:10022000054B5A61D9E70122034B5A61DAE7802274
:100230001206014B9A61DBE7800000411D010000BE
:1002400010B5002918D1802292000E4B5A610E4B36
:10025000984700200D4B98473222002300210C4C78
:10026000A0470C4A0023801859410B4A00230B4C2D
:10027000A0470B4B984710BD80229200014B9A611A
:10028000E5E7C046800000419D010000DD28000038
:1002900091370000BFCF6A00C0CF6A00513700001D
:1002A0000100002010B50021014B984710BDC04649
:1002B0004102000010B501200B4B984700200B4B6A
:1002C00098470200002319008018594180185941AD
:1002D000074A002380185941064A0023064CA047CC
:1002E000064B984710BDC046A5020000DD2800005F
:1002F000BFCF6A00C0CF6A00513700000100002064
:1003000010B502200B4B984700200B4B984702007A
:10031000002319008018594180185941074A0023C9
:1003200080185941064A0023064CA047064B9847BF
:1003300010BDC046A5020000DD280000BFCF6A0046
:10034000C0CF6A005137000001000020F8B5DE463A
:1003500057464E464546E0B53A4D18232B700020CF
:10036000394B9B469847394B9A463222002300214D
:10037000D047374E002780197941364B9946364A87
:100380000023C847354B9846984780228223DB05D7
:10039000D3188021090199618021890059610139AF
:1003A000FF3959615A610020D847322200230021C9
:1003B000D04780197941284A0023C847C0472026E2
:1003C00028783043C0B2264CA0470020D847254AA1
:1003D00000230021D047244A002380185941234A92
:1003E0000023C847C04728783043C0B2A047002048
:1003F000D847962200230021D0471B4A00238018AB
:1004000059411A4A0023C847C04728783043C0B230
:10041000A04728783043C0B2A0470622144B1A7078
:100420000E20A047134B98470222134B1A70062048
:10043000A047124B98473CBC90469946A246AB4613
:10044000F8BDC0469D000020DD2800009137000067
:10045000571B000051370000581B0000010000200E
:10046000A502000094110000BFCF6A00C0CF6A004F
:100470009C000020B50200009E0000200103000047
:1004800070B584B06A460B4B70CB70C21B681360AA
:10049000032901D8132801D904B070BD89006B4627
:1004A000CB58C01880235B421843C0B2024B984718
:1004B000F2E7C046F0580000A502000010B5054B59
:1004C000187802229043187008231843024B98476B
:1004D00010BDC0469C000020A502000010B50121FF
:1004E000014B984710BDC0464102000070B50400A2
:1004F0000078002805D0034D0134A8472078002853
:10050000FAD170BDDD04000070B504003023C25C78
:10051000052A0BD89300344AD3589F460023036121
:1005200043628361C36201223033C25470BD0369E8
:100530008268944663441D002361C1688B4206D8DB
:1005400001204042294B984745436560EEE701236F
:100550005B42436002223133C25400230361E5E76A
:1005600083698268944663441D00A361006A6169DF
:100570008B4206D8C0431D4B98474543ED43656009
:10058000D4E7606003223023E2540023A361CDE767
:10059000436A8268944663444362026A4260C26965
:1005A0009342C3D904223023C25400234362BDE7DF
:1005B000C36A8268944663441D00E362816A8B4289
:1005C00007D8066A3000094B98474543751B65609C
:1005D000ACE700234360052130228154C362A5E7C4
:1005E00000234360A2E7C04600590000C535000063
:1005F000C07970477047000010B58222D205136A97
:10060000126A5B0B01210B405B00120B4A400A404F
:100610001343064A1370064802781C009443037083
:100620000120214201D16208500010BD9F0000202E
:10063000A000002070B50020084B98470500084C2A
:10064000FA218900A047074B186007492800A047F6
:10065000064B18600522064B1A6070BDDD280000AD
:10066000C53500000C00002040420F0010000020A3
:1006700010E000E070B580002E4BC45823689A79D2
:100680005D791540EA072AD501229A716269931CA7
:10069000636123689B8C9BB21380238B013B9BB2CD
:1006A0002383002B15D0637F002B18D02268D379C9
:1006B0005BB2002B13DB138C9BB2002BFBD1137EA0
:1006C00002210B4313762268138C9BB2002BFBD1C3
:1006D00005E0012322681371237F052B16D06B07D9
:1006E00008D5042322689371E37E9B0702D5A37E7D
:1006F0009B0717D4AB0708D5022322689371E37ECA
:100700005B0702D5A37E5B0710D470BD002323775F
:10071000E37EDB07E3D5A37EDB07E0D52000A368FB
:100720009847DCE72000E3689847E3E72369200067
:100730009847EAE73014002010B50020014B984795
:1007400010BDC0467506000010B50120014B98474A
:1007500010BDC0467506000070B50022104B1A701F
:10076000002310491F25104E0D4C0AE00D4908E0EA
:1007700023780133DBB223700F2B10D800211F2BFD
:10078000F4D9280018400122824048691042EFD075
:100790004A619B009B59002BEAD09847E8E770BD5F
:1007A00038140020002800403C140020064A13782A
:1007B00002210B431370012053681942FCD1536886
:1007C0001842F9D17047C0460028004000B583B0F8
:1007D000174A51698023DB000B43536101A90023B1
:1007E0000B700220134B98470220134B9847134A73
:1007F000137801210B431370013101205368194212
:10080000FCD153681842F9D10C4A137810218B435C
:1008100013700B4B19004031002204C38B42FCD1F2
:100820000822084B1A60084B984703B000BDC04629
:1008300000080040B92900004929000000280040B4
:100840003C14002000E100E0AD07000003681869D7
:10085000431E9841C0B270470023037001224270CA
:1008600083700371C370437183717047F0B5C646DE
:1008700000B582B0050014000160284AD0698023C9
:100880009B030343D3610B781C209B0703D502B065
:1008900004BC9046F0BD0B781738DB07F7D401A9EC
:1008A000E3780B701F301E4B984724201D4B984750
:1008B00000266B465E70DE7001236A4613709670E8
:1008C00069460220184B98472F6863782B71AE71E8
:1008D00063795A1E93419B0122789046A278002AA0
:1008E00003D004224146114388462279002A03D0CE
:1008F0000822414611438846DBB23B700B4E28006C
:10090000B0470028FBD143467B7023786B710023EE
:100910006B61AB61EB61064B1D60B8E700080040FE
:10092000B929000049290000B52A00004D0800003F
:10093000C418002070B5040005686B780279134371
:100940006B700C4E2000B0470028FBD12B780222A0
:1009500013432B706379002B04D1074AD369042118
:100960000B43D3612B789B0703D50122EB7913420C
:10097000FCD070BD4D080000001800407047704763
:1009800070470000F8B5040017000668064D200007
:10099000A8470028FBD1A379002B02D13781002082
:1009A000F8BDB781FBE7C0464D08000070B5274B86
:1009B0001C682568AB79DB0707D50123AB712300E1
:1009C000143302D0637C002B31D1AB799B0738D52F
:1009D0000223AB71A3899BB2002B2CD0E3899BB27D
:1009E0005A1C92B2E2815B00A268944663441B8861
:1009F0009BB2AB81A389013B9BB2A381A3899BB22C
:100A0000002B18D100222033E2541E3B2B71AB7116
:100A1000802149057E330E4AD1502300143310D073
:100A2000A37C002B0AD00020E369984706E0002051
:100A3000A3699847C9E72300143302D0237C002B15
:100A400000D170BD636900209847FAE7C418002000
:100A500000E100E0F0B5DE4657464E464546E0B5BB
:100A600087B08046049116001F0000220023002159
:100A70008B463F2401202100009601975C46039499
:100A80004446059413E02024641A0500E540A84676
:100A900014E0009C019D121BAB415C464D462C436B
:100AA000A346039C45462C430394013925D32024B7
:100AB00064420C19E7D40500A540A84604008C4008
:100AC000A14692185B4114001D00059E4F463E4012
:100AD000B446049E47463E40B246664657463E43AD
:100AE00003D00600264332002B00009C019D9D424E
:100AF000DBD8CED19442D8D8CBE7039B5846190017
:100B000007B03CBC90469946A246AB46F0BD10B536
:100B1000490840230024814202D2180010BD1C0065
:100B2000091A631C9BB28842F9D94023FF2CF4D8E0
:100B300014800023F1E70000F0B583B00F00160029
:100B400008AA117804004C434022BC4202D910008C
:100B500003B0F0BD002B14D1020008000021194C95
:100B6000A04701003A0000230020174CA0470022B4
:100B70000123121A8B41120C1B041A4332800022EB
:100B8000E5E70022012BF9D10A00002300210D4CDA
:100B9000A04702000B0000920193380000210A4C8C
:100BA000A047050080239B0140229842CFD8790FAF
:100BB000F800009A019BA047EA00821AD2B25203C1
:100BC0002A43DBE791370000550A000010B582B0D8
:100BD00004000E4B1B78002B07D0002905D10B4BCE
:100BE0005B78834210D01D200CE001A90C7012200C
:100BF000074B98471220074B9847044B5C70012223
:100C00001A70002002B010BD0020FBE7A4000020F5
:100C1000B929000049290000404B984231D00AD937
:100C20003F4B98424DD03F4B98425AD03E4B984252
:100C300037D0002070473D4B98420CD03C4B984237
:100C4000F7D1012917D000295DD0022915D0032939
:100C500015D00020EEE7012907D0002951D0022944
:100C600005D0032905D00020E4E73248E2E7324806
:100C7000E0E73248DEE73248DCE73248DAE732487C
:100C8000D8E7012907D000293FD0022905D0032940
:100C900005D00020CEE72D48CCE72D48CAE72D48E7
:100CA000C8E7012907D0002931D0022905D003293E
:100CB00005D00020BEE72848BCE72848BAE7284806
:100CC000B8E7012907D0002923D0022905D003293C
:100CD00005D00020AEE72348ACE72348AAE7234825
:100CE000A8E7012907D0002915D0022905D003293A
:100CF00005D000209EE71E489CE71E489AE71E4844
:100D000098E71E4896E71E4894E71E4892E71E485B
:100D100090E71E488EE71E488CE7C046000C004254
:100D2000001400420018004200100042000400427B
:100D3000000800420300050003000600030007004E
:100D400002001100020012000200130002000D0058
:100D500002000E0002000F0002001700020018003F
:100D6000020019000300290003002A0003002B00E1
:100D700003002300030020000300210003000400FF
:100D80000200100002000C00020016000300280000
:100D90000300220030B587B00B4B6A4632CB32C21B
:100DA00032CB32C2009B83420BD001239A006946AA
:100DB0005258824206D00133062BF7D1002007B0EB
:100DC00030BD0023D8B2FAE718590000094B984209
:100DD0000CD0094B984207D0084A0023904201D01A
:100DE00018007047023302E0012300E00023DBB269
:100DF000F6E7C0460024004200280042002C0042D2
:100E000010B5040008004F4B984700232360800072
:100E10004D4A82586260A372E37223736372237235
:100E2000E36123626362A36223756375A375E3754F
:100E30002376637623746374A374E3742C22A3541F
:100E40000132A3540132A3540132A3540132A354FA
:100E50000132A3540132A3540132A3540132A354EA
:100E60000132A3540132A3540132A3540132A354DA
:100E70000132A3540132A3540132A3540132A354CA
:100E80000132A3540132A3540132A3540132A354BA
:100E90000132A3540132A3540132A3540132A354AA
:100EA0000132A3540132A3540132A3540132A3549A
:100EB0000132A3540132A3540132A3540132A3548A
:100EC0000132A3540132A3540132A3540132A3547A
:100ED0000132A3540132A3540132A3540132A3546A
:100EE0000132A3540132A3540132A3544132A3541A
:100EF000A365A3670132A354E365E3670132A354FA
:100F000023661A3AA3501B32A3546366173AA350C0
:100F10001832A354A366143AA3501532A354E366BF
:100F2000113AA3501232A35423670E3AA3500F3242
:100F3000A35463670B3AA35001210C32A154013230
:100F4000A35410BDCD0D000044590000F0B5DE469D
:100F500057464E464546E0B591B001900C0015004D
:100F60000800C34B984703000100C248C2699E00B5
:100F7000C14FF7593A43C26122681C20920706D537
:100F800011B03CBC90469946A246AB46F0BD2268E3
:100F900001271740F4D1B948325817202E68B242C1
:100FA000EED36E68B242EBD3E869824200D2ABE185
:100FB000286A824200D2A9E1686A824200D2A7E18F
:100FC000A86A824200D2A5E198229446AC446246C7
:100FD0000892002003E001300132082808D016787A
:100FE000002EF8D0A64E765C8642F4DC1720C7E7C8
:100FF0000022029280204004844602E00132042A4A
:101000000ED0A818007C0128F8D19E48405C904280
:1010100000DA81E160469040029E06430296EDE7C9
:101020009D32AA5C002A04D0802212010299114349
:1010300002912A7A511E8A41920006926A7A012A06
:1010400022D0904AD25C110005923522AA5C8A42D5
:1010500000D36BE12C21695C0F2900D966E1287B64
:101060000A90E87A0B902D208246AA44002004972B
:101070000EAE0796C0263601B1468446A04628002B
:1010800055460993824635E0069911430691D8E703
:1010900092024F463A400A4319798B4603215F4634
:1010A00039400A4316435A79520160210A403243BB
:1010B00099790902C026B6000E401643DA79120368
:1010C000E021C9010A4016433443039A14432043E4
:1010D000624607995050042A2AD09A7C0599914279
:1010E00000D823E1597A0A3504239B46DC440F29B2
:1010F00000D91BE10906F0231B0519402B002E78AF
:101100003604FF200004064068788024002800D1BF
:10111000049C987808270397002801D1049803902D
:10112000D878834610205F46002FB1D10498AFE7EE
:1011300044465546099B524AD25C9146514650312D
:1011400050464130002700220126B2460226FF36D3
:10115000B34680267602B046A4461C004B460FE0FC
:101160000678002E07D0934200D8D9E0022E14D082
:10117000564696403743013201310230082A10D0DA
:101180000E78002EECD0934200D8C7E04646964039
:1011900037430678002EE9D1EDE75E4696403743A7
:1011A000E9E79946230064466A7E12013021114026
:1011B000287E0722024011430022802040020E00B8
:1011C00002E00132042A0BD0A918097D0029F8D0C9
:1011D0000599914200DCA5E0010091400E43F0E743
:1011E000B2460198020004323430002102C2824229
:1011F000FCD100220198426382639900224A885000
:101200000460A022A95C643A81540DA9AA7A0A70EC
:101210001E4AD65C30001E4B984730001D4B984745
:101220004B46002B3CDD2E00583698339846A84498
:1012300001239946AB464546A046089C03E001348D
:101240000436AC422AD02378002BF8D00CAB4A46A7
:101250009A7000230CAAD37013002022B2181278BF
:101260001A704A465A70307819000B4B9847E6E7D7
:10127000CD0D000000080040305900004459000026
:10128000505900003C590000C81800204059000087
:10129000B929000049290000B52A000044465D46EE
:1012A0000A9B1B030B9A12021343029A13432360F7
:1012B0000422A3681A42FCD1FF2323710422A368ED
:1012C0001A42FCD16B461B7E63710E9BE3600F9B41
:1012D0002361A7615346E3631022A3681A42FCD13D
:1012E0002B6863636B682364059800281CDD1C353C
:1012F000002202CD130010339B00E3185960013225
:101300009042F6DC00203BE6172039E6172037E64E
:10131000172035E6172033E6172031E617202FE691
:1013200017202DE617202BE6002029E6172027E6B8
:10133000920083185960034BD358426B13434363A5
:10134000002070475459000070B504000D0000687B
:10135000094B9847094B1B5C1F221A4001239340FD
:10136000074A1360AD00074BEA58A36B1343A3630E
:1013700023689A6270BDC046CD0D000084590000FC
:1013800000E100E054590000F0B5C64600B5800009
:101390000E4BC7583B68DE6ABB6B7A6B13401E402E
:1013A00000240B4B984602E00434302C0AD043460C
:1013B000E5583542F8D03B195B68380098473B68E0
:1013C000DD62F1E704BC9046F0BDC046C8180020BD
:1013D0005459000010B50020014B984710BDC0467D
:1013E0008913000010B50120014B984710BDC0467D
:1013F0008913000010B50220014B984710BDC0466C
:1014000089130000F0B5DE4657464E464546E0B526
:1014100091B005000C00160029600800D24B9847D7
:1014200005280DD00700133722680523D20709D5F8
:10143000180011B03CBC90469946A246AB46F0BDA0
:101440001927F1E7226817339207F1D4C74AD16907
:1014500001301B3B83400B43D3610FA935239846D2
:10146000F35C0B70FFB23800C14B98473800C14B9A
:1014700098474346F05C0021BF4B9847F37A6B7165
:101480002C23F35CAB712D23F35CEB71F37E2B7299
:101490002423F35C6B722B6802931800B24B9847BD
:1014A00005281DD0133000220E2306A98C46634464
:1014B0001A80338A98468023DB01984500D1C3E027
:1014C00010D9C023DB01984500D1B8E080231B026E
:1014D000984500D066E103230693002307930AE0B2
:1014E0001920E0E780239B01984500D05AE11023A2
:1014F00006930F3B079333680593F3689B46736924
:101500000393337E04932E23F35C9A4673689946C3
:10151000002B00D1C5E080235B05994500D1A8E0F0
:10152000737E002B02D0B37E029A93730E2306AA19
:10153000944663441B88029A9381059A5B461A433A
:10154000039B1A434B461A4343461A43049B1B0210
:101550001A4353465B071A432F23F35C002B01D138
:1015600004331A43737E9B022421715C49020B43AE
:101570002621715C09020B432C21715C49040B4349
:101580002D21715C09040B43B07AF17A08431843AA
:101590003389FF2B00D1AAE0802149040A43184374
:1015A00002998B689C46338C718C0B431F0007217A
:1015B000634619403B000B4302998B60F369002B93
:1015C00002D06E490A401A433423F35C002B03D146
:1015D0006B4B9B789B0701D580231A432968029F98
:1015E000CB69002BFCD178602968CB69002BFCD13A
:1015F0003A603B68F02212051340E022D204934285
:101600000AD0BB6807229343BB60BA682523F15C0C
:101610001E3B0B401343BB600EAB80221A700022AE
:101620005A70DA709A70B36B0A93F36B0B93336C46
:101630000C93736C02930D9300270AAE66E00823A7
:101640000693073B079356E733680593F3689B4679
:1016500073690393337E04932E23F35C9A46736875
:101660009946002B19D080235B05994501D00023B2
:1016700027E02F23F35C002B00D051E7B36A1F0053
:10168000C0B2404B984701000E2206AB9C46624414
:1016900038003D4B9847030013E0082306930023CE
:1016A00007932F23F35C002B0FD0069B0093079B1F
:1016B0000E2206A98C466244316BB06A334FB8479C
:1016C0000300002B00D0B3E62AE7B36A1F00C0B2C4
:1016D0002C4B98470100069B0093079B0E2206A8FF
:1016E000844662443800294FB8470300E9E7F37E97
:1016F000002B00D154E78023DB041A4350E720007D
:10170000234B984707E00137042F0DD0F9B2BB00F7
:1017100098590028F3D0431CF5D00EA90870000C8E
:10172000C0B21C4B9847EEE70023EB602B616B6166
:10173000AB61EB612B62AB626B620022EB85AB8528
:101740003033EA540133EA540133EA540133EA54A2
:101750002868054B984704000F49104B9847A40090
:101760000F4BE550002363E6950D00000008004094
:10177000B929000049290000CD0B0000FFFFFFF050
:1017800000200041DD2900000F0B0000390B000094
:10179000190C0000B52A0000A1180000411A000031
:1017A000D41800201023069300230793A3E6C04615
:1017B000F8B506000C00150007680A4B9847F38D32
:1017C0009BB2002B03D0084B98470520F8BDF58548
:1017D000054B9847B46205223323F254323BBB7564
:1017E0000020F3E7D925000019260000F8B5040011
:1017F0000D00160007680F4B9847A38D9BB2002B76
:1018000003D00D4B98470520F8BDA6850A4B984795
:10181000656205223223E2542E3BBB75237A002BEE
:1018200001D02023BB75637A0020002BECD0082365
:10183000BB75E9E7D925000019260000931C9B0021
:10184000C31859603021012393401A00435C1343AD
:101850004354704710B50122014B984710BDC04654
:10186000ED17000010B51723002A01D1180010BD94
:10187000C4790533002CF9D0014B98470300F5E7F4
:10188000B1170000002903D0012905D0172002E07C
:101890003223C05CC0B270473323C05CC0B2FAE7E9
:1018A000F8B58000644BC5582C68E369002BFCD167
:1018B000237EA67D1E403023EB5C3122AF5C1F40AF
:1018C000F30722D5EB8D9BB2002B1CD0AA6A1378AC
:1018D000DBB2511CA962697901290ED09BB2DB05EC
:1018E000DB0D2385EB8D013B9BB2EB85002B0CD1EF
:1018F000013323750133A37507E0517809020B43C7
:101900000232AA62EBE701232375B30706D502234F
:10191000237500223133EA54FB071ED4730768D5C0
:10192000AB8D9BB2002B62D0638BDBB21A0718D44D
:101930007F2213405A0601D540229343002B33D017
:101940009A0711D51A223223EA54303B63837B076E
:101950004FD528006B6998474BE02800EB68984703
:10196000DCE777221340E5E75A0705D51E2232232C
:10197000EA542E3B6383EAE7DA0705D513223223C4
:10198000EA54313B6383E2E7DA0605D5422232238B
:10199000EA54223B6383DAE79B06D8D541223223FF
:1019A000EA54123B6383D2E7238DDB05DB0DDAB209
:1019B000696A0A706A6A511C69626979012910D0E2
:1019C000AB8D013B9BB2AB85002B12D10433237549
:1019D00000222E33EA54BB070BD528002B69984709
:1019E00007E01B0A53706B6A01336B62E8E704235C
:1019F0002375F30604D5102323752376FB060ED436
:101A0000B30604D52023237523763B070BD4330775
:101A100004D5082323752376BB0608D4F8BD280017
:101A2000EB699847ECE72800AB699847EFE72B6A2A
:101A300028009847F2E7C046D418002070470000FD
:101A4000F0B50A4B1B78002B0CD1094F094E0A4DFB
:101A50000024DE515A1914600433182BF9D10122E5
:101A6000024B1A708000024BC150F0BDA60000204E
:101A7000A80000203D1A0000D418002000B583B053
:101A800009236A4613700133537001339370013395
:101A9000D3700133137101335371034B98476B4675
:101AA000185603B000BDC046950D000010B5024B9E
:101AB0001B680020984710BDA800002010B5024BFD
:101AC0005B680120984710BDA800002010B5024BAC
:101AD0009B680220984710BDA800002010B5024B5B
:101AE000DB680320984710BDA800002010B5024B0A
:101AF0001B690420984710BDA800002010B5024BB8
:101B00005B690520984710BDA800002070B58000D3
:101B10001F4BC45823689D79227F637F13401D406B
:101B2000EB070AD4AB070FD4EB0614D46B0719D418
:101B30002B071ED4AB0623D470BD200063689847E2
:101B4000012322689371EDE72000A36898470223E0
:101B500022689371E8E720006369984710232268A0
:101B60009371E3E72000E3689847042322689371A8
:101B7000DEE7200023699847082322689371D9E79C
:101B80002000A3699847236820229A71D4E7C046B1
:101B9000EC18002010B50020014B984710BDC0463E
:101BA0000D1B000000B583B001AB80221A700A78CB
:101BB0005A704A789A708A78DA701900014B9847FF
:101BC00003B000BDB52A000084B070B5059106923F
:101BD000079399239B00C15C112913D0CB005B189C
:101BE0009B0005AAC31870CA70C370CA70C370CABC
:101BF00070C3013199239B00C1540023034A8354CD
:101C0000034A835470BC08BC04B018476502000046
:101C1000660200000A4BC25C013BC35C013B9A4276
:101C200002DA0132064BC254064BC25C044BC35C61
:101C30009B1A042B00D070470132024BC254FAE7C2
:101C40006502000066020000084BC35C002B02D056
:101C5000013B064A8354064BC35C044A825C9A42A9
:101C600002D2013B024A83547047C046650200001D
:101C700066020000034BC25CD3009B189B00C01897
:101C80007047C0466502000070B506000D1C081CB8
:101C90000A4B984704000A4B9847011C281C094B23
:101CA00098470949094B9847094B98470300220078
:101CB00008493000084CA04770BDC0465D40000098
:101CC0003D410000253D000000007A44E53A000057
:101CD000E5370000A459000015520000F0B589B0A6
:101CE00007000D00160099239B00C35C934225D981
:101CF000D400A418A40004192378062B45D89B000F
:101D00002B4AD3589F4623691A782000143029495A
:101D1000294B98470023E376284BFB5CB3423BD02A
:101D200023001433621C0B340094254902A8224C72
:101D3000A047142202A92800224B984709B0F0BD01
:101D400023691A88200014301A491B4B9847E1E791
:101D500023691A68200014301B49174B9847D9E7AC
:101D600020001430194A1A49134B9847D2E72369C7
:101D7000196820001430174B9847CBE72000143027
:101D8000124A13490C4B9847C4E720001430124AFA
:101D90000F49094B9847BDE7631C22000B320192A3
:101DA000143400947E220D4902A8034CA047C0E7DA
:101DB00088590000CC59000015520000650200004F
:101DC000F45900007D500000D0590000C0590000B7
:101DD000D8590000891C0000DC590000E4590000BB
:101DE000F0B5DE4657464E464546E0B58BB0070097
:101DF0000E002F4BC35C98461A0004A92D4B984740
:101E00004346DD004544AD006B1CFB1801931800F0
:101E1000294CA04783462B001433FB18029318006B
:101E2000A047039004AB09A920221A7001338B420A
:101E3000FBD1002304AA1375340054339A46B244EC
:101E40001E4B99462B0055469A46142204A92000A1
:101E5000C8471534AC42F8D155464346DB004246EC
:101E600099188900791800228A72CA7630001530D4
:101E7000FF245A4622400199104B98469847039BED
:101E80001C4030002A3022000299C0470B357F19D0
:101E90003800094B984702002B3430193900C047ED
:101EA0000BB03CBC90469946A246AB46F0BDC0463E
:101EB00065020000DD1C0000695200007D5000003A
:101EC000F0B5D6464F464646C0B506000F00012A7B
:101ED0003ED0234BC55C2B1D9D423CDA99239B00D1
:101EE000C35CAB4239D900231E4A91461C4A904636
:101EF000023A92465C1CE4B25900CB18D900C91AC8
:101F000079182A003000C8470135EDB24346F35C2A
:101F100004339D4204DA23005246B25CAA42E9D857
:101F2000032C10D81421202062001219D3009A1A11
:101F3000BA180B00013BDBB2002BFBD1107001344F
:101F4000E4B2032CF0D91CBC90469946A246F0BDE1
:101F5000054B9847F7E70024E4E70024E2E7C04692
:101F600066020000DD1C0000E11D0000F0B5C64661
:101F700000B582B004000F0090460193451C0A2270
:101F800010492800104EB047390028000F4FB847BD
:101F90000A3505220E492800B04701992800B847A4
:101FA0002000143008220B49B04743462370089B99
:101FB00023610A9B2362099BE36102B004BC904643
:101FC000F0BDC046B05900007D50000059520000DD
:101FD000BC590000C4590000F0B5C64600B5050064
:101FE000344BC45CE3001B199B001B5C012B1ED00F
:101FF000002B06D0022B30D0032B44D004BC9046DB
:10200000F0BDE60033199B00C3181B6998461F7882
:102010003800294B98473619B600AD19296A274B65
:1020200098470028EAD0013743461F70E6E7E600EC
:1020300033199B00C3181B6998461F8838001E4B34
:1020400098473619B600AD19296A1C4B98470028E5
:10205000D4D0013743461F80D0E7E60033199B00F8
:10206000C3181B6998461F683800154B98473619E6
:10207000B600AD19296A114B98470028BED0013728
:1020800043461F60BAE7E3001A19920082181769E5
:102090003E68116A301C094B98470028AED0301CAE
:1020A000084B9847084A094B094CA047094B9847E9
:1020B0003860A3E7650200009D4000000137000082
:1020C0003D410000154E00009A9999999999B93FA0
:1020D000C9410000B94E0000F0B5C64600B5050084
:1020E000344BC45CE3001B199B001B5C012B1ED00E
:1020F000002B06D0022B30D0032B44D004BC9046DA
:10210000F0BDE60033199B00C3181B6998461F7881
:102110003800294B98473619B600AD19E969274BA5
:1021200098470028EAD0013F43461F70E6E7E600E3
:1021300033199B00C3181B6998461F8838001E4B33
:1021400098473619B600AD19E9691C4B9847002825
:10215000D4D0013F43461F80D0E7E60033199B00EF
:10216000C3181B6998461F683800154B98473619E5
:10217000B600AD19E969114B98470028BED0013F60
:1021800043461F60BAE7E3001A19920082181769E4
:102190003E68D169301C094B98470028AED0301CEE
:1021A000084B9847084A094B094CA047094B9847E8
:1021B0003860A3E7650200009D4000002937000059
:1021C0003D410000154E00009A9999999999B93F9F
:1021D000E9470000B94E000001607047024A1378D9
:1021E00004210B43137070472C1B002010B5014BCA
:1021F000984710BDDD210000024A137804218B436B
:10220000137070472C1B0020F8B504000D000B491B
:1022100004220B781342FCD0094B9847094E0A4F11
:102220002A0021003000B8470028F9D1054D074C9D
:1022300001212800A0470028FAD1F8BD2C1B00205E
:10224000F9210000F81A0020651800008518000028
:1022500010B5084C002208492000084B984731224D
:10226000A35C01210B43A35405492000054B98476B
:1022700010BDC046F81A0020ED2100003D180000F6
:102280008E1800205518000030B593B08023DB0570
:10229000009300230193FF2269460A818B72CB725F
:1022A00001212C2268468154013281540132835429
:1022B000013283540C930532835405930022038228
:1022C000C27607930384438402764276132383768F
:1022D0001333C254013BC2542F4B0A9380235B0338
:1022E00003932E4B0E932E4B0F9301235B421093BF
:1022F000119303223633C254113BC154294D2A4C49
:102300006A462A492800A0470028F9D1254D2C68A3
:102310002000274B98471F2318401E3B8340254A27
:1023200013602A68D369002BFCD12368022213436F
:1023300023601C4B1B68DA69002AFCD15968802293
:1023400052020A435A600121164AD171DA69002A01
:10235000FCD1DA69002AFCD15968802292020A4332
:102360005A6001210F4A9171DA69002AFCD10020DC
:10237000114B984702000023104800218018594152
:102380000F4A00230F4CA0470F4B98470F4B98471D
:102390000F4B984713B030BD90D0030002001000DF
:1023A00002001100F81A0020051400000008004285
:1023B0007D1A000000E100E0DD280000571B00004E
:1023C000581B00005137000001000020512200007E
:1023D000DD210000014B18687047C046C80000208E
:1023E000014B18787047C0463C1D0020264B1A6AE6
:1023F000196AC90D012003008B435B00920D424016
:1024000001210A401343012B09D0022B21D0002BBC
:1024100000D070471D4A13701D4A1370F9E71B4B1B
:102420001B78002B08D0022BF3D10022174B1A7017
:102430000132174B1A70ECE70122144B1A70154940
:102440000B68154A10681B1A144803600B68136068
:10245000DFE70E4B1B78002B08D0012BD9D10022CF
:102460000A4B1A7002320A4B1A70D2E70222074B4B
:102470001A7008490B68084A10681B1A074803605D
:102480000B681360C5E7C04680000041441D002072
:102490003C1D0020C8000020C4000020C000002017
:1024A00010B50B4B18680B4CA0470B4B1868A04796
:1024B0000A4B1868A0470A4B1868A047094B1868D0
:1024C000A047094A136801331360084B984710BDB1
:1024D0008C1D002009050000381D0020481D00202B
:1024E000401D0020901D0020C8000020ED230000AA
:1024F00070B5AAB00E4E01AC310020000D4B9847CC
:102500000623A372023BE372F63363600A4D220096
:1025100031002800094B98472A6802219368194224
:10252000FCD1136802210B4313602AB070BDC04672
:1025300000240042010E00004C1D00204D0F000041
:10254000F0B5C64600B580460F0016001D000D4BC5
:1025500098470D4C00220D4920000D4B9847002153
:1025600020000C4B98470C4B42461A600B4B1F60E7
:102570000B4B1E600B4B1D600B4B069A1A6004BC84
:102580009046F0BDED2300004C1D0020A12400006A
:1025900031130000491300008C1D0020381D00205D
:1025A000481D0020401D0020901D0020084B1B6886
:1025B0000120322B04D8064B1B680230232B00D994
:1025C0007047034B1B6802300F2BF9D80530F7E733
:1025D000C0000020704700000C4B1B68002B06D188
:1025E000EFF31083002B07D00022094B1A70074A23
:1025F000136801331360704772B6BFF35F8F002218
:10260000044B1A700132024B1A70F0E7CC00002024
:10261000D000002014000020084B1A68013A1A600C
:102620001B68002B09D1064B1B78002B05D001221B
:10263000044B1A70BFF35F8F62B67047CC00002066
:10264000D00000201400002010B5072803D8800017
:102650000F4B1B589F46002018E00E4B586815E0A2
:102660000D4B597D0907090F01310C480C4B984758
:102670000CE0084B986809E0074B1B7F00209B0784
:1026800004D5044B186801E08020000210BDC0464C
:10269000005A0000D400002000100040006CDC0252
:1026A000C5350000F0B5CE46474680B585B003225B
:1026B0003F4B9A603F4A53681E218B4353603E4A0A
:1026C000137D62310B4313753C4B984701AC0126D7
:1026D0006660002565700623994623702572657231
:1026E00021000120364B984698470120354FB847C6
:1026F000666065704B46237025726572210002206A
:10270000C0470220B847666065704B46237025724B
:10271000657221000320C0470320B84766606570DA
:102720004B4623702572657221000420C0470420A7
:10273000B847666065704B4623702572657221004C
:102740000520C0470520B847666065704B4623707A
:102750002572657221000620C0470620B8476660D2
:1027600065704B4623702572657221000720C047B3
:102770000720B847666065704B4623702572657206
:1027800021000820C0470820B8470F4B1E71666023
:1027900065704B4623702572657221000020C0478A
:1027A0000020B84705B00CBC90469946F0BDC04625
:1027B000001800400040004100100040CD270000FC
:1027C000F12700009D28000000080040064A5369D8
:1027D00080210B4353610122044B1A7019000B78BE
:1027E0001342FCD17047C04600080040001C004066
:1027F00070B504000D784B78002B02D08023DB00ED
:102800001D434B7A002B02D080231B011D434868D7
:1028100001280FD9431E184231D102282DD9022395
:10282000002201325B009842FBD880235B011D43EC
:10283000120415430B7A002B02D080239B011D4309
:102840000426A6401149124A4B6813401E42FBD190
:10285000104B9847A4000D4B9C466444226A802389
:102860005B001A402A4322626146094A4B681340C2
:102870001E42FBD1084B984770BD0022D5E70004EB
:1028800080239B0018430543D4E7C046001C00404A
:10289000FC070000D92500001926000010B504002F
:1028A0000422824009480A4943680B401A42FBD17E
:1028B000084B9847A400054B9C466444226A802339
:1028C0005B0013432362044B984710BD001C00407B
:1028D000FC070000D925000019260000F8B5040007
:1028E000042282401248134943680B401A42FBD12C
:1028F000114B98470E4F0834A400E0594007400F91
:102900000E4B98470600E559ED04ED0FE459240CF1
:102910000B4B9847002D07D1012C07D9210030001F
:10292000084B9847060001E00134E6403000F8BD4E
:10293000001C0040FC070000D925000049260000CB
:1029400019260000C535000010B50400094B984752
:10295000A000094B9C4660448022835840210B43D1
:1029600083504031403A43581A42FCD0034B9847B9
:1029700010BDC046D9250000001C004019260000EB
:1029800010B50400094B9847A000094B9C466044D1
:102990008022835840218B4383504031403A435832
:1029A0001A42FCD1034B984710BDC046D925000000
:1029B000001C00401926000070B504000D00054BF6
:1029C00098472A780F2313402034A400024AA350CA
:1029D00070BDC04681290000001C004010B50400F5
:1029E000064B98472034A400054BE4582407240FD5
:1029F000044B98472000044B984710BDD925000090
:102A0000001C004019260000DD28000030B5D378F6
:102A1000002B35D11378802B29D01B06802464022B
:102A2000234354780225AC4306D19478002C20D15E
:102A30008024A402234341605478013C012C1CD91A
:102A40000D042D0CA024E4052C431C4384620D0CC2
:102A5000D02424062C431C438462D478002C22D139
:102A60005B031CD59378012B1ED0416117E0002336
:102A7000D7E7C024E4022343DDE70D4C2340DFE722
:102A800041600C04240CA023DB05234383620C0C5F
:102A9000D0231B0623438362D378002B03D15378C2
:102AA000013B012B02D930BD8161F8E78160FAE773
:102AB000FFFFFBFF10B50A00C1090023002905D163
:102AC0004309DB018221C9058C4663441F24204051
:102AD000012181401800014B984710BD0D2A0000CC
:102AE0007047000010B5054B9847054B9847054BBC
:102AF0009847054B9847054B984710BDA526000001
:102B0000D5250000E12A0000CD070000E12A0000E1
:102B1000FEE7000010B5174A174B9A4211D01A0071
:102B2000164B9A420DD2164A03339B1A9B08013367
:102B30009B00002210480F498C58845004329A425E
:102B4000FAD1104A104B9A420AD2D3430E495B186D
:102B500003218B4304339B18002102C29342FCD112
:102B60000A4AFF210A4B8B4393600A4B98470A4B52
:102B70009847FEE7D05B00000000002080000020A6
:102B80000400002080000020381E002000ED00E03E
:102B90000000000021500000912D00000300064AB3
:102BA0001268002A04D0044A1068C31813607047E2
:102BB0000249014A1160F6E7E0000020383E00209B
:102BC000C0467047C0467047C0467047C046704711
:102BD000C0467047054B1878012804D0023843429C
:102BE0005841013070470020FCE7C046181E002005
:102BF000F0B585B000276B461F739F735F731F721C
:102C000001265E729F7201AD6E70AF702E7002A9C8
:102C10000C202C4CA04702A90D20A04703A9362068
:102C2000A04703A93720A04729001820A047290062
:102C30001C20A04729002620A04729002520A047C6
:102C400029002420A04729002320A0472900222072
:102C5000A04729002120A04729002020A0472900C3
:102C60003F20A04729002720A04729002820A0476F
:102C700029002920A04729002B20A0476B465F7020
:102C80009E70DF701E70694604200F4CA0476B4693
:102C90001E7069460520A0476B461E7069460620D7
:102CA000A0476B461E7069460720A0476B461E7002
:102CB00069460320A0476B461E7069460220A04764
:102CC00005B0F0BDA51B0000B52A000000B583B01B
:102CD0006846054B984740236A46137003490448E9
:102CE000044B984703B000BD59080000005400424F
:102CF000AC1D00206D08000010B582B001A8074B84
:102D00009847074C01AA00212000064B9847002154
:102D10002000054B984702B010BDC0467D09000059
:102D2000AC1D00207F0900008109000070B50C0077
:102D30000122134B1A70012821D002281CD1114BFB
:102D40001868114B98470378042B07D02378012B80
:102D50000FD0002B13D10133237010E0094D2868E8
:102D6000094B984701692800084B984700232370B6
:102D700005E00023237002E00022014B1A7070BDB1
:102D80001500002018000020751C0000D92100004B
:102D9000F0B5DE4657464E464546E0B5F94CA544EB
:102DA000F94B9847F94B9847F94B9847F94B984797
:102DB000F94B9847F94B9847F94B9847F94B984787
:102DC000F94B9847F948FA4B98470125F94B1D7084
:102DD000BFF35F8F62B6342200217AA8F64CA04779
:102DE00087AB7A93342200216DA8A047F34B04AA45
:102DF000944663446D933422002160A8A047F04BB1
:102E000004AA9446634460933422002153A8A04747
:102E1000EC4B04AA9446634453933422002146A801
:102E2000A04788AB4693E84B984746AB009353AB1B
:102E300060AA6DA97AA8E54CA0470823FF3304AA2D
:102E4000944663441D7035AB45AF1D00E04E1C0039
:102E50009A208000B04701C5BD42F9D1A04630A8F4
:102E6000DC4B0200190061C961C221C921C22BA932
:102E700014330A0023CB23C203CB03C200239B22BB
:102E800004A98C46624413709A226244137000268F
:102E900002960196D04B0093D04B0422D04921A832
:102EA000D04FB84724AB6A4623CB23C223CB23C2DF
:102EB0002199229A239BCC48CC4DA8470296019693
:102EC000CB4B0093C54B0422CA4921A8B84724AB79
:102ED0006A4613CB13C213CB13C22199229A239BA8
:102EE000C148A84702960196C34B0093BB4B0422EE
:102EF000C24921A8B84724AB6A4613CB13C213CBEF
:102F000013C22199229A239BB748A847029601969B
:102F1000BB4B0093B14B0422BA4921A8B84724AB5C
:102F20006A4613CB13C213CB13C22199229A239B57
:102F3000AD48A84702960196B34B0093A74B0422D5
:102F4000B24921A8B84724AB6A4613CB13C213CBAE
:102F500013C22199229A239BA348A847029601965F
:102F6000AB4B00939D4B0422AA4921A8B84724AB40
:102F70006A4613CB13C213CB13C22199229A239B07
:102F80009948A8478323DB05029301969A2304AA54
:102F9000944663440093914B00229F4921A8B8476F
:102FA00024AB6A4613CB13C213CB13C22199229AC6
:102FB000239B8948A847994B029301969B2304AA17
:102FC000944663440093854B0022954921A8B84755
:102FD00024AB6A4613CB13C213CB13C22199229A96
:102FE000239B7D48A8478F4B029301960823FF330C
:102FF00004AA944663440093784B00228A4921A88E
:10300000B84724AB6A4613CB13C213CB13C2219922
:10301000229A239B7048A84702960196724B009310
:103020006E4B0422814921A8B84724AB6A4613CBD2
:1030300013C213CB13C22199229A239B6648A84737
:1030400010239B46002399460027434607935E467C
:103050003500103D614B9846079B9B4609972A0017
:1030600073490CA8734B98478723DB050293724B77
:1030700001934B46EB1887AA94466344009343465A
:1030800000220CA921A8574FB8475B461B681800BF
:10309000089324AB6A4692CB92C292CB92C22199FA
:1030A000229A239B514FB8470135B542D7D15B4691
:1030B0000793099F002502950195604B0093474BAC
:1030C00004225A4921A8474CA246A04724AB6A468D
:1030D00013CB13C213CB13C22199229A239B0898B6
:1030E000424CA046A0473B000F333A0054490CA87D
:1030F000504CA04702950195089B0093374B042242
:103100000CA921A8D04724AB6A4613CB13C213CB1A
:1031100013C22199229A239B4848C047079B043336
:103120000793103701235B429C46E144113602337A
:10313000FF339F428CD10024029401943F4F0097AB
:10314000264B04223F4921A8264DA847264B9946E5
:1031500024AB6A4643CB43C243CB43C22199229A54
:10316000239B4846214EB047029401944B4600935E
:103170001A4B04222D4921A8A84724AB6A4613CB39
:1031800013C261E0ECFBFFFFE52A0000F12B000019
:103190004D030000BD040000CD2C0000F92C000000
:1031A0008922000035060000F5050000AC1D002056
:1031B00035090000140000208F5000000D020000AF
:1031C0000E0200000F020000F12400004125000063
:1031D00069500000205A0000540F0020C059000020
:1031E000485A00006D1F0000EC0C0020C91B0000B5
:1031F000E4000020545A00004C030020605A0000F4
:10320000B40500206C5A00001C080020785A000009
:10321000840A0020845A0000905A000000002041D7
:103220009C5A000000004040A85A0000B05A00001C
:10323000B85A000015520000000080BFC0110020E5
:10324000C05A0000CC5A000013CB13C22199229A15
:10325000239B3800B0470026B04630AB4246D358D7
:103260009A46B64F0297002401940093B44B022271
:10327000B44921A8B44EB146B0472BAB4246D3580F
:10328000180024AB6A4662CB62C262CB62C221994B
:10329000229A239B0790AD4EB04702970194534664
:1032A00014330093A64B0322A94921A8C84724AB95
:1032B0006A4623CB23C223CB23C22199229A239B84
:1032C0000798B047A34F029401945246131D0093F0
:1032D0003B000222A04921A8C84724AB6A4623CB61
:1032E00023C223CB23C22199229A239B0798B0475C
:1032F000029401945346083300933B0002229749FD
:1033000021A8C84724AB6A4623CB23C223CB23C2C0
:103310002199229A239B0798B0470294019453461F
:103320000C330093864B02228D4921A8C84724AB59
:103330006A4623CB23C223CB23C22199229A239B03
:103340000798B047029401945346103300933B0012
:103350000222844921A8C84724AB6A4623CB23C252
:1033600023CB23C22199229A239B079F3800B04781
:10337000029401947C4B0093714B04227B4921A859
:10338000C84724AB6A4613CB13C213CB13C221998F
:10339000229A239B3800B04704239C46E0444346CE
:1033A000142B00D059E787ABFFA9143100221A7003
:1033B00001338B42FBD100226D4B1A7009329A23E4
:1033C00004A98C4663441A7000236A4988469A46C9
:1033D000089336E0674B1868674B9847013CE4B2A6
:1033E000002C1FD03378002BF4D15B461868A84717
:1033F000F4E7624B9847041E14D0614E07E05D4B22
:103400001868604B9847013CE4B2002C0AD033782E
:10341000002BF4D1434618685B4B9847F3E7002232
:103420005A4B1A705A4B9847089BC01A02284FD81B
:10343000574B98475346C01AFA239B00984250D8DE
:10344000079B9A2204A98C46624412780792934201
:1034500004D0520100214F484F4B98474B4B1B78EB
:10346000002B23D00CAC21AE20002021002502002F
:1034700014320300197001339A42FBD105751530DF
:103480008642F4D13E4B1A783A4B18680CA9434B4C
:1034900098470025424F434E29000020B84720009E
:1034A000B0470135EDB21534042DF5D10122374B6B
:1034B0001A703D4B984701289BD00228AFD12F4B63
:1034C0009847041EAED02E4E2A4B9B46374D89E7B7
:1034D0002F4B98470890364B98472949354B9847CA
:1034E000A6E72B4B984782460823FF3304AA94464D
:1034F00063441878304B98471D4B18708022520552
:103500008223DB05DA610223984399D1C0467AA869
:103510002A4B994698470AAC20706DA8C84760703E
:1035200060A8C847A07053A8C847E07046A8C8471D
:10353000207105210AA8224B984781E700007F43AC
:10354000BC590000D85A00006D1F0000C91B0000C4
:10355000E45A0000F05A0000F85A0000045B000032
:10356000105B00001C5B0000EC0C0020285B0000DE
:10357000181E002018000020D9200000AD250000F2
:10358000BC110020D91F0000151C000015000020F0
:10359000D5230000AC1D002085090000C11E0000DD
:1035A00081040000ED040000E1230000491C00003C
:1035B000F90500002D2D0000D52B0000F1050000BD
:1035C00009220000002243088B4274D303098B4276
:1035D0005FD3030A8B4244D3030B8B4228D3030CE3
:1035E0008B420DD3FF22090212BA030C8B4202D385
:1035F0001212090265D0030B8B4219D300E0090AAD
:10360000C30B8B4201D3CB03C01A5241830B8B42B5
:1036100001D38B03C01A5241430B8B4201D34B039E
:10362000C01A5241030B8B4201D30B03C01A524103
:10363000C30A8B4201D3CB02C01A5241830A8B4288
:1036400001D38B02C01A5241430A8B4201D34B0271
:10365000C01A5241030A8B4201D30B02C01A5241D5
:10366000CDD2C3098B4201D3CB01C01A5241830989
:103670008B4201D38B01C01A524143098B4201D3C3
:103680004B01C01A524103098B4201D30B01C01AEE
:103690005241C3088B4201D3CB00C01A5241830868
:1036A0008B4201D38B00C01A524143088B4201D395
:1036B0004B00C01A5241411A00D2014652411046F5
:1036C0007047FFE701B5002000F006F802BDC046D4
:1036D0000029F7D076E770477047C0468446081C3B
:1036E0006146FFE71FB500F0BBF9002801D40021B7
:1036F000C8421FBD10B500F04DF94042013010BD69
:1037000010B500F0ADF9002801DB002010BD01204C
:1037100010BDC04610B500F0A3F9002801DD00205F
:1037200010BD012010BDC04610B500F059F90028A9
:1037300001DC002010BD012010BDC04610B500F016
:103740004FF9002801DA002010BD012010BDC0464D
:10375000002B11D1002A0FD1002900D1002802D05E
:103760000021C943081C07B4024802A14018029076
:1037700003BDC04665FFFFFF03B4684601B502986C
:1037800000F048F8019B9E4602B00CBC7047C04652
:10379000F0B5CE46474615042D0C2E0080B5070423
:1037A000140C3F0C9946030C7E435D43674363430F
:1037B0007F19340CE4199C46A54203D980235B028F
:1037C0009846C4444B46514343433604360C250CBB
:1037D00024046544A4195918491920000CBC9046CA
:1037E0009946F0BD9E2110B5C905041CFFF7A6FF40
:1037F000002803D1201C00F031FC10BD9E21201CAC
:10380000C90500F08FFA00F029FC80231B069C46B6
:103810006044F2E7F0B557464E464546DE46E0B511
:10382000040083B00D00924699468B422FD82CD0CD
:103830004946504601F0E8FB29000600200001F04F
:10384000E3FB331A9846203B9B4600D574E0534671
:103850005A4693401F005346424693401E00AF42D3
:1038600029D826D05B46A41BBD41002B00DA79E0A5
:10387000002200230092019301235A4693400193B2
:10388000012342469340009319E08242D0D900229E
:103890000023009201930C9B002B01D01C605D6003
:1038A0000098019903B03CBC90469946A246AB46AD
:1038B000F0BDA342D6D900220023009201934346D3
:1038C000002BE8D0FB0772081A4346467B080EE03F
:1038D000AB4201D1A2420CD8A41A9D410120241967
:1038E0006D410021013E24184D41002E06D0AB420F
:1038F000EED9013E24196D41002EF8D15B460098A7
:10390000019900196941002B22DB2B005A46D34054
:103910002A004446E2401C005B461500002B2CDBCD
:1039200026009E40330026004746BE403200801AE3
:10393000994100900191AEE7424620239B1A5246DE
:10394000DA40414613004A468A4017001F4382E787
:10395000424620239B1A2A0046469A402300F34001
:103960001343D5E74246202300219B1A00220091F1
:1039700001920122DA40019282E74246202326008A
:103980009B1ADE402F00B446974066463B00334307
:10399000C9E7C04670B5420045024E024C00C30F55
:1039A0006D0A120E760A240EC90F0120FF2A06D0D6
:1039B000FF2C03D0A24201D1B54206D070BD002D2C
:1039C000FCD1FF2CFAD1002EF8D18B4206D0012079
:1039D000002AF3D12800451EA841EFE70020EDE7BB
:1039E000F0B5420045024C02C30F48006D0A120EAA
:1039F000640A000EC90FFF2A1ED0FF2821D0002A1A
:103A00000AD16E426E41F6B200280FD1002C0DD1C2
:103A10000020002D09D005E0002801D1002C01D0A4
:103A20008B4211D0012158420843F0BD002EF7D03F
:103A3000012001390843F8E7002DDED00220404282
:103A4000F3E7002CDBD0F9E78242EBDC04DBA54294
:103A5000E8D80020A542E8D20121581E0843E4E737
:103A6000F0B542004D024C004602760A120EC30F1A
:103A70006D0A240EC90FFF2A16D0FF2C18D0002A79
:103A80000AD170427041C0B2002C15D0002805D078
:103A9000012001390843F0BD002C13D0994214D005
:103AA00001205B421843F6E70220002EF3D1E4E741
:103AB0000220002DEFD1E2E7002DE7D10020002EFB
:103AC000E9D0EDE7002DE9D1EAE7A24206DCDFDB31
:103AD000AE4203D80020AE42DAD3DCE701204942EF
:103AE0000843D8E7F8B557464E464546DE46E0B5AA
:103AF0004702460088467F0A360EC40F002E47D084
:103B0000FF2E24D0FB008027FF041F43002399468B
:103B10009A467F3E43465D025800DB0F6D0A000E59
:103B2000984643D0FF283BD0EB0080250022ED04CF
:103B30001D437F383618731C41469B464B466140F7
:103B400013430F2B64D875489B00C3589F46002F22
:103B500042D108239946063BFF269A46DAE74146BA
:103B6000022A28D0032A00D1CEE0012A00D0ACE0FE
:103B7000114000200022CCB24002D205400AE407E6
:103B8000104320433CBC90469946A246AB46F8BD44
:103B9000002F15D104239946033B00269A46B9E726
:103BA000FF200222002DC5D00322C3E7002D19D12A
:103BB00000200122BEE70124FF220C400020DBE7A9
:103BC000380001F003FA7626431F9F400023764217
:103BD000361A99469A469DE70C239946093BFF26DB
:103BE0009A4697E7280001F0F1F9431F9D4076239C
:103BF0005B42181A00229DE780200024C003FF22A8
:103C0000BAE73D005246ABE73D0021005246A7E728
:103C10003B0C9C462A04120C2B0C14006046654693
:103C20003F043F0C7C4342435D437B43270C9B187E
:103C3000FF18BA4203D980235B029C4665442404E2
:103C40003A04240C121993015C1EA3413F0C920EFE
:103C50007D191A43AD0115432B0104D501235E469E
:103C60006A081D40154332007F32002A25DD6B07AC
:103C700004D00F232B40042B00D004352B0103D597
:103C80003200274B80321D40FE2A94DC0124A8011B
:103C9000400AD2B20C406FE78020C003074207D031
:103CA000054205D128434002400A4446FF2263E70B
:103CB00038434002400AFF225EE70124A31A1B2B6F
:103CC00005DD0C400022002056E75E46CBE72A00C7
:103CD0002020DA40C31A9D402B005D1EAB411343E8
:103CE0005A0704D00F221A40042A00D004335A0184
:103CF00004D5012401220C4000203DE701249B0152
:103D0000580A0C40002237E780200124C0032843D2
:103D10004002400A0C40FF222EE7C046345B000000
:103D2000FFFFFFF7F0B54F46D64646464400C0B504
:103D3000C20F47024802400A844666467B0A480092
:103D4000C90F9A46240E1500DB00000E8946F600C6
:103D5000FF2800D18FE001214F464F4039009142AA
:103D600066D0221A002A00DC9DE000283DD1002EFA
:103D700000D18BE0511E002900D0B5E001249B1B2F
:103D80005A0144D59B019F09380001F01FF90538FD
:103D90008740844200DD96E0041B3A002020013475
:103DA000E240041BA7403B005F1EBB4100241343BD
:103DB0005A0704D00F221A40042A00D004335A01B3
:103DC00027D50134FF2C00D179E001229B015B0A49
:103DD000E4B22A405B02E405580AD20720431043AC
:103DE0001CBC90469946A246F0BDFF2CE0D0802135
:103DF000C9040E431B2A7BDC31002020D140821AEB
:103E00009640721E96410E439B1B5A01BAD45A0724
:103E1000D0D10122DF082A40FF2C33D1002F00D15E
:103E2000A8E08023DB033B435B025B0AFF24D1E76E
:103E3000211A00294CDD00282AD0FF2CB8D0802080
:103E4000C00406431B2900DDAFE030002027C84036
:103E5000791A8E40711E8E4106439B195901D6D5A1
:103E60000134FF2C00D185E001227A491A405B0819
:103E70000B4013439CE7002E00D070E76BE73B1E1E
:103E8000C5D100227B025B0AE4B2A3E714008FE7EE
:103E9000002E4DD0481E002857D19B1901245A01ED
:103EA000B5D50224E0E7002A25D1621CD2B2012A4E
:103EB00072DD9F1B7A0135D5F71A0D0064E70122E8
:103EC00000232A4086E73B00634A241A13406FE729
:103ED00000296CD1611CC8B201284EDDFF2949D0F0
:103EE0009B195B080C0063E7FF2A41D00A0081E7B9
:103EF00001269B1B89E7002C1CD0FF2821D08024A1
:103F0000E404524223431B2A00DD96E01C002025D6
:103F1000D440AA1A93405A1E93412343F31A040033
:103F20000D002DE7002F00D02EE700220024A9E786
:103F30000C003DE7002B58D0D243002AEED0FF28DA
:103F4000E1D13300FF240D0032E7FF2910D001003A
:103F500078E7002B6ED0FF24002E00D128E78022C6
:103F60005146D203114203D06146114200D13300C1
:103F7000FF241DE7FF2400232CE7002CE9D1002BB0
:103F800063D0002E00D113E79B195A0100D43EE7FD
:103F9000314A0C0013400BE7002C1ED1002B2FD10F
:103FA000002E4FD033000D0002E7012655E7002C0C
:103FB0001FD1002B43D0C94300290BD0FF2839D093
:103FC0001B2944DC1C002027CC40791A8B40591E49
:103FD0008B4123439B19040040E7002B1AD1002E8C
:103FE00024D180270022FF031BE7330004000D00CB
:103FF000DEE6FF281ED08024E40449422343DFE7A5
:10400000002E00D1D4E69F1B7A0100D437E7F31AC3
:104010000D00CDE6FF24002E00D1C9E680225046D7
:10402000D2031042A4D060461042A1D133000D004B
:10403000FF24BDE63300FF24BAE601236EE7330018
:104040000400B5E6002700221CE73300B0E6012398
:10405000C0E7C046FFFFFF7DFFFFFFFB41024300BB
:10406000C20F490A1B0E00207E2B0DDD9D2B0CDCA0
:10407000802000040143952B0ADC9620C31AD94006
:104080004842002A00D108007047034BD018FBE7D4
:10409000963B9940F4E7C046FFFFFF7F70B50028CC
:1040A00030D0C317C4185C40C50F200000F08EFF4D
:1040B0009E231B1A962B0DDC9622D21A94402A00BE
:1040C0006402640ADBB26402DB05600AD2071843AB
:1040D000104370BD992B19DC9922D21A002A29DDD0
:1040E00094402200144C1440510704D00F210A4080
:1040F000042A00D00434620113D4A401640ADBB2A0
:104100002A00E0E7002200230024DCE7052221004A
:10411000121AD140B922D21A9440621E94410C4323
:10412000DAE7054B2A001C409F23A4011B1A640AEE
:10413000DBB2C8E72200D5E7FFFFFFFB10B5041E86
:1041400027D000F043FF9E231B1A962B0ADC9622F1
:10415000D21A94406402640ADBB26402DB05600A8E
:10416000184310BD992B17DC9922D21A002A27DD9B
:1041700094402200134C1440510704D00F210A40F0
:10418000042A00D00434620112D4A401640ADBB210
:10419000E3E700230024E0E7B9222100D21A91408E
:1041A0000A00511E8A410521091ACC401443DBE75D
:1041B000044B1C409F23A4011B1A640ADBB2CCE70A
:1041C0002200D7E7FFFFFFFBF8B54546DE4657461E
:1041D0004E460C03E0B54E00C90F88460D00610A3B
:1041E000440F0C43C70019035800DB0F9B464B0AD2
:1041F000510F0B43760D400D1900D200D84500D168
:10420000AEE0351A002D00DCF6E000280FD1134394
:1042100000D1DBE06B1E002B00D037E1BA1A9742C9
:10422000BF41641A7F42E41B0126170024E0C64BFD
:104230009E424DD080231B041943382D00DD07E139
:104240001F2D00DD38E12020431B9A460B0050460D
:104250008340994613004846EB40184303005046FC
:104260008240501E8241E9401A43BA1A611A9742AD
:10427000A441170064420C1B230262D56402650A44
:10428000002D00D1DFE0280000F0A0FE0300083B75
:104290001F2B00DDD2E020223C00D21A9D40D440EA
:1042A0009F4025439E4200DDC4E09E1B731C1F2BD4
:1042B00000DDF1E0202238002900D21AD8409140D8
:1042C00097402C000143781E8741DC4000260F43B5
:1042D0007B0709D00F233B40042B05D03B1DBB427D
:1042E000BF417F42E4191F0023022CD5964B0136B3
:1042F0009E4200D19AE04546944BFF081C4060075F
:10430000760564020743240B760D00212403230B5A
:104310000C0D8F4A24051C431440330523435B00D6
:10432000ED075B082B43380019003CBC90469946CA
:10433000A246AB46F8BD6446044300D111E2040036
:1043400067467B07C6D145466007FF080743E40878
:104350007D4B9E4230D024037605240B760DD4E7A6
:10436000331A9A46002B78DD002831D076488642F1
:10437000AED08020000401435346382B00DCE9E036
:104380000A43511E8A410021D219BA42BF4109197C
:104390007C4217000C192302D3D56B4B01369E4289
:1043A00000D13AE10120694B1C407B0807401F43C4
:1043B000E007074364088BE723003B4300D1CBE1D0
:1043C0008022120314432403240B9EE72E007FE770
:1043D0000800104300D1B4E0581E002800D0DEE0F1
:1043E000BA18BA429B4164185B42E41817000126D0
:1043F0002302A6D50226D5E7002D6ED1701C4005FC
:10440000400D012800DCF9E0B81A8446874280415B
:10441000E51A40422D1A280200D489E0D71BBA427F
:1044200092411C1B5242A51AD84629E74546002452
:1044300000276AE7454CF61A2C4049E73D0028382A
:10444000854000272EE7380000F0C0FD20301DE732
:104450000A43511E8A41002107E7002B00D0F3E0F8
:10446000701C43055B0D012B00DCADE0364B984220
:1044700000D1D1E0BA18BA42BF4164187F42E419B2
:10448000E707520817436408060021E72E488542D3
:1044900000D193E01D00D0E629001F3EF140202B03
:1044A00000D18DE04022D31A9D402F437D1EAF41A5
:1044B00000240F43002644E72B000800203BD8408F
:1044C0000300202D00D17DE04020451BA9400A4378
:1044D000511E8A4100211A43C7E6002E50D01A4EC1
:1044E000B04257D080266B429946360434434B463F
:1044F000382B00DDD6E01F2B00DD35E12026F51A34
:104500002600AE40B2463E00DE40AC463500564680
:104510002E436546AF407D1EAF41DC403743D71B7D
:10452000BA4292410C1B5242A41A0600D846A3E696
:10453000644667462C4300D0A2E6002500260027EB
:1045400006E71E00C4E6C046FF070000FFFF7FFF2E
:10455000FFFF0F801F2B63DC2020C31A0800984048
:104560009C46834653461000D840030058461843E3
:1045700063469A40531E9A4153460243D94003E78B
:1045800026003E4306D0EB439946002BC7D0944EFD
:10459000B042ACD10C0017000600D84698E6904B0C
:1045A0009A450BD08246E7E6002800D09EE018002E
:1045B000104300D1E9E01C001700D846884E87E67A
:1045C000002572E7002182E723003B43002E00D044
:1045D000ABE0002B00D1E7E00B00134300D177E6FE
:1045E000BA18BA42BF4164187F42E419230200D4CA
:1045F000F2E07C4B17001C40060069E620003843BF
:10460000002ED1D100285BD11C00144300D1A8E0BA
:104610001C001700D8465BE606000024002797E63A
:1046200050460B002038C34099465346202B00D1FA
:1046300095E0402350461B1A99400A43511E8A4177
:104640004B4600211A439FE6002E30D126003E4300
:1046500067D0DB439A46002B1CD0614EB04260D03D
:104660005346382B00DD96E01F2B00DD9FE020260F
:10467000F31A26009E409C46B34653463E00DE4059
:1046800033005E461E4363469F407B1E9F41534658
:10469000DC403743BF189742924164185242A41835
:1046A000060078E627437C1EA741002437E74C4EDE
:1046B000B04236D080265B4236049A463443CFE778
:1046C0001800104300D103E6B81A84466745AD418F
:1046D000E01A6D42401B050200D42CE6D71BBA42FB
:1046E00092411C1B5242A41AD846F1E5180010430F
:1046F00000D163E7F808670707438020E408000358
:10470000044208D0DD08054205D1D20859071143FB
:104710000F002C00D8467B0FE4001C43FF00304EF6
:10472000D6E50C0017000600D2E5002B38D00B00B0
:10473000134300D142E7F808670707438020E408E5
:1047400000030442E7D0CB080342E4D1D208490772
:1047500011430F001C00DEE700270024D5E50021EF
:104760006BE700250027F3E54E462500203EF54087
:104770004B462E00202B2DD04025ED1AAC40274370
:104780007C1EA74100243743C9E68024002524036A
:10479000134E0027DCE527437C1EA741002479E760
:1047A0000C0017000E4E93E50C00170090E55646DE
:1047B0002300203EF34099465346202B0ED0402341
:1047C00056469B1B9C4027437C1EA7414B4600241A
:1047D0001F435FE70024D2E71700B2E50024F2E7A9
:1047E000FF070000FFFF7FFFF0B54646D6464F4665
:1047F0000C03C0B5CD0F4E00610A440F0C43C1003D
:104800005800400D84468A460F001903500F490A8C
:104810000143C648760DA846DB0FD200844500D17F
:10482000D8E001204340AB4200D1A6E06046351AF3
:10483000002D00DC05E1002810D10B00134300D14E
:10484000D7E06B1E002B00D04BE153469F1ABA45B0
:104850008041641A4042241A01261EE0B34B9E4256
:1048600048D080231B041943382D00DD19E11F2D8A
:1048700000DD4CE120230F005B1B10009A409F409D
:10488000E840531E9A41E940074317435346DF1B54
:10489000611ABA45A44164420C1B230200D4C5E04E
:1048A0006402650A002D00D1F6E0280000F08EFBBE
:1048B0000300083B1F2B00DDE9E020223C00D21A58
:1048C0009D40D4409F4025439E4200DDDBE09E1B7F
:1048D000731C1F2B00DD0AE120223800D21A2900A8
:1048E00097402C009140D8407A1E9741DC4000262A
:1048F00001430F437B0709D00F233B40042B05D016
:104900003B1DBB42BF417F42E4191F00230225D556
:10491000864B01369E4200D1AFE0854B01251C40FD
:1049200043466207FF08640276051743240B760DA1
:104930001D4000212403230B0C0D7E4A24051C433B
:104940001440330523435B00ED075B082B4338001D
:1049500019001CBC90469946A246F0BD012543466D
:104960006207FF081743E4081D40704B9E4236D093
:1049700024037605240B760DDBE76346F31A002B40
:1049800000DC94E06046002835D068488642B1D00B
:1049900080273F043943382B00DCFDE00A43170031
:1049A00000217A1E974157445745804109194442D6
:1049B0000C1923023AD55D4B01369E4200D14BE1E2
:1049C00001225B4B1C407B0817401F43E207174343
:1049D00064088FE70800104300D024E721E7230094
:1049E0003B4300D1B9E18022120314432403240B7A
:1049F0009FE72E007EE70800104300D1CAE0581E52
:104A00008446002800D0E7E05244524580416418B3
:104A10004042241817000126230207D50226CFE7BB
:104A200064462C4300D1B3E12C0067467B0700D0DD
:104A300062E76307FF081F4301254346E4081D4062
:104A400093E7002D78D1751C6D056D0D012D00DCEF
:104A5000F2E05046801A8245BF41651A7F42ED1B45
:104A60008446280200D48CE05046171ABA4292417C
:104A70000C1B5542651B984614E70125434600244C
:104A80001D40002755E72A4CF61A2C4032E73D001E
:104A900028388540002717E7380000F097FA2030C3
:104AA00006E70A43170000217A1E9741EEE6002B25
:104AB00000D0E5E0731C9C465B055B0D012B00DC20
:104AC0009FE01A4B9C4500D1C5E0524452458041BD
:104AD000641840422418E7075208174364086646E2
:104AE00008E71248854200D185E01D00BCE6290098
:104AF0001F3EF140202B00D17FE04022D31A9D4081
:104B00002F437D1EAF4100240F4300268EE72B006C
:104B10000F00203BDF40202D71D040235D1BA940BA
:104B20000A43511E8A4100211743AFE6FF070000E8
:104B3000FFFF7FFFFFFF0F80002E3ED0B34EB44536
:104B400045D0802636046D423443382D00DDA8E080
:104B50001F2D00DD1FE1202627005046761BB740A1
:104B6000E84007435046B040461EB041EC40384351
:104B7000171ABA4292410C1B5242A41A6646984632
:104B80008BE6644667462C4300D08BE60025002662
:104B90000027EAE61E00ADE61F2B60DC2027F81A8E
:104BA0000F00844687401000D8400743604682408B
:104BB000501E8241D9401743F5E626005046064371
:104BC00005D0ED43002DD3D0904EB445BDD10C009F
:104BD0001700664698468DE68C4883420BD06346A4
:104BE000D9E6002D00D096E00800104300D1E2E0A5
:104BF0000C0017009846854E7CE6002580E70021D2
:104C00008EE7230050460343002E00D0A8E0002B7F
:104C100000D1DEE00B00134300D16BE65244524555
:104C200080416418404224181700230200D4FDE696
:104C3000774B66461C405DE6250050460543002E36
:104C4000CFD1002D4FD10C00144300D1A0E00C00B7
:104C5000170098464EE666460024002785E61F00AA
:104C60000800203FF8400700202B00D18EE04020B4
:104C7000C31A99400A43511E8A410021174392E604
:104C8000002E14D126005046064362D0DB43002B91
:104C90005CD187189742924164185242A418664624
:104CA00087E650462043441EA041002460E7574E4B
:104CB000B4454ED0802636045B423443382B00DDA9
:104CC0007FE01F2B00DD8BE0202627005046F61AE0
:104CD000B740D84007435046B040461EB041074356
:104CE000DC40BF18D6E70D00154300D102E6504660
:104CF000801A8245BF41651A7F42ED1B8446280217
:104D000000D48DE65046171ABA4292410C1B52420B
:104D1000A41A9846EEE50D00154300D16BE7504606
:104D20006707C00807438020E4080003044207D057
:104D3000CD08054204D12C009846D70849070F43F7
:104D40007B0FE4001C43FF00304ED3E52F4EB445EB
:104D5000B4D10C0017006646CCE500270024E8E536
:104D6000002B39D00B00134300D144E7C00867077C
:104D700007438020E40800030442E1D0CB0803424B
:104D8000DED1D70849070F431C00D9E7002171E79E
:104D900000250027E9E52E002700203EF740202DC2
:104DA0002FD04026751BAC4050462043441EA041E6
:104DB00000243843DCE6802400252403134E00271A
:104DC000D3E5504620430700781E87410024BF18D2
:104DD00060E70C0017008DE50C0017000B4E89E50D
:104DE0001E002700203EF740202B0CD04026F31A4F
:104DF0009C4050462043441EA04107430024BF1856
:104E000048E70024D0E70024F3E7C046FF0700008E
:104E1000FFFF7FFF4100090E4B1C70B5DBB246025D
:104E2000750AC40F012B14DDE0239B006D07360BC0
:104E3000CB1800210A0D280012051C4D32435B05DA
:104E40002A405B0813435B00E4075B082343190017
:104E500070BD002914D1002D1ED0280000F0B6F836
:104E60000A281CDC0B232A001B1ADA400300153326
:104E70009D400F4B12031B1A5B05160B5B0DD8E709
:104E8000002D06D0320B802636036D071643094BE2
:104E9000CFE7084B0026CCE700230026C9E7030034
:104EA0002A000B3B9A400025E3E7C046FFFF0F8036
:104EB00089030000FF070000F0B54C00640D0B03F0
:104EC000621C450F5B0A52052B43C90FC500520DEA
:104ED000012A28DD3A4AA618FE2E1BDC002E3EDDF4
:104EE00080010200501E82416D0F2A43DB001343F4
:104EF0005A0704D00F221A40042A00D0043380221B
:104F0000D2041A405AD00136FF2E03D09B015B0A0F
:104F1000F4B201E0FF2400235802E405400AC90767
:104F200020430843F0BD002C07D01D43F2D0802061
:104F3000DB0080040343FF26DAE72B4303D005237D
:104F4000DB08FF2C03D05B025B0AE4B2E4E7002B32
:104F500032D08020C00303435B025B0ADCE73200EF
:104F6000173214DB80221E2712041343BF1B1F2F8E
:104F70000FDC144A944664442A00A5402E00A34046
:104F8000751EAE41FA40334313430026B0E70024B8
:104F9000D5E702225242961B1A00F240202F09D078
:104FA000094884466444A3402B435D1EAB41002660
:104FB00013439DE70023F7E70023ADE73400BFE785
:104FC00080FCFFFF82FCFFFFA2FCFFFF1C210123EE
:104FD0001B04984201D3000C10391B0A984201D3DC
:104FE000000A08391B09984201D30009043902A2BA
:104FF000105C40187047C046040302020101010121
:10500000000000000000000010B5002903D1FFF7E8
:10501000DDFF203002E0081CFFF7D8FF10BDC046BE
:1050200070B500260C4D0D4C641BA410A64209D18E
:10503000002600F0B9FD0A4D0A4C641BA410A642DC
:1050400005D170BDB300EB5898470136EEE7B300C9
:10505000EB5898470136F2E7B45B0000B45B000000
:10506000B45B0000B85B000010B5034B010018688A
:1050700000F060F810BDC0461C000020002310B5F1
:105080009A4200D110BDCC5CC4540133F8E7030050
:105090008218934200D1704719700133F9E700007C
:1050A00070B50500002910D00C1F2368002B00DA12
:1050B000E418280000F0DFF81D4A1368002B05D122
:1050C00063601460280000F0D7F870BDA34209D9CE
:1050D000216860188342F3D118685B684118216029
:1050E000EEE713005A68002A01D0A242F9D91968E4
:1050F0005818A0420BD1206809185818196082422C
:10510000E0D110685268411819605A60DAE7A0428D
:1051100002D90C232B60D5E721686018824203D1A5
:10512000106852684118216062605C60CAE7C0463E
:1051300028140020032370B5CD1C9D4308350600BC
:105140000C2D1ED20C25A9421DD8300000F093F87A
:10515000254A14682100002919D1244C2368002B0A
:1051600003D1300000F044F820602900300000F046
:105170003FF8431C2CD10C233000336000F07CF846
:1051800003E0002DDFDA0C233360002070BD0B68D4
:105190005B1B1AD40B2B03D90B60CC18256003E0E2
:1051A0008C420ED163681360300000F065F8200077
:1051B00007220B30231D9043C31AE7D05A42E25016
:1051C000E4E74B6863600C00EEE70C004968C2E757
:1051D0000323C41C9C43A042E0D0211A300000F0FD
:1051E00007F8431CDAD1C6E7281400202C1400204D
:1051F000002370B5064C050008002360FDF7CEFCC7
:10520000431C03D12368002B00D02B6070BDC04627
:10521000341E00200EB410B59DB002A902900861A2
:105220000B48822488604861012040421FABC8813E
:10523000084804CBA400006801938C8100F080F83A
:105240000023029A13701DB010BC08BC03B01847AD
:10525000FFFFFF7F1C000020031C0A7801311A7039
:105260000133002AF9D170470023C25C0133002AC0
:10527000FBD1581E7047704770470000F0B58E682C
:1052800085B007000C00039201939E4239D8902309
:105290008A89DB001A4234D00325096923685B1A26
:1052A0000293636902985D43EB0F5D19019B6D10DA
:1052B00001331B18AB4200D91D00530532D529001C
:1052C0003800FFF737FF061E09D10C233B6040234F
:1052D0000120A28940421343A38105B0F0BD029A88
:1052E0002169FFF7CBFEA389144A1A408023134398
:1052F000A381029B2661F61826606561019EED1A66
:10530000A560019BB34200D21E00320003992068C1
:1053100000F0ADFAA36800209B1BA36023689E19D0
:105320002660DAE72A00380000F0B3FA061EE0D162
:1053300021693800FFF7B4FEC7E7C0467FFBFFFFD7
:10534000F0B59FB0029005938B890F0016001B06E5
:1053500011D50B69002B0ED14021FFF7EBFE386011
:105360003861002805D10C23029A013813601FB060
:10537000F0BD40237B61002306AD6B6120336B766B
:105380001033AB7634002378002B47D1A31B049352
:105390000DD0A31B320039000298FFF76FFF431CAA
:1053A00000D1B5E06A69049B944663446B6123783D
:1053B000002B00D1ACE00122002352426A6002A916
:1053C0005432521801342B60EB60AB601370AB6544
:1053D000584E05222178300000F03EFA621C002869
:1053E00020D12968CB0604D5532302AE20309B1967
:1053F00018700B0704D553232B2002AE9B1918708D
:1054000023782A2B16D000200A21099B2278303AD3
:10541000092A55D9002815D0099313E0252BB5D0BA
:105420000134B0E70123801B8340296814000B433B
:105430002B60CDE7059B181D1B680590002B39DB01
:105440000993140023782E2B0BD16378621C2A2B2E
:105450003ED1059B02341A1D1B680592002B34DBDC
:105460000793354E21780322300000F0F5F900282B
:1054700006D04023801B83402A68013413432B60ED
:10548000217806222D48661C297600F0E5F90028CF
:1054900046D02B4B002B2FD12968059B0722C9052D
:1054A00028D59B189343083305936B69039A9B187F
:1054B0006B6167E75B42EB6002230B432B60C0E745
:1054C0004B4301349B180120A0E701235B42C7E74F
:1054D000002314000A201A006B6021783039092952
:1054E00003D9002BBDD00792BBE7424301345218C9
:1054F0000123F2E70733D5E705AB00933A00114BE0
:105500002900029800E000BF0390039B0133CCD137
:10551000BB890B985B0600D429E70120404226E7AF
:1055200005AB00933A00074B2900029800F07AF887
:10553000EAE7C046745B00007A5B00007E5B000017
:10554000000000007D520000F7B5150001938A6845
:105550000B6900900C00934200DA130022002B60CC
:1055600043321278002A01D001332B6023689B0656
:1055700002D52B6802332B60062723681F4027D0F3
:10558000230043331B785A1E93412268920630D47D
:105590002200019943320098089EB047431C25D051
:1055A000062320682A68E16803400025042B03D104
:1055B0008D1AEB43DB171D40A3682269934201DD7E
:1055C0009B1AED180027BD4220D1002010E00137C2
:1055D000E3682A689B1A9F42D2DA2200012319321B
:1055E00001990098089EB047431CF0D10120404229
:1055F000FEBD3020E1184331087021005A1C4531AE
:105600000978A218433202331170C1E72200012346
:105610001A3201990098089EB047431CE6D0013722
:10562000D1E70000F0B58BB006920A004332079331
:10563000059004920A7E0C00109B6E2A00D18FE028
:1056400017D8632A2CD008D8002A00D199E0582A0C
:1056500054D026004236327029E0642A01D0692AEB
:10566000F7D121681A68080623D5111D196015683D
:1056700025E0732A00D188E008D86F2A29D0702A43
:10568000E7D1202209680A43226003E0752A20D06E
:10569000782ADED122007821453211706C4A30E040
:1056A0000E001A684236111D196013683370012309
:1056B00079E04906D9D5111D19600023D55E002D6A
:1056C00003DA2D23049A6D421370624B0A27039369
:1056D0002FE020681968050603D5081D18600D68BD
:1056E00005E04006F9D50D68081D1860ADB2594BAC
:1056F000082703936F2A18D00A2716E045310A704D
:10570000544A03921A682168101D1860156808062B
:1057100022D5CB0702D52023194321601027002D65
:1057200003D1202322689A432260230000224333BE
:105730001A706368A360002B5CDB0422216891432C
:105740002160002D58D1049E002B64D02600039BBD
:1057500042361B7833705EE04806DAD5ADB2D8E742
:1057600009681A68080605D5111D19601368626971
:105770001A6006E04906F7D5111D19601368A28A60
:105780001A800023049E236154E01A68111D1960D9
:10579000166800216268300000F05EF8002801D031
:1057A000801B6060636823610023049A137041E0EA
:1057B0002369320006990598079DA847431C43D0EA
:1057C000236800259B070FD4099BE06898423DDAC7
:1057D00018003BE022000123193206990598079E24
:1057E000B047431C30D00135E368099A9B1A9D42AB
:1057F000F0DBE9E7002DA9D0049E28003900FDF771
:1058000067FF039B013E5B5C280033703900FDF7A6
:10581000D9FE051EF1D1082F09D12368DB0706D573
:1058200063682269934202DC3023013E3370049B9B
:105830009B1B2361079B09AA00932100069B0598E7
:10584000FFF782FE431CB3D1012040420BB0F0BDF4
:10585000965B0000855B0000C9B28218904201D1BE
:105860000020704703788B42FBD00130F6E710B57B
:10587000884202D98B18984208D300239A4207D055
:10588000CC5CC4540133F9E78B5C8354013AFBD2FE
:1058900010BDF8B507000D001600002905D1110054
:1058A000FFF748FC04002000F8BD002A03D1FFF7F1
:1058B000F7FB3400F7E700F012F82C008642F2D92B
:1058C00031003800FFF736FC041EECD0290032000E
:1058D000FFF7D4FB29003800FFF7E2FBE3E70B1FDB
:1058E0001B68181F002B01DA0B58C0187047000006
:1058F0000000000040000000140000005400000000
:105900001C0500002E050000600500009005000049
:10591000B0050000E005000000040042000800425D
:10592000000C004200100042001400420018004227
:105930000002000000040000000800000402020051
:105940001C1C1D00FFFFFF00FFFFFF00FFFF00000A
:105950000804020001000000020000000400000032
:1059600008000000001000000020000000400000BF
:1059700000800000000001000000020000000400A0
:105980000000080011121300061D0000401D000059
:10599000501D00006E1D0000601D00008A1D0000EB
:1059A0007C1D000025336C752E2530336C7500008E
:1059B0002020202020202020200000002020202047
:1059C0000000000020202020202020002537640037
:1059D00025376C7500000000253773004552524F83
:1059E000523939002563252D3973253673253473D3
:1059F00000000000252D397325377325347300000E
:105A00005A26000056260000562600008826000070
:105A1000882600007226000060260000782600001C
:105A20001C1E0020001E0020E81D0020D01D0020AC
:105A3000941D0020E40000204C030020B405002049
:105A40001C080020840A002053455454494E4753F3
:105A5000000000004348414E4E454C2031000000FC
:105A60004348414E4E454C20320000004348414ED1
:105A70004E454C20330000004348414E4E454C20DB
:105A8000340000004348414E4E454C203500000094
:105A9000434F4E5452415354000000004252494774
:105AA00048544E45530000004D4F4445000000004F
:105AB0004241434B00000000444D58256400000063
:105AC000444D5825642D2564000000005354415472
:105AD00049435F4348000000444D5820434820207C
