:100000004047002095500000C5520000C952000032
:1000100000000000000000000000000000000000E0
:10002000000000000000000000000000CD520000B1
:100030000000000000000000D1520000D552000076
:10004000915000009150000091500000E913000011
:10005000915000009150000091500000915000001C
:1000600091500000653500007535000085350000B1
:1000700095350000A5350000B53500009150000011
:10008000915000008D2E00009D2E0000AD2E00002E
:10009000B5070000C5070000D5070000E507000010
:1000A000F5070000691300007913000065360000B1
:1000B00065240000915000009150000010B5064CDE
:1000C0002378002B07D1054B002B02D0044800E019
:1000D00000BF0123237010BDA0000020000000001D
:1000E00094970000084B10B5002B03D0074908482F
:1000F00000E000BF07480368002B00D110BD064B8D
:10010000002BFBD09847F9E700000000A400002076
:10011000949700009497000000000000F0B5D646C8
:100120004F464646C0B580268223DB059846B0443C
:1001300043469E610020134FB84702000023124C33
:10014000002512196B4110001900104B9946104AF6
:100150000023C8470F4B9A46984743465E610020EC
:10016000B8473222002300210B4EB04700196941E5
:10017000074A0023C847D0471CBC90469946A24670
:10018000F0BDC0465D4E0000BFCF6A00F5630000C1
:10019000C0CF6A00010000203564000010B5C3071D
:1001A00029D54022244B9A61830728D52022224B4F
:1001B0009A61430727D510221F4B9A61030726D562
:1001C00008221D4B9A61C30625D504221A4B9A6159
:1001D000830624D50222184B9A61430623D50122B7
:1001E000154B9A61C00922D180221206124B5A6126
:1001F000124B984710BD40220F4B5A61D4E7202282
:100200000D4B5A61D5E710220B4B5A61D6E70822F5
:10021000094B5A61D7E70422074B5A61D8E70222FB
:10022000054B5A61D9E70122034B5A61DAE7802274
:100230001206014B9A61DBE7800000411D010000BE
:1002400010B5002918D1802292000E4B5A610E4B36
:10025000984700200D4B98473222002300210C4C78
:10026000A0470C4A0023801859410B4A00230B4C2D
:10027000A0470B4B984710BD80229200014B9A611A
:10028000E5E7C046800000419D0100005D4E000092
:1002900035640000BFCF6A00C0CF6A00F56300007C
:1002A0000100002010B50021014B984710BDC04649
:1002B0004102000010B501200B4B984700200B4B6A
:1002C00098470200002319008018594180185941AD
:1002D000074A002380185941064A0023064CA047CC
:1002E000064B984710BDC046A50200005D4E0000B9
:1002F000BFCF6A00C0CF6A00F56300000100002094
:1003000010B502200B4B984700200B4B984702007A
:10031000002319008018594180185941074A0023C9
:1003200080185941064A0023064CA047064B9847BF
:1003300010BDC046A50200005D4E0000BFCF6A00A0
:10034000C0CF6A00F563000001000020F8B5DE466A
:1003500057464E464546E0B5384D18232B700020D1
:10036000374B9B469847374B9A4632220023002151
:10037000D047354E002780197941344B9946344A8D
:100380000023C847334B9846984780228223DB05D9
:10039000D3188021890059610139FF3959615A61A7
:1003A0000020D847322200230021D047801979410C
:1003B000274A0023C847C047202628783043C0B2C8
:1003C000254CA0470020D847244A00230021D047CD
:1003D000234A002380185941224A0023C847C047B6
:1003E00028783043C0B2A0470020D8479622002387
:1003F0000021D0471A4A002380185941194A002386
:10040000C847C04728783043C0B2A0472878304357
:10041000C0B2A0470622144B1A700E20A047134BFF
:1004200098470222124B1A700620A047114B98479A
:100430003CBC90469946A246AB46F8BDBD000020A4
:100440005D4E000035640000571B0000F56300009E
:10045000581B000001000020A502000094110000BC
:10046000BFCF6A00C0CF6A00BC000020B502000008
:10047000BE0000200103000070B584B06A460B4B3B
:1004800070CB70C21B681360032901D8132801D9EF
:1004900004B070BD89006B46CB58C01880235B4206
:1004A0001843C0B2024B9847F2E7C046D49100000F
:1004B000A502000010B5054B187802229043187071
:1004C00008231843024B984710BDC046BC000020CB
:1004D000A502000010B50121014B984710BDC04690
:1004E0004102000070B503000D0007201840C00055
:1004F00040231843054B98472C000835044E2078BC
:10050000B0470134AC42FAD170BDC046A50200002C
:10051000D504000070B504000078002805D0034D14
:100520000134A84720780028FAD170BDD504000016
:10053000F0B5C64600B582B00023002269465A5481
:100540000133082BFAD104260025073B984602AC5C
:100550000B4F4146B14049B26B461A780A431A70B4
:1005600001339C42F9D10135EDB269462800B84704
:10057000013E052DEDD102B004BC9046F0BDC04651
:10058000E5040000F0B5C64600B504002D23C35CA9
:100590004568AB420AD35B1B2D2283542C23E25CBB
:1005A000052A10D89300444AD3589F4600222D2391
:1005B000C254F3E70023E36023626361A362012175
:1005C0002C22A154236004BC9046F0BDA768002FE4
:1005D00014D0E668390001204042384B98477043F8
:1005E0002060AD19E560AF42EDD201235B4223608C
:1005F00002222D33E2540023E360E4E701235B424F
:10060000236002222D33E254DDE72769002F16D044
:10061000E3691B0698466669D8433900274B98471B
:100620007043C0432060AD196561AF42CBD24346F1
:10063000236003222C23E25400236361C3E7E369B0
:10064000236003222C23E254BDE7A369002B0ED0C4
:10065000E26912062260226A944665442562AB4232
:10066000B1D204222C23E25400232362ABE70422FC
:100670002C33E254A7E7676A002F16D0E3691E0601
:10068000A36A9846390030000C4B984743465843BC
:10069000361A26604544A562AF4294D200232360F7
:1006A00005212C22A154A3628DE705222C23E254BC
:1006B00089E70023236086E7E49100006962000077
:1006C000C078704710B504002D23C35C002B13D1F4
:1006D00041686420094B98472D23E0540022013BD8
:1006E000E254074A074BE41A2411074B5C430123E9
:1006F000A34011780B43137010BDC046696200001F
:10070000BF000020BC240020ABAAAAAA014B187885
:100710007047C046BF0000200022014B1A7070478E
:10072000BF00002010B50023C360436103628362F1
:10073000036005242C2284544160383282600261B7
:10074000826142621C32C261533A835410BD000080
:1007500070B58000164BC45823689D7A227E637E54
:1007600013401D40EB0706D4AB070BD4EB0610D4A7
:10077000AB0615D470BD2000A368984701232268FA
:100780009372F1E72000E36898470223226893728E
:10079000ECE7200023699847102322689372E7E76B
:1007A000200063699847236820229A72E2E7C046D6
:1007B000B818002010B50020014B984710BDC04666
:1007C0005107000010B50120014B984710BDC046ED
:1007D0005107000010B50220014B984710BDC046DC
:1007E0005107000010B50320014B984710BDC046CB
:1007F0005107000010B50420014B984710BDC046BA
:100800005107000030B587B001A90C4B0A0032CB6C
:1008100032C212CB12C2019B98420BD0012301A914
:100820009A005258824206D00133052BF8D100209D
:1008300007B030BD0023D8B2FAE7C046FC910000F3
:10084000F0B5C64600B58EB004000D0016000800D5
:10085000A74B984780460CAB1E221A705A70013283
:100860009A70DA7001321A7102A9A24B14330A008D
:1008700083CB83C283CB83C283CB83C21B681360C9
:100880000023A360E36023616361237663764346BC
:100890009A00994BD45025603423F35CA376F37807
:1008A000082B08D023712B680520DB0708D50EB074
:1008B00004BC9046F0BD17204246D207F7D4F1E7BA
:1008C000EB7A17309B07F2D42B689B07EFD4337C6D
:1008D000002B00D08EE0337F002B00D096E0434603
:1008E0005A0002A9531C9B0058584346DB005B5832
:1008F000D9B2012900D19EE0002900D196E0022959
:1009000000D19DE0F378082B00D19EE033786A4651
:1009100013700CAB42469F5C69463800774B984792
:100920003800774B9847F378F2791343B288134332
:10093000727A002A02D0802252021343B27A002A2D
:1009400002D0802292021343F27A002A02D080223F
:1009500052031343327B002A02D0802292031343B6
:1009600071788901B278D201114319432268136961
:10097000002BFCD1296022681369002BFCD1B379CC
:100980002B73717B4B1E99418900B37B002B01D0E7
:100990000123194322681369002BFCD1FF332B710B
:1009A000002904D022681369002BFCD16971337AC5
:1009B0006B7322681369002BFCD12379042B67D059
:1009C000082B00D181E01720002B00D06FE71369BE
:1009D000002BFCD1338DAB8222681369002BFCD134
:1009E000738DAB8322681369002BFCD1B38DEB832D
:1009F00000205CE701A901238B700022CA70327EBF
:100A00000A704B70307D3F4B984764E701A9012382
:100A10008B700022CA702432B21812780A704B70A0
:100A20001F33F3181878374B984758E736494B6906
:100A30001843486166E734498B691843886161E768
:100A4000314BD9690843D8615CE743460133042B35
:100A500000DD5BE702ABD11C8900C958023292006D
:100A6000D358DAB2012A0ED0002A07D0022A00D0C9
:100A70004CE7254BDA691143D96147E7224A5369AC
:100A80001943516142E7204A9369194391613DE757
:100A90001369002BFCD12833F35C2B752268136992
:100AA000002BFCD12933F35CEB7622681369002B11
:100AB000FCD12A33F35C2B7722681369002BFCD11D
:100AC0002B33F35C6B770020F1E61369002BFCD12C
:100AD000B36A6B6122681369002BFCD1F36AEB6186
:100AE00022681369002BFCD1336B2B620020DEE6F9
:100AF00005080000FC910000B8180020394F0000E4
:100B0000C94E0000355000000008004010B50468D0
:100B10002369002BFCD10379042B06D0082B28D0A5
:100B2000002B13D01723180010BD17230129FAD862
:100B3000837E002B05D0D2B2611830310A700023B9
:100B4000F1E7D2B2641822770023ECE717230129DA
:100B5000E9D8837E002B05D092B2183149000A53A0
:100B60000023E0E792B20C3149006418A280002310
:100B7000D9E717230129D6D8837E002B05D106316A
:100B80008900641862600023CDE70C3189000A51A6
:100B90000023C8E702681369002BFCD10379042BFA
:100BA00005D0082B1AD0002B0DD017207047837E5C
:100BB000002B04D0C9B22F23D1540020F6E7C9B2CC
:100BC000D1760020F2E7837E002B03D089B2118614
:100BD0000020EBE789B291830020E7E7837E002BBA
:100BE00002D1D1610020E1E711630020DEE70000BF
:100BF00010B58222D205136A126A5B0B01210B40E9
:100C00005B00120B4A400A401343064A1370064821
:100C100002781C00944303700120214201D1620834
:100C2000500010BDC0000020C100002070B50020A1
:100C3000084B98470500084CFA218900A047074B4C
:100C4000186007492800A047064B18600522064B8C
:100C50001A6070BD5D4E0000696200000C0000204B
:100C600040420F001000002010E000E010B582B0FC
:100C700001600E49CC6980235B032343CB610023D1
:100C800043608360C360036143618361037743779B
:100C9000074B186001A913780B702820054B984763
:100CA0002820054B9847002002B010BD00080040E6
:100CB000981D0020394F0000C94E000070B5006833
:100CC0005468537A2500002B01D040252543137822
:100CD000547D2343148A568A34432343D4682343E0
:100CE0002B437F25046A2542FCD10C1DA400235010
:100CF000137D013BDBB240180373002070BD000080
:100D0000064B984208D0064A0023904201D01800B2
:100D100070470133DBB2FAE70023FBE700440042EF
:100D20000048004210B50023002203704370837016
:100D3000C370002103830362C36101240471C024D2
:100D40006401C480017242728272C27202732A24E8
:100D5000025542738273C27303610275063C0255E9
:100D6000C3840385417510BD70B505682C8CA4B291
:100D7000002CFBD16C890C4E3440214369810468FE
:100D8000218C89B20029FBD192B2EA8101680A8CD8
:100D900092B2002AFBD19BB22B820268138C9BB2C9
:100DA000002BFBD170BDC046FFF8FFFFF0B5DE465B
:100DB00057464E464546E0B59FB005000E00170069
:100DC0000800984B9847040001902E60964AD3691A
:100DD0008000964941580B43D36133780520DB07E7
:100DE00006D51FB03CBC90469946A246AB46F0BD26
:100DF0002A68138C9BB2002BFBD133781C209B07F5
:100E0000EFD47B782B71002B04D1894AD36904215C
:100E10000B43D3610023AB60EB602B61AB76EB76C9
:100E20002B832B77A300834A9D502A23FB5C002B46
:100E300005D13B7B002B02D101336B7701E000230E
:100E40006B772B689A463B7804AA13707A4B1E5D29
:100E500011003000794B98473000794B98473B7927
:100E6000984606AE774B9C463200190049C949C2E4
:100E700049C949C249C949C249C949C212A96346B7
:100E800030330A0043CB43C243CB43C243CB43C2BC
:100E900043CB43C2019B002B04D012A9012B02D0EB
:100EA000002100E006A9A300674A9B589B4698458D
:100EB00022D9FB88984606AE624B9C463200190048
:100EC00049C949C249C949C249C949C249C949C2AE
:100ED00012A9634630330A0043CB43C243CB43C21B
:100EE00043CB43C243CB43C2019A002A12D012AB78
:100EF000012A10D000230EE043469800405805A96F
:100F000000234B70CB708B7001330B70C0B24F4B12
:100F10009847CEE706ABD8450AD900210026012321
:100F20009946484B984603945B460293AB4620E0B3
:100F300042469000C05805A900234B70CB708B70BF
:100F400001330B70C0B2414B9847E6E706AB89000E
:100F5000C85805A900234B70CB708B704B460B70A3
:100F6000C0B23A4B98470136F6B23100029B9E421E
:100F700023D84B46B3403A691A42F4D006A803007E
:100F8000424631CA31C331CA31C331CA31C331CA11
:100F900031C312A843463033020031CB31C231CBCA
:100FA00031C231CB31C231CB31C2019A002ACDD00E
:100FB00012AB012ACBD00023C9E75D46039C7B7BA3
:100FC0009B01BA7BD2011343DBB2524613703B7DC7
:100FD000DB017A781343DBB252469370FB78342BF3
:100FE00000D94FE19B001A4AD3589F46042210268D
:100FF000022132E0797A3A7A10262EE00622102673
:1010000001212AE008221026002126E000223026B5
:10101000002122E00022202600211EE000220026DE
:1010200000211AE0010D0000000800406C93000050
:1010300000180040CC18002094930000394F0000A5
:10104000C94E00000C9300008C9300003550000046
:1010500038920000022210260121090170230B4062
:101060001343524613732A68138C9BB2002BFBD197
:101070007B7D17203F2B00D9B3E6FA7BD2011343C7
:10108000DBB2524653732A68138C9BB2002BFBD100
:10109000BB78524653702423FB5CDB003A7B920002
:1010A0001A43FB7A1343BA7A52001343334352462E
:1010B00053812A68138C9BB2002BFBD13B8B002BF6
:1010C00020D0102E00D1BFE000D87FE0202E00D12C
:1010D0009CE0302E16D1FA7A002A0AD0FA698032C2
:1010E0001720FF2A00D97CE63A6A8032FF2A00D90D
:1010F00077E61720FA69FF2A00DD72E63A6AFF2ACE
:1011000000DD6EE6524652891343524653812A68E7
:10111000138C9BB2002BFBD1BB8B5246D3812A6828
:10112000138C9BB2002BFBD13B8C524613822A6856
:10113000138C9BB2002BFBD13B79FA8813435246A8
:1011400013812A68138C9BB2002BFBD12A33FB5CE2
:101150005246D370072313711D33FB5C002B1DD047
:10116000FB8C494A1720934200D93AE652465382F3
:101170002A68138C9BB2002BFBD13A8D80231B0174
:10118000D31841499BB217208B4200D929E6534618
:101190009A822A68138C9BB2002BFBD1A2003B4B96
:1011A000D3583B49095D1B68CB401B02E021C900B5
:1011B0000B40384952583849095D1268CA40072126
:1011C0000A4013435246938500200AE6002E99D127
:1011D000FA7A002A0FD0FA69802109018C4662440C
:1011E000294917208A4200D9FBE53A6A6244264918
:1011F0008A4200D9F5E5244A1720F969914200DDB9
:10120000EFE5396A914200DDEBE57BE7FA7A002AE7
:101210000FD0FA69802189008C4662441F4917204B
:101220008A4200D9DDE53A6A62441C498A4200D903
:10123000D7E51A4A1720F969914200DDD1E5396AEC
:10124000914200DDCDE55DE7FA7A002A0FD0FA6918
:10125000802109028C466244114917208A4200D934
:10126000BFE53A6A62440E498A4200D9B9E50C4AA0
:101270001720F969914200DDB3E5396A914200DD3A
:10128000AFE53FE71720ACE5FF0F000080930000BB
:1012900088930000749300007C930000FF0300001B
:1012A000FFFF000070B580002E4BC45823689A7968
:1012B0005D791540EA072AD501229A716269931C6B
:1012C000636123689B8C9BB21380238B013B9BB291
:1012D0002383002B15D0637F002B18D02268D3798D
:1012E0005BB2002B13DB138C9BB2002BFBD1137E64
:1012F00002210B4313762268138C9BB2002BFBD187
:1013000005E0012322681371237F052B16D06B079C
:1013100008D5042322689371E37E9B0702D5A37E40
:101320009B0717D4AB0708D5022322689371E37E8D
:101330005B0702D5A37E5B0710D470BD0023237723
:10134000E37EDB07E3D5A37EDB07E0D52000A368BF
:101350009847DCE72000E3689847E3E7236920002B
:101360009847EAE7CC18002010B50020014B9847B9
:1013700010BDC046A512000010B50120014B9847D2
:1013800010BDC046A5120000931C9B0019500123FC
:1013900093401A00837E13438376704710B5038B06
:1013A0009BB20524002B01D0200010BD037F052B2C
:1013B000FAD00523037702834161043B026853712D
:1013C000437F0024002BEFD00268138C9BB2002BCC
:1013D000FBD1137E02210B4313760268138C9BB260
:1013E000002BFBD10024DFE770B50022104B1A70F0
:1013F000002310491F25104E0D4C0AE00D4908E04E
:1014000023780133DBB223700F2B10D800211F2B60
:10141000F4D9280018400122824048691042EFD0D8
:101420004A619B009B59002BEAD09847E8E770BDC2
:10143000D418002000280040D8180020064A13784D
:1014400002210B431370012053681942FCD15368E9
:101450001842F9D17047C0460028004000B583B05B
:10146000174A51698023DB000B43536101A9002314
:101470000B700220134B98470220134B9847134AD6
:10148000137801210B431370013101205368194275
:10149000FCD153681842F9D10C4A137810218B43C0
:1014A00013700B4B19004031002204C38B42FCD156
:1014B0000822084B1A60084B984703B000BDC0468D
:1014C00000080040394F0000C94E000000280040CD
:1014D000D818002000E100E03D140000F0B5D64629
:1014E0004F464646C0B58AB006000F001400316072
:1014F0000800A24B9847451C05281ED01330A04A6F
:10150000D1690123AB400B43D36109A9237B0B7045
:10151000C5B228009B4B984728009B4B9847207BDF
:1015200000219A4B98473B681C209B0707D50AB0BF
:101530001CBC90469946A246F0BD1920DFE73B68E7
:101540001738DB07F3D430688C4B99469847050071
:101550008F49904B9847AD008F4BEE500023337668
:10156000737600257383B3832522B5543362143315
:101570003B60336898461800C8478146802308AA14
:101580001370557001239370D570E069276A0028A5
:1015900000D1AFE008AB1870022308AA5370000C0A
:1015A000C0B211007D4B9847002F00D1A7E008ABD7
:1015B0001F70022308AA53703F0CF8B21100774B3A
:1015C0009847A38AF380E38A3381237E8022002B0D
:1015D00004D1734B9B789B07DB0FDA01A168236969
:1015E0000B4313432422A25C002A02D08022D2059E
:1015F0001343A26A13432C22A25C002A03D1802247
:101600009204914202D18022120513432D22A25C42
:10161000002A02D08022120413432E22A25C002A48
:1016200002D08022D203134342461268134342463B
:10163000136080235B0053604D461335E8B2594B6D
:1016400098470790FA239B0022685A4391466368A3
:101650009A46554DA847009001914B465800A8471F
:1016600002900391208EA847049005914F4F504A55
:10167000504B00980199B84702000B000498059957
:10168000B8474D4E00224D4BB04704900591484657
:10169000A84702000B0004980599B84702000B0008
:1016A000474D00980199A847029A039BB047002232
:1016B000444BA847029A039B434DA847434B984786
:1016C000050080239B04A2689A421ED0030040209C
:1016D000FF2D00D92BE700240020FF251D40240604
:1016E00025430004FF231B04184005434346DD60E7
:1016F00000201CE700214046354B98474AE701216E
:101700004046334B9847070051E7FA26B600534648
:101710005E430098019902000B00274CA0470090FF
:1017200001913000204B984700222A4BB847020015
:101730000B0000980199244CA0470022214B204C1B
:10174000A047224B9847041E0CD031000798224B2B
:1017500098470238001B2B00FF2D0CD8FF28BCD95E
:101760004020E4E67100481E079B9C4660441A4BEB
:1017700098470138EFE74020D9E6C0464D280000E1
:1017800000080040394F0000C94E000085260000C7
:10179000B91A0000F9340000801D00203550000007
:1017A000002000415D4F000089860000F57A0000AE
:1017B00095D626E80B2E113E6D6E000000002440E9
:1017C000F57F00000000F03F8D74000021860000CE
:1017D000D1260000000008406962000003681A7EFC
:1017E000920707D502221A765B8B9B074120DB17F5
:1017F000184070475A8B520706D55968C02292028A
:101800000A435A601820F4E70020F2E730B5026876
:10181000002301240225117E21420BD1117E294291
:1018200006D101339BB201899942F4D8122002E01B
:10183000002000E0002030BD10B5046862688023FD
:10184000DB02134363606162024B984701232376F6
:1018500010BDC0460D18000001680722CB691A426E
:10186000FCD1704770B5040006683268458B838BE5
:10187000ED1AADB2838B013B9BB2838313011DD55F
:10188000C37A002B03D0838B9BB2012B10D0A38B88
:101890009BB2002B02D1A37A002B1CD12000124B4B
:1018A0009847236A5D192823F35CDBB22B7070BD67
:1018B00072688023DB0213437360E8E7C37A002B6E
:1018C000E5D0838B9BB2002BE1D172688023DB02D1
:1018D00013437360DBE72000034B98477268C02313
:1018E0009B0213437360D9E75918000070B50400D8
:1018F00005686B8B5B0703D51E222523C25470BD80
:10190000468B838BF61AB6B2838B013B9BB28383E3
:10191000044B9847236A9E193378DBB22822AB54D4
:10192000EDE7C0465918000070B505000C000668C8
:101930004B7A002B1AD17368134A134073606368A3
:101940002B626388AB8300222423EA5405320133DF
:10195000EA54223BB375237A002B0BD123885B001A
:10196000627A920313437362002070BD897A074B39
:101970009847E0E723885B00627A92031343802252
:10198000120213437362EFE7FFFFFBFF39180000F9
:10199000F8B505000C0006684B6803624B8883832A
:1019A00001222423C25404320133C25437683F0158
:1019B000FF0F4B7A002B17D1002F02D06388012B29
:1019C00016D07368204A13407360237A002B15D118
:1019D0000323B37523885B00627A920313430122C9
:1019E000134373620020F8BD897A184B9847E3E7E8
:1019F00072688023DB0213437360E6E723885B0091
:101A0000627A920313438022120213437362280006
:101A10000F4B984773680C4A134073600028E2D15B
:101A200028000C4B98470028DDD10323B375238889
:101A30001B0A782213435B00627A920301210A4356
:101A400013437362CFE7C046FFFFFBFF3918000066
:101A50000D180000DD170000931C9B00C31859608F
:101A6000037E012191400B43DBB2037670470000F7
:101A700010B5838B9BB20522002B01D0100010BD46
:101A800001338372C372024B98470200F6E7C046E7
:101A90009119000010B5838B9BB20522002B01D059
:101AA000100010BD01338372C372024B98470200CD
:101AB000F6E7C0462919000070B58000754BC45880
:101AC00025682B681B01DA0F637E267E1E40638B20
:101AD0009BB2002B03D1A38B9BB2002B23D1638B32
:101AE0009BB2002B08D0A38B9BB2002B04D12533D3
:101AF000E35C052B00D16DE0638B9BB2002B24D0FF
:101B0000A38B9BB2002B20D06B8B9B0600D581E072
:101B1000002A04D0A38B9BB2012B00D17AE0412292
:101B20002523E25411E02B7EDB0707D501232B761A
:101B30006B8B9B072ED541222523E254A38B9BB2AE
:101B400063832523E35C052B38D0638B9BB2002B8A
:101B500007D0A38B9BB2002B03D12533E35C052B6D
:101B600064D02523E35C052B13D02523E35C002BF5
:101B70000FD003232B7500236383A3832533E35CFA
:101B8000412B03D0A37A002B00D075E0730700D55A
:101B90007BE070BD6B8B5B07D0D518222523E25408
:101BA0000023A383A37A002BC8D020003A4B984788
:101BB0006A68C0239B0213436B60BFE71F33E35C7B
:101BC000002B03D02000354B9847BEE72000344B54
:101BD0009847BAE71F33E35C002B00D08CE7033350
:101BE0002B750023638325330022E254A37A002B54
:101BF00007D101232B76F307A7D5E3682000984788
:101C0000A3E72000244B98476A68C0239B02134334
:101C10006B60F0E72423E35C002B03D12000204B12
:101C2000984792E720001D4B98478EE71F33E35CEF
:101C3000012B96D12B7E9B0701D502232B76032304
:101C40002B750023638325330022E254B30703D5A9
:101C50002423E35C012B0BD0F30700D481E724237A
:101C6000E35C002B00D07CE7E3682000984778E72E
:101C700023692000984774E72000074B98476A685B
:101C8000E023DB0213436B6080E763692000984721
:101C90007FE7C046801D002059180000651800002D
:101CA000ED180000024A137804210B4313707047AB
:101CB000281D002030B593B08023DB05009300235E
:101CC0000193FF2269460A81CB7201222C216846CA
:101CD0004254013142542D328354013283540C93C7
:101CE00005328354059300220382C276079303844E
:101CF000438402762423C25442761323837613331B
:101D0000C254013BC254284B0A9380235B030393C4
:101D1000264B0E93264B0F9301235B421093119396
:101D20004133837203220B3BC254224D224C6A463C
:101D300022492800A0470028F9D11E4D2C68200018
:101D40001F4B98471F2318401E3B83401D4A1360BA
:101D50002A68D369002BFCD1236802221343236035
:101D6000144B1B68DA69002AFCD1596880225202A0
:101D70000A435A6001210F4AD171DA69002AFCD165
:101D80000020114B984702000023104800218018C2
:101D900059410F4A00230F4CA0470F4B98470F4B58
:101DA000984713B030BDC04690D003000200300009
:101DB000020031002C1D0020BD2E00000018004242
:101DC0003535000000E100E05D4E0000571B0000CB
:101DD000581B0000F563000001000020A51C000056
:101DE00010B5224B98470022214B224CA0470022DD
:101DF000214B224CA04702000B0000202049214C1F
:101E0000A047214B98478F21C905204B9847204B6D
:101E1000984780B21F4B9B899BB2984224D01D4BA0
:101E20001A6802218A431A605A681B490A405A609C
:101E30005A681A490A405A601A00D369002BFCD12B
:101E4000144B98815968802252020A435A6059689B
:101E5000802292020A435A601A6802210A431A60D9
:101E60001A00D369002BFCD110BDC0468986000042
:101E700000003040F57A000060E386418D74000078
:101E80000000F03FF57F00009D870000896700009B
:101E90008964000000180042FFFFFEFFFFFFFDFF06
:101EA000F0B583B004000D00802252038223DB05CD
:101EB0009A6100226B46DA710F48104B9847104E1A
:101EC000104F01226B46D91D3000B8470028F8D1C9
:101ED0000D480A4B98470A4E0A4F01226B46D91DFE
:101EE0003000B8470028F8D12A0021000448054BEB
:101EF000984703B0F0BDC046A0860100E11D000078
:101F00002C1D00201D33000090D0030010B582B0BE
:101F100001A900240C704C7004225020044B9847F7
:101F2000044B9847044B02681A605C6002B010BD15
:101F3000553D0000A53D0000601D002010B584B097
:101F400001AC0A2200212000084B9847084B1B686F
:101F5000A3701A0AE2701A0C22711B0E637106221A
:101F600021005020034B984704B010BD7389000036
:101F7000601D0020E13C0000202801D9074870477F
:101F8000C8235B005843403080B2523BFF3B0342C2
:101F9000F5D09843403080B2F1E7C046FFFF000023
:101FA000F0B5104B1F685C6800230021202601203B
:101FB00009E0F21A250095403A00DA402A4309E088
:101FC0000133202B0BD0202252429A18F1D4250045
:101FD000D5402A000242F3D00131C9B2F0E7014BEB
:101FE0001972F0BD601D002010B500200021044BC7
:101FF00018605960034B9847034B984710BDC04683
:10200000601D00200D1F0000A11F000030B583B02F
:102010000400154801238B40DA1705682B404068FF
:10202000024013430022002B1AD008000F4B9847A0
:102030000F4B0022984213D001A9030A0B7048707D
:102040009132FF3250200B4B98470B4B984700239F
:10205000C8214900C25CE25401338B42FAD101220B
:10206000100003B030BDC046601D0020791F000085
:10207000FFFF0000553D0000A53D0000F0B593B006
:1020800001AB4621694400221A7001338B42FBD117
:10209000002401AD084F8026F601230A2B706C70D6
:1020A000422229005020B8474034A4B2B442F4D1AF
:1020B000024B984713B0F0BDE13C00000D1F00003B
:1020C000F0B5C64600B592B006000C00C82252001A
:1020D00046236B441A807181374BB13AFF3A891815
:1020E00015D421328A400121A140186801431960AA
:1020F00059680A435A60314B98472000304B984743
:102100000500B046072701AC46266E4408E02021B2
:10211000091B0122CA40E6E7013FBFB2002F46D0AB
:102120002B0A2370657033889BB2402B16D9414629
:102130006B469A1D0B7813703388013B9BB233803A
:10214000013101329642F5D140239C46E0444035AE
:10215000ADB24222210050201A4B984733889BB2DF
:102160003F2BD9D833889BB2002BD5D001AB2A0A9C
:102170001A705D7046236B441B889BB2002B0ED0F7
:102180004346002246246C4401A9891818788870B7
:102190000132D2B22188013389B29142F4D8462368
:1021A0006B441A88D2B201A95020064B984712B04E
:1021B00004BC9046F0BDC046601D00203D1F0000DD
:1021C000791F0000E13C000030B5E5B005000C00CF
:1021D000110068461D4B9847002834D003AB43A834
:1021E0001A782270013301348342F9D12A004BA9B5
:1021F0001435187814682070587914686070987ACB
:102200001468A070D87B1468E070187D1468207181
:10221000587E14686071106880680C68846010686B
:1022200080684C690461106880688C6A84611068F9
:102230008068CC6BC46101CA80680C6D4462013354
:102240000431AA42D5D165B030BDC0460D20000092
:1022500070B5E4B00C0003AB43AE25781D700134BB
:102260000133B342F9D104004BA91430060001CC6C
:1022700005781D7045785D7185789D72C578DD7330
:1022800005791D7545795D768568AD680D60856851
:102290002D694D618568AD698D628568ED69CD6395
:1022A0008568686A086501330431B442DFD11100E2
:1022B0006846024B984764B070BDC046C12000001C
:1022C00030B5E5B005000C1E0AD06846094B9847AA
:1022D000002809D0220008492800084B984701E04F
:1022E0000023037065B030BD220005492800034B70
:1022F0009847F7E70D200000A4930000F98A00003A
:102300009893000003681869431E9841C0B2704753
:10231000002303700122427083700371C370437104
:1023200083717047F0B5C64600B582B00500140051
:102330000160284AD06980239B030343D3610B7853
:102340001C209B0703D502B004BC9046F0BD0B785F
:102350001738DB07F7D401A9E3780B701F301E4B49
:10236000984724201D4B984700266B465E70DE7010
:1023700001236A461370967069460220184B9847ED
:102380002F6863782B71AE7163795A1E93419B015C
:1023900022789046A278002A03D0042241461143B5
:1023A00088462279002A03D00822414611438846F4
:1023B000DBB23B700B4E2800B0470028FBD14346F0
:1023C0007B7023786B7100236B61AB61EB61064B13
:1023D0001D60B8E700080040394F0000C94E0000FA
:1023E0003550000005230000701D002070B504006A
:1023F00005686B78027913436B700C4E2000B04770
:102400000028FBD12B78022213432B706379002B19
:1024100004D1074AD36904210B43D3612B789B076E
:1024200003D50122EB791342FCD070BD05230000D7
:10243000001800407047704770470000F8B504006E
:1024400017000668064D2000A8470028FBD1A37995
:10245000002B02D137810020F8BDB781FBE7C046D1
:102460000523000070B5274B1C682568AB79DB0796
:1024700007D50123AB712300143302D0637C002BFA
:1024800031D1AB799B0738D50223AB71A3899BB2BD
:10249000002B2CD0E3899BB25A1C92B2E2815B00E4
:1024A000A268944663441B889BB2AB81A389013B1D
:1024B0009BB2A381A3899BB2002B18D100222033A9
:1024C000E2541E3B2B71AB71802149057E330E4ACD
:1024D000D1502300143310D0A37C002B0AD000204D
:1024E000E369984706E00020A3699847C9E72300FD
:1024F000143302D0237C002B00D170BD636900200F
:102500009847FAE7701D002000E100E0F0B5DE46D4
:1025100057464E464546E0B587B0804604911600C2
:102520001F000022002300218B463F2401202100B0
:10253000009601975C4603944446059413E02024DA
:10254000641A0500E540A84614E0009C019D121B9A
:10255000AB415C464D462C43A346039C45462C4369
:102560000394013925D3202464420C19E7D40500D3
:10257000A540A84604008C40A14692185B41140077
:102580001D00059E4F463E40B446049E47463E40D1
:10259000B246664657463E4303D006002643320005
:1025A0002B00009C019D9D42DBD8CED19442D8D80F
:1025B000CBE7039B5846190007B03CBC90469946B0
:1025C000A246AB46F0BD10B5490840230024814225
:1025D00002D2180010BD1C00091A631C9BB288426D
:1025E000F9D94023FF2CF4D814800023F1E7000030
:1025F000F0B583B00F00160008AA117804004C4310
:102600004022BC4202D9100003B0F0BD002B14D10F
:10261000020008000021194CA04701003A000023E5
:102620000020174CA04700220123121A8B41120CE4
:102630001B041A4332800022E5E70022012BF9D166
:102640000A00002300210D4CA04702000B0000925D
:102650000193380000210A4CA047050080239B010C
:1026600040229842CFD8790FF800009A019BA047EA
:10267000EA00821AD2B252032A43DBE73564000033
:102680000D25000010B582B004000E4B1B78002B06
:1026900007D0002905D10B4B5B78834210D01D2059
:1026A0000CE001A90C701220074B98471220074B31
:1026B0009847044B5C7001221A70002002B010BDD4
:1026C0000020FBE7C4000020394F0000C94E000085
:1026D000404B984231D00AD93F4B98424DD03F4BA6
:1026E00098425AD03E4B984237D0002070473D4B1D
:1026F00098420CD03C4B9842F7D1012917D00029C1
:102700005DD0022915D0032915D00020EEE701295C
:1027100007D0002951D0022905D0032905D0002077
:10272000E4E73248E2E73248E0E73248DEE73248A1
:10273000DCE73248DAE73248D8E7012907D0002938
:102740003FD0022905D0032905D00020CEE72D482F
:10275000CCE72D48CAE72D48C8E7012907D0002952
:1027600031D0022905D0032905D00020BEE7284832
:10277000BCE72848BAE72848B8E7012907D000296C
:1027800023D0022905D0032905D00020AEE7234835
:10279000ACE72348AAE72348A8E7012907D0002986
:1027A00015D0022905D0032905D000209EE71E4838
:1027B0009CE71E489AE71E4898E71E4896E71E4881
:1027C00094E71E4892E71E4890E71E488EE71E4891
:1027D0008CE7C046000C0042001400420018004282
:1027E00000100042000400420008004203000500FF
:1027F000030006000300070002001100020012009F
:102800000200130002000D0002000E0002000F0083
:10281000020017000200180002001900030029003E
:1028200003002A0003002B00030023000300200004
:1028300003002100030004000200100002000C004D
:1028400002001600030028000300220030B587B004
:102850000B4B6A4632CB32C232CB32C2009B834230
:102860000BD001239A0069465258824206D00133A8
:10287000062BF7D1002007B030BD0023D8B2FAE70D
:10288000AC930000094B98420CD0094B984207D0FA
:10289000084A0023904201D018007047023302E03A
:1028A000012300E00023DBB2F6E7C046002400422B
:1028B00000280042002C004210B5040008004F4BD5
:1028C00098470023236080004D4A82586260A372BB
:1028D000E372237363722372E36123626362A36210
:1028E00023756375A375E375237663762374637428
:1028F000A374E3742C22A3540132A3540132A354D1
:102900000132A3540132A3540132A3540132A3541F
:102910000132A3540132A3540132A3540132A3540F
:102920000132A3540132A3540132A3540132A354FF
:102930000132A3540132A3540132A3540132A354EF
:102940000132A3540132A3540132A3540132A354DF
:102950000132A3540132A3540132A3540132A354CF
:102960000132A3540132A3540132A3540132A354BF
:102970000132A3540132A3540132A3540132A354AF
:102980000132A3540132A3540132A3540132A3549F
:102990000132A3540132A3540132A3540132A3548F
:1029A0000132A3544132A354A365A3670132A35457
:1029B000E365E3670132A35423661A3AA3501B323E
:1029C000A3546366173AA3501832A354A366143A6B
:1029D000A3501532A354E366113AA3501232A35404
:1029E00023670E3AA3500F32A35463670B3AA350E8
:1029F00001210C32A1540132A35410BD85280000DE
:102A0000D8930000F0B5DE4657464E464546E0B541
:102A100091B001900C0015000800C34B98470300CB
:102A20000100C248C2699E00C14FF7593A43C261D2
:102A300022681C20920706D511B03CBC90469946EE
:102A4000A246AB46F0BD226801271740F4D1B94831
:102A5000325817202E68B242EED36E68B242EBD3E2
:102A6000E869824200D2ABE1286A824200D2A9E141
:102A7000686A824200D2A7E1A86A824200D2A5E138
:102A800098229446AC4462460892002003E001304C
:102A90000132082808D01678002EF8D0A64E765CB1
:102AA0008642F4DC1720C7E700220292802040040F
:102AB000844602E00132042A0ED0A818007C0128C6
:102AC000F8D19E48405C904200DA81E16046904037
:102AD000029E06430296EDE79D32AA5C002A04D0CE
:102AE000802212010299114302912A7A511E8A41D1
:102AF000920006926A7A012A22D0904AD25C110092
:102B000005923522AA5C8A4200D36BE12C21695CD4
:102B10000F2900D966E1287B0A90E87A0B902D20D6
:102B20008246AA44002004970EAE0796C0263601BE
:102B3000B1468446A046280055460993824635E0B2
:102B4000069911430691D8E792024F463A400A434C
:102B500019798B4603215F4639400A4316435A7957
:102B6000520160210A40324399790902C026B60019
:102B70000E401643DA791203E021C9010A401643D8
:102B80003443039A14432043624607995050042A61
:102B90002AD09A7C0599914200D823E1597A0A35C6
:102BA00004239B46DC440F2900D91BE10906F023CE
:102BB0001B0519402B002E783604FF200004064028
:102BC00068788024002800D1049C9878082703970F
:102BD000002801D104980390D878834610205F46DE
:102BE000002FB1D10498AFE744465546099B524A9D
:102BF000D25C914651465031504641300027002268
:102C00000126B2460226FF36B34680267602B0463B
:102C1000A4461C004B460FE00678002E07D09342D6
:102C200000D8D9E0022E14D05646964037430132E0
:102C300001310230082A10D00E78002EECD09342D9
:102C400000D8C7E04646964037430678002EE9D1C3
:102C5000EDE75E4696403743E9E799462300644630
:102C60006A7E120130211140287E07220240114362
:102C70000022802040020E0002E00132042A0BD024
:102C8000A918097D0029F8D00599914200DCA5E03A
:102C9000010091400E43F0E7B24601980200043271
:102CA0003430002102C28242FCD1002201984263EA
:102CB00082639900224A88500460A022A95C643A89
:102CC00081540DA9AA7A0A701E4AD65C30001E4BA8
:102CD000984730001D4B98474B46002B3CDD2E009B
:102CE000583698339846A84401239946AB46454642
:102CF000A046089C03E001340436AC422AD0237875
:102D0000002BF8D00CAB4A469A7000230CAAD37063
:102D100013002022B21812781A704A465A7030787E
:102D200019000B4B9847E6E7852800000008004093
:102D3000C4930000D8930000E4930000D0930000F7
:102D4000741D0020D4930000394F0000C94E0000CC
:102D50003550000044465D460A9B1B030B9A120245
:102D60001343029A134323600422A3681A42FCD13E
:102D7000FF2323710422A3681A42FCD16B461B7EF9
:102D800063710E9BE3600F9B2361A7615346E3636E
:102D90001022A3681A42FCD12B6863636B6823641A
:102DA000059800281CDD1C35002202CD13001033CD
:102DB0009B00E318596001329042F6DC00203BE6AC
:102DC000172039E6172037E6172035E6172033E6B7
:102DD000172031E617202FE617202DE617202BE6C7
:102DE000002029E6172027E6920083185960034B3C
:102DF000D358426B1343436300207047E8930000AD
:102E000070B504000D000068094B9847094B1B5C26
:102E10001F221A4001239340074A1360AD00074B5D
:102E2000EA58A36B1343A36323689A6270BDC0463C
:102E3000852800001894000000E100E0E8930000FD
:102E4000F0B5C64600B580000E4BC7583B68DE6A39
:102E5000BB6B7A6B13401E4000240B4B984602E07C
:102E60000434302C0AD04346E5583542F8D03B199B
:102E70005B68380098473B68DD62F1E704BC904628
:102E8000F0BDC046741D0020E893000010B500207E
:102E9000014B984710BDC046412E000010B50120DF
:102EA000014B984710BDC046412E000010B50220CE
:102EB000014B984710BDC046412E0000F0B5DE46DC
:102EC00057464E464546E0B591B005000C00160049
:102ED00029600800D24B984705280DD0070013370A
:102EE00022680523D20709D5180011B03CBC9046D2
:102EF0009946A246AB46F0BD1927F1E72268173381
:102F00009207F1D4C74AD16901301B3B83400B4380
:102F1000D3610FA935239846F35C0B70FFB23800DC
:102F2000C14B98473800C14B98474346F05C00219D
:102F3000BF4B9847F37A6B712C23F35CAB712D2355
:102F4000F35CEB71F37E2B722423F35C6B722B68C2
:102F500002931800B24B984705281DD01330002269
:102F60000E2306A98C4663441A80338A9846802330
:102F7000DB01984500D1C3E010D9C023DB0198459F
:102F800000D1B8E080231B02984500D066E10323FE
:102F90000693002307930AE01920E0E780239B01B2
:102FA000984500D05AE1102306930F3B07933368EE
:102FB0000593F3689B4673690393337E04932E2332
:102FC000F35C9A4673689946002B00D1C5E08023D4
:102FD0005B05994500D1A8E0737E002B02D0B37E3B
:102FE000029A93730E2306AA944663441B88029A9E
:102FF0009381059A5B461A43039B1A434B461A4337
:1030000043461A43049B1B021A4353465B071A4369
:103010002F23F35C002B01D104331A43737E9B02F0
:103020002421715C49020B432621715C09020B4388
:103030002C21715C49040B432D21715C09040B4365
:10304000B07AF17A084318433389FF2B00D1AAE004
:10305000802149040A43184302998B689C46338CAB
:10306000718C0B431F000721634619403B000B4343
:1030700002998B60F369002B02D06E490A401A4313
:103080003423F35C002B03D16B4B9B789B0701D55A
:1030900080231A432968029FCB69002BFCD17860FA
:1030A0002968CB69002BFCD13A603B68F0221205FD
:1030B0001340E022D20493420AD0BB680722934314
:1030C000BB60BA682523F15C1E3B0B401343BB6019
:1030D0000EAB80221A7000225A70DA709A70B36BAD
:1030E0000A93F36B0B93336C0C93736C02930D93F5
:1030F00000270AAE66E008230693073B079356E7CE
:1031000033680593F3689B4673690393337E049396
:103110002E23F35C9A4673689946002B19D08023BE
:103120005B05994501D0002327E02F23F35C002B9A
:1031300000D051E7B36A1F00C0B2404B984701006E
:103140000E2206AB9C46624438003D4B9847030074
:1031500013E008230693002307932F23F35C002B2F
:103160000FD0069B0093079B0E2206A98C46624453
:10317000316BB06A334FB8470300002B00D0B3E681
:103180002AE7B36A1F00C0B22C4B98470100069B88
:103190000093079B0E2206A8844662443800294FFC
:1031A000B8470300E9E7F37E002B00D154E7802302
:1031B000DB041A4350E72000234B984707E0013710
:1031C000042F0DD0F9B2BB0098590028F3D0431C4E
:1031D000F5D00EA90870000CC0B21C4B9847EEE762
:1031E0000023EB602B616B61AB61EB612B62AB6227
:1031F0006B620022EB85AB853033EA540133EA542D
:103200000133EA540133EA542868054B9847040017
:103210000F49104B9847A4000F4BE550002363E67D
:103220004D28000000080040394F0000C94E000042
:1032300085260000FFFFFFF0002000415D4F0000E9
:10324000C7250000F1250000D12600003550000000
:1032500059330000F9340000801D0020102306932C
:1032600000230793A3E6C046F8B506000C0015003E
:1032700007680A4B9847F38D9BB2002B03D0084B8D
:1032800098470520F8BDF585054B9847B46205229F
:103290003323F254323BBB750020F3E7694800004A
:1032A000A9480000F8B504000D00160007680F4B90
:1032B0009847A38D9BB2002B03D00D4B9847052058
:1032C000F8BDA6850A4B9847656205223223E25471
:1032D0002E3BBB75237A002B01D02023BB75637A6C
:1032E0000020002BECD00823BB75E9E769480000FB
:1032F000A9480000931C9B00C3185960302101238A
:1033000093401A00435C13434354704710B50122A5
:10331000014B984710BDC046A532000010B51723D9
:10332000002A01D1180010BDC4790533002CF9D052
:10333000014B98470300F5E769320000002903D0EC
:10334000012905D0172002E03223C05CC0B27047CB
:103350003323C05CC0B2FAE7F8B58000644BC558AF
:103360002C68E369002BFCD1237EA67D1E40302310
:10337000EB5C3122AF5C1F40F30722D5EB8D9BB293
:10338000002B1CD0AA6A1378DBB2511CA9626979A0
:1033900001290ED09BB2DB05DB0D2385EB8D013BB4
:1033A0009BB2EB85002B0CD1013323750133A37540
:1033B00007E0517809020B430232AA62EBE70123CE
:1033C0002375B30706D50223237500223133EA544F
:1033D000FB071ED4730768D5AB8D9BB2002B62D060
:1033E000638BDBB21A0718D47F2213405A0601D52B
:1033F00040229343002B33D09A0711D51A2232234F
:10340000EA54303B63837B074FD528006B699847AC
:103410004BE02800EB689847DCE777221340E5E7AC
:103420005A0705D51E223223EA542E3B6383EAE76E
:10343000DA0705D513223223EA54313B6383E2E7EE
:10344000DA0605D542223223EA54223B6383DAE7C7
:103450009B06D8D541223223EA54123B6383D2E73C
:10346000238DDB05DB0DDAB2696A0A706A6A511CCA
:1034700069626979012910D0AB8D013B9BB2AB85A4
:10348000002B12D10433237500222E33EA54BB07DC
:103490000BD528002B69984707E01B0A53706B6A0D
:1034A00001336B62E8E704232375F30604D5102388
:1034B00023752376FB060ED4B30604D5202323758B
:1034C00023763B070BD4330704D5082323752376D3
:1034D000BB0608D4F8BD2800EB699847ECE7280044
:1034E000AB699847EFE72B6A28009847F2E7C04698
:1034F000801D002070470000F0B50A4B1B78002BA0
:103500000CD1094F094E0A4D0024DE515A1914609E
:103510000433182BF9D10122024B1A708000024BA0
:10352000C150F0BDC6000020C8000020F5340000E6
:10353000801D002000B583B009236A461370013353
:103540005370013393700133D3700133137101331E
:103550005371034B98476B46185603B000BDC046E5
:103560004D28000010B5024B1B680020984710BD85
:10357000C800002010B5024B5B680120984710BDC1
:10358000C800002010B5024B9B680220984710BD70
:10359000C800002010B5024BDB680320984710BD1F
:1035A000C800002010B5024B1B690420984710BDCD
:1035B000C800002010B5024B5B690520984710BD7C
:1035C000C80000209300C3185960012393401A00DB
:1035D000037F1343037700207047000070B580001D
:1035E0001F4BC45823689D79227F637F13401D4081
:1035F000EB070AD4AB070FD4EB0614D46B0719D42E
:103600002B071ED4AB0623D470BD200063689847F7
:10361000012322689371EDE72000A36898470223F5
:1036200022689371E8E720006369984710232268B5
:103630009371E3E72000E3689847042322689371BD
:10364000DEE7200023699847082322689371D9E7B1
:103650002000A3699847236820229A71D4E7C046C6
:10366000981D002010B50020014B984710BDC046A2
:10367000DD35000000B583B001AB80221A700A78F6
:103680005A704A789A708A78DA701900014B984714
:1036900003B000BD3550000070B50B4C01220B4942
:1036A00020000B4DA847E37E02221343E376042358
:1036B00022685371002207492000A847E37E0122B7
:1036C0001343E37670BDC046A41D00203D3B0000BF
:1036D000891300004538000010B502B2034B802169
:1036E00049000348034CA04710BDC046FF0300003B
:1036F000A41D0020690D000010B582B0040001284F
:1037000001D902B010BD0522002168460B4B984735
:1037100006236A46137001335370115D084B1A6813
:10372000138C9BB2002BFBD113891F2083430B43C7
:103730001381138C9BB2002BFBD1E2E7738900004D
:10374000A41D002030B58DB02C4B18600200103243
:103750002B4B1A6010322B4B1A6010322A4B1A6016
:1037600040302A4B186001AC2000294B98470723B2
:103770002370023B6370033BA3701E33E370E0339E
:10378000238300232362234AE26106222271C0229E
:103790005201E280A3720122227323611E4D220096
:1037A0001E4928001E4B98472C68238C9BB2002B87
:1037B000FBD120001B4B98471B4B1B5C1F221A4060
:1037C00001239340194A136007232371A3712378BF
:1037D000022213432370104B1A68138C9BB2002BE8
:1037E000FBD1134B1878134B9847134B9847012282
:1037F00012490948124B98470DB030BDD41D002026
:10380000D81D0020A01D00209C1D0020C41D0020EC
:10381000250D0000FF030000A41D0020004400420D
:10382000AD0D0000010D00001C94000000E100E05F
:1038300000010020F936000099360000C81D002064
:103840009D13000010B50122184B1A70184B1B78FD
:103850000133DBB2022B16D0154A1370144C2078BA
:10386000144B98472378002B11D0114B1B78012B58
:1038700014D00F4B197849000F4BC91801220F487B
:103880000F4B984710BD0022094B1A70E6E70D4B0D
:103890001B68187840010C4B9847E6E70B4B1B68F8
:1038A00018784001084B9847E3E7C046DC1D00202C
:1038B00000010020F9360000C81D0020A41D0020D2
:1038C0009D1300009C1D0020D9360000C41D00205F
:1038D00010B586B000236A46137053729372039337
:1038E000A022D20069464A8220220A756A464B7598
:1038F00001930B7280235B010B82084C0221200094
:10390000074B984723687F211A6A1142FCD19A69B4
:1039100002210A439A6106B010BDC046E0000020B3
:10392000BD0C000010B586B000236A4613705372B8
:10393000937203931382A022D20069464A82202206
:103940000A7500224A7501936A460B72074C0021E2
:103950002000074B984723687F211A6A1142FCD147
:103960001A6902210A431A6106B010BDE000002066
:10397000BD0C000010B586B000236A461370537268
:1039800093720393A022D20069464A8220220A75CC
:103990006A464B7501930B7280235B010B82084CC6
:1039A00001212000074B984723687F211A6A1142A2
:1039B000FCD15A6902210A435A6106B010BDC046C3
:1039C000E0000020BD0C000070B5154C0222154926
:1039D0002000154DA847002214492000A8470122C5
:1039E00013492000A847637F012213436377012313
:1039F000226853710F4B802212051A60617F0220EA
:103A0000014361770221206841711A60617F0420BF
:103A1000014361772168042048711A6070BDC04677
:103A2000E0000020853B0000C5350000953B00000C
:103A3000A53B000000E100E010B582B0144B186017
:103A400002001032134B1A601032134B1A601032FE
:103A5000124B1A604030124B186001AA05231370F4
:103A6000104C11492000114B9847114B9847114BAE
:103A70009847114B9847114B984723687F211A6A42
:103A80001142FCD11A7802210A431A7002B010BD0B
:103A9000D41D0020D81D0020A01D00209C1D00204A
:103AA000C41D0020E0000020005000426D0C00000A
:103AB000D13800002539000075390000C9390000EF
:103AC00010B50130C4B2174B1B68DA78A24214D08B
:103AD000154B1B68DA78A24213D0144B1B68DA78B6
:103AE000A24212D0124B1B68DA78A24211D0114BBD
:103AF0001B68DA78A24210D010BD98680E4B984728
:103B0000E6E798680C4B9847E7E798680A4B9847B0
:103B1000E8E79868084B9847E9E79868064B9847A4
:103B2000EAE7C046D41D0020D81D0020A01D0020BB
:103B30009C1D0020C41D0020C506000010B50D4BC3
:103B400000229A5E0C4B1B681B785B019A4209DCD1
:103B5000084B02229A5E094B1B681B785B019A4254
:103B600004DC10BD0320064B9847F1E70420044B0A
:103B70009847F6E7C81D00209C1D0020C41D0020AA
:103B8000C13A000010B50020014B984710BDC04657
:103B9000C13A000010B50120014B984710BDC04646
:103BA000C13A000010B50220014B984710BDC04635
:103BB000C13A0000022805D84900C9B2024B9C4610
:103BC000604401737047C046005000420122014B1F
:103BD0001A707047020100200122014B1A707047D1
:103BE0000101002070B5094C002209492000094D4F
:103BF000A847637E01221343637607492000A84744
:103C0000637E02221343637670BDC046C81F002046
:103C1000CD3B0000591A0000D93B000030B58FB0F1
:103C200001AB254A0292002203921A7601214942F1
:103C3000998225315A540B9208315A5401315A5401
:103C400001315A54A93119861C49D9821C4908915D
:103C50001C490991022119730592C8235B00019345
:103C6000194D1A4C01AA1A492800A0470028F9D179
:103C7000154B1C680722E3691A42FCD12368022213
:103C800013432360104D2868124B98471F23184098
:103C90001E3B8340104A1360E88800231021628B8A
:103CA0000A4204D101338342F9D3102363830B4BBF
:103CB00098470FB030BDC046480D000010270000E7
:103CC0000200160002001700C81F0020DD140000CB
:103CD000001000423535000000E100E0E53B000047
:103CE00070B5134B18805A8059600022114B1A701E
:103CF0000F4E114D114C31002800A0470028FAD179
:103D00000C4A1378002BFCD000200D4B9847020082
:103D10000023910F9000801859410A4A002380180F
:103D20005941094A0023094CA047094B984770BDE7
:103D3000BC1F002002010020C81F0020951A0000AF
:103D40005D4E0000571B0000581B0000F56300008B
:103D50000100002070B504001500C0B202220B4B18
:103D600098470B4B1C805D800A4A5A6000220A4B20
:103D70001A70074E094D0A4C31002800A047002850
:103D8000FAD1054A1378002BFCD070BDE13C00004D
:103D9000F01F0020201E002001010020C81F00206D
:103DA000711A000000487047201E002084B070B5D2
:103DB000059106920793BB239B00C15C112914D087
:103DC0002C234B4305AAC31870CA70C370CA70C3B2
:103DD00070CA70C330CA30C30131BB239B00C154C9
:103DE0000023044A8354044A835470BC08BC04B0C2
:103DF0001847C046ED020000EE0200000A4BC25C0C
:103E0000013BC35C013B9A4202DA0132064BC254C9
:103E1000064BC25C044BC35C9B1A042B00D070475A
:103E20000132024BC254FAE7ED020000EE0200003C
:103E3000084BC35C002B02D0013B064A8354064B5F
:103E4000C35C044A825C9A4202D2013B024A835418
:103E50007047C046ED020000EE020000024BC25C5B
:103E60002C235343C0187047ED02000070B50600C4
:103E70000D1C081C0A4B984704000A4B9847011C6C
:103E8000281C094B98470949094B9847094B984703
:103E90000300220008493000084CA04770BDC0460E
:103EA000016D0000E16D0000C969000000007A4466
:103EB0008967000089640000A4940000F98A00006A
:103EC000F0B589B007000D001600BB239B00C35C52
:103ED000934227D92C245443041923780A2B5ED803
:103EE0009B00454AD3589F4623691A782000143016
:103EF0004249434B984700232377237B002B61D112
:103F0000404BFB5CB34251D023001433621C0C3491
:103F100000943D4902A83A4CA047142202A9280067
:103F20003A4B984709B0F0BD23691A882000143035
:103F30003249334B9847DEE723691A682000143072
:103F400033492F4B9847D6E700232375D3E72369DE
:103F50001968200014302F4B9847CCE700232375B5
:103F6000C9E72369197820001430A36A9847C2E78B
:103F70002369197820001430A36A9847BBE72649C3
:103F80002369591AC9B220001430A36A9847B2E7CE
:103F90002369197820001430A36A9847ABE7200002
:103FA000143008221D49194B9847A4E7631C2200CE
:103FB0000C320192143400947E22194902A8104C4C
:103FC000A047AAE70F4BFB5CB34209D02300143390
:103FD000621C0C340094134902A8094CA0479CE7CA
:103FE000631C22000C320192143400947E220E498C
:103FF00002A8034CA04790E720940000B094000072
:10400000F98A0000ED020000CC94000061890000F4
:10401000B49400006D3E0000AC250020B894000070
:10402000C0940000E8940000D8940000F0B5DE468B
:1040300057464E464546E0B58BB007000E002D4B67
:10404000C35C9B461A0004A92B4B98472C255B4662
:104050005D436B1CFB1801931800284CA047824657
:104060002B001433FB1802931800A047039004ABF5
:1040700009A920221A7001338B42FBD1002304AA24
:104080001375340054339946B1441D4B98464B4642
:10409000A9461D00142204A92000C0471534AC42D3
:1040A000F8D14D462C235A465343FB180022DA72AE
:1040B0001A7730001530FF24524622400199104BE8
:1040C00098469847039B1C4030002A3022000299F2
:1040D000C0470C357F193800084B984702002B3435
:1040E00030193900C0470BB03CBC90469946A246F7
:1040F000AB46F0BDED020000C13E00004D8B00005C
:1041000061890000F0B5D6464F464646C0B5060068
:104110000F00012A3ED0234BC55C2B1D9D423CDA8B
:10412000BB239B00C35CAB4239D900231E4A914696
:104130001C4A9046023A92465C1CE4B25900CB18E5
:10414000D900C91A79182A003000C8470135EDB2E4
:104150004346F35C04339D4204DA23005246B25CCA
:10416000AA42E9D8032C10D8142120206200121989
:10417000D3009A1ABA180B00013BDBB2002BFBD11B
:1041800010700134E4B2032CF0D91CBC904699465F
:10419000A246F0BD054B9847F7E70024E4E700246A
:1041A000E2E7C046EE020000C13E00002D400000E4
:1041B000F8B5040016001F000130084DA847200084
:1041C0000C303900A8472670069B2361089B636268
:1041D000079B2362099BA362F8BDC0463D8B00008C
:1041E00070B5284BC25C2C235343195C0A2948D86C
:1041F0008B002549CB589F462C245443041926692B
:1042000035782800214B9847616A214B9847002850
:1042100037D00135357034E02C2454430419266915
:1042200035882800194B9847616A194B9847002830
:1042300027D00135358024E02C2454430419266905
:1042400035682800134B9847616A114B984700283E
:1042500017D00A35356014E02C235A4380180469BE
:104260002568416A281C0A4B9847002809D0281C59
:10427000094B9847094A0A4B0A4DA8470A4B9847E9
:10428000206070BDED0200004C940000416D000004
:10429000A5630000E16D0000F98600009A999999E4
:1042A0009999B93F6D6E00009D87000070B50400BC
:1042B0002F4BC25C2C235343195C0A2954D88B0022
:1042C0002C49CB589F462C235A43841826693578AD
:1042D0002800294B9847216A284B9847002843D04B
:1042E000013D357040E02C235A43841826693588F7
:1042F0002800214B9847216A204B9847002833D04B
:10430000013D358030E02C235A43841826693568F6
:1043100028001B4B9847216A184B9847002823D048
:104320000A3D356020E02C235A43821815692E6817
:10433000116A301C114B9847002809D0301C114BD2
:104340009847114A114B124EB047124B98472860BC
:10435000074BE25C2C235343E418246900212068B6
:104360000D4B9847002800D170BD00232360FBE768
:10437000ED02000078940000416D0000CD63000064
:10438000E16D0000F98600009A9999999999B93FD1
:10439000F57F00009D870000A56300000160704765
:1043A000024A137804210B4313707047382200200F
:1043B00010B5014B984710BDA1430000024A137885
:1043C00004218B431370704738220020F8B5040095
:1043D0000D000B4904220B781342FCD0094B98477F
:1043E000094E0A4F2A0021003000B8470028F9D1B1
:1043F000054D074C01212800A0470028FAD1F8BD3F
:1044000038220020BD430000042200201D3300009C
:104410003D33000010B5084C002208492000084B2D
:1044200098473122A35C01210B43A3540549200086
:10443000054B984710BDC04604220020B143000040
:10444000F53200002A1D00200D33000030B593B076
:104450008023DB05009300230193FF2269460A8134
:104460008B72CB7201212C22684681540132815417
:1044700001328354013283540C93053283540593E3
:1044800000220382C2760793038443840276427635
:10449000132383761333C254013BC2542F4B0A9328
:1044A00080235B0303932E4B0E932E4B0F9301231C
:1044B0005B421093119303223633C254113BC15413
:1044C000294D2A4C6A462A492800A0470028F9D1DC
:1044D000254D2C682000274B98471F2318401E3B72
:1044E0008340254A13602A68D369002BFCD12368D6
:1044F0000222134323601C4B1B68DA69002AFCD19B
:104500005968802252020A435A600121164AD17129
:10451000DA69002AFCD1DA69002AFCD159688022C4
:1045200092020A435A6001210F4A9171DA69002A06
:10453000FCD10020114B98470200002310480021B5
:10454000801859410F4A00230F4CA0470F4B984742
:104550000F4B98470F4B984713B030BD90D00300D6
:10456000020010000200110004220020BD2E0000F5
:10457000000800423535000000E100E05D4E00001B
:10458000571B0000581B0000F563000001000020CD
:1045900015440000A143000000B583B001AB1870C2
:1045A00059709A7003211800014B984703B000BD61
:1045B000CD43000010B50F2800D910BD52080138B6
:1045C00070235B421843C0B2014B9847F5E7C046E1
:1045D00099450000014B18687047C0460C01002047
:1045E000014B18787047C04648240020264B1A6AB1
:1045F000196AC90D012003008B435B00920D4240F4
:1046000001210A401343012B09D0022B21D0002B9A
:1046100000D070471D4A13701D4A1370F9E71B4BF9
:104620001B78002B08D0022BF3D10022174B1A70F5
:104630000132174B1A70ECE70122144B1A7015491E
:104640000B68154A10681B1A144803600B68136046
:10465000DFE70E4B1B78002B08D0012BD9D10022AD
:104660000A4B1A7002320A4B1A70D2E70222074B29
:104670001A7008490B68084A10681B1A074803603B
:104680000B681360C5E7C046800000416C24002021
:10469000482400200C010020080100200401002013
:1046A00010B50B4B18680B4CA0470B4B1868A04774
:1046B0000A4B1868A0470A4B1868A047094B1868AE
:1046C000A047094A136801331360084B984710BD8F
:1046D000B42400208505000044240020702400201C
:1046E0004C240020B82400200C010020ED450000DF
:1046F00070B5AAB00E4E01AC310020000D4B9847AA
:104700000623A372023BE372F63363600A4D220074
:1047100031002800094B98472A6802219368194202
:10472000FCD1136802210B4313602AB070BDC04650
:1047300000240042B928000074240020052A00004B
:1047400070B504000C4D00220C4928000C4B984712
:10475000002128000B4B98470B4B1C602200303285
:104760000A4B1A6030320A4B1A603032094B1A6019
:10477000C034094B1C6070BD74240020A1460000A9
:10478000E92D0000012E0000B42400204424002064
:10479000702400204C240020B8240020094B1B6802
:1047A0000120142B04D8074B1B6801300F2B00D9B4
:1047B0007047044B1B6800200A229A424041033094
:1047C000F6E7C0460401002010B58EB0002200219B
:1047D0006B469A8000236846C171437083700372F0
:1047E00043728372C37203738373437303740592BA
:1047F00006920285428582853423C154303BC370C2
:1048000007220270053A8271013A02772A32089231
:1048100009930A4C6A460A4920000A4B98474021EE
:104820002000094B984722681369002BFCD11368BC
:1048300002210B4313600EB010BDC046502400206F
:104840000034004241080000950B000010B58000C4
:10485000C2B201210148024B984710BD50240020EC
:104860000D0B0000704700000C4B1B68002B06D19D
:10487000EFF31083002B07D00022094B1A70074A70
:10488000136801331360704772B6BFF35F8F002265
:10489000044B1A700132024B1A70F0E7100100202D
:1048A0001401002014000020084B1A68013A1A6015
:1048B0001B68002B09D1064B1B78002B05D0012269
:1048C000044B1A70BFF35F8F62B67047100100206F
:1048D000140100201400002010B5072803D8800020
:1048E0000F4B1B589F46002018E00E4B586815E0F0
:1048F0000D4B597D0907090F01310C480C4B9847A6
:104900000CE0084B986809E0074B1B7F00209B07D1
:1049100004D5044B186801E08020000210BDC04699
:10492000F49400001801002000100040006CDC022C
:1049300069620000F0B5DE4657464E464546E0B592
:10494000384B1B8A1A07D20F91465E05760F4278C4
:104950000F241440A346027851424A41D2B28578CE
:104960004168314FB9420DD9304FB94253D9304F18
:10497000B94252D92F4FB94251D92F4FB94202D81B
:10498000042600E00026477A047AA446447BA04629
:10499000047B002C01D00124A146284C6160C17A1F
:1049A0008A4620495446CC74807A82460720544671
:1049B000204088749200042083431A4303384B46F6
:1049C000DB000824A2431A43434603401B0108347A
:1049D000A2431A43634603409B013034A2431A4367
:1049E0000740FF0180239A4313003B433602144AD9
:1049F000134033432840C002124A134003435A462F
:104A000014031B051B0D23430B823CBC90469946A7
:104A1000A246AB46F0BD0126B5E70226B3E7032662
:104A2000B1E7C0460010004080841E0000093D0030
:104A300000127A000024F4000048E8011801002068
:104A4000FFF8FFFFFFF7FFFFF8B50400C568037D1F
:104A5000012B4DD0A36818012900294B98470F223C
:104A6000024003092178C9016678B6013143C9B211
:104A7000244E31771104013B1B051B0D0B433362A0
:104A800037002C260421BB5D0B42FCD1A3781B030D
:104A9000E178C9000B43217989000B43A17C0326EF
:104AA00031400B43218A0904174F39400B43E17C05
:104AB0000902E027FF0039400B43277D3F013021E9
:104AC00039400B430F494B62637D1E402823CE546F
:104AD0000F002C260821BB5D0B42FCD10F2398430D
:104AE00082186A43637D0433DA40084B1A60F8BDCC
:104AF000018A013149002800014B98470500A9E7C8
:104B000069620000001000400000FF07180100204B
:104B1000072803D88000184B1B589F46172029E010
:104B2000164A137D02210B431375002022E0144A1C
:104B3000936902210B43936100201BE00F4A138A03
:104B400002210B431382002014E00D4A938A0221B4
:104B50000B43938200200DE0084A137F02210B4390
:104B6000137710002A310222435C1342FCD100204B
:104B700000E000207047C04614950000001000407F
:104B800000140040F0B5D6464F464646C0B58EB03C
:104B90000322624B9A60624A53681E218B43183984
:104BA0000B4353600AA80023037083705D4A426080
:104BB000037243728372C372037343730F33437080
:104BC000594B98470020594B984759490122CB68C7
:104BD0001A42FCD0564B1A8A80210A431A821A7D47
:104BE00040310A431A75534B984701AC0126666061
:104BF00000256570257265722570210001204E4BDD
:104C00009846984701204D4FB84766606570062367
:104C1000994623706572267221000220C047022047
:104C2000B84766606570657207239A4623702672DE
:104C300021000320C0470320B847666065704B46DB
:104C400023702572657221000420C0470420B847F4
:104C500065704B46237025726572282363602100BE
:104C60000520C0470520B847666065704B46237035
:104C70002572657221000620C0470620B84766608D
:104C800065704B4623702572657221000720C0476E
:104C90000720B847666065702572657253462370B9
:104CA00021000820C0470820B84704A88570C570B7
:104CB0000571234B83604575C57485740570467016
:104CC0000675184BC3607823FF3303821D4B98474A
:104CD0000720164B9847164830210322435C1340A7
:104CE000032BFBD1124A117F833B0B431377012324
:104CF000154A137101A94B6000234B700B724B7264
:104D000007330B7000200C4B984700200B4B984743
:104D10000EB01CBC90469946A246F0BD001800405B
:104D200000400041001BB70035490000114B000056
:104D3000001000404D4D0000714D00001D4E000060
:104D4000006CDC02494A000000080040064A536932
:104D500080210B4353610122044B1A7019000B7818
:104D60001342FCD17047C04600080040001C0040C0
:104D700070B504000D784B78002B02D08023DB0047
:104D80001D434B7A002B02D080231B011D43486832
:104D900001280FD9431E184231D102282DD90223F0
:104DA000002201325B009842FBD880235B011D4347
:104DB000120415430B7A002B02D080239B011D4364
:104DC0000426A6401149124A4B6813401E42FBD1EB
:104DD000104B9847A4000D4B9C466444226A8023E4
:104DE0005B001A402A4322626146094A4B6813401D
:104DF0001E42FBD1084B984770BD0022D5E7000446
:104E000080239B0018430543D4E7C046001C0040A4
:104E1000FC07000069480000A948000010B5040024
:104E20000422824009480A4943680B401A42FBD1D8
:104E3000084B9847A400054B9C466444226A802393
:104E40005B0013432362044B984710BD001C0040D5
:104E5000FC07000069480000A9480000F8B50400FC
:104E6000042282401248134943680B401A42FBD186
:104E7000114B98470E4F0834A400E0594007400FEB
:104E80000E4B98470600E559ED04ED0FE459240C4C
:104E90000B4B9847002D07D1012C07D9210030007A
:104EA000084B9847060001E00134E6403000F8BDA9
:104EB000001C0040FC07000069480000D9480000C1
:104EC000A94800006962000010B50400094B98472A
:104ED000A000094B9C4660448022835840210B432C
:104EE00083504031403A43581A42FCD0034B984714
:104EF00010BDC04669480000001C0040A9480000E1
:104F000010B50400094B9847A000094B9C4660442B
:104F10008022835840218B4383504031403A43588C
:104F20001A42FCD1034B984710BDC04669480000A7
:104F3000001C0040A948000070B504000D00054B9E
:104F400098472A780F2313402034A400024AA35024
:104F500070BDC046014F0000001C004010B50400A9
:104F6000064B98472034A400054BE4582407240F2F
:104F7000044B98472000044B984710BD6948000037
:104F8000001C0040A94800005D4E000030B5D378F9
:104F9000002B35D11378802B29D01B068024640286
:104FA000234354780225AC4306D19478002C20D1B9
:104FB0008024A402234341605478013C012C1CD975
:104FC0000D042D0CA024E4052C431C4384620D0C1D
:104FD000D02424062C431C438462D478002C22D194
:104FE0005B031CD59378012B1ED0416117E0002391
:104FF000D7E7C024E4022343DDE70D4C2340DFE77D
:1050000041600C04240CA023DB05234383620C0CB9
:10501000D0231B0623438362D378002B03D153781C
:10502000013B012B02D930BD8161F8E78160FAE7CD
:10503000FFFFFBFF10B50A00C1090023002905D1BD
:105040004309DB018221C9058C4663441F242040AB
:10505000012181401800014B984710BD8D4F000081
:105060007047000010B5054B9847054B9847054B16
:105070009847054B9847054B984710BD854B000056
:1050800065480000615000005D14000061500000A0
:10509000FEE7000010B5174A174B9A4211D01A00CC
:1050A000164B9A420DD2164A03339B1A9B080133C2
:1050B0009B00002210480F498C58845004329A42B9
:1050C000FAD1104A104B9A420AD2D3430E495B18C8
:1050D00003218B4304339B18002102C29342FCD16D
:1050E0000A4AFF210A4B8B4393600A4B98470A4BAD
:1050F0009847FEE794970000000000209C000020E5
:1051000004000020A00000203C27002000ED00E06B
:105110000000000005890000715500000300064AE8
:105120001268002A04D0044A1068C318136070473C
:105130000249014A1160F6E724010020404700209F
:1051400010B501290DD0002906D002290ED0042265
:1051500009490A4B984703E004220949074B98473D
:1051600010BD05220749054B9847F9E70522064976
:10517000024B9847F4E7C04658950000618900004B
:1051800044950000489500005095000010B5002996
:1051900002D0012905D010BD04220449044B9847D0
:1051A000F9E703220349024B9847F4E73C950000D6
:1051B000618900004095000010B5002908D1084B16
:1051C0001B78002B09D003220649074B984710BDD6
:1051D00004220649044B9847F9E70370F7E7C046F5
:1051E000BD1500203895000061890000349500004D
:1051F000F0B585B001900E00002302AAD371CB0058
:105200005B1A9C00E318DA170F241440E4182411E9
:10521000052120000E4B9847C9B202AA052320257C
:1052200005270BE0581F844203D9002E01D01170CE
:1052300000E0157005330132282B03D0A342F1D8CA
:105240001770F7E702A90198024B984705B0F0BD27
:10525000756300003D8B0000F0B585B001900E0035
:10526000124D0024124F09E0BA5D12490198124B09
:1052700098470134E4B20435052C14D02B689A7891
:10528000B242F1D15B78002BEED0052C0BD003A9F4
:105290000A4B0393A400054BE358DB7830338B7043
:1052A0000198074B984705B0F0BDC046D0260020B6
:1052B000AC250020B0940000F98A0000494E20007F
:1052C0003D8B0000C0467047C0467047C0467047DF
:1052D000C0467047C0467047012804D00238434298
:1052E0005841013070470020FCE70000F0B585B060
:1052F00000276B461F739F735F7302A90F7001260F
:105300004E708F7001AD6E70AF702E700C202F4CF0
:10531000A04703A90D20A04703A93620A04703A951
:105320003720A04729001820A04729001C20A047AB
:1053300029002620A04729002520A0472900242055
:10534000A04729002320A04729002220A0472900A8
:105350002120A04729002020A04729003F20A04766
:1053600029002720A04729002820A047290029201C
:10537000A04729001420A047802252048223DB0585
:105380005A616B465F709E70DF701E706946032025
:105390000F4CA0476B461E7069460420A0476B4621
:1053A0001E7069460520A0476B461E7069460620A0
:1053B000A0476B461E7069460720A0476B461E70CB
:1053C00069460220A04705B0F0BDC0467536000012
:1053D0003550000000B583B06846054B9847402320
:1053E0006A46137003490448044B984703B000BD54
:1053F0001123000000540042AC26002025230000A9
:1054000010B582B001A8074B9847074C01AA0021AC
:105410002000064B984700212000054B984702B01A
:1054200010BDC04635240000AC2600203724000003
:105430003924000070B50C000122134B1A700128AA
:1054400021D002281CD1114B1868114B98470378C2
:10545000042B07D02378012B0FD0002B13D101335D
:10546000237010E0094D2868094B9847016928000E
:10547000084B98470023237005E00023237002E0C7
:105480000022014B1A7070BD1C0000203400002067
:105490005D3E00009D430000F0B597B001AD16AE33
:1054A0002800202100240200143203001970013367
:1054B0009342FBD104751530B042F4D10A4B1A78EF
:1054C0000A4B186801A90A4B98470024094F0A4E55
:1054D00021000020B8472800B0470134E4B2153558
:1054E000042CF5D117B0F0BDBD150020340000200C
:1054F000054100007904000015050000F0B5D6460E
:105500004F464646C0B5164D164C174B98460026DA
:10551000164B9A4664277F23994601212800D047DD
:10552000AF602F61AF616F624B46EB61A560434690
:1055300010C3984633000A33A370452363710136C4
:10554000F6B22671E670443B63700F33237030353A
:105550001034052EE1D11CBC90469946A246F0BD00
:10556000BC240020E4260020D026002025070000CF
:10557000F0B5DE4657464E464546E0B5ADB0FA4B6F
:105580009847FA4B984772B6BFF35F8F0022F84BEB
:105590001A70F84B9847F84B9847F84C2000F84B96
:1055A0009847F84B9847F84B9847F84B9847F84B73
:1055B0009847F84B9847F84B9847F848F84B984766
:1055C000F84B9847F84B9847F848F94B9847200014
:1055D000F84B9847F84B98470020F84B98476422BF
:1055E00000230021F64CA047F64A002380185941B9
:1055F000F54A0023F54CA047F54B9847F54B9847E3
:10560000F54B0B935A1CFF32190000230B7001312C
:105610009142FBD10A91F14BC32189005A58FF20D6
:1056200082437F3802435A50C62080001A58120223
:10563000120A1A501A58EA4C14408022D20122430E
:105640001A505A58E74810408022120402435A5018
:105650000122C74B1A70BFF35F8F62B6E24B9847C7
:105660001CAB9B462CAF1D00BC24A400DF4E2000C9
:10567000B04701C5BD42FAD1DD4B984602234246F0
:10568000D370002399460393002402940194D94BCC
:105690000093D94B0422D94911A8D94EB04714AB75
:1056A0006A4623CB23C223CB23C203CB03C2119967
:1056B000129A139BD348D44DA8474B4603930294A8
:1056C0000194D24B9A461B680093CB4B0422D049DD
:1056D00011A8B04714AB6A4683CB83C283CB83C285
:1056E00003CB03C21199129A139BC648A8474B4695
:1056F00003930294019453465B680093BE4B0422CB
:10570000C44911A8B04714AB6A4683CB83C283CB8C
:1057100083C203CB03C21199129A139BB948A847BD
:105720004B4603930294019453469B680093B24BFB
:105730000422B94911A8B04714AB6A4683CB83C28F
:1057400083CB83C203CB03C21199129A139BAD483A
:10575000A8474B460393029401945346DB68009399
:10576000A54B0422AD4911A8B04714AB6A4683CBC0
:1057700083C283CB83C203CB03C21199129A139BBA
:10578000A048A8474B4603930294019453461B69D3
:105790000093994B0422A24911A8B04714AB6A4662
:1057A00083CB83C283CB83C203CB03C21199129AEA
:1057B000139B9448A8479B4B03938323DB059A468E
:1057C00002930194434600938B4B0522964911A8FE
:1057D000B04714AB6A4683CB83C283CB83C203CB6F
:1057E00003C21199129A139B8248A8478D4B0393C9
:1057F0005346029301944346013300937E4B0522A6
:105800008A4911A8B04714AB6A4683CB83C283CBC5
:1058100083C203CB03C21199129A139B7548A84700
:10582000834B03938023DB050293019443460333A8
:105830000093714B07227F4911A8B04714AB6A4609
:1058400083CB83C283CB83C203CB03C21199129A49
:10585000139B6848A847784B984603935346029396
:105860000194764B0093644B0922754911A8B04707
:1058700014AB6A4683CB83C283CB83C203CB03C200
:105880001199129A139B5B48A847434603935346CA
:10589000029301946B4B0093574B09226A4911A85C
:1058A000B04714AB6A4683CB83C283CB83C203CB9E
:1058B00003C21199129A139B4E48A847634B98460E
:1058C0000393FE239B059A4602930194604B009339
:1058D000494B0A225F4911A8B04714AB6A4683CBF3
:1058E00083C283CB83C203CB03C21199129A139B49
:1058F0004048A84743460393534602930194564BAE
:1059000000933D4B0A22554911A8B04714AB6A4693
:1059100083CB83C283CB83C203CB03C21199129A78
:10592000139B3448A8474B46039302940194354B8C
:105930000093314B04224A4911A8B04714AB6A4680
:1059400013CB13C213CB13C203CB03C21199129A08
:10595000139B2848A8471023994600239A46984647
:105960005E464B460993F4E0655000002D0C0000A4
:1059700014000020FD5400001D3C0000E42600201F
:10598000393A0000ED520000D553000001540000E8
:105990004D440000B51C0000C9470000AC260020A3
:1059A000ED23000031050000F1460000BC2400207A
:1059B00041470000453700004D0300005D4E0000E8
:1059C00035640000571B0000581B0000F563000001
:1059D00001000020B5040000AC25002000E100E03B
:1059E000FF00FFFFFFFF00FFE91F00004D890000DF
:1059F00018000020CC120020C09500005C9500002B
:105A0000B1410000DC0F0020AD3D0000200000206F
:105A10006895000074950000809500008C9500004A
:105A200098950000F1510000A4950000B095000089
:105A300041510000BC950000C1220000DA0F002097
:105A4000C4950000BC150020D0950000B95100009D
:105A5000D90F0020D8950000D80F0020E095000055
:105A6000EC9500002A003D490CA83D4B98473D4B62
:105A700003938723DB0502933B4B01935346EB18BB
:105A80003A4A9B1800933A4B08220CA911A8394EA8
:105A9000B047266814AB6A4683CB83C283CB83C2EC
:105AA00003CB03C21199129A139B3000324FB847AF
:105AB0000135099B9D42D5D1230034001E000023EF
:105AC000039300239946029301932C4B0093284B98
:105AD00004222B4911A8274DAB46A84714AB6A46B0
